{
  "address": "0x319f9a2Eb3ECBFB98abcB2B9f3f23822327019e3",
  "abi": [
    {
      "inputs": [
        {
          "internalType": "uint256",
          "name": "_minDelay",
          "type": "uint256"
        },
        {
          "internalType": "address[]",
          "name": "_proposers",
          "type": "address[]"
        },
        {
          "internalType": "address[]",
          "name": "_executors",
          "type": "address[]"
        },
        {
          "internalType": "address",
          "name": "_admin",
          "type": "address"
        },
        {
          "internalType": "address",
          "name": "_registry",
          "type": "address"
        }
      ],
      "stateMutability": "nonpayable",
      "type": "constructor"
    },
    {
      "anonymous": false,
      "inputs": [
        {
          "indexed": true,
          "internalType": "bytes32",
          "name": "id",
          "type": "bytes32"
        },
        {
          "indexed": true,
          "internalType": "uint256",
          "name": "index",
          "type": "uint256"
        },
        {
          "indexed": false,
          "internalType": "address",
          "name": "target",
          "type": "address"
        },
        {
          "indexed": false,
          "internalType": "uint256",
          "name": "value",
          "type": "uint256"
        },
        {
          "indexed": false,
          "internalType": "bytes",
          "name": "data",
          "type": "bytes"
        }
      ],
      "name": "CallExecuted",
      "type": "event"
    },
    {
      "anonymous": false,
      "inputs": [
        {
          "indexed": true,
          "internalType": "bytes32",
          "name": "id",
          "type": "bytes32"
        },
        {
          "indexed": false,
          "internalType": "bytes32",
          "name": "salt",
          "type": "bytes32"
        }
      ],
      "name": "CallSalt",
      "type": "event"
    },
    {
      "anonymous": false,
      "inputs": [
        {
          "indexed": true,
          "internalType": "bytes32",
          "name": "id",
          "type": "bytes32"
        },
        {
          "indexed": true,
          "internalType": "uint256",
          "name": "index",
          "type": "uint256"
        },
        {
          "indexed": false,
          "internalType": "address",
          "name": "target",
          "type": "address"
        },
        {
          "indexed": false,
          "internalType": "uint256",
          "name": "value",
          "type": "uint256"
        },
        {
          "indexed": false,
          "internalType": "bytes",
          "name": "data",
          "type": "bytes"
        },
        {
          "indexed": false,
          "internalType": "bytes32",
          "name": "predecessor",
          "type": "bytes32"
        },
        {
          "indexed": false,
          "internalType": "uint256",
          "name": "delay",
          "type": "uint256"
        }
      ],
      "name": "CallScheduled",
      "type": "event"
    },
    {
      "anonymous": false,
      "inputs": [
        {
          "indexed": true,
          "internalType": "bytes32",
          "name": "id",
          "type": "bytes32"
        }
      ],
      "name": "Cancelled",
      "type": "event"
    },
    {
      "anonymous": false,
      "inputs": [
        {
          "indexed": false,
          "internalType": "uint256",
          "name": "oldDuration",
          "type": "uint256"
        },
        {
          "indexed": false,
          "internalType": "uint256",
          "name": "newDuration",
          "type": "uint256"
        }
      ],
      "name": "MinDelayChange",
      "type": "event"
    },
    {
      "anonymous": false,
      "inputs": [
        {
          "indexed": false,
          "internalType": "address",
          "name": "account",
          "type": "address"
        }
      ],
      "name": "Paused",
      "type": "event"
    },
    {
      "anonymous": false,
      "inputs": [
        {
          "indexed": true,
          "internalType": "bytes32",
          "name": "role",
          "type": "bytes32"
        },
        {
          "indexed": true,
          "internalType": "bytes32",
          "name": "previousAdminRole",
          "type": "bytes32"
        },
        {
          "indexed": true,
          "internalType": "bytes32",
          "name": "newAdminRole",
          "type": "bytes32"
        }
      ],
      "name": "RoleAdminChanged",
      "type": "event"
    },
    {
      "anonymous": false,
      "inputs": [
        {
          "indexed": true,
          "internalType": "bytes32",
          "name": "role",
          "type": "bytes32"
        },
        {
          "indexed": true,
          "internalType": "address",
          "name": "account",
          "type": "address"
        },
        {
          "indexed": true,
          "internalType": "address",
          "name": "sender",
          "type": "address"
        }
      ],
      "name": "RoleGranted",
      "type": "event"
    },
    {
      "anonymous": false,
      "inputs": [
        {
          "indexed": true,
          "internalType": "bytes32",
          "name": "role",
          "type": "bytes32"
        },
        {
          "indexed": true,
          "internalType": "address",
          "name": "account",
          "type": "address"
        },
        {
          "indexed": true,
          "internalType": "address",
          "name": "sender",
          "type": "address"
        }
      ],
      "name": "RoleRevoked",
      "type": "event"
    },
    {
      "anonymous": false,
      "inputs": [
        {
          "indexed": false,
          "internalType": "address",
          "name": "account",
          "type": "address"
        }
      ],
      "name": "Unpaused",
      "type": "event"
    },
    {
      "inputs": [],
      "name": "CANCELLER_ROLE",
      "outputs": [
        {
          "internalType": "bytes32",
          "name": "",
          "type": "bytes32"
        }
      ],
      "stateMutability": "view",
      "type": "function"
    },
    {
      "inputs": [],
      "name": "DEFAULT_ADMIN_ROLE",
      "outputs": [
        {
          "internalType": "bytes32",
          "name": "",
          "type": "bytes32"
        }
      ],
      "stateMutability": "view",
      "type": "function"
    },
    {
      "inputs": [],
      "name": "EXECUTOR_ROLE",
      "outputs": [
        {
          "internalType": "bytes32",
          "name": "",
          "type": "bytes32"
        }
      ],
      "stateMutability": "view",
      "type": "function"
    },
    {
      "inputs": [],
      "name": "PROPOSER_ROLE",
      "outputs": [
        {
          "internalType": "bytes32",
          "name": "",
          "type": "bytes32"
        }
      ],
      "stateMutability": "view",
      "type": "function"
    },
    {
      "inputs": [],
      "name": "TIMELOCK_ADMIN_ROLE",
      "outputs": [
        {
          "internalType": "bytes32",
          "name": "",
          "type": "bytes32"
        }
      ],
      "stateMutability": "view",
      "type": "function"
    },
    {
      "inputs": [
        {
          "internalType": "bytes32",
          "name": "id",
          "type": "bytes32"
        }
      ],
      "name": "cancel",
      "outputs": [],
      "stateMutability": "nonpayable",
      "type": "function"
    },
    {
      "inputs": [
        {
          "internalType": "address",
          "name": "target",
          "type": "address"
        },
        {
          "internalType": "uint256",
          "name": "value",
          "type": "uint256"
        },
        {
          "internalType": "bytes",
          "name": "payload",
          "type": "bytes"
        },
        {
          "internalType": "bytes32",
          "name": "predecessor",
          "type": "bytes32"
        },
        {
          "internalType": "bytes32",
          "name": "salt",
          "type": "bytes32"
        }
      ],
      "name": "execute",
      "outputs": [],
      "stateMutability": "payable",
      "type": "function"
    },
    {
      "inputs": [
        {
          "internalType": "address[]",
          "name": "targets",
          "type": "address[]"
        },
        {
          "internalType": "uint256[]",
          "name": "values",
          "type": "uint256[]"
        },
        {
          "internalType": "bytes[]",
          "name": "payloads",
          "type": "bytes[]"
        },
        {
          "internalType": "bytes32",
          "name": "predecessor",
          "type": "bytes32"
        },
        {
          "internalType": "bytes32",
          "name": "salt",
          "type": "bytes32"
        }
      ],
      "name": "executeBatch",
      "outputs": [],
      "stateMutability": "payable",
      "type": "function"
    },
    {
      "inputs": [],
      "name": "getMinDelay",
      "outputs": [
        {
          "internalType": "uint256",
          "name": "",
          "type": "uint256"
        }
      ],
      "stateMutability": "view",
      "type": "function"
    },
    {
      "inputs": [
        {
          "internalType": "bytes32",
          "name": "role",
          "type": "bytes32"
        }
      ],
      "name": "getRoleAdmin",
      "outputs": [
        {
          "internalType": "bytes32",
          "name": "",
          "type": "bytes32"
        }
      ],
      "stateMutability": "view",
      "type": "function"
    },
    {
      "inputs": [
        {
          "internalType": "bytes32",
          "name": "id",
          "type": "bytes32"
        }
      ],
      "name": "getTimestamp",
      "outputs": [
        {
          "internalType": "uint256",
          "name": "",
          "type": "uint256"
        }
      ],
      "stateMutability": "view",
      "type": "function"
    },
    {
      "inputs": [
        {
          "internalType": "bytes32",
          "name": "role",
          "type": "bytes32"
        },
        {
          "internalType": "address",
          "name": "account",
          "type": "address"
        }
      ],
      "name": "grantRole",
      "outputs": [],
      "stateMutability": "nonpayable",
      "type": "function"
    },
    {
      "inputs": [
        {
          "internalType": "bytes32",
          "name": "role",
          "type": "bytes32"
        },
        {
          "internalType": "address",
          "name": "account",
          "type": "address"
        }
      ],
      "name": "hasRole",
      "outputs": [
        {
          "internalType": "bool",
          "name": "",
          "type": "bool"
        }
      ],
      "stateMutability": "view",
      "type": "function"
    },
    {
      "inputs": [
        {
          "internalType": "address",
          "name": "target",
          "type": "address"
        },
        {
          "internalType": "uint256",
          "name": "value",
          "type": "uint256"
        },
        {
          "internalType": "bytes",
          "name": "data",
          "type": "bytes"
        },
        {
          "internalType": "bytes32",
          "name": "predecessor",
          "type": "bytes32"
        },
        {
          "internalType": "bytes32",
          "name": "salt",
          "type": "bytes32"
        }
      ],
      "name": "hashOperation",
      "outputs": [
        {
          "internalType": "bytes32",
          "name": "",
          "type": "bytes32"
        }
      ],
      "stateMutability": "pure",
      "type": "function"
    },
    {
      "inputs": [
        {
          "internalType": "address[]",
          "name": "targets",
          "type": "address[]"
        },
        {
          "internalType": "uint256[]",
          "name": "values",
          "type": "uint256[]"
        },
        {
          "internalType": "bytes[]",
          "name": "payloads",
          "type": "bytes[]"
        },
        {
          "internalType": "bytes32",
          "name": "predecessor",
          "type": "bytes32"
        },
        {
          "internalType": "bytes32",
          "name": "salt",
          "type": "bytes32"
        }
      ],
      "name": "hashOperationBatch",
      "outputs": [
        {
          "internalType": "bytes32",
          "name": "",
          "type": "bytes32"
        }
      ],
      "stateMutability": "pure",
      "type": "function"
    },
    {
      "inputs": [
        {
          "internalType": "bytes32",
          "name": "id",
          "type": "bytes32"
        }
      ],
      "name": "isOperation",
      "outputs": [
        {
          "internalType": "bool",
          "name": "",
          "type": "bool"
        }
      ],
      "stateMutability": "view",
      "type": "function"
    },
    {
      "inputs": [
        {
          "internalType": "bytes32",
          "name": "id",
          "type": "bytes32"
        }
      ],
      "name": "isOperationDone",
      "outputs": [
        {
          "internalType": "bool",
          "name": "",
          "type": "bool"
        }
      ],
      "stateMutability": "view",
      "type": "function"
    },
    {
      "inputs": [
        {
          "internalType": "bytes32",
          "name": "id",
          "type": "bytes32"
        }
      ],
      "name": "isOperationPending",
      "outputs": [
        {
          "internalType": "bool",
          "name": "",
          "type": "bool"
        }
      ],
      "stateMutability": "view",
      "type": "function"
    },
    {
      "inputs": [
        {
          "internalType": "bytes32",
          "name": "id",
          "type": "bytes32"
        }
      ],
      "name": "isOperationReady",
      "outputs": [
        {
          "internalType": "bool",
          "name": "",
          "type": "bool"
        }
      ],
      "stateMutability": "view",
      "type": "function"
    },
    {
      "inputs": [
        {
          "internalType": "address",
          "name": "",
          "type": "address"
        },
        {
          "internalType": "address",
          "name": "",
          "type": "address"
        },
        {
          "internalType": "uint256[]",
          "name": "",
          "type": "uint256[]"
        },
        {
          "internalType": "uint256[]",
          "name": "",
          "type": "uint256[]"
        },
        {
          "internalType": "bytes",
          "name": "",
          "type": "bytes"
        }
      ],
      "name": "onERC1155BatchReceived",
      "outputs": [
        {
          "internalType": "bytes4",
          "name": "",
          "type": "bytes4"
        }
      ],
      "stateMutability": "nonpayable",
      "type": "function"
    },
    {
      "inputs": [
        {
          "internalType": "address",
          "name": "",
          "type": "address"
        },
        {
          "internalType": "address",
          "name": "",
          "type": "address"
        },
        {
          "internalType": "uint256",
          "name": "",
          "type": "uint256"
        },
        {
          "internalType": "uint256",
          "name": "",
          "type": "uint256"
        },
        {
          "internalType": "bytes",
          "name": "",
          "type": "bytes"
        }
      ],
      "name": "onERC1155Received",
      "outputs": [
        {
          "internalType": "bytes4",
          "name": "",
          "type": "bytes4"
        }
      ],
      "stateMutability": "nonpayable",
      "type": "function"
    },
    {
      "inputs": [
        {
          "internalType": "address",
          "name": "",
          "type": "address"
        },
        {
          "internalType": "address",
          "name": "",
          "type": "address"
        },
        {
          "internalType": "uint256",
          "name": "",
          "type": "uint256"
        },
        {
          "internalType": "bytes",
          "name": "",
          "type": "bytes"
        }
      ],
      "name": "onERC721Received",
      "outputs": [
        {
          "internalType": "bytes4",
          "name": "",
          "type": "bytes4"
        }
      ],
      "stateMutability": "nonpayable",
      "type": "function"
    },
    {
      "inputs": [],
      "name": "pause",
      "outputs": [],
      "stateMutability": "nonpayable",
      "type": "function"
    },
    {
      "inputs": [],
      "name": "paused",
      "outputs": [
        {
          "internalType": "bool",
          "name": "",
          "type": "bool"
        }
      ],
      "stateMutability": "view",
      "type": "function"
    },
    {
      "inputs": [],
      "name": "registry",
      "outputs": [
        {
          "internalType": "address",
          "name": "",
          "type": "address"
        }
      ],
      "stateMutability": "view",
      "type": "function"
    },
    {
      "inputs": [
        {
          "internalType": "bytes32",
          "name": "role",
          "type": "bytes32"
        },
        {
          "internalType": "address",
          "name": "account",
          "type": "address"
        }
      ],
      "name": "renounceRole",
      "outputs": [],
      "stateMutability": "nonpayable",
      "type": "function"
    },
    {
      "inputs": [
        {
          "internalType": "bytes32",
          "name": "role",
          "type": "bytes32"
        },
        {
          "internalType": "address",
          "name": "account",
          "type": "address"
        }
      ],
      "name": "revokeRole",
      "outputs": [],
      "stateMutability": "nonpayable",
      "type": "function"
    },
    {
      "inputs": [
        {
          "internalType": "address",
          "name": "target",
          "type": "address"
        },
        {
          "internalType": "uint256",
          "name": "value",
          "type": "uint256"
        },
        {
          "internalType": "bytes",
          "name": "data",
          "type": "bytes"
        },
        {
          "internalType": "bytes32",
          "name": "predecessor",
          "type": "bytes32"
        },
        {
          "internalType": "bytes32",
          "name": "salt",
          "type": "bytes32"
        },
        {
          "internalType": "uint256",
          "name": "delay",
          "type": "uint256"
        }
      ],
      "name": "schedule",
      "outputs": [],
      "stateMutability": "nonpayable",
      "type": "function"
    },
    {
      "inputs": [
        {
          "internalType": "address[]",
          "name": "targets",
          "type": "address[]"
        },
        {
          "internalType": "uint256[]",
          "name": "values",
          "type": "uint256[]"
        },
        {
          "internalType": "bytes[]",
          "name": "payloads",
          "type": "bytes[]"
        },
        {
          "internalType": "bytes32",
          "name": "predecessor",
          "type": "bytes32"
        },
        {
          "internalType": "bytes32",
          "name": "salt",
          "type": "bytes32"
        },
        {
          "internalType": "uint256",
          "name": "delay",
          "type": "uint256"
        }
      ],
      "name": "scheduleBatch",
      "outputs": [],
      "stateMutability": "nonpayable",
      "type": "function"
    },
    {
      "inputs": [
        {
          "internalType": "bytes4",
          "name": "interfaceId",
          "type": "bytes4"
        }
      ],
      "name": "supportsInterface",
      "outputs": [
        {
          "internalType": "bool",
          "name": "",
          "type": "bool"
        }
      ],
      "stateMutability": "view",
      "type": "function"
    },
    {
      "inputs": [],
      "name": "unpause",
      "outputs": [],
      "stateMutability": "nonpayable",
      "type": "function"
    },
    {
      "inputs": [
        {
          "internalType": "uint256",
          "name": "",
          "type": "uint256"
        }
      ],
      "name": "updateDelay",
      "outputs": [],
      "stateMutability": "pure",
      "type": "function"
    },
    {
      "stateMutability": "payable",
      "type": "receive"
    }
  ],
  "transactionHash": "0xcce9b26aca06fa32a4edc44652b71080c479ef01a393343f3122cdd194955c11",
  "args": [
    "172800",
    [
      "0xfCf221bB750549e8E57B4FE530CCb9c28642516c"
    ],
    [
      "0xfCf221bB750549e8E57B4FE530CCb9c28642516c"
    ],
    "0xC110b6e93a51ACF1f3DEd19c754789E7A2304F07",
    "0x4FFa6c545a6249baF2D66ce21CeF3D2C2cCa69D0"
  ],
  "numDeployments": 1,
  "solcInputHash": "d3fdc0212b557b60d8931ff12ea439d3",
  "bytecode": "0x60a0806040523461061f57612745803803809161001c8285610624565b8339810160a08282031261061f57815160208301519091906001600160401b03811161061f578161004e918501610671565b604084015190916001600160401b03821161061f5761006e918501610671565b9161008760806100806060870161065d565b950161065d565b6000805160206126a5833981519152600081815260208190527f64494413541ff93b31aa309254e3fed72a7456e9845988b915b4c7a7ceba88148054908390559296929082906000805160206126458339815191529080a46000805160206126e5833981519152600081815260208190527f3412d5605ac6cd444957cedb533e5dacad6378b4bc819ebe3652188a665066d680546000805160206126a583398151915291829055909290916000805160206126458339815191529080a4600080516020612705833981519152600081815260208190527fdae2aa361dfd1ca020a396615627d436107c35eff9fe7738a3512819782d706a80546000805160206126a583398151915291829055909290916000805160206126458339815191529080a4600080516020612725833981519152600081815260208190527fc3ad33e20b0c56a223ad5104fff154aa010f8715b9c981fd38fdc60a4d1a52fc80546000805160206126a583398151915291829055909290916000805160206126458339815191529080a43060009081526000805160206126c5833981519152602052604090205460ff16156105ce575b6001600160a01b03168061055a575b5060005b8251811015610393576001906001600160a01b0361026582866106e0565b511660a083901b83900381166000908152600080516020612625833981519152602052604090205460ff1615610339575b50818060a01b036102a782866106e0565b511660a083901b83900381166000908152600080516020612685833981519152602052604090205460ff16156102df575b5001610247565b60a083901b8390038116600090815260008051602061268583398151915260205260408120805460ff191685179055339190600080516020612725833981519152906000805160206126058339815191529080a4386102d8565b60a083901b8390038116600090815260008051602061262583398151915260205260408120805460ff1916851790553391906000805160206126e5833981519152906000805160206126058339815191529080a438610296565b84828560005b8151811015610449576001906001600160a01b036103b782856106e0565b511660a083901b83900381166000908152600080516020612665833981519152602052604090205460ff16156103ef575b5001610399565b60a083901b8390038116600090815260008051602061266583398151915260205260408120805460ff191685179055339190600080516020612705833981519152906000805160206126058339815191529080a4856103e8565b837f11c24f4ead16507c69ac467fbd5e4eed5fb5c699626d2cc6d66421df253886d560408580600255815190600082526020820152a16003805460ff191690556040516301ffc9a760e01b8152637965db0b60e01b60048201526020816024816001600160a01b0386165afa90811561054e5760009161050c575b50156104fa57608052604051611efa908161070b82396080518181816103f901528181610a8e01528181610b740152610c720152f35b60405163044aa57560e41b8152600490fd5b6020813d602011610546575b8161052560209383610624565b81010312610542575190811515820361053f5750826104c4565b80fd5b5080fd5b3d9150610518565b6040513d6000823e3d90fd5b60008181526000805160206126c5833981519152602052604090205460ff166102435760008181526000805160206126c583398151915260205260408120805460ff191660011790553391906000805160206126a5833981519152906000805160206126058339815191529080a438610243565b3060008181526000805160206126c583398151915260205260408120805460ff191660011790553391906000805160206126a5833981519152906000805160206126058339815191529080a4610234565b600080fd5b601f909101601f19168101906001600160401b0382119082101761064757604052565b634e487b7160e01b600052604160045260246000fd5b51906001600160a01b038216820361061f57565b9080601f8301121561061f578151916001600160401b038311610647578260051b90604051936106a46020840186610624565b845260208085019282010192831161061f57602001905b8282106106c85750505090565b602080916106d58461065d565b8152019101906106bb565b80518210156106f45760209160051b010190565b634e487b7160e01b600052603260045260246000fdfe6080604052600436101561001b575b361561001957600080fd5b005b60003560e01c806301d5062a1461113457806301ffc9a7146110c457806307bd0265146110895780630d3cf6fc1461104e578063134008d314610f9257806313bc9f2014610f74578063150b7a0214610f1f578063248a9ca314610ef25780632ab0f52914610ec55780632f2ff15d14610e0957806331d5075014610ddd57806336568abe14610d4b5780633f4ba83a14610c20578063584b153e14610be95780635c975abb14610bc657806364d6235314610ba35780637b10399914610b5e5780638065657f14610b3f5780638456cb5914610a3c5780638f2a0bb0146108c95780638f61f4f51461088e57806391d1485414610841578063a217fddf14610825578063b08e51c0146107fc578063b1c5f427146107d2578063bc197c811461073d578063c4d252f5146103a2578063d45c443514610376578063d547741f1461032f578063e38335e5146101f8578063f23a6e61146101a35763f27a0c920361000e573461019e57600036600319011261019e576020600254604051908152f35b600080fd5b3461019e5760a036600319011261019e576101bc6111e8565b506101c56111fe565b506084356001600160401b03811161019e576101e59036906004016112e1565b5060405163f23a6e6160e01b8152602090f35b61029461028d61020736611358565b610218999299989198969396611633565b600080527fdae2aa361dfd1ca020a396615627d436107c35eff9fe7738a3512819782d70696020527f5ba6852781629bcdcd4bdaa6de76d786f1c64b16acdac474e55bebc0ea1579515460ff1615610321575b610276858514611758565b6102818a8514611758565b888a888789888d6114df565b9687611b24565b60005b8181106102a75761001987611c69565b8080887fc2617efa69bab66782fa219543714338489c4e9e178271560a91b82c3f612b5888886103186102ff8f986001998f828e6102f28f836102ed916102f8966117b0565b6117d6565b976117b0565b35956117ea565b9061030c82828787611bba565b604051948594856116af565b0390a301610297565b61032a336119e1565b61026b565b3461019e57604036600319011261019e5761001960043561034e6111fe565b9061037161036a82600052600060205260016040600020015490565b3390611a6e565b6116d6565b3461019e57602036600319011261019e5760043560005260016020526020604060002054604051908152f35b3461019e57602036600319011261019e57604051632474521560e21b81527f33c8cf2b4c3507067cccdaffa7fb5d7b51bd52e3540f05237106f5fda5ee2cee600482810191909152336024830152356020826044817f00000000000000000000000000000000000000000000000000000000000000006001600160a01b03165afa91821561073157600092610700575b508161067a575b336000908152600080516020611e85833981519152602052604090205460ff16156105975761047681600052600160205260016040600020541190565b1561053857806000526001602052600060408120557fbaa1eb22f2a492ba1a5fea61b8df4d27c6c8b5f3971e63bb58fa14ff72eedb70600080a26104b657005b336000908152600080516020611e85833981519152602052604090205460ff166104dc57005b336000818152600080516020611e8583398151915260205260408120805460ff191690558190600080516020611ea5833981519152907ff6391f5c32d9c69d2a47ea670b442974b53935d1edc7fd64eb21e047a839171b9080a4005b60405162461bcd60e51b815260206004820152603160248201527f54696d656c6f636b436f6e74726f6c6c65723a206f7065726174696f6e2063616044820152701b9b9bdd0818994818d85b98d95b1b1959607a1b6064820152608490fd5b61066c604460376105a733611c98565b61064460116105c3600080516020611ea5833981519152611dd8565b60405194859160208301957f416363657373436f6e74726f6c3a206163636f756e742000000000000000000087526106048151809260208688019101611931565b83017001034b99036b4b9b9b4b733903937b6329607d1b83820152610633825180936020604885019101611931565b01010301601f19810184528361128f565b60405193849262461bcd60e51b84526020600485015251809281602486015285850190611931565b601f01601f19168101030190fd5b336000908152600080516020611e85833981519152602052604090205460ff1661043957336000818152600080516020611e8583398151915260205260408120805460ff191660011790558190600080516020611ea5833981519152907f2f8788117e7eff1d82e926ec794901d17c78024a50270940304540a733656f0d9080a4610439565b61072391925060203d60201161072a575b61071b818361128f565b810190611451565b9082610432565b503d610711565b6040513d6000823e3d90fd5b3461019e5760a036600319011261019e576107566111e8565b5061075f6111fe565b506044356001600160401b03811161019e5761077f9036906004016113c6565b506064356001600160401b03811161019e5761079f9036906004016113c6565b506084356001600160401b03811161019e576107bf9036906004016112e1565b5060405163bc197c8160e01b8152602090f35b3461019e5760206107f46107e536611358565b969590959491949392936114df565b604051908152f35b3461019e57600036600319011261019e576020604051600080516020611ea58339815191528152f35b3461019e57600036600319011261019e57602060405160008152f35b3461019e57604036600319011261019e5761085a6111fe565b600435600052600060205260406000209060018060a01b0316600052602052602060ff604060002054166040519015158152f35b3461019e57600036600319011261019e5760206040517fb09aa5aeb3702cfd50b6b62bc4532604938f21248a27a1d5ca736082b6819cc18152f35b3461019e5760c036600319011261019e576004356001600160401b03811161019e576108f9903690600401611328565b906024356001600160401b03811161019e57610919903690600401611328565b6044929192356001600160401b03811161019e578261093d85923690600401611328565b6064949194359161098289848489856084359d8e9560a4359b61095e611633565b61096733611954565b610972848314611758565b61097d868314611758565b6114df565b9861098d858b61182b565b8960005b8281106109ce575089806109a157005b60207f20fda5fd27a1ea7bf5b9567f143ac5470bb059374a27e8f67cb44f946f6d038791604051908152a2005b806001927f4cf4410cc57040e44862ef0f45f3dd5a5e02db8eb8add648d4b0e236f1d07dca8b8b610a318f8c610a248f928e610a1d8f8f90610a176102ed8f80979481956117b0565b996117b0565b35976117ea565b9060405196879687611677565b0390a3018a90610991565b3461019e57600036600319011261019e57604051632474521560e21b81527f33c8cf2b4c3507067cccdaffa7fb5d7b51bd52e3540f05237106f5fda5ee2cee60048201523360248201526020816044817f00000000000000000000000000000000000000000000000000000000000000006001600160a01b03165afa90811561073157600091610b20575b5015610b0e57610ad5611633565b600160ff1960035416176003557f62e78cea01bee320cd4e420270b5ea74000d11b0c9f74754ebdbfc544b05a2586020604051338152a1005b60405163036be76f60e61b8152600490fd5b610b39915060203d60201161072a5761071b818361128f565b81610ac7565b3461019e5760206107f4610b5236611241565b9493909392919261148a565b3461019e57600036600319011261019e576040517f00000000000000000000000000000000000000000000000000000000000000006001600160a01b03168152602090f35b3461019e57602036600319011261019e57604051638b8b98d760e01b8152600490fd5b3461019e57600036600319011261019e57602060ff600354166040519015158152f35b3461019e57602036600319011261019e576020610c16600435600052600160205260016040600020541190565b6040519015158152f35b3461019e57600036600319011261019e57604051632474521560e21b81527f33c8cf2b4c3507067cccdaffa7fb5d7b51bd52e3540f05237106f5fda5ee2cee60048201523360248201526020816044817f00000000000000000000000000000000000000000000000000000000000000006001600160a01b03165afa90811561073157600091610d2c575b5015610b0e5760035460ff811615610cf05760ff19166003557f5db9ee0a495bf2e6ff9c91a7834c1ba4fdd244a5e8aa4e537bd38aeae4b073aa6020604051338152a1005b60405162461bcd60e51b815260206004820152601460248201527314185d5cd8589b194e881b9bdd081c185d5cd95960621b6044820152606490fd5b610d45915060203d60201161072a5761071b818361128f565b81610cab565b3461019e57604036600319011261019e57610d646111fe565b336001600160a01b03821603610d8057610019906004356116d6565b60405162461bcd60e51b815260206004820152602f60248201527f416363657373436f6e74726f6c3a2063616e206f6e6c792072656e6f756e636560448201526e103937b632b9903337b91039b2b63360891b6064820152608490fd5b3461019e57602036600319011261019e576020610c166004356000526001602052604060002054151590565b3461019e57604036600319011261019e57600435610e256111fe565b90610e4161036a82600052600060205260016040600020015490565b6000818152602081815260408083206001600160a01b038616845290915290205460ff1615610e6c57005b6000818152602081815260408083206001600160a01b0395909516808452949091528120805460ff19166001179055339291907f2f8788117e7eff1d82e926ec794901d17c78024a50270940304540a733656f0d9080a4005b3461019e57602036600319011261019e576020610c16600435600052600160205260016040600020541490565b3461019e57602036600319011261019e5760206107f4600435600052600060205260016040600020015490565b3461019e57608036600319011261019e57610f386111e8565b50610f416111fe565b506064356001600160401b03811161019e57610f619036906004016112e1565b50604051630a85bd0160e11b8152602090f35b3461019e57602036600319011261019e576020610c1660043561142d565b61001961102c60006110387fc2617efa69bab66782fa219543714338489c4e9e178271560a91b82c3f612b58611023610fca36611241565b610fda9894969198939293611633565b7fd8aa0f3194971a2a116679f7c2090f6939c8d4e01a2a8d7e41d55e5351469e638a528960205260408a208a805260205260ff60408b20541615611040575b888484898961148a565b98899788611b24565b61030c82828787611bba565b0390a3611c69565b611049336119e1565b611019565b3461019e57600036600319011261019e5760206040517f5f58e3a2316349923ce3780f8d587db2d72378aed66a8261c916544fa6846ca58152f35b3461019e57600036600319011261019e5760206040517fd8aa0f3194971a2a116679f7c2090f6939c8d4e01a2a8d7e41d55e5351469e638152f35b3461019e57602036600319011261019e5760043563ffffffff60e01b811680910361019e57602090630271189760e51b8114908115611109575b506040519015158152f35b637965db0b60e01b811491508115611123575b50826110fe565b6301ffc9a760e01b1490508261111c565b3461019e5760c036600319011261019e5761114d6111e8565b602435906044356001600160401b03811161019e577f4cf4410cc57040e44862ef0f45f3dd5a5e02db8eb8add648d4b0e236f1d07dca926111946000923690600401611214565b949091606435946111de6084359660a435906111ae611633565b6111b733611954565b6111c589828c8a898961148a565b998a976111d2848a61182b565b60405196879687611677565b0390a3806109a157005b600435906001600160a01b038216820361019e57565b602435906001600160a01b038216820361019e57565b9181601f8401121561019e578235916001600160401b03831161019e576020838186019501011161019e57565b60a060031982011261019e576004356001600160a01b038116810361019e579160243591604435906001600160401b03821161019e5761128391600401611214565b90916064359060843590565b90601f801991011681019081106001600160401b038211176112b057604052565b634e487b7160e01b600052604160045260246000fd5b6001600160401b0381116112b057601f01601f191660200190565b81601f8201121561019e578035906112f8826112c6565b92611306604051948561128f565b8284526020838301011161019e57816000926020809301838601378301015290565b9181601f8401121561019e578235916001600160401b03831161019e576020808501948460051b01011161019e57565b60a060031982011261019e576004356001600160401b03811161019e578161138291600401611328565b929092916024356001600160401b03811161019e57816113a491600401611328565b92909291604435906001600160401b03821161019e5761128391600401611328565b9080601f8301121561019e578135916001600160401b0383116112b0578260051b90604051936113f9602084018661128f565b845260208085019282010192831161019e57602001905b82821061141d5750505090565b8135815260209182019101611410565b6000526001602052604060002054600181119081611449575090565b905042101590565b9081602091031261019e5751801515810361019e5790565b908060209392818452848401376000828201840152601f01601f1916010190565b946114c06114d994959293604051968795602087019960018060a01b03168a52604087015260a0606087015260c0860191611469565b91608084015260a083015203601f19810183528261128f565b51902090565b9693949190969592956040519660208801988060c08a0160a08c525260e0890192906000905b8082106115fd57505050878203601f190160408901528082526001600160fb1b03811161019e579087959394929160051b8092602083013701848103606086015260208101849052600584901b810160409081019490820191600090889036829003601e1901905b848410611597575050505050506114d99450608084015260a083015203601f19810183528261128f565b91939597909294969850601f19601f198383030101875289358381121561019e57840190602082359201916001600160401b03811161019e57803603831361019e576115e96020928392600195611469565b9b0197019401918a9896999795939161156d565b91939091908435906001600160a01b038216820361019e576001600160a01b039091168152602090810194019160010190611505565b60ff6003541661163f57565b60405162461bcd60e51b815260206004820152601060248201526f14185d5cd8589b194e881c185d5cd95960821b6044820152606490fd5b9290936116a5926080959897969860018060a01b03168552602085015260a0604085015260a0840191611469565b9460608201520152565b6116d3949260609260018060a01b0316825260208201528160408201520191611469565b90565b6000818152602081815260408083206001600160a01b038616845290915290205460ff16611702575050565b6000818152602081815260408083206001600160a01b0395909516808452949091528120805460ff19169055339291907ff6391f5c32d9c69d2a47ea670b442974b53935d1edc7fd64eb21e047a839171b9080a4565b1561175f57565b60405162461bcd60e51b815260206004820152602360248201527f54696d656c6f636b436f6e74726f6c6c65723a206c656e677468206d69736d616044820152620e8c6d60eb1b6064820152608490fd5b91908110156117c05760051b0190565b634e487b7160e01b600052603260045260246000fd5b356001600160a01b038116810361019e5790565b91908110156117c05760051b81013590601e198136030182121561019e5701908135916001600160401b03831161019e57602001823603811361019e579190565b90611843826000526001602052604060002054151590565b6118d45760025481106118805742019081421161186a576000526001602052604060002055565b634e487b7160e01b600052601160045260246000fd5b60405162461bcd60e51b815260206004820152602660248201527f54696d656c6f636b436f6e74726f6c6c65723a20696e73756666696369656e746044820152652064656c617960d01b6064820152608490fd5b60405162461bcd60e51b815260206004820152602f60248201527f54696d656c6f636b436f6e74726f6c6c65723a206f7065726174696f6e20616c60448201526e1c9958591e481cd8da19591d5b1959608a1b6064820152608490fd5b60005b8381106119445750506000910152565b8181015183820152602001611934565b6001600160a01b03811660009081527f3412d5605ac6cd444957cedb533e5dacad6378b4bc819ebe3652188a665066d5602052604090205460ff16156119975750565b61066c906044906037906119b3906001600160a01b0316611c98565b61064460116105c37fb09aa5aeb3702cfd50b6b62bc4532604938f21248a27a1d5ca736082b6819cc1611dd8565b6001600160a01b03811660009081527fdae2aa361dfd1ca020a396615627d436107c35eff9fe7738a3512819782d7069602052604090205460ff1615611a245750565b61066c90604490603790611a40906001600160a01b0316611c98565b61064460116105c37fd8aa0f3194971a2a116679f7c2090f6939c8d4e01a2a8d7e41d55e5351469e63611dd8565b90816000526000602052604060002060018060a01b03821660005260205260ff6040600020541615611a9e575050565b603761066c9261064460116105c3611abf60449660018060a01b0316611c98565b93611dd8565b15611acc57565b60405162461bcd60e51b815260206004820152602a60248201527f54696d656c6f636b436f6e74726f6c6c65723a206f7065726174696f6e206973604482015269206e6f7420726561647960b01b6064820152608490fd5b611b30611b359161142d565b611ac5565b8015908115611b9b575b5015611b4757565b60405162461bcd60e51b815260206004820152602660248201527f54696d656c6f636b436f6e74726f6c6c65723a206d697373696e6720646570656044820152656e64656e637960d01b6064820152608490fd5b611bb49150600052600160205260016040600020541490565b38611b3f565b90926000938493826040519384928337810185815203925af13d15611c64573d611be3816112c6565b90611bf1604051928361128f565b8152600060203d92013e5b15611c0357565b60405162461bcd60e51b815260206004820152603360248201527f54696d656c6f636b436f6e74726f6c6c65723a20756e6465726c79696e6720746044820152721c985b9cd858dd1a5bdb881c995d995c9d1959606a1b6064820152608490fd5b611bfc565b611c75611b308261142d565b60005260016020526001604060002055565b9081518110156117c0570160200190565b600090611ca5602a6112c6565b91611cb3604051938461128f565b602a8352611cc1602a6112c6565b6020840190601f1901368237835115611dc45760309053825160011015611db0576078602184015350602960005b60018211611d44575050611d005790565b606460405162461bcd60e51b815260206004820152602060248201527f537472696e67733a20686578206c656e67746820696e73756666696369656e746044820152fd5b9091600f81166010811015611d9c576f181899199a1a9b1b9c1cb0b131b232b360811b901a611d738486611c87565b5360041c918015611d88576000190190611cef565b634e487b7160e01b82526011600452602482fd5b634e487b7160e01b83526032600452602483fd5b634e487b7160e01b81526032600452602490fd5b634e487b7160e01b82526032600452602482fd5b600090611de560426112c6565b91611df3604051938461128f565b60428352611e0160426112c6565b6020840190601f1901368237835115611dc45760309053825160011015611db0576078602184015350604160005b60018211611e40575050611d005790565b9091600f81166010811015611d9c576f181899199a1a9b1b9c1cb0b131b232b360811b901a611e6f8486611c87565b5360041c918015611d88576000190190611e2f56fec3ad33e20b0c56a223ad5104fff154aa010f8715b9c981fd38fdc60a4d1a52fbfd643c72710c63c0180259aba6b2d05451e3591a24e58b62239378085726f783a264697066735822122097e8359c59d6c552da5178d5df8baa78a7d6728a80812a816de8b2622c5efade64736f6c634300081a00332f8788117e7eff1d82e926ec794901d17c78024a50270940304540a733656f0d3412d5605ac6cd444957cedb533e5dacad6378b4bc819ebe3652188a665066d5bd79b86ffe0ab8e8776151514217cd7cacd52c909f66475c3af44e129f0b00ffdae2aa361dfd1ca020a396615627d436107c35eff9fe7738a3512819782d7069c3ad33e20b0c56a223ad5104fff154aa010f8715b9c981fd38fdc60a4d1a52fb5f58e3a2316349923ce3780f8d587db2d72378aed66a8261c916544fa6846ca564494413541ff93b31aa309254e3fed72a7456e9845988b915b4c7a7ceba8813b09aa5aeb3702cfd50b6b62bc4532604938f21248a27a1d5ca736082b6819cc1d8aa0f3194971a2a116679f7c2090f6939c8d4e01a2a8d7e41d55e5351469e63fd643c72710c63c0180259aba6b2d05451e3591a24e58b62239378085726f783",
  "libraries": {
    "Errors": "0xF90aCbeF0eDDdd6854c96137f416a5b7dD67D904"
  },
  "devdoc": {
    "events": {
      "CallExecuted(bytes32,uint256,address,uint256,bytes)": {
        "details": "Emitted when a call is performed as part of operation `id`."
      },
      "CallSalt(bytes32,bytes32)": {
        "details": "Emitted when new proposal is scheduled with non-zero salt."
      },
      "CallScheduled(bytes32,uint256,address,uint256,bytes,bytes32,uint256)": {
        "details": "Emitted when a call is scheduled as part of operation `id`."
      },
      "Cancelled(bytes32)": {
        "details": "Emitted when operation `id` is cancelled."
      },
      "MinDelayChange(uint256,uint256)": {
        "details": "Emitted when the minimum delay for future operations is modified."
      },
      "Paused(address)": {
        "details": "Emitted when the pause is triggered by `account`."
      },
      "RoleAdminChanged(bytes32,bytes32,bytes32)": {
        "details": "Emitted when `newAdminRole` is set as ``role``'s admin role, replacing `previousAdminRole` `DEFAULT_ADMIN_ROLE` is the starting admin for all roles, despite {RoleAdminChanged} not being emitted signaling this. _Available since v3.1._"
      },
      "RoleGranted(bytes32,address,address)": {
        "details": "Emitted when `account` is granted `role`. `sender` is the account that originated the contract call, an admin role bearer except when using {AccessControl-_setupRole}."
      },
      "RoleRevoked(bytes32,address,address)": {
        "details": "Emitted when `account` is revoked `role`. `sender` is the account that originated the contract call:   - if using `revokeRole`, it is the admin role bearer   - if using `renounceRole`, it is the role bearer (i.e. `account`)"
      },
      "Unpaused(address)": {
        "details": "Emitted when the pause is lifted by `account`."
      }
    },
    "kind": "dev",
    "methods": {
      "cancel(bytes32)": {
        "details": "This function can only be called by a guardian admin.",
        "params": {
          "id": "The ID of the task to be canceled."
        }
      },
      "execute(address,uint256,bytes,bytes32,bytes32)": {
        "details": "This function can only be called when the contract is not paused. Only callable by the EXECUTOR_ROLE role.",
        "params": {
          "payload": "The data payload to include in the transaction.",
          "predecessor": "The predecessor of the transaction (optional).",
          "salt": "The salt value to use for the transaction (optional).",
          "target": "The address of the contract to execute the transaction on.",
          "value": "The amount of native tokens (in wei) to send along with the transaction."
        }
      },
      "executeBatch(address[],uint256[],bytes[],bytes32,bytes32)": {
        "details": "This function can only be called when the contract is not paused. Only callable by the EXECUTOR_ROLE role.",
        "params": {
          "payloads": "The array of payload data for each transaction.",
          "predecessor": "The predecessor block's hash.",
          "salt": "The salt value for generating a deterministic pseudo-random address.",
          "targets": "The array of target addresses for the transactions.",
          "values": "The array of values to be sent with each transaction."
        }
      },
      "getMinDelay()": {
        "details": "Returns the minimum delay for an operation to become valid. This value can be changed by executing an operation that calls `updateDelay`."
      },
      "getRoleAdmin(bytes32)": {
        "details": "Returns the admin role that controls `role`. See {grantRole} and {revokeRole}. To change a role's admin, use {_setRoleAdmin}."
      },
      "getTimestamp(bytes32)": {
        "details": "Returns the timestamp at which an operation becomes ready (0 for unset operations, 1 for done operations)."
      },
      "grantRole(bytes32,address)": {
        "details": "Grants `role` to `account`. If `account` had not been already granted `role`, emits a {RoleGranted} event. Requirements: - the caller must have ``role``'s admin role. May emit a {RoleGranted} event."
      },
      "hasRole(bytes32,address)": {
        "details": "Returns `true` if `account` has been granted `role`."
      },
      "hashOperation(address,uint256,bytes,bytes32,bytes32)": {
        "details": "Returns the identifier of an operation containing a single transaction."
      },
      "hashOperationBatch(address[],uint256[],bytes[],bytes32,bytes32)": {
        "details": "Returns the identifier of an operation containing a batch of transactions."
      },
      "isOperation(bytes32)": {
        "details": "Returns whether an id correspond to a registered operation. This includes both Pending, Ready and Done operations."
      },
      "isOperationDone(bytes32)": {
        "details": "Returns whether an operation is done or not."
      },
      "isOperationPending(bytes32)": {
        "details": "Returns whether an operation is pending or not. Note that a \"pending\" operation may also be \"ready\"."
      },
      "isOperationReady(bytes32)": {
        "details": "Returns whether an operation is ready for execution. Note that a \"ready\" operation is also \"pending\"."
      },
      "onERC1155BatchReceived(address,address,uint256[],uint256[],bytes)": {
        "details": "See {IERC1155Receiver-onERC1155BatchReceived}."
      },
      "onERC1155Received(address,address,uint256,uint256,bytes)": {
        "details": "See {IERC1155Receiver-onERC1155Received}."
      },
      "onERC721Received(address,address,uint256,bytes)": {
        "details": "See {IERC721Receiver-onERC721Received}."
      },
      "pause()": {
        "details": "Triggers stopped state. This function can only be called by an address with the EMERGENCY_ADMIN role. Requirements: - The contract must not be paused."
      },
      "paused()": {
        "details": "Returns true if the contract is paused, and false otherwise."
      },
      "renounceRole(bytes32,address)": {
        "details": "Revokes `role` from the calling account. Roles are often managed via {grantRole} and {revokeRole}: this function's purpose is to provide a mechanism for accounts to lose their privileges if they are compromised (such as when a trusted device is misplaced). If the calling account had been revoked `role`, emits a {RoleRevoked} event. Requirements: - the caller must be `account`. May emit a {RoleRevoked} event."
      },
      "revokeRole(bytes32,address)": {
        "details": "Revokes `role` from `account`. If `account` had been granted `role`, emits a {RoleRevoked} event. Requirements: - the caller must have ``role``'s admin role. May emit a {RoleRevoked} event."
      },
      "schedule(address,uint256,bytes,bytes32,bytes32,uint256)": {
        "details": "Schedules a transaction to be executed in the future. This function can only be called when the contract is not paused. Only callable by the PROPOSER_ROLE role.",
        "params": {
          "data": "The data to be passed to the contract's function.",
          "delay": "The delay, in seconds, before the transaction can be executed.",
          "predecessor": "The hash of the preceding transaction in the same function.",
          "salt": "A random value used as a salt for the scheduled transaction.",
          "target": "The address of the contract to be called.",
          "value": "The amount of native tokens (in wei) to be sent with the transaction."
        }
      },
      "scheduleBatch(address[],uint256[],bytes[],bytes32,bytes32,uint256)": {
        "details": "Schedules a batch of transactions to be executed after a specified delay. This function can only be called when the contract is not paused. Only callable by the PROPOSER_ROLE role.",
        "params": {
          "delay": "The delay in seconds after which the transactions can be executed.",
          "payloads": "The array of payload data for each transaction.",
          "predecessor": "The predecessor hash for the batch of transactions.",
          "salt": "The salt value for generating the schedule hash.",
          "targets": "The array of target addresses for the transactions.",
          "values": "The array of values to be sent with each transaction."
        }
      },
      "supportsInterface(bytes4)": {
        "details": "See {IERC165-supportsInterface}."
      },
      "unpause()": {
        "details": "Returns to normal state. This function can only be called by an address with the SMALL_TIMELOCK_ADMIN or MEDIUM_TIMELOCK_ADMIN role depending on the contract. Requirements: - The contract must be paused."
      },
      "updateDelay(uint256)": {
        "details": "The function will revert with the `OPERATION_NOT_SUPPORTED` error."
      }
    },
    "version": 1
  },
  "userdoc": {
    "kind": "user",
    "methods": {
      "cancel(bytes32)": {
        "notice": "Cancels a specific task by its ID."
      },
      "execute(address,uint256,bytes,bytes32,bytes32)": {
        "notice": "Executes a transaction to the specified target with the given parameters."
      },
      "executeBatch(address[],uint256[],bytes[],bytes32,bytes32)": {
        "notice": "Executes a batch of transactions."
      },
      "updateDelay(uint256)": {
        "notice": "This function overrides a function in the parent contract."
      }
    },
    "version": 1
  },
  "storageLayout": {
    "storage": [
      {
        "astId": 7515,
        "contract": "contracts/PrimexTimelock.sol:PrimexTimelock",
        "label": "_roles",
        "offset": 0,
        "slot": "0",
        "type": "t_mapping(t_bytes32,t_struct(RoleData)7510_storage)"
      },
      {
        "astId": 8034,
        "contract": "contracts/PrimexTimelock.sol:PrimexTimelock",
        "label": "_timestamps",
        "offset": 0,
        "slot": "1",
        "type": "t_mapping(t_bytes32,t_uint256)"
      },
      {
        "astId": 8036,
        "contract": "contracts/PrimexTimelock.sol:PrimexTimelock",
        "label": "_minDelay",
        "offset": 0,
        "slot": "2",
        "type": "t_uint256"
      },
      {
        "astId": 10159,
        "contract": "contracts/PrimexTimelock.sol:PrimexTimelock",
        "label": "_paused",
        "offset": 0,
        "slot": "3",
        "type": "t_bool"
      }
    ],
    "types": {
      "t_address": {
        "encoding": "inplace",
        "label": "address",
        "numberOfBytes": "20"
      },
      "t_bool": {
        "encoding": "inplace",
        "label": "bool",
        "numberOfBytes": "1"
      },
      "t_bytes32": {
        "encoding": "inplace",
        "label": "bytes32",
        "numberOfBytes": "32"
      },
      "t_mapping(t_address,t_bool)": {
        "encoding": "mapping",
        "key": "t_address",
        "label": "mapping(address => bool)",
        "numberOfBytes": "32",
        "value": "t_bool"
      },
      "t_mapping(t_bytes32,t_struct(RoleData)7510_storage)": {
        "encoding": "mapping",
        "key": "t_bytes32",
        "label": "mapping(bytes32 => struct AccessControl.RoleData)",
        "numberOfBytes": "32",
        "value": "t_struct(RoleData)7510_storage"
      },
      "t_mapping(t_bytes32,t_uint256)": {
        "encoding": "mapping",
        "key": "t_bytes32",
        "label": "mapping(bytes32 => uint256)",
        "numberOfBytes": "32",
        "value": "t_uint256"
      },
      "t_struct(RoleData)7510_storage": {
        "encoding": "inplace",
        "label": "struct AccessControl.RoleData",
        "members": [
          {
            "astId": 7507,
            "contract": "contracts/PrimexTimelock.sol:PrimexTimelock",
            "label": "members",
            "offset": 0,
            "slot": "0",
            "type": "t_mapping(t_address,t_bool)"
          },
          {
            "astId": 7509,
            "contract": "contracts/PrimexTimelock.sol:PrimexTimelock",
            "label": "adminRole",
            "offset": 0,
            "slot": "1",
            "type": "t_bytes32"
          }
        ],
        "numberOfBytes": "64"
      },
      "t_uint256": {
        "encoding": "inplace",
        "label": "uint256",
        "numberOfBytes": "32"
      }
    }
  }
}