{
  "address": "0xC6B1AF3dEb9E379ccADF2Fa21263a50E91F4776C",
  "abi": [
    {
      "inputs": [
        {
          "internalType": "address",
          "name": "uniswapV3Factory_",
          "type": "address"
        },
        {
          "internalType": "uint32",
          "name": "twapInterval_",
          "type": "uint32"
        },
        {
          "internalType": "uint256",
          "name": "poolUpdateInterval_",
          "type": "uint256"
        },
        {
          "internalType": "address",
          "name": "registry_",
          "type": "address"
        }
      ],
      "stateMutability": "nonpayable",
      "type": "constructor"
    },
    {
      "inputs": [],
      "name": "DS_MATH_ADD_OVERFLOW",
      "type": "error"
    },
    {
      "inputs": [],
      "name": "DS_MATH_MUL_OVERFLOW",
      "type": "error"
    },
    {
      "inputs": [],
      "name": "T",
      "type": "error"
    },
    {
      "anonymous": false,
      "inputs": [
        {
          "components": [
            {
              "internalType": "address",
              "name": "poolAddress",
              "type": "address"
            },
            {
              "internalType": "uint24",
              "name": "fee",
              "type": "uint24"
            },
            {
              "internalType": "uint48",
              "name": "lastUpdatedTimestamp",
              "type": "uint48"
            },
            {
              "internalType": "uint16",
              "name": "lastUpdatedCardinalityNext",
              "type": "uint16"
            }
          ],
          "indexed": false,
          "internalType": "struct IUniswapPriceFeed.PoolData",
          "name": "pool",
          "type": "tuple"
        }
      ],
      "name": "PoolUpdated",
      "type": "event"
    },
    {
      "inputs": [],
      "name": "MAX_CARDINALITY",
      "outputs": [
        {
          "internalType": "uint16",
          "name": "",
          "type": "uint16"
        }
      ],
      "stateMutability": "view",
      "type": "function"
    },
    {
      "inputs": [],
      "name": "UPDATE_INTERVAL",
      "outputs": [
        {
          "internalType": "uint32",
          "name": "",
          "type": "uint32"
        }
      ],
      "stateMutability": "view",
      "type": "function"
    },
    {
      "inputs": [
        {
          "internalType": "uint24",
          "name": "",
          "type": "uint24"
        }
      ],
      "name": "activeFees",
      "outputs": [
        {
          "internalType": "bool",
          "name": "",
          "type": "bool"
        }
      ],
      "stateMutability": "view",
      "type": "function"
    },
    {
      "inputs": [
        {
          "internalType": "uint24",
          "name": "fee",
          "type": "uint24"
        }
      ],
      "name": "addFee",
      "outputs": [],
      "stateMutability": "nonpayable",
      "type": "function"
    },
    {
      "inputs": [
        {
          "internalType": "uint256",
          "name": "",
          "type": "uint256"
        }
      ],
      "name": "fees",
      "outputs": [
        {
          "internalType": "uint24",
          "name": "",
          "type": "uint24"
        }
      ],
      "stateMutability": "view",
      "type": "function"
    },
    {
      "inputs": [
        {
          "internalType": "address",
          "name": "baseToken",
          "type": "address"
        },
        {
          "internalType": "address",
          "name": "quoteToken",
          "type": "address"
        }
      ],
      "name": "getExchangeRate",
      "outputs": [
        {
          "internalType": "uint256",
          "name": "",
          "type": "uint256"
        }
      ],
      "stateMutability": "nonpayable",
      "type": "function"
    },
    {
      "inputs": [
        {
          "internalType": "address",
          "name": "tokenA",
          "type": "address"
        },
        {
          "internalType": "address",
          "name": "tokenB",
          "type": "address"
        }
      ],
      "name": "getPool",
      "outputs": [
        {
          "components": [
            {
              "internalType": "address",
              "name": "poolAddress",
              "type": "address"
            },
            {
              "internalType": "uint24",
              "name": "fee",
              "type": "uint24"
            },
            {
              "internalType": "uint48",
              "name": "lastUpdatedTimestamp",
              "type": "uint48"
            },
            {
              "internalType": "uint16",
              "name": "lastUpdatedCardinalityNext",
              "type": "uint16"
            }
          ],
          "internalType": "struct IUniswapPriceFeed.PoolData",
          "name": "pool",
          "type": "tuple"
        }
      ],
      "stateMutability": "view",
      "type": "function"
    },
    {
      "inputs": [
        {
          "internalType": "uint128",
          "name": "baseAmount",
          "type": "uint128"
        },
        {
          "internalType": "address",
          "name": "baseToken",
          "type": "address"
        },
        {
          "internalType": "address",
          "name": "quoteToken",
          "type": "address"
        },
        {
          "internalType": "uint32",
          "name": "secondsTwapInterval",
          "type": "uint32"
        }
      ],
      "name": "getQuote",
      "outputs": [
        {
          "internalType": "uint256",
          "name": "quoteAmount",
          "type": "uint256"
        }
      ],
      "stateMutability": "view",
      "type": "function"
    },
    {
      "inputs": [
        {
          "internalType": "uint128",
          "name": "baseAmount",
          "type": "uint128"
        },
        {
          "internalType": "address",
          "name": "baseToken",
          "type": "address"
        },
        {
          "internalType": "address",
          "name": "quoteToken",
          "type": "address"
        },
        {
          "internalType": "uint32",
          "name": "secondsTwapInterval",
          "type": "uint32"
        },
        {
          "internalType": "uint256",
          "name": "secondsUpdateInterval",
          "type": "uint256"
        },
        {
          "internalType": "uint8",
          "name": "cardinalityNextIncrease",
          "type": "uint8"
        }
      ],
      "name": "getQuoteAndUpdatePool",
      "outputs": [
        {
          "internalType": "uint256",
          "name": "quoteAmount",
          "type": "uint256"
        }
      ],
      "stateMutability": "nonpayable",
      "type": "function"
    },
    {
      "inputs": [
        {
          "internalType": "address",
          "name": "tokenA",
          "type": "address"
        },
        {
          "internalType": "address",
          "name": "tokenB",
          "type": "address"
        },
        {
          "internalType": "uint256",
          "name": "secondsUpdateInterval",
          "type": "uint256"
        },
        {
          "internalType": "uint8",
          "name": "cardinalityNextIncrease",
          "type": "uint8"
        }
      ],
      "name": "getUpdatedPool",
      "outputs": [
        {
          "components": [
            {
              "internalType": "address",
              "name": "poolAddress",
              "type": "address"
            },
            {
              "internalType": "uint24",
              "name": "fee",
              "type": "uint24"
            },
            {
              "internalType": "uint48",
              "name": "lastUpdatedTimestamp",
              "type": "uint48"
            },
            {
              "internalType": "uint16",
              "name": "lastUpdatedCardinalityNext",
              "type": "uint16"
            }
          ],
          "internalType": "struct IUniswapPriceFeed.PoolData",
          "name": "pool",
          "type": "tuple"
        },
        {
          "internalType": "int56[]",
          "name": "tickCumulatives",
          "type": "int56[]"
        },
        {
          "internalType": "uint160",
          "name": "sqrtPriceX96",
          "type": "uint160"
        }
      ],
      "stateMutability": "nonpayable",
      "type": "function"
    },
    {
      "inputs": [],
      "name": "poolUpdateInterval",
      "outputs": [
        {
          "internalType": "uint256",
          "name": "",
          "type": "uint256"
        }
      ],
      "stateMutability": "view",
      "type": "function"
    },
    {
      "inputs": [
        {
          "internalType": "address",
          "name": "",
          "type": "address"
        },
        {
          "internalType": "address",
          "name": "",
          "type": "address"
        }
      ],
      "name": "pools",
      "outputs": [
        {
          "internalType": "address",
          "name": "poolAddress",
          "type": "address"
        },
        {
          "internalType": "uint24",
          "name": "fee",
          "type": "uint24"
        },
        {
          "internalType": "uint48",
          "name": "lastUpdatedTimestamp",
          "type": "uint48"
        },
        {
          "internalType": "uint16",
          "name": "lastUpdatedCardinalityNext",
          "type": "uint16"
        }
      ],
      "stateMutability": "view",
      "type": "function"
    },
    {
      "inputs": [],
      "name": "registry",
      "outputs": [
        {
          "internalType": "contract IAccessControl",
          "name": "",
          "type": "address"
        }
      ],
      "stateMutability": "view",
      "type": "function"
    },
    {
      "inputs": [
        {
          "internalType": "uint256",
          "name": "_poolUpdateInterval",
          "type": "uint256"
        }
      ],
      "name": "setPoolUpdateInterval",
      "outputs": [],
      "stateMutability": "nonpayable",
      "type": "function"
    },
    {
      "inputs": [
        {
          "internalType": "uint32",
          "name": "_twapInterval",
          "type": "uint32"
        }
      ],
      "name": "setTwapInterval",
      "outputs": [],
      "stateMutability": "nonpayable",
      "type": "function"
    },
    {
      "inputs": [
        {
          "internalType": "bytes4",
          "name": "_interfaceId",
          "type": "bytes4"
        }
      ],
      "name": "supportsInterface",
      "outputs": [
        {
          "internalType": "bool",
          "name": "",
          "type": "bool"
        }
      ],
      "stateMutability": "view",
      "type": "function"
    },
    {
      "inputs": [],
      "name": "twapInterval",
      "outputs": [
        {
          "internalType": "uint32",
          "name": "",
          "type": "uint32"
        }
      ],
      "stateMutability": "view",
      "type": "function"
    },
    {
      "inputs": [],
      "name": "uniswapV3Factory",
      "outputs": [
        {
          "internalType": "address",
          "name": "",
          "type": "address"
        }
      ],
      "stateMutability": "view",
      "type": "function"
    },
    {
      "inputs": [
        {
          "internalType": "address",
          "name": "tokenA",
          "type": "address"
        },
        {
          "internalType": "address",
          "name": "tokenB",
          "type": "address"
        },
        {
          "internalType": "uint8",
          "name": "cardinalityNextIncrease",
          "type": "uint8"
        }
      ],
      "name": "updatePool",
      "outputs": [
        {
          "components": [
            {
              "internalType": "address",
              "name": "poolAddress",
              "type": "address"
            },
            {
              "internalType": "uint24",
              "name": "fee",
              "type": "uint24"
            },
            {
              "internalType": "uint48",
              "name": "lastUpdatedTimestamp",
              "type": "uint48"
            },
            {
              "internalType": "uint16",
              "name": "lastUpdatedCardinalityNext",
              "type": "uint16"
            }
          ],
          "internalType": "struct IUniswapPriceFeed.PoolData",
          "name": "highestLiquidityPool",
          "type": "tuple"
        },
        {
          "internalType": "int56[]",
          "name": "tickCumulatives",
          "type": "int56[]"
        },
        {
          "internalType": "uint160",
          "name": "sqrtPriceX96",
          "type": "uint160"
        }
      ],
      "stateMutability": "nonpayable",
      "type": "function"
    }
  ],
  "transactionHash": "0xfaa29eed51095ecf7c0bf00259118fc8210083549db0f0708034be9d320408e2",
  "args": [
    "0x33128a8fC17869897dcE68Ed026d694621f6FDfD",
    "60",
    "86400",
    "0x4FFa6c545a6249baF2D66ce21CeF3D2C2cCa69D0"
  ],
  "numDeployments": 1,
  "solcInputHash": "d3fdc0212b557b60d8931ff12ea439d3",
  "bytecode": "0x60a0806040523461038757608081612ba2803803809161001f828561038c565b83398101031261038757610032816103af565b90602081015163ffffffff81168103610387576100566060604084015193016103af565b604080519081016001600160401b038111828210176102f057604052610708815260006020820152600054600260005580600210610330575b50600080805290600080516020612b8283398151915290825b6002811061030657505055604051608081016001600160401b038111828210176102f0576040526127108152610bb860208201526101f4604082015260646060820152600154600460015580600410610284575b506001600052602060002060009160005b6004811061025a575050556040516301ffc9a760e01b8152637965db0b60e01b60048201526001600160a01b03919091169390602081602481885afa90811561024e5760009161020c575b50156101fa576080526004549160055563ffffffff60a01b9060a01b169060018060c01b031916171760045560005b6001548110156101cd576001906040600083815262ffffff60208220600a850401546003600a86060260031b1c1681526002602052208260ff1982541617905501610187565b6040516127a790816103db823960805181818161096601528181610a4a01528181610cf10152611a800152f35b60405163044aa57560e41b8152600490fd5b6020813d602011610246575b816102256020938361038c565b81010312610242575190811515820361023f575038610158565b80fd5b5080fd5b3d9150610218565b6040513d6000823e3d90fd5b9092602060019161ffff8651169062ffffff8560030260031b92831b921b1916179401910161010d565b60016000527fb10e2d527612073b26eecdfd717e6a320cf44b4afac2b0732d9fcbe2b7fa0cf680546001600160601b031681556102ea91600a600990910104017fb10e2d527612073b26eecdfd717e6a320cf44b4afac2b0732d9fcbe2b7fa0cf76103c3565b386100fc565b634e487b7160e01b600052604160045260246000fd5b9092602060019163ffffffff8651169063ffffffff8560051b92831b921b191617940191016100a8565b60008052600080516020612b8283398151915280546001600160401b031681556103819160070160031c017f290decd9548b62a8d60345a988386fc84ba6bc95484008f6362f93160ef3e5646103c3565b3861008f565b600080fd5b601f909101601f19168101906001600160401b038211908210176102f057604052565b51906001600160a01b038216820361038757565b8181106103ce575050565b600081556001016103c356fe61014080604052600436101561001457600080fd5b600060c05260c0513560e01c90816301ffc9a71461131a5750806311be8a5214610c6f5780631d27050f14610b865780633c1d5df014610b5e578063403e05d314610a0d5780634acc79ed146109d0578063531aa03e146109955780635b5491821461094f57806363711362146108675780637b1039991461083d5780638200d8731461081f57806389ac414714610801578063901754d71461077557806394fafa12146106a8578063a2d7046f14610656578063b21dfd2014610616578063baaa61be1461027e578063c14152331461025f5763d5cefadc146100f757600080fd5b346102595760c0366003190112610259576101106114b6565b610118611388565b61012061139e565b61012861144e565b60a435929060ff841684036102595760c051936101499060843585856116cb565b82519093849250906001600160a01b03168061016b575b602088604051908152f35b909192939495965063ffffffff8216156000146102395750506001600160a01b0316156101ae575b50906020936101a29392612549565b38808080808080610160565b51604051633850c7bd60e01b81529392915060e090849060049082906001600160a01b03165afa93841561022c576020946101a29460c051916101f7575b509192935093610193565b610219915060e03d60e011610225575b610211818361151a565b810190611644565b505050505050386101ec565b503d610207565b6040513d60c051823e3d90fd5b61025496959450602097935061024f9250611fb3565b61213d565b6101a2565b60c05180fd5b346102595760c051366003190112610259576020600554604051908152f35b346102595760403660031901126102595761029761136d565b61029f611388565b60405163313ce56760e01b81526001600160a01b0383169290602081600481875afa90811561022c5760c051916105ca575b5060206001600160801b036102e7600493611754565b16946040519283809263313ce56760e01b82525afa90811561022c5760c05191610589575b5061031961031e91611765565b611754565b60405163313ce56760e01b81529091906020816004816001600160a01b0388165afa90811561022c5760c05191610548575b5061031961035d91611765565b9063ffffffff60045460a01c1693856005549560c0515061038660c0519760c0519085876116cb565b82519093849250906001600160a01b031680610469575b50505050505050506103b2906103b893611776565b92611776565b60c05150670de0b6b3a7640000820291808304670de0b6b3a7640000148115171561045157670de0b6b3a764000083040361043e576103fa8160011c836116a8565b91821061042b5780156104135760209104604051908152f35b634e487b7160e01b60c051526012600452602460c051fd5b630a77254f60e01b60c05152600460c051fd5b631550e8b760e01b60c05152600460c051fd5b634e487b7160e01b60c051526011600452602460c051fd5b90809293949596979a50156000146105265750506001600160a01b0316156104af575b50916103b8956104a0926103b29594612549565b9381925085878080808061039d565b51604051633850c7bd60e01b81529493925060e09150849060049082906001600160a01b03165afa90811561022c576103b895876104a0936103b29660c05191610501575b509294955092509561048c565b61051a915060e03d60e01161022557610211818361151a565b5050505050508a6104f4565b6103b2979694506103b89993506105439592509061024f91611fb3565b6104a0565b90506020813d602011610581575b816105636020938361151a565b810103126102595761031961057a61035d92611636565b9150610350565b3d9150610556565b90506020813d6020116105c2575b816105a46020938361151a565b81010312610259576103196105bb61031e92611636565b915061030c565b3d9150610597565b90506020813d60201161060e575b816105e56020938361151a565b810103126102595760206001600160801b036102e7610605600494611636565b935050506102d1565b3d91506105d8565b346102595760203660031901126102595760043562ffffff81168091036102595760c051526002602052602060ff604060c0512054166040519015158152f35b346102595760803660031901126102595761066f61136d565b610677611388565b60643560ff81168103610259576106a49261069592604435916116cb565b604093919351938493846113f1565b0390f35b34610259576020366003190112610259576044602060018060a01b036004541660405192838092632474521560e21b82527fc0fc8e4dc5cff6febdf550b80d566f654e2baf1a02ea1060208c2f8ab2dd1b6360048301523360248301525afa90811561022c5760c0519161073b575b50156107295760043560055560c05180f35b60405163036be76f60e61b8152600490fd5b90506020813d60201161076d575b816107566020938361151a565b810103126102595761076790611561565b81610717565b3d9150610749565b346102595760403660031901126102595761078e61136d565b610796611388565b9060018060a01b031660c051526003602052604060c051209060018060a01b0316600052602052608060406000205461ffff6040519160018060a01b038116835262ffffff8160a01c16602084015265ffffffffffff8160b81c16604084015260e81c166060820152f35b346102595760c0513660031901126102595760206040516107088152f35b346102595760c0513660031901126102595760206040516101008152f35b346102595760c051366003190112610259576004546040516001600160a01b039091168152602090f35b34610259576080366003190112610259576108806114b6565b610888611388565b61089061139e565b9161089961144e565b60c051909390926001600160a01b036108b2838361157c565b511694856108c6575b602085604051908152f35b929350909163ffffffff811661093a575060e06004939460405194858092633850c7bd851b82525afa93841561022c5760209461090c9460c05191610915575b50612549565b828080806108bb565b61092e915060e03d60e01161022557610211818361151a565b50505050505086610906565b9261024f61094a94602096611fb3565b61090c565b346102595760c051366003190112610259576040517f00000000000000000000000000000000000000000000000000000000000000006001600160a01b03168152602090f35b346102595760403660031901126102595760806109c16109b361136d565b6109bb611388565b9061157c565b6109ce60405180926113b4565bf35b34610259576020366003190112610259576004356001548110156102595762ffffff6109fd602092611461565b90549060031b1c16604051908152f35b346102595760203660031901126102595760043562ffffff8116809103610259576040516322afcccb60e01b8152600481018290526020816024817f00000000000000000000000000000000000000000000000000000000000000006001600160a01b03165afa90811561022c5760c05191610b24575b5060020b151580610b09575b610a9b575b60c05180f35b8060c051526002602052604060c05120600160ff19825416179055600154600160401b811015610af157806001610ad59201600155611461565b62ffffff829392549160031b92831b921b191617905580610a95565b634e487b7160e01b60c051526041600452602460c051fd5b508060c05152600260205260ff604060c05120541615610a90565b90506020813d602011610b56575b81610b3f6020938361151a565b8101031261025957610b509061156e565b82610a84565b3d9150610b32565b346102595760c05136600319011261025957602063ffffffff60045460a01c16604051908152f35b346102595760203660031901126102595760043563ffffffff811681036102595760048054604051632474521560e21b81527f5a7d4408f4759dddd7fdfd0d21abd99341dc2f52cda14804988a9b2df20766d89281019290925233602483015291906020816044816001600160a01b0387165afa90811561022c5760c05191610c35575b50156107295763ffffffff60a01b1990911660a09190911b63ffffffff60a01b161760045560c05180f35b90506020813d602011610c67575b81610c506020938361151a565b8101031261025957610c6190611561565b83610c0a565b3d9150610c43565b3461025957606036600319011261025957610c8861136d565b610c90611388565b6044359160ff8316830361025957610ca661153c565b50610caf61153c565b506001600160a01b03828116908216101561131557905b60c051608081905260a052610cd961153c565b608052606060a081905260c0516001549093918491907f0000000000000000000000000000000000000000000000000000000000000000901b6bffffffffffffffffffffffff1916825b828110610f25575050608051516001600160a01b03169150819050610e1f575b506106a4935060a051506080515060018060a01b031660c051526003602052604060c051209060018060a01b0316600052602052604060002060018060a01b036080515116815462ffffff60a01b6020608051015160a01b1665ffffffffffff60b81b6040608051015160b81b169161ffff60e81b6060608051015160e81b169361ffff60e81b199162ffffff60e81b16171617171790557fa4f1f360d824552e10292fb28c429d3e58b8d91cb89604b82559507cf4d72ff66080604051610e0c8183516113b4565ba160405191829160a051608051846113f1565b60ff8516159081158092610f1d575b610e39575b50610d43565b604051633850c7bd60e01b815291945060e090829060049082905afa94851561022c5760c0519160c05196610ef2575b5061ffff6060608051019616918287529415610e3357610100821015610e335760ff160161ffff1693849052608051516001600160a01b0316803b1561025957604051946332148f6760e01b865260048601528460248160c0519360c051905af193841561022c576106a494610ee0575b80610e33565b60c051610eec9161151a565b84610eda565b909550610f0e915060e03d60e01161022557610211818361151a565b50509392505050909486610e69565b506001610e2e565b62ffffff610f3282611461565b90549060031b1c168060408051610f48816114fe565b6001600160a01b03898116808352908b16602083018190529290910192909252111561025957604051602081019160018060a01b038816835260018060a01b0389166040830152606082015260608152610fa360808261151a565b51902060405190602082019060ff60f81b825284602184015260358301527fe34f199b19b2b4f47f68442619d555527d244f78a3297ea89325f843f87b8b54605583015260558252610ff660758361151a565b905190206001600160a01b0316803b611013575b50600101610d23565b60c0805160405163883bdbfd60e01b6020808301919091526024820152825154604482018190528351805292516060937f290decd9548b62a8d60345a988386fc84ba6bc95484008f6362f93160ef3e5639183916064830191905b806007830110611290576110cb945491818110611279575b818110611260575b818110611246575b81811061122d575b818110611213575b8181106111f9575b8181106111df575b106111d1575b5003601f19810183528261151a565b60c0519060c05190602081519101865afa6110e4611e74565b90611156575b506001600160801b0316868111611103575b505061100a565b95506001929162ffffff61111684611461565b90549060031b1c166040519161112b836114cc565b8252602082015265ffffffffffff4216604082015260c051606082015260805260a0529089806110fc565b905061116c915060208082518301019101611eb4565b6001600160a01b0361117d82611e57565b5116906001600160a01b039061119290611e67565b511690036001600160a01b0381116104515760201b640100000000600160c01b031680156104135760e160a31b046001600160801b03908116906110ea565b60e01c81526020018f6110bc565b92602060019163ffffffff8560c01c1681520193016110b6565b92602060019163ffffffff8560a01c1681520193016110ae565b92602060019163ffffffff8560801c1681520193016110a6565b92602060019163ffffffff858c1c16815201930161109e565b92602060019163ffffffff8560401c168152019301611096565b92602060019163ffffffff85831c16815201930161108e565b92602060019163ffffffff85168152019301611086565b916008919350610100600191865463ffffffff8116825263ffffffff8160201c16602083015263ffffffff8160401c16604083015263ffffffff818c1c168b83015263ffffffff8160801c16608083015263ffffffff8160a01c1660a083015263ffffffff8160c01c1660c083015260e01c60e082015201940192018492939161106e565b610cc6565b34610259576020366003190112610259576004359063ffffffff60e01b821680920361025957602091630cc36a0960e11b811490811561135c575b5015158152f35b6301ffc9a760e01b14905083611355565b600435906001600160a01b038216820361138357565b600080fd5b602435906001600160a01b038216820361138357565b604435906001600160a01b038216820361138357565b80516001600160a01b0316825260208082015162ffffff169083015260408082015165ffffffffffff169083015260609081015161ffff16910152565b919392936114038360c08101936113b4565b60c060808401528051809252602060e0840191019160005b81811061143557505060a0915093600180831b0316910152565b835160060b83526020938401939092019160010161141b565b6064359063ffffffff8216820361138357565b906001548210156114a0576001600052600a8083047fb10e2d527612073b26eecdfd717e6a320cf44b4afac2b0732d9fcbe2b7fa0cf601920660030290565b634e487b7160e01b600052603260045260246000fd5b600435906001600160801b038216820361138357565b6080810190811067ffffffffffffffff8211176114e857604052565b634e487b7160e01b600052604160045260246000fd5b6060810190811067ffffffffffffffff8211176114e857604052565b90601f8019910116810190811067ffffffffffffffff8211176114e857604052565b60405190611549826114cc565b60006060838281528260208201528260408201520152565b5190811515820361138357565b51908160020b820361138357565b61158461153c565b506001600160a01b03828116908216101561160d575b60018060a01b0316600052600360205260406000209060018060a01b0316600052602052604060002061ffff604051916115d3836114cc565b546001600160a01b038116835260a081901c62ffffff16602084015260b881901c65ffffffffffff16604084015260e81c16606082015290565b9061159a565b51906001600160a01b038216820361138357565b519061ffff8216820361138357565b519060ff8216820361138357565b908160e09103126113835761165881611613565b916116656020830161156e565b9161167260408201611627565b9161167f60608301611627565b9161168c60808201611627565b916116a560c061169e60a08501611636565b9301611561565b90565b919082018092116116b557565b634e487b7160e01b600052601160045260246000fd5b939091926116d761153c565b506060936000938115611745576116ee818861157c565b80519097906001600160a01b0316158015611726575b61170e5750505050565b9193965091935061171f9450611789565b9192909190565b5061173d8365ffffffffffff60408b0151166116a8565b421015611704565b919350919461171f9450611789565b60ff16604d81116116b557600a0a90565b60ff166012039060ff82116116b557565b818102929181159184041417156116b557565b939192909361179661153c565b506000610120526001600160a01b038581169082161015611e395793925b6101205160e0819052610100526117c961153c565b60e052606061010052610120516001546001600160a01b03909616959092908390815b8181106119ec57505060e051516001600160a01b0316919050816118d1575b50505090610100519260e0519461012051526003602052604061012051209060018060a01b0316600052602052604060002060018060a01b0360e0515116815462ffffff60a01b602060e051015160a01b1665ffffffffffff60b81b604060e051015160b81b169161ffff60e81b606060e051015160e81b169361ffff60e81b199162ffffff60e81b16171617171790557fa4f1f360d824552e10292fb28c429d3e58b8d91cb89604b82559507cf4d72ff660806040516118ce8160e0516113b4565ba1565b60ff169081159283159081946119e3575b506118ed575b61180b565b60049192935060e09060405192838092633850c7bd851b82525afa9182156119a357610120519161012051936119b8575b5061ffff606060e05101931691828452931561180b576101008210156118e8570161ffff169081905260e051516001600160a01b0316803b156119b157604051916332148f6760e01b8352600483015281602481610120519361012051905af180156119a357611990575b808061180b565b6101205161199d9161151a565b38611989565b6040513d61012051823e3d90fd5b6101205180fd5b9092506119d4915060e03d60e01161022557610211818361151a565b5050939250505090913861191e565b905015386118e2565b62ffffff6119f982611461565b90549060031b1c168060408051611a0f816114fe565b8c81526001600160a01b038c16602082018190529101919091528a10156119b15760405160208101918b835260018060a01b038b166040830152606082015260608152611a5d60808261151a565b51902060405190602082019060ff60f81b82526bffffffffffffffffffffffff197f000000000000000000000000000000000000000000000000000000000000000060601b16602184015260358301527fe34f199b19b2b4f47f68442619d555527d244f78a3297ea89325f843f87b8b54605583015260558252611ae260758361151a565b905190206001600160a01b0316803b611aff575b506001016117ec565b610120805160405163883bdbfd60e01b6020808301919091526024820152825154604482018190528351805292516060937f290decd9548b62a8d60345a988386fc84ba6bc95484008f6362f93160ef3e5639183916064830191905b806007830110611db457611bb7945491818110611d9d575b818110611d84575b818110611d6a575b818110611d51575b818110611d37575b818110611d1d575b818110611d03575b10611cf5575003601f19810183528261151a565b61012051906101205190602081519101865afa611bd2611e74565b90611c46575b506001600160801b0316858111611bf1575b5050611af6565b94506001929162ffffff611c0484611461565b90549060031b1c1660405191611c19836114cc565b8252602082015265ffffffffffff4216604082015261012051606082015260e05261010052903880611bea565b9050611c5c915060208082518301019101611eb4565b6001600160a01b03611c6d82611e57565b5116906001600160a01b0390611c8290611e67565b511690036001600160a01b038111611cdb5760201b640100000000600160c01b03168015611cc15760e160a31b046001600160801b0390811690611bd8565b634e487b7160e01b61012051526012600452602461012051fd5b634e487b7160e01b61012051526011600452602461012051fd5b60e01c8152602001386110bc565b92602060019163ffffffff8560c01c168152019301611ba3565b92602060019163ffffffff8560a01c168152019301611b9b565b92602060019163ffffffff8560801c168152019301611b93565b92602060019163ffffffff858c1c168152019301611b8b565b92602060019163ffffffff8560401c168152019301611b83565b92602060019163ffffffff85831c168152019301611b7b565b92602060019163ffffffff85168152019301611b73565b916008919350610100600191865463ffffffff8116825263ffffffff8160201c16602083015263ffffffff8160401c16604083015263ffffffff818c1c168b83015263ffffffff8160801c16608083015263ffffffff8160a01c1660a083015263ffffffff8160c01c1660c083015260e01c60e0820152019401920184929391611b5b565b926117b4565b67ffffffffffffffff81116114e85760051b60200190565b8051600110156114a05760400190565b8051156114a05760200190565b3d15611eaf573d9067ffffffffffffffff82116114e85760405191611ea3601f8201601f19166020018461151a565b82523d6000602084013e565b606090565b919060408382031261138357825167ffffffffffffffff811161138357830181601f82011215611383578051611ee981611e3f565b91611ef7604051938461151a565b81835260208084019260051b8201019084821161138357602001915b818310611f99575050509260208101519067ffffffffffffffff821161138357019080601f83011215611383578151611f4b81611e3f565b92611f59604051948561151a565b81845260208085019260051b82010192831161138357602001905b828210611f815750505090565b60208091611f8e84611613565b815201910190611f74565b82518060060b810361138357815260209283019201611f13565b919091604051611fc460608261151a565b6002815260208101604036823763ffffffff611fdf83611e67565b95168095526000611fef83611e57565b5260405163883bdbfd60e01b602080830191825260248301529251604482018190529091606483019160005b81811061212157505050918161203e60009593869503601f19810183528261151a565b51915afa61204a611e74565b901561210f578060208061206393518301019101611eb4565b5061207a61207082611e57565b5160060b91611e67565b5160060b900391667fffffffffffff198312667fffffffffffff8413176116b55760060b9160060b82156120f957667fffffffffffff1981146000198414166116b55782810560020b926000821291826120ea575b50506120d757565b90627fffff1981146116b5576000190190565b0760060b1515905038806120cf565b634e487b7160e01b600052601260045260246000fd5b6040516303875aeb60e51b8152600490fd5b825163ffffffff1684526020938401939092019160010161201b565b9092919060020b60008112156125435780600003905b620d89e88211612532576001821615612520576001600160881b036ffffcb933bd6fad37aa2d162d1a5940015b169160028116612504575b600481166124e8575b600881166124cc575b601081166124b0575b60208116612494575b60408116612478575b6080811661245c575b6101008116612440575b6102008116612424575b6104008116612408575b61080081166123ec575b61100081166123d0575b61200081166123b4575b6140008116612398575b618000811661237c575b620100008116612360575b620200008116612345575b62040000811661232a575b6208000016612311575b600012612302575b63ffffffff81166122fa576000905b60201c60ff91909116016001600160a01b03166001600160801b0381116122b7578061227e91611776565b916001600160a01b03908116911610156122a5576001600160801b036116a5921690612722565b6001600160801b036116a5921661269f565b806122c19161256e565b916001600160a01b03908116911610156122e8576001600160801b036116a5921690612650565b6001600160801b036116a592166125c0565b600190612253565b80156120f95760001904612244565b6b048a170391f7dc42444e8fa290910260801c9061223c565b6d2216e584f5fa1ea926041bedfe9890920260801c91612232565b916e5d6af8dedb81196699c329225ee6040260801c91612227565b916f09aa508b5b7a84e1c677de54f3e99bc90260801c9161221c565b916f31be135f97d08fd981231505542fcfa60260801c91612211565b916f70d869a156d2a1b890bb3df62baf32f70260801c91612207565b916fa9f746462d870fdf8a65dc1f90e061e50260801c916121fd565b916fd097f3bdfd2022b8845ad8f792aa58250260801c916121f3565b916fe7159475a2c29b7443b29c7fa6e889d90260801c916121e9565b916ff3392b0822b70005940c7a398e4b70f30260801c916121df565b916ff987a7253ac413176f2b074cf7815e540260801c916121d5565b916ffcbe86c7900a88aedcffc83b479aa3a40260801c916121cb565b916ffe5dee046a99a2a811c461f1969c30530260801c916121c1565b916fff2ea16466c96a3843ec78b326b528610260801c916121b8565b916fff973b41fa98c081472e6896dfb254c00260801c916121af565b916fffcb9843d60f6159c9db58835c9266440260801c916121a6565b916fffe5caca7e10e4e61c3624eaa0941cd00260801c9161219d565b916ffff2e50f5f656932ef12357cf3c7fdcc0260801c91612194565b916ffff97272373d413259a46990580e213a0260801c9161218b565b6001600160881b03600160801b612180565b6315e4079d60e11b60005260046000fd5b80612153565b909291906001600160a01b03166001600160801b0381116122b7578061227e91611776565b60009160001981830991818102938480851094039380850394146125b65783600160401b11156125b3575090600160401b910990828211900360c01b910360401c1790565b80fd5b5050505060401c90565b60001981600160801b09918160801b918280851094039380850394146126435783821115611383578190600160801b09818060000316809204600281600302188082026002030280820260020302808202600203028082026002030280820260020302809102600203029360018380600003040190848311900302920304170290565b5080925015611383570490565b60009190600019828209918082029384808510940393808503941461269557600160801b8410156125b35750600160801b910990828211900360801b910360801c1790565b5050505060801c90565b60001981600160c01b09918160c01b918280851094039380850394146126435783821115611383578190600160c01b09818060000316809204600281600302188082026002030280820260020302808202600203028082026002030280820260020302809102600203029360018380600003040190848311900302920304170290565b60009190600019828209918082029384808510940393808503941461276757600160c01b8410156125b35750600160c01b910990828211900360401b910360c01c1790565b5050505060c01c9056fea26469706673582212200b964bf468ca1117b085c88518203a06e5fd80421882fdd438e055dabcd3c67d64736f6c634300081a0033290decd9548b62a8d60345a988386fc84ba6bc95484008f6362f93160ef3e563",
  "devdoc": {
    "author": "jacopo.eth <jacopo@slice.so>",
    "kind": "dev",
    "methods": {
      "addFee(uint24)": {
        "params": {
          "fee": "tier to add"
        }
      },
      "getExchangeRate(address,address)": {
        "params": {
          "baseToken": "Address of an ERC20 token contract used as the baseAmount denomination",
          "quoteToken": "Address of an ERC20 token contract used as the quoteAmount denomination"
        }
      },
      "getPool(address,address)": {
        "params": {
          "tokenA": "Address of one of the ERC20 token contract in the pool",
          "tokenB": "Address of the other ERC20 token contract in the pool"
        },
        "returns": {
          "pool": "address, fee, last edit timestamp and last recorded cardinality."
        }
      },
      "getQuote(uint128,address,address,uint32)": {
        "params": {
          "baseAmount": "Amount of baseToken to be converted",
          "baseToken": "Address of an ERC20 token contract used as the baseAmount denomination",
          "quoteToken": "Address of an ERC20 token contract used as the quoteAmount denomination",
          "secondsTwapInterval": "Number of seconds in the past from which to calculate the time-weighted quote"
        },
        "returns": {
          "quoteAmount": "Equivalent amount of ERC20 token for baseAmount"
        }
      },
      "getQuoteAndUpdatePool(uint128,address,address,uint32,uint256,uint8)": {
        "params": {
          "baseAmount": "Amount of baseToken to be converted",
          "baseToken": "Address of an ERC20 token contract used as the baseAmount denomination",
          "cardinalityNextIncrease": "The increase in cardinality to trigger in a pool if current value < MAX_CARDINALITY",
          "quoteToken": "Address of an ERC20 token contract used as the quoteAmount denomination",
          "secondsTwapInterval": "Number of seconds in the past from which to calculate the time-weighted quote",
          "secondsUpdateInterval": "Seconds after which a pool is considered stale and an update is triggered"
        },
        "returns": {
          "quoteAmount": "Equivalent amount of ERC20 token for baseAmount Note: Set `secondsUpdateInterval` to 0 to always trigger an update, or to block.timestamp to only update if a pool has not been stored yet. Note: Set `cardinalityNextIncrease` to 0 to disable increasing cardinality when updating pool."
        }
      },
      "getUpdatedPool(address,address,uint256,uint8)": {
        "params": {
          "cardinalityNextIncrease": "The amount of cardinality to increase when updating a pool, if current value < MAX_CARDINALITY.",
          "secondsUpdateInterval": "Seconds after which a pool is considered stale and an update is triggered",
          "tokenA": "Address of one of the ERC20 token contract in the pool",
          "tokenB": "Address of the other ERC20 token contract in the pool"
        },
        "returns": {
          "pool": "address, fee, last edit timestamp and last recorded cardinality.",
          "sqrtPriceX96": "The current price of the pool as a sqrt(token1/token0) Q64.96 value Note: Set `secondsUpdateInterval` to 0 to always trigger an update, or to block.timestamp to only update if a pool has not been stored yet. Note: Set `cardinalityNextIncrease` to 0 to disable increasing cardinality when updating pool.",
          "tickCumulatives": "Cumulative tick values as of 30 minutes from the current block timestamp"
        }
      },
      "setPoolUpdateInterval(uint256)": {
        "params": {
          "_poolUpdateInterval": "new poolUpdateInterval in seconds"
        }
      },
      "setTwapInterval(uint32)": {
        "params": {
          "_twapInterval": "new TWAP interval in seconds"
        }
      },
      "supportsInterface(bytes4)": {
        "params": {
          "_interfaceId": "The interface id to check"
        }
      },
      "updatePool(address,address,uint8)": {
        "params": {
          "cardinalityNextIncrease": "The amount of observation cardinality to increase when updating a pool if current value < MAX_CARDINALITY",
          "tokenA": "Address of one of the ERC20 token contract in the pool",
          "tokenB": "Address of the other ERC20 token contract in the pool"
        },
        "returns": {
          "highestLiquidityPool": "Pool with the highest harmonic mean liquidity",
          "sqrtPriceX96": "The current price of the pool as a sqrt(token1/token0) Q64.96 value",
          "tickCumulatives": "Cumulative tick values as of 30 minutes from the current block timestamp"
        }
      }
    },
    "version": 1
  },
  "userdoc": {
    "events": {
      "PoolUpdated((address,uint24,uint48,uint16))": {
        "notice": "Emitted when a pool is updated"
      }
    },
    "kind": "user",
    "methods": {
      "MAX_CARDINALITY()": {
        "notice": "Current observation cardinality value under which a cardinality increase is triggered when updating pools"
      },
      "UPDATE_INTERVAL()": {
        "notice": "TWAP interval used when updating pools"
      },
      "activeFees(uint24)": {
        "notice": "Mapping of active fee tiers"
      },
      "addFee(uint24)": {
        "notice": "Add a fee tier to `fees` if supported on Uniswap."
      },
      "constructor": {
        "notice": "================================= ========== Constructor ========== ================================="
      },
      "fees(uint256)": {
        "notice": "UniswapV3Pool fee tiers"
      },
      "getExchangeRate(address,address)": {
        "notice": "Converts quote amount to exchange rate and updates the pool as needed"
      },
      "getPool(address,address)": {
        "notice": "Retrieves stored pool given tokenA and tokenB regardless of order."
      },
      "getQuote(uint128,address,address,uint32)": {
        "notice": "Get the time-weighted quote of `quoteToken` received in exchange for a `baseAmount` of `baseToken`, from the pool with highest liquidity, based on a `secondsTwapInterval` twap interval."
      },
      "getQuoteAndUpdatePool(uint128,address,address,uint32,uint256,uint8)": {
        "notice": "Get the time-weighted quote of `quoteToken`, and updates the pool when necessary."
      },
      "getUpdatedPool(address,address,uint256,uint8)": {
        "notice": "Retrieves stored pool given tokenA and tokenB regardless of order, and updates pool if necessary."
      },
      "pools(address,address)": {
        "notice": "Mapping from currency to PoolData"
      },
      "setPoolUpdateInterval(uint256)": {
        "notice": "Set a new twap interval"
      },
      "setTwapInterval(uint32)": {
        "notice": "Set a new twap interval"
      },
      "supportsInterface(bytes4)": {
        "notice": "Interface checker"
      },
      "twapInterval()": {
        "notice": "TWAP interval in seconds"
      },
      "uniswapV3Factory()": {
        "notice": "UniswapV3Factory contract address"
      },
      "updatePool(address,address,uint8)": {
        "notice": "Updates stored pool with the one having the highest TWAL in the last 30 minutes. See `_updatePool`."
      }
    },
    "notice": "Price feed based on Uniswap V3 TWAP oracles.",
    "version": 1
  },
  "storageLayout": {
    "storage": [
      {
        "astId": 67162,
        "contract": "contracts/UniswapPriceFeed/UniswapPriceFeed.sol:UniswapPriceFeed",
        "label": "UPDATE_SECONDS_AGO",
        "offset": 0,
        "slot": "0",
        "type": "t_array(t_uint32)dyn_storage"
      },
      {
        "astId": 67171,
        "contract": "contracts/UniswapPriceFeed/UniswapPriceFeed.sol:UniswapPriceFeed",
        "label": "fees",
        "offset": 0,
        "slot": "1",
        "type": "t_array(t_uint24)dyn_storage"
      },
      {
        "astId": 67176,
        "contract": "contracts/UniswapPriceFeed/UniswapPriceFeed.sol:UniswapPriceFeed",
        "label": "activeFees",
        "offset": 0,
        "slot": "2",
        "type": "t_mapping(t_uint24,t_bool)"
      },
      {
        "astId": 67187,
        "contract": "contracts/UniswapPriceFeed/UniswapPriceFeed.sol:UniswapPriceFeed",
        "label": "pools",
        "offset": 0,
        "slot": "3",
        "type": "t_mapping(t_address,t_mapping(t_address,t_struct(PoolData)66958_storage))"
      },
      {
        "astId": 67191,
        "contract": "contracts/UniswapPriceFeed/UniswapPriceFeed.sol:UniswapPriceFeed",
        "label": "registry",
        "offset": 0,
        "slot": "4",
        "type": "t_contract(IAccessControl)7879"
      },
      {
        "astId": 67195,
        "contract": "contracts/UniswapPriceFeed/UniswapPriceFeed.sol:UniswapPriceFeed",
        "label": "twapInterval",
        "offset": 20,
        "slot": "4",
        "type": "t_uint32"
      },
      {
        "astId": 67198,
        "contract": "contracts/UniswapPriceFeed/UniswapPriceFeed.sol:UniswapPriceFeed",
        "label": "poolUpdateInterval",
        "offset": 0,
        "slot": "5",
        "type": "t_uint256"
      }
    ],
    "types": {
      "t_address": {
        "encoding": "inplace",
        "label": "address",
        "numberOfBytes": "20"
      },
      "t_array(t_uint24)dyn_storage": {
        "base": "t_uint24",
        "encoding": "dynamic_array",
        "label": "uint24[]",
        "numberOfBytes": "32"
      },
      "t_array(t_uint32)dyn_storage": {
        "base": "t_uint32",
        "encoding": "dynamic_array",
        "label": "uint32[]",
        "numberOfBytes": "32"
      },
      "t_bool": {
        "encoding": "inplace",
        "label": "bool",
        "numberOfBytes": "1"
      },
      "t_contract(IAccessControl)7879": {
        "encoding": "inplace",
        "label": "contract IAccessControl",
        "numberOfBytes": "20"
      },
      "t_mapping(t_address,t_mapping(t_address,t_struct(PoolData)66958_storage))": {
        "encoding": "mapping",
        "key": "t_address",
        "label": "mapping(address => mapping(address => struct IUniswapPriceFeed.PoolData))",
        "numberOfBytes": "32",
        "value": "t_mapping(t_address,t_struct(PoolData)66958_storage)"
      },
      "t_mapping(t_address,t_struct(PoolData)66958_storage)": {
        "encoding": "mapping",
        "key": "t_address",
        "label": "mapping(address => struct IUniswapPriceFeed.PoolData)",
        "numberOfBytes": "32",
        "value": "t_struct(PoolData)66958_storage"
      },
      "t_mapping(t_uint24,t_bool)": {
        "encoding": "mapping",
        "key": "t_uint24",
        "label": "mapping(uint24 => bool)",
        "numberOfBytes": "32",
        "value": "t_bool"
      },
      "t_struct(PoolData)66958_storage": {
        "encoding": "inplace",
        "label": "struct IUniswapPriceFeed.PoolData",
        "members": [
          {
            "astId": 66951,
            "contract": "contracts/UniswapPriceFeed/UniswapPriceFeed.sol:UniswapPriceFeed",
            "label": "poolAddress",
            "offset": 0,
            "slot": "0",
            "type": "t_address"
          },
          {
            "astId": 66953,
            "contract": "contracts/UniswapPriceFeed/UniswapPriceFeed.sol:UniswapPriceFeed",
            "label": "fee",
            "offset": 20,
            "slot": "0",
            "type": "t_uint24"
          },
          {
            "astId": 66955,
            "contract": "contracts/UniswapPriceFeed/UniswapPriceFeed.sol:UniswapPriceFeed",
            "label": "lastUpdatedTimestamp",
            "offset": 23,
            "slot": "0",
            "type": "t_uint48"
          },
          {
            "astId": 66957,
            "contract": "contracts/UniswapPriceFeed/UniswapPriceFeed.sol:UniswapPriceFeed",
            "label": "lastUpdatedCardinalityNext",
            "offset": 29,
            "slot": "0",
            "type": "t_uint16"
          }
        ],
        "numberOfBytes": "32"
      },
      "t_uint16": {
        "encoding": "inplace",
        "label": "uint16",
        "numberOfBytes": "2"
      },
      "t_uint24": {
        "encoding": "inplace",
        "label": "uint24",
        "numberOfBytes": "3"
      },
      "t_uint256": {
        "encoding": "inplace",
        "label": "uint256",
        "numberOfBytes": "32"
      },
      "t_uint32": {
        "encoding": "inplace",
        "label": "uint32",
        "numberOfBytes": "4"
      },
      "t_uint48": {
        "encoding": "inplace",
        "label": "uint48",
        "numberOfBytes": "6"
      }
    }
  }
}