{
  "address": "0x32c70A8E04A426e0E9A375c54D950F42A143afff",
  "abi": [
    {
      "inputs": [
        {
          "internalType": "address",
          "name": "_priceOracle",
          "type": "address"
        }
      ],
      "stateMutability": "nonpayable",
      "type": "constructor"
    },
    {
      "inputs": [],
      "name": "DS_MATH_ADD_OVERFLOW",
      "type": "error"
    },
    {
      "inputs": [],
      "name": "DS_MATH_MUL_OVERFLOW",
      "type": "error"
    },
    {
      "inputs": [
        {
          "internalType": "contract IUniswapV2Pair",
          "name": "pair",
          "type": "address"
        },
        {
          "internalType": "bytes",
          "name": "token0UsdOracleData",
          "type": "bytes"
        },
        {
          "internalType": "bytes",
          "name": "token1UsdOracleData",
          "type": "bytes"
        }
      ],
      "name": "getLPExchangeRate",
      "outputs": [
        {
          "internalType": "uint256",
          "name": "",
          "type": "uint256"
        }
      ],
      "stateMutability": "nonpayable",
      "type": "function"
    },
    {
      "inputs": [
        {
          "internalType": "address",
          "name": "lpToken",
          "type": "address"
        },
        {
          "internalType": "uint256",
          "name": "amount",
          "type": "uint256"
        },
        {
          "internalType": "bytes",
          "name": "token0UsdOracleData",
          "type": "bytes"
        },
        {
          "internalType": "bytes",
          "name": "token1UsdOracleData",
          "type": "bytes"
        }
      ],
      "name": "getQuoteInUsd",
      "outputs": [
        {
          "internalType": "uint256",
          "name": "",
          "type": "uint256"
        }
      ],
      "stateMutability": "nonpayable",
      "type": "function"
    },
    {
      "inputs": [],
      "name": "priceOracle",
      "outputs": [
        {
          "internalType": "contract IPriceOracleV2",
          "name": "",
          "type": "address"
        }
      ],
      "stateMutability": "view",
      "type": "function"
    }
  ],
  "transactionHash": "0x4e0ec1d61f4e368d8e7f217a74c6da77186952c81c4f4ef6c36cd2355ce6739c",
  "args": [
    "0xa88935D6bc5E78f0818Ab8193420Efd110D0ED46"
  ],
  "numDeployments": 1,
  "solcInputHash": "b9821e6aa5ae8bcd6a583375e546781d",
  "bytecode": "0x608034607057601f610a0438819003918201601f19168301916001600160401b03831184841017607557808492602094604052833981010312607057516001600160a01b03811690819003607057600080546001600160a01b031916919091179055604051610978908161008c8239f35b600080fd5b634e487b7160e01b600052604160045260246000fdfe608080604052600436101561001357600080fd5b60003560e01c9081632630c12f146101cc5750806393ed7490146100c25763b8b752391461004057600080fd5b346100bd5760603660031901126100bd576004356001600160a01b03811681036100bd5760243567ffffffffffffffff81116100bd576100849036906004016101f0565b91906044359167ffffffffffffffff83116100bd576020936100ad6100b59436906004016101f0565b939092610321565b604051908152f35b600080fd5b346100bd5760803660031901126100bd576004356001600160a01b038116908190036100bd576024359060443567ffffffffffffffff81116100bd5761010c9036906004016101f0565b916064359267ffffffffffffffff84116100bd576100ad6101319436906004016101f0565b9060009180159182156101ac575b50501561019b576706f05b59d3b2000081019081811161018557811061017457602090670de0b6b3a764000060405191048152f35b630a77254f60e01b60005260046000fd5b634e487b7160e01b600052601160045260246000fd5b631550e8b760e01b60005260046000fd5b915091506101c46101bd83836102e0565b9283610301565b14828061013f565b346100bd5760003660031901126100bd576000546001600160a01b03168152602090f35b9181601f840112156100bd5782359167ffffffffffffffff83116100bd57602083818601950101116100bd57565b90601f8019910116810190811067ffffffffffffffff82111761024057604052565b634e487b7160e01b600052604160045260246000fd5b51906001600160701b03821682036100bd57565b908160209103126100bd57516001600160a01b03811681036100bd5790565b908160209103126100bd575160ff811681036100bd5790565b9192608093819260018060a01b03168452610348602085015260606040850152816060850152848401376000828201840152601f01601f1916010190565b8181029291811591840414171561018557565b604d811161018557600a0a90565b811561030b570490565b634e487b7160e01b600052601260045260246000fd5b90949391926001600160a01b039091169190823b156100bd5760405160016209351760e01b0319815260009690878160048183895af180156107c9576107d4575b50604051630240bc6b60e21b815294606086600481885afa9384156107c95788968995610766575b50604051630dfe168160e01b8152906020826004818a5afa91821561075b578a9261073a575b5060405163d21220a760e01b8152946020866004818b5afa958615610669578b96610709575b5060405163313ce56760e01b8152946020866004816001600160a01b0388165afa9586156106fe578c966106dd575b5060405163313ce56760e01b81529960208b6004816001600160a01b038c165afa9a8b156106d2578d9b610698575b506001600160701b03169485151580610686575b156106745761047d946020928e60018060a01b03815416926040519889958694859363416be2f360e01b8552600485016102a2565b03925af1928315610669578b93610631575b508a5460405163416be2f360e01b81529660209388936001600160a01b039093169284928f9284926104c492600485016102a2565b03925af19384156105d75789946105fd575b50801515806105f4575b156105e2576020600496604051978880926318160ddd60e01b82525afa9586156105d7578996610599575b5060ff61053b61055696956001600160701b03610548610550976105428661053b61055b9e9f9a6105429a6102e0565b92166102f3565b90610301565b9716906102e0565b906102e0565b6107f5565b80671bc16d674ec800000290671bc16d674ec8000082040361058557610582929350610301565b90565b634e487b7160e01b84526011600452602484fd5b90969192949395506020813d6020116105cf575b816105ba6020938361021e565b810103126100bd57519492939190953861050b565b3d91506105ad565b6040513d8b823e3d90fd5b604051630f70973b60e41b8152600490fd5b508315156104e0565b9093506020813d602011610629575b816106196020938361021e565b810103126100bd575192386104d6565b3d915061060c565b919092506020823d602011610661575b8161064e6020938361021e565b810103126100bd579051916104c461048f565b3d9150610641565b6040513d8d823e3d90fd5b60405163c6acfef560e01b8152600490fd5b506001600160701b0389161515610448565b6001600160701b03919b506106c49060203d6020116106cb575b6106bc818361021e565b810190610289565b9a90610434565b503d6106b2565b6040513d8f823e3d90fd5b6106f791965060203d6020116106cb576106bc818361021e565b9438610405565b6040513d8e823e3d90fd5b61072c91965060203d602011610733575b610724818361021e565b81019061026a565b94386103d6565b503d61071a565b61075491925060203d60201161073357610724818361021e565b90386103b0565b6040513d8c823e3d90fd5b965093506060863d6060116107c1575b816107836060938361021e565b810103126107bd5761079486610256565b60406107a260208901610256565b97015163ffffffff8116036107b95795933861038a565b8880fd5b8780fd5b3d9150610776565b6040513d8a823e3d90fd5b876107e19198929861021e565b9538610362565b9190820180921161018557565b801561093c57600181600160801b81101561092a575b6108bb6108ae6108a161089461088761087a6108d297600888600160401b6108c89a101561091d575b640100000000811015610910575b62010000811015610904575b6101008110156108f8575b60108110156108eb575b10156108e3575b610874818b610301565b906107e8565b60011c610874818a610301565b60011c6108748189610301565b60011c6108748188610301565b60011c6108748187610301565b60011c6108748186610301565b60011c6108748185610301565b60011c8092610301565b808210156108de575090565b905090565b60011b61086a565b60041c9160021b91610863565b811c9160041b91610859565b60101c91811b9161084e565b60201c9160101b91610842565b60401c9160201b91610834565b50600160401b9050608082901c61080b565b5060009056fea2646970667358221220959fba423c3c8cf812df2c4e6d8db0a62b43250ba539372f84278d25de45f10464736f6c634300081a0033",
  "devdoc": {
    "kind": "dev",
    "methods": {},
    "version": 1
  },
  "userdoc": {
    "kind": "user",
    "methods": {},
    "version": 1
  },
  "storageLayout": {
    "storage": [
      {
        "astId": 74599,
        "contract": "contracts/UniswapV2LPOracle/UniswapV2LPOracle.sol:UniswapV2LPOracle",
        "label": "priceOracle",
        "offset": 0,
        "slot": "0",
        "type": "t_contract(IPriceOracleV2)56397"
      }
    ],
    "types": {
      "t_contract(IPriceOracleV2)56397": {
        "encoding": "inplace",
        "label": "contract IPriceOracleV2",
        "numberOfBytes": "20"
      }
    }
  }
}