{
    "address": "0x621aa40d4dc8933737268f1632375acb3b88b3d4",
    "abi": [
        {
            "type": "constructor",
            "inputs": [
                {
                    "name": "_vestedPMX",
                    "type": "address",
                    "internalType": "address"
                }
            ],
            "stateMutability": "nonpayable"
        },
        {
            "type": "function",
            "name": "getCrudeExpectedVePMXMultiLock",
            "inputs": [
                {
                    "name": "_pmxAmounts",
                    "type": "int128[]",
                    "internalType": "int128[]"
                },
                {
                    "name": "_lockSecsU128",
                    "type": "uint128[]",
                    "internalType": "uint128[]"
                }
            ],
            "outputs": [
                {
                    "name": "_expectedVePMX",
                    "type": "uint256",
                    "internalType": "uint256"
                }
            ],
            "stateMutability": "view"
        },
        {
            "type": "function",
            "name": "getCrudeExpectedVePMXOneLock",
            "inputs": [
                {
                    "name": "_pmxAmount",
                    "type": "int128",
                    "internalType": "int128"
                },
                {
                    "name": "_lockSecsU128",
                    "type": "uint128",
                    "internalType": "uint128"
                }
            ],
            "outputs": [
                {
                    "name": "_expectedVePMX",
                    "type": "uint256",
                    "internalType": "uint256"
                }
            ],
            "stateMutability": "view"
        },
        {
            "type": "function",
            "name": "getCrudeExpectedVePMXUser",
            "inputs": [
                {
                    "name": "_user",
                    "type": "address",
                    "internalType": "address"
                }
            ],
            "outputs": [
                {
                    "name": "_expectedVePMX",
                    "type": "uint256",
                    "internalType": "uint256"
                }
            ],
            "stateMutability": "view"
        },
        {
            "type": "function",
            "name": "getDetailedUserLockInfo",
            "inputs": [
                {
                    "name": "_user",
                    "type": "address",
                    "internalType": "address"
                }
            ],
            "outputs": [
                {
                    "name": "_userLockInfo",
                    "type": "tuple",
                    "internalType": "struct IvePMXStructs.DetailedUserLockInfo",
                    "components": [
                        {
                            "name": "user",
                            "type": "address",
                            "internalType": "address"
                        },
                        {
                            "name": "numberOfLocks",
                            "type": "uint256",
                            "internalType": "uint256"
                        },
                        {
                            "name": "allLocks",
                            "type": "tuple[]",
                            "internalType": "struct IvePMXStructs.LockedBalanceExtended[]",
                            "components": [
                                {
                                    "name": "id",
                                    "type": "uint256",
                                    "internalType": "uint256"
                                },
                                {
                                    "name": "index",
                                    "type": "uint128",
                                    "internalType": "uint128"
                                },
                                {
                                    "name": "amount",
                                    "type": "int128",
                                    "internalType": "int128"
                                },
                                {
                                    "name": "end",
                                    "type": "uint128",
                                    "internalType": "uint128"
                                }
                            ]
                        },
                        {
                            "name": "activeLocks",
                            "type": "tuple[]",
                            "internalType": "struct IvePMXStructs.LockedBalanceExtended[]",
                            "components": [
                                {
                                    "name": "id",
                                    "type": "uint256",
                                    "internalType": "uint256"
                                },
                                {
                                    "name": "index",
                                    "type": "uint128",
                                    "internalType": "uint128"
                                },
                                {
                                    "name": "amount",
                                    "type": "int128",
                                    "internalType": "int128"
                                },
                                {
                                    "name": "end",
                                    "type": "uint128",
                                    "internalType": "uint128"
                                }
                            ]
                        },
                        {
                            "name": "expiredLocks",
                            "type": "tuple[]",
                            "internalType": "struct IvePMXStructs.LockedBalanceExtended[]",
                            "components": [
                                {
                                    "name": "id",
                                    "type": "uint256",
                                    "internalType": "uint256"
                                },
                                {
                                    "name": "index",
                                    "type": "uint128",
                                    "internalType": "uint128"
                                },
                                {
                                    "name": "amount",
                                    "type": "int128",
                                    "internalType": "int128"
                                },
                                {
                                    "name": "end",
                                    "type": "uint128",
                                    "internalType": "uint128"
                                }
                            ]
                        },
                        {
                            "name": "totalPmx",
                            "type": "int128[3]",
                            "internalType": "int128[3]"
                        }
                    ]
                }
            ],
            "stateMutability": "view"
        },
        {
            "type": "function",
            "name": "getDetailedUserLockInfoBulk",
            "inputs": [
                {
                    "name": "_users",
                    "type": "address[]",
                    "internalType": "address[]"
                }
            ],
            "outputs": [
                {
                    "name": "_userLockInfos",
                    "type": "tuple[]",
                    "internalType": "struct IvePMXStructs.DetailedUserLockInfo[]",
                    "components": [
                        {
                            "name": "user",
                            "type": "address",
                            "internalType": "address"
                        },
                        {
                            "name": "numberOfLocks",
                            "type": "uint256",
                            "internalType": "uint256"
                        },
                        {
                            "name": "allLocks",
                            "type": "tuple[]",
                            "internalType": "struct IvePMXStructs.LockedBalanceExtended[]",
                            "components": [
                                {
                                    "name": "id",
                                    "type": "uint256",
                                    "internalType": "uint256"
                                },
                                {
                                    "name": "index",
                                    "type": "uint128",
                                    "internalType": "uint128"
                                },
                                {
                                    "name": "amount",
                                    "type": "int128",
                                    "internalType": "int128"
                                },
                                {
                                    "name": "end",
                                    "type": "uint128",
                                    "internalType": "uint128"
                                }
                            ]
                        },
                        {
                            "name": "activeLocks",
                            "type": "tuple[]",
                            "internalType": "struct IvePMXStructs.LockedBalanceExtended[]",
                            "components": [
                                {
                                    "name": "id",
                                    "type": "uint256",
                                    "internalType": "uint256"
                                },
                                {
                                    "name": "index",
                                    "type": "uint128",
                                    "internalType": "uint128"
                                },
                                {
                                    "name": "amount",
                                    "type": "int128",
                                    "internalType": "int128"
                                },
                                {
                                    "name": "end",
                                    "type": "uint128",
                                    "internalType": "uint128"
                                }
                            ]
                        },
                        {
                            "name": "expiredLocks",
                            "type": "tuple[]",
                            "internalType": "struct IvePMXStructs.LockedBalanceExtended[]",
                            "components": [
                                {
                                    "name": "id",
                                    "type": "uint256",
                                    "internalType": "uint256"
                                },
                                {
                                    "name": "index",
                                    "type": "uint128",
                                    "internalType": "uint128"
                                },
                                {
                                    "name": "amount",
                                    "type": "int128",
                                    "internalType": "int128"
                                },
                                {
                                    "name": "end",
                                    "type": "uint128",
                                    "internalType": "uint128"
                                }
                            ]
                        },
                        {
                            "name": "totalPmx",
                            "type": "int128[3]",
                            "internalType": "int128[3]"
                        }
                    ]
                }
            ],
            "stateMutability": "view"
        },
        {
            "type": "function",
            "name": "getLongestLock",
            "inputs": [
                {
                    "name": "user",
                    "type": "address",
                    "internalType": "address"
                }
            ],
            "outputs": [
                {
                    "name": "",
                    "type": "tuple",
                    "internalType": "struct IvePMXStructs.LockedBalance",
                    "components": [
                        {
                            "name": "amount",
                            "type": "int128",
                            "internalType": "int128"
                        },
                        {
                            "name": "end",
                            "type": "uint128",
                            "internalType": "uint128"
                        }
                    ]
                },
                {
                    "name": "",
                    "type": "uint128",
                    "internalType": "uint128"
                }
            ],
            "stateMutability": "view"
        },
        {
            "type": "function",
            "name": "getLongestLockBulk",
            "inputs": [
                {
                    "name": "users",
                    "type": "address[]",
                    "internalType": "address[]"
                }
            ],
            "outputs": [
                {
                    "name": "",
                    "type": "tuple[]",
                    "internalType": "struct IvePMXStructs.LongestLock[]",
                    "components": [
                        {
                            "name": "lock",
                            "type": "tuple",
                            "internalType": "struct IvePMXStructs.LockedBalance",
                            "components": [
                                {
                                    "name": "amount",
                                    "type": "int128",
                                    "internalType": "int128"
                                },
                                {
                                    "name": "end",
                                    "type": "uint128",
                                    "internalType": "uint128"
                                }
                            ]
                        },
                        {
                            "name": "lockIndex",
                            "type": "uint128",
                            "internalType": "uint128"
                        },
                        {
                            "name": "user",
                            "type": "address",
                            "internalType": "address"
                        }
                    ]
                }
            ],
            "stateMutability": "view"
        },
        {
            "type": "function",
            "name": "token",
            "inputs": [],
            "outputs": [
                {
                    "name": "",
                    "type": "address",
                    "internalType": "contract IERC20Metadata"
                }
            ],
            "stateMutability": "view"
        },
        {
            "type": "function",
            "name": "vePMX",
            "inputs": [],
            "outputs": [
                {
                    "name": "",
                    "type": "address",
                    "internalType": "contract IVestedPMX"
                }
            ],
            "stateMutability": "view"
        }
    ],
    "bytecode": {
        "object": "0x60c060405234801561000f575f80fd5b5060405161220f38038061220f83398101604081905261002e916100ac565b6001600160a01b038116608081905260408051637e062a3560e11b8152905163fc0c546a916004808201926020929091908290030181865afa158015610076573d5f803e3d5ffd5b505050506040513d601f19601f8201168201806040525081019061009a91906100ac565b6001600160a01b031660a052506100d9565b5f602082840312156100bc575f80fd5b81516001600160a01b03811681146100d2575f80fd5b9392505050565b60805160a0516120ac6101635f395f6101f301525f8181610187015281816102cb01528181610490015281816106720152818161073c01528181610b5001528181610bee01528181610c7b01528181610d1e01528181610dff01528181610fd20152818161112b01528181611231015281816113750152818161145c01526115a601526120ac5ff3fe608060405234801561000f575f80fd5b506004361061009f575f3560e01c8063d8e6971611610072578063f4ebfcae11610058578063f4ebfcae14610182578063fb908ddd146101ce578063fc0c546a146101ee575f80fd5b8063d8e6971614610120578063f37461ab14610133575f80fd5b806329d71cb6146100a35780632d3c1721146100cc5780633c593312146100ed578063ba12f8781461010d575b5f80fd5b6100b66100b1366004611880565b610215565b6040516100c39190611a52565b60405180910390f35b6100df6100da366004611b6f565b6102c7565b6040519081526020016100c3565b6101006100fb366004611c34565b610441565b6040516100c39190611c54565b6100df61011b366004611c66565b610b4d565b6100df61012e366004611c34565b610def565b610146610141366004611c34565b610f76565b604080518351600f0b81526020938401516fffffffffffffffffffffffffffffffff9081169482019490945292909116908201526060016100c3565b6101a97f000000000000000000000000000000000000000000000000000000000000000081565b60405173ffffffffffffffffffffffffffffffffffffffff90911681526020016100c3565b6101e16101dc366004611880565b6112bc565b6040516100c39190611c9d565b6101a97f000000000000000000000000000000000000000000000000000000000000000081565b80516060908067ffffffffffffffff811115610233576102336117b9565b60405190808252806020026020018201604052801561026c57816020015b61025961174c565b8152602001906001900390816102515790505b5091505f5b818110156102c05761029b84828151811061028e5761028e611d49565b6020026020010151610441565b8382815181106102ad576102ad611d49565b6020908102919091010152600101610271565b5050919050565b5f807f000000000000000000000000000000000000000000000000000000000000000073ffffffffffffffffffffffffffffffffffffffff1663f89464856040518163ffffffff1660e01b8152600401602060405180830381865afa158015610332573d5f803e3d5ffd5b505050506040513d601f19601f820116820180604052508101906103569190611d76565b90505f5b8451816fffffffffffffffffffffffffffffffff1610156104395781156103bc5784816fffffffffffffffffffffffffffffffff168151811061039f5761039f611d49565b6020026020010151600f0b836103b59190611dc2565b9250610429565b61041c85826fffffffffffffffffffffffffffffffff16815181106103e3576103e3611d49565b602002602001015185836fffffffffffffffffffffffffffffffff168151811061040f5761040f611d49565b6020026020010151610b4d565b6104269084611dc2565b92505b61043281611dd5565b905061035a565b505092915050565b61044961174c565b6040517fb9ef083000000000000000000000000000000000000000000000000000000000815273ffffffffffffffffffffffffffffffffffffffff83811660048301525f917f00000000000000000000000000000000000000000000000000000000000000009091169063b9ef083090602401602060405180830381865afa1580156104d7573d5f803e3d5ffd5b505050506040513d601f19601f820116820180604052508101906104fb9190611e11565b6fffffffffffffffffffffffffffffffff166020830181905273ffffffffffffffffffffffffffffffffffffffff8416835290505f8167ffffffffffffffff811115610549576105496117b9565b6040519080825280602002602001820160405280156105b857816020015b604080516080810182525f8082526020808301829052928201819052606082015282527fffffffffffffffffffffffffffffffffffffffffffffffffffffffffffffffff9092019101816105675790505b5060408401525f8267ffffffffffffffff8111156105d8576105d86117b9565b604051908082528060200260200182016040528015610601578160200160208202803683370190505b5090505f5b846040015151811015610924576040517f21c984e900000000000000000000000000000000000000000000000000000000815273ffffffffffffffffffffffffffffffffffffffff87811660048301526fffffffffffffffffffffffffffffffff831660248301525f917f0000000000000000000000000000000000000000000000000000000000000000909116906321c984e9906044016040805180830381865afa1580156106b8573d5f803e3d5ffd5b505050506040513d601f19601f820116820180604052508101906106dc9190611e2c565b6040517f5f96d4e700000000000000000000000000000000000000000000000000000000815273ffffffffffffffffffffffffffffffffffffffff89811660048301526fffffffffffffffffffffffffffffffff851660248301529192507f000000000000000000000000000000000000000000000000000000000000000090911690635f96d4e790604401602060405180830381865afa158015610783573d5f803e3d5ffd5b505050506040513d601f19601f820116820180604052508101906107a79190611e8b565b866040015183815181106107bd576107bd611d49565b60200260200101515f01818152505081866040015183815181106107e3576107e3611d49565b6020908102919091018101516fffffffffffffffffffffffffffffffff9092169101528051604087015180518490811061081f5761081f611d49565b602002602001015160400190600f0b9081600f0b8152505080602001518660400151838151811061085257610852611d49565b60209081029190910101516fffffffffffffffffffffffffffffffff91909116606090910152805160a0870151805161088c908390611ea2565b600f0b9052506020810151426fffffffffffffffffffffffffffffffff90911611156108fd5760018383815181106108c6576108c6611d49565b911515602092830291909101820152815160a088015190910180516108ec908390611ea2565b600f0b90525060019093019261091b565b805160a08701516040018051610914908390611ea2565b600f0b9052505b50600101610606565b50816fffffffffffffffffffffffffffffffff1667ffffffffffffffff811115610950576109506117b9565b6040519080825280602002602001820160405280156109bf57816020015b604080516080810182525f8082526020808301829052928201819052606082015282527fffffffffffffffffffffffffffffffffffffffffffffffffffffffffffffffff90920191018161096e5790505b5060608501526109e16fffffffffffffffffffffffffffffffff831684611ef0565b67ffffffffffffffff8111156109f9576109f96117b9565b604051908082528060200260200182016040528015610a6857816020015b604080516080810182525f8082526020808301829052928201819052606082015282527fffffffffffffffffffffffffffffffffffffffffffffffffffffffffffffffff909201910181610a175790505b5060808501525f80805b866040015151811015610b42575f87604001518281518110610a9657610a96611d49565b60200260200101519050848281518110610ab257610ab2611d49565b602002602001015115610afe57808860600151856fffffffffffffffffffffffffffffffff1681518110610ae857610ae8611d49565b6020026020010181905250836001019350610b39565b808860800151846fffffffffffffffffffffffffffffffff1681518110610b2757610b27611d49565b60200260200101819052508260010192505b50600101610a72565b505050505050919050565b5f7f000000000000000000000000000000000000000000000000000000000000000073ffffffffffffffffffffffffffffffffffffffff1663f89464856040518163ffffffff1660e01b8152600401602060405180830381865afa158015610bb7573d5f803e3d5ffd5b505050506040513d601f19601f82011682018060405250810190610bdb9190611d76565b15610beb5782600f0b9050610de9565b5f7f000000000000000000000000000000000000000000000000000000000000000073ffffffffffffffffffffffffffffffffffffffff16637c10d93a6040518163ffffffff1660e01b8152600401602060405180830381865afa158015610c55573d5f803e3d5ffd5b505050506040513d601f19601f82011682018060405250810190610c799190611e11565b7f000000000000000000000000000000000000000000000000000000000000000073ffffffffffffffffffffffffffffffffffffffff16637c10d93a6040518163ffffffff1660e01b8152600401602060405180830381865afa158015610ce2573d5f803e3d5ffd5b505050506040513d601f19601f82011682018060405250810190610d069190611e11565b610d109085611f30565b610d1a9190611f6f565b90507f000000000000000000000000000000000000000000000000000000000000000073ffffffffffffffffffffffffffffffffffffffff16637aa9b5566040518163ffffffff1660e01b8152600401602060405180830381865afa158015610d85573d5f803e3d5ffd5b505050506040513d601f19601f82011682018060405250810190610da99190611fa1565b81610db5866003611fbc565b610dbf9190611fbc565b610dc99190611fdb565b610dd39085611ea2565b6fffffffffffffffffffffffffffffffff169150505b92915050565b5f80610dfa83610441565b90505f7f000000000000000000000000000000000000000000000000000000000000000073ffffffffffffffffffffffffffffffffffffffff1663f89464856040518163ffffffff1660e01b8152600401602060405180830381865afa158015610e66573d5f803e3d5ffd5b505050506040513d601f19601f82011682018060405250810190610e8a9190611d76565b90505f5b8260200151816fffffffffffffffffffffffffffffffff161015610f6e575f8360400151826fffffffffffffffffffffffffffffffff1681518110610ed557610ed5611d49565b602002602001015190508215610efe576040810151610ef790600f0b86611dc2565b9450610f65565b5f426fffffffffffffffffffffffffffffffff1682606001516fffffffffffffffffffffffffffffffff161015610f3657505f610f49565b428260600151610f46919061204e565b90505b610f57826040015182610b4d565b610f619087611dc2565b9550505b50600101610e8e565b505050919050565b604080518082019091525f80825260208201526040517fb9ef083000000000000000000000000000000000000000000000000000000000815273ffffffffffffffffffffffffffffffffffffffff83811660048301525f9182917f0000000000000000000000000000000000000000000000000000000000000000169063b9ef083090602401602060405180830381865afa158015611017573d5f803e3d5ffd5b505050506040513d601f19601f8201168201806040525081019061103b9190611e11565b6fffffffffffffffffffffffffffffffff1667ffffffffffffffff811115611065576110656117b9565b6040519080825280602002602001820160405280156110a957816020015b604080518082019091525f80825260208201528152602001906001900390816110835790505b50604080518082019091525f80825260208201529091505f805b83518110156112b0576040517f21c984e900000000000000000000000000000000000000000000000000000000815273ffffffffffffffffffffffffffffffffffffffff88811660048301526fffffffffffffffffffffffffffffffff831660248301525f917f0000000000000000000000000000000000000000000000000000000000000000909116906321c984e9906044016040805180830381865afa158015611171573d5f803e3d5ffd5b505050506040513d601f19601f820116820180604052508101906111959190611e2c565b60200151905083602001516fffffffffffffffffffffffffffffffff16816fffffffffffffffffffffffffffffffff1611156112a7576fffffffffffffffffffffffffffffffff81811660208601526040517f21c984e900000000000000000000000000000000000000000000000000000000815273ffffffffffffffffffffffffffffffffffffffff8a8116600483015291841660248201527f0000000000000000000000000000000000000000000000000000000000000000909116906321c984e9906044016040805180830381865afa158015611277573d5f803e3d5ffd5b505050506040513d601f19601f8201168201806040525081019061129b9190611e2c565b51600f0b845290915081905b506001016110c3565b50909590945092505050565b60605f825167ffffffffffffffff8111156112d9576112d96117b9565b60405190808252806020026020018201604052801561134e57816020015b6040805160a0810182525f6060820181815260808301829052825260208083018290529282015282527fffffffffffffffffffffffffffffffffffffffffffffffffffffffffffffffff9092019101816112f75790505b50604080518082019091525f80825260208201529091505f805b8551811015611742575f5b7f000000000000000000000000000000000000000000000000000000000000000073ffffffffffffffffffffffffffffffffffffffff1663b9ef08308884815181106113c1576113c1611d49565b60200260200101516040518263ffffffff1660e01b8152600401611401919073ffffffffffffffffffffffffffffffffffffffff91909116815260200190565b602060405180830381865afa15801561141c573d5f803e3d5ffd5b505050506040513d601f19601f820116820180604052508101906114409190611e11565b6fffffffffffffffffffffffffffffffff1681101561168b575f7f000000000000000000000000000000000000000000000000000000000000000073ffffffffffffffffffffffffffffffffffffffff166321c984e98985815181106114a8576114a8611d49565b6020026020010151846040518363ffffffff1660e01b815260040161150192919073ffffffffffffffffffffffffffffffffffffffff9290921682526fffffffffffffffffffffffffffffffff16602082015260400190565b6040805180830381865afa15801561151b573d5f803e3d5ffd5b505050506040513d601f19601f8201168201806040525081019061153f9190611e2c565b60200151905084602001516fffffffffffffffffffffffffffffffff16816fffffffffffffffffffffffffffffffff161115611682576fffffffffffffffffffffffffffffffff81166020860152875173ffffffffffffffffffffffffffffffffffffffff7f000000000000000000000000000000000000000000000000000000000000000016906321c984e9908a90869081106115df576115df611d49565b6020026020010151846040518363ffffffff1660e01b815260040161163892919073ffffffffffffffffffffffffffffffffffffffff9290921682526fffffffffffffffffffffffffffffffff16602082015260400190565b6040805180830381865afa158015611652573d5f803e3d5ffd5b505050506040513d601f19601f820116820180604052508101906116769190611e2c565b51600f0b855290925082905b50600101611373565b506040518060600160405280848152602001836fffffffffffffffffffffffffffffffff1681526020018783815181106116c7576116c7611d49565b602002602001015173ffffffffffffffffffffffffffffffffffffffff168152508482815181106116fa576116fa611d49565b602002602001018190525061173560405180604001604052805f600f0b81526020015f6fffffffffffffffffffffffffffffffff1681525090565b92505f9150600101611368565b5091949350505050565b6040518060c001604052805f73ffffffffffffffffffffffffffffffffffffffff1681526020015f815260200160608152602001606081526020016060815260200161179661179b565b905290565b60405180606001604052806003906020820280368337509192915050565b7f4e487b71000000000000000000000000000000000000000000000000000000005f52604160045260245ffd5b604051601f82017fffffffffffffffffffffffffffffffffffffffffffffffffffffffffffffffe016810167ffffffffffffffff8111828210171561182d5761182d6117b9565b604052919050565b5f67ffffffffffffffff82111561184e5761184e6117b9565b5060051b60200190565b803573ffffffffffffffffffffffffffffffffffffffff8116811461187b575f80fd5b919050565b5f60208284031215611890575f80fd5b813567ffffffffffffffff8111156118a6575f80fd5b8201601f810184136118b6575f80fd5b80356118c96118c482611835565b6117e6565b8082825260208201915060208360051b8501019250868311156118ea575f80fd5b6020840193505b828410156119135761190284611858565b8252602093840193909101906118f1565b9695505050505050565b5f8151808452602084019350602083015f5b8281101561199a578151805187526fffffffffffffffffffffffffffffffff60208201511660208801526040810151600f0b60408801526fffffffffffffffffffffffffffffffff60608201511660608801525060808601955060208201915060018101905061192f565b5093949350505050565b73ffffffffffffffffffffffffffffffffffffffff8151168252602081015160208301525f604082015161010060408501526119e461010085018261191d565b9050606083015184820360608601526119fd828261191d565b91505060808301518482036080860152611a17828261191d565b91505060a083015160a085015f5b6003811015611a47578251600f0b825260209283019290910190600101611a25565b509195945050505050565b5f602082016020835280845180835260408501915060408160051b8601019250602086015f5b82811015611ac7577fffffffffffffffffffffffffffffffffffffffffffffffffffffffffffffffc0878603018452611ab28583516119a4565b94506020938401939190910190600101611a78565b50929695505050505050565b80600f0b8114611ae1575f80fd5b50565b6fffffffffffffffffffffffffffffffff81168114611ae1575f80fd5b5f82601f830112611b10575f80fd5b8135611b1e6118c482611835565b8082825260208201915060208360051b860101925085831115611b3f575f80fd5b602085015b83811015611b65578035611b5781611ae4565b835260209283019201611b44565b5095945050505050565b5f8060408385031215611b80575f80fd5b823567ffffffffffffffff811115611b96575f80fd5b8301601f81018513611ba6575f80fd5b8035611bb46118c482611835565b8082825260208201915060208360051b850101925087831115611bd5575f80fd5b6020840193505b82841015611c00578335611bef81611ad3565b825260209384019390910190611bdc565b9450505050602083013567ffffffffffffffff811115611c1e575f80fd5b611c2a85828601611b01565b9150509250929050565b5f60208284031215611c44575f80fd5b611c4d82611858565b9392505050565b602081525f611c4d60208301846119a4565b5f8060408385031215611c77575f80fd5b8235611c8281611ad3565b91506020830135611c9281611ae4565b809150509250929050565b602080825282518282018190525f918401906040840190835b81811015611d3e578351611cea8482518051600f0b82526020908101516fffffffffffffffffffffffffffffffff16910152565b6fffffffffffffffffffffffffffffffff602082015116604085015273ffffffffffffffffffffffffffffffffffffffff604082015116606085015250608083019250602084019350600181019050611cb6565b509095945050505050565b7f4e487b71000000000000000000000000000000000000000000000000000000005f52603260045260245ffd5b5f60208284031215611d86575f80fd5b81518015158114611c4d575f80fd5b7f4e487b71000000000000000000000000000000000000000000000000000000005f52601160045260245ffd5b80820180821115610de957610de9611d95565b5f6fffffffffffffffffffffffffffffffff82166fffffffffffffffffffffffffffffffff8103611e0857611e08611d95565b60010192915050565b5f60208284031215611e21575f80fd5b8151611c4d81611ae4565b5f6040828403128015611e3d575f80fd5b506040805190810167ffffffffffffffff81118282101715611e6157611e616117b9565b6040528251611e6f81611ad3565b81526020830151611e7f81611ae4565b60208201529392505050565b5f60208284031215611e9b575f80fd5b5051919050565b600f81810b9083900b016f7fffffffffffffffffffffffffffffff81137fffffffffffffffffffffffffffffffff8000000000000000000000000000000082121715610de957610de9611d95565b81810381811115610de957610de9611d95565b7f4e487b71000000000000000000000000000000000000000000000000000000005f52601260045260245ffd5b5f6fffffffffffffffffffffffffffffffff831680611f5157611f51611f03565b806fffffffffffffffffffffffffffffffff84160491505092915050565b6fffffffffffffffffffffffffffffffff8181168382160290811690818114611f9a57611f9a611d95565b5092915050565b5f60208284031215611fb1575f80fd5b8151611c4d81611ad3565b5f82600f0b82600f0b0280600f0b9150808214611f9a57611f9a611d95565b5f81600f0b83600f0b80611ff157611ff1611f03565b7fffffffffffffffffffffffffffffffffffffffffffffffffffffffffffffffff81147fffffffffffffffffffffffffffffffff800000000000000000000000000000008314161561204557612045611d95565b90059392505050565b6fffffffffffffffffffffffffffffffff8281168282160390811115610de957610de9611d9556fea2646970667358221220bd2de1bce35aaa11355f15a74294dac8e4010a7e856949deef10a2e3bcb0314264736f6c634300081a0033",
        "linkReferences": {}
    },
    "methodIdentifiers": {
        "getCrudeExpectedVePMXMultiLock(int128[],uint128[])": "2d3c1721",
        "getCrudeExpectedVePMXOneLock(int128,uint128)": "ba12f878",
        "getCrudeExpectedVePMXUser(address)": "d8e69716",
        "getDetailedUserLockInfo(address)": "3c593312",
        "getDetailedUserLockInfoBulk(address[])": "29d71cb6",
        "getLongestLock(address)": "f37461ab",
        "getLongestLockBulk(address[])": "fb908ddd",
        "token()": "fc0c546a",
        "vePMX()": "f4ebfcae"
    },
    "id": 70
}