{
    "address": "0x26d9e8Aac9B0271A1B4841aCd9da1aafd0714025",
    "abi": [
        {
            "type": "constructor",
            "inputs": [],
            "stateMutability": "nonpayable"
        },
        {
            "type": "function",
            "name": "acceptOwnership",
            "inputs": [],
            "outputs": [],
            "stateMutability": "nonpayable"
        },
        {
            "type": "function",
            "name": "bulkCheckpointOtherUsers",
            "inputs": [
                {
                    "name": "_accounts",
                    "type": "address[]",
                    "internalType": "address[]"
                }
            ],
            "outputs": [],
            "stateMutability": "nonpayable"
        },
        {
            "type": "function",
            "name": "checkpoint",
            "inputs": [],
            "outputs": [],
            "stateMutability": "nonpayable"
        },
        {
            "type": "function",
            "name": "checkpointOtherUser",
            "inputs": [
                {
                    "name": "_account",
                    "type": "address",
                    "internalType": "address"
                }
            ],
            "outputs": [],
            "stateMutability": "nonpayable"
        },
        {
            "type": "function",
            "name": "earned",
            "inputs": [
                {
                    "name": "_account",
                    "type": "address",
                    "internalType": "address"
                }
            ],
            "outputs": [
                {
                    "name": "_earned",
                    "type": "uint256",
                    "internalType": "uint256"
                }
            ],
            "stateMutability": "view"
        },
        {
            "type": "function",
            "name": "eligibleCurrentVePMX",
            "inputs": [
                {
                    "name": "_user",
                    "type": "address",
                    "internalType": "address"
                }
            ],
            "outputs": [
                {
                    "name": "_eligibleVepmxBal",
                    "type": "uint256",
                    "internalType": "uint256"
                },
                {
                    "name": "_storedEndingTimestamp",
                    "type": "uint256",
                    "internalType": "uint256"
                }
            ],
            "stateMutability": "view"
        },
        {
            "type": "function",
            "name": "emittedToken",
            "inputs": [],
            "outputs": [
                {
                    "name": "",
                    "type": "address",
                    "internalType": "contract ERC20"
                }
            ],
            "stateMutability": "view"
        },
        {
            "type": "function",
            "name": "emittedTokenAddress",
            "inputs": [],
            "outputs": [
                {
                    "name": "",
                    "type": "address",
                    "internalType": "address"
                }
            ],
            "stateMutability": "view"
        },
        {
            "type": "function",
            "name": "fractionParticipating",
            "inputs": [],
            "outputs": [
                {
                    "name": "_fraction",
                    "type": "uint256",
                    "internalType": "uint256"
                }
            ],
            "stateMutability": "view"
        },
        {
            "type": "function",
            "name": "getYield",
            "inputs": [],
            "outputs": [
                {
                    "name": "_yield0",
                    "type": "uint256",
                    "internalType": "uint256"
                }
            ],
            "stateMutability": "nonpayable"
        },
        {
            "type": "function",
            "name": "getYieldForDuration",
            "inputs": [],
            "outputs": [
                {
                    "name": "_yield",
                    "type": "uint256",
                    "internalType": "uint256"
                }
            ],
            "stateMutability": "view"
        },
        {
            "type": "function",
            "name": "getYieldThirdParty",
            "inputs": [
                {
                    "name": "_staker",
                    "type": "address",
                    "internalType": "address"
                }
            ],
            "outputs": [
                {
                    "name": "_yield0",
                    "type": "uint256",
                    "internalType": "uint256"
                }
            ],
            "stateMutability": "nonpayable"
        },
        {
            "type": "function",
            "name": "greylist",
            "inputs": [
                {
                    "name": "",
                    "type": "address",
                    "internalType": "address"
                }
            ],
            "outputs": [
                {
                    "name": "",
                    "type": "bool",
                    "internalType": "bool"
                }
            ],
            "stateMutability": "view"
        },
        {
            "type": "function",
            "name": "greylistAddress",
            "inputs": [
                {
                    "name": "_address",
                    "type": "address",
                    "internalType": "address"
                }
            ],
            "outputs": [],
            "stateMutability": "nonpayable"
        },
        {
            "type": "function",
            "name": "initialize",
            "inputs": [
                {
                    "name": "_owner",
                    "type": "address",
                    "internalType": "address"
                },
                {
                    "name": "_timelockAddress",
                    "type": "address",
                    "internalType": "address"
                },
                {
                    "name": "_emittedToken",
                    "type": "address",
                    "internalType": "address"
                },
                {
                    "name": "_vePMXAggregator",
                    "type": "address",
                    "internalType": "address"
                }
            ],
            "outputs": [],
            "stateMutability": "nonpayable"
        },
        {
            "type": "function",
            "name": "lastTimeYieldApplicable",
            "inputs": [],
            "outputs": [
                {
                    "name": "_ts",
                    "type": "uint256",
                    "internalType": "uint256"
                }
            ],
            "stateMutability": "view"
        },
        {
            "type": "function",
            "name": "lastUpdateTime",
            "inputs": [],
            "outputs": [
                {
                    "name": "",
                    "type": "uint256",
                    "internalType": "uint256"
                }
            ],
            "stateMutability": "view"
        },
        {
            "type": "function",
            "name": "nominateNewOwner",
            "inputs": [
                {
                    "name": "_owner",
                    "type": "address",
                    "internalType": "address"
                }
            ],
            "outputs": [],
            "stateMutability": "nonpayable"
        },
        {
            "type": "function",
            "name": "nominatedOwner",
            "inputs": [],
            "outputs": [
                {
                    "name": "",
                    "type": "address",
                    "internalType": "address"
                }
            ],
            "stateMutability": "view"
        },
        {
            "type": "function",
            "name": "notifyRewardAmount",
            "inputs": [
                {
                    "name": "_amount",
                    "type": "uint256",
                    "internalType": "uint256"
                }
            ],
            "outputs": [],
            "stateMutability": "nonpayable"
        },
        {
            "type": "function",
            "name": "owner",
            "inputs": [],
            "outputs": [
                {
                    "name": "",
                    "type": "address",
                    "internalType": "address"
                }
            ],
            "stateMutability": "view"
        },
        {
            "type": "function",
            "name": "periodFinish",
            "inputs": [],
            "outputs": [
                {
                    "name": "",
                    "type": "uint256",
                    "internalType": "uint256"
                }
            ],
            "stateMutability": "view"
        },
        {
            "type": "function",
            "name": "recoverERC20",
            "inputs": [
                {
                    "name": "_tokenAddress",
                    "type": "address",
                    "internalType": "address"
                },
                {
                    "name": "_tokenAmount",
                    "type": "uint256",
                    "internalType": "uint256"
                }
            ],
            "outputs": [],
            "stateMutability": "nonpayable"
        },
        {
            "type": "function",
            "name": "rewardNotifiers",
            "inputs": [
                {
                    "name": "",
                    "type": "address",
                    "internalType": "address"
                }
            ],
            "outputs": [
                {
                    "name": "",
                    "type": "bool",
                    "internalType": "bool"
                }
            ],
            "stateMutability": "view"
        },
        {
            "type": "function",
            "name": "setPauses",
            "inputs": [
                {
                    "name": "_yieldCollectionPaused",
                    "type": "bool",
                    "internalType": "bool"
                }
            ],
            "outputs": [],
            "stateMutability": "nonpayable"
        },
        {
            "type": "function",
            "name": "setThirdPartyClaimer",
            "inputs": [
                {
                    "name": "_staker",
                    "type": "address",
                    "internalType": "address"
                },
                {
                    "name": "_claimer",
                    "type": "address",
                    "internalType": "address"
                }
            ],
            "outputs": [],
            "stateMutability": "nonpayable"
        },
        {
            "type": "function",
            "name": "setTimelock",
            "inputs": [
                {
                    "name": "_newTimelock",
                    "type": "address",
                    "internalType": "address"
                }
            ],
            "outputs": [],
            "stateMutability": "nonpayable"
        },
        {
            "type": "function",
            "name": "setVePMXAggregator",
            "inputs": [
                {
                    "name": "_vePMXAggregator",
                    "type": "address",
                    "internalType": "address"
                }
            ],
            "outputs": [],
            "stateMutability": "nonpayable"
        },
        {
            "type": "function",
            "name": "setYieldDuration",
            "inputs": [
                {
                    "name": "_yieldDuration",
                    "type": "uint256",
                    "internalType": "uint256"
                }
            ],
            "outputs": [],
            "stateMutability": "nonpayable"
        },
        {
            "type": "function",
            "name": "setYieldRate",
            "inputs": [
                {
                    "name": "_newRate",
                    "type": "uint256",
                    "internalType": "uint256"
                },
                {
                    "name": "_syncToo",
                    "type": "bool",
                    "internalType": "bool"
                }
            ],
            "outputs": [],
            "stateMutability": "nonpayable"
        },
        {
            "type": "function",
            "name": "sync",
            "inputs": [],
            "outputs": [],
            "stateMutability": "nonpayable"
        },
        {
            "type": "function",
            "name": "thirdPartyClaimers",
            "inputs": [
                {
                    "name": "staker",
                    "type": "address",
                    "internalType": "address"
                }
            ],
            "outputs": [
                {
                    "name": "claimer",
                    "type": "address",
                    "internalType": "address"
                }
            ],
            "stateMutability": "view"
        },
        {
            "type": "function",
            "name": "timelockAddress",
            "inputs": [],
            "outputs": [
                {
                    "name": "",
                    "type": "address",
                    "internalType": "address"
                }
            ],
            "stateMutability": "view"
        },
        {
            "type": "function",
            "name": "toggleRewardNotifier",
            "inputs": [
                {
                    "name": "_notifierAddr",
                    "type": "address",
                    "internalType": "address"
                }
            ],
            "outputs": [],
            "stateMutability": "nonpayable"
        },
        {
            "type": "function",
            "name": "totalComboVePMXSupplyStored",
            "inputs": [],
            "outputs": [
                {
                    "name": "",
                    "type": "uint256",
                    "internalType": "uint256"
                }
            ],
            "stateMutability": "view"
        },
        {
            "type": "function",
            "name": "totalVePMXParticipating",
            "inputs": [],
            "outputs": [
                {
                    "name": "",
                    "type": "uint256",
                    "internalType": "uint256"
                }
            ],
            "stateMutability": "view"
        },
        {
            "type": "function",
            "name": "userIsInitialized",
            "inputs": [
                {
                    "name": "",
                    "type": "address",
                    "internalType": "address"
                }
            ],
            "outputs": [
                {
                    "name": "",
                    "type": "bool",
                    "internalType": "bool"
                }
            ],
            "stateMutability": "view"
        },
        {
            "type": "function",
            "name": "userVePMXCheckpointed",
            "inputs": [
                {
                    "name": "",
                    "type": "address",
                    "internalType": "address"
                }
            ],
            "outputs": [
                {
                    "name": "",
                    "type": "uint256",
                    "internalType": "uint256"
                }
            ],
            "stateMutability": "view"
        },
        {
            "type": "function",
            "name": "userVePMXEndpointCheckpointed",
            "inputs": [
                {
                    "name": "",
                    "type": "address",
                    "internalType": "address"
                }
            ],
            "outputs": [
                {
                    "name": "",
                    "type": "uint256",
                    "internalType": "uint256"
                }
            ],
            "stateMutability": "view"
        },
        {
            "type": "function",
            "name": "userYieldPerTokenPaid",
            "inputs": [
                {
                    "name": "",
                    "type": "address",
                    "internalType": "address"
                }
            ],
            "outputs": [
                {
                    "name": "",
                    "type": "uint256",
                    "internalType": "uint256"
                }
            ],
            "stateMutability": "view"
        },
        {
            "type": "function",
            "name": "vePMXAggregator",
            "inputs": [],
            "outputs": [
                {
                    "name": "",
                    "type": "address",
                    "internalType": "contract VePMXAggregator"
                }
            ],
            "stateMutability": "view"
        },
        {
            "type": "function",
            "name": "yieldCollectionPaused",
            "inputs": [],
            "outputs": [
                {
                    "name": "",
                    "type": "bool",
                    "internalType": "bool"
                }
            ],
            "stateMutability": "view"
        },
        {
            "type": "function",
            "name": "yieldDuration",
            "inputs": [],
            "outputs": [
                {
                    "name": "",
                    "type": "uint256",
                    "internalType": "uint256"
                }
            ],
            "stateMutability": "view"
        },
        {
            "type": "function",
            "name": "yieldPerVePMX",
            "inputs": [],
            "outputs": [
                {
                    "name": "_yield",
                    "type": "uint256",
                    "internalType": "uint256"
                }
            ],
            "stateMutability": "view"
        },
        {
            "type": "function",
            "name": "yieldPerVePMXStored",
            "inputs": [],
            "outputs": [
                {
                    "name": "",
                    "type": "uint256",
                    "internalType": "uint256"
                }
            ],
            "stateMutability": "view"
        },
        {
            "type": "function",
            "name": "yieldRate",
            "inputs": [],
            "outputs": [
                {
                    "name": "",
                    "type": "uint256",
                    "internalType": "uint256"
                }
            ],
            "stateMutability": "view"
        },
        {
            "type": "function",
            "name": "yields",
            "inputs": [
                {
                    "name": "",
                    "type": "address",
                    "internalType": "address"
                }
            ],
            "outputs": [
                {
                    "name": "",
                    "type": "uint256",
                    "internalType": "uint256"
                }
            ],
            "stateMutability": "view"
        },
        {
            "type": "event",
            "name": "DefaultInitialization",
            "inputs": [],
            "anonymous": false
        },
        {
            "type": "event",
            "name": "OwnerChanged",
            "inputs": [
                {
                    "name": "oldOwner",
                    "type": "address",
                    "indexed": false,
                    "internalType": "address"
                },
                {
                    "name": "newOwner",
                    "type": "address",
                    "indexed": false,
                    "internalType": "address"
                }
            ],
            "anonymous": false
        },
        {
            "type": "event",
            "name": "OwnerNominated",
            "inputs": [
                {
                    "name": "newOwner",
                    "type": "address",
                    "indexed": false,
                    "internalType": "address"
                }
            ],
            "anonymous": false
        },
        {
            "type": "event",
            "name": "RecoveredERC20",
            "inputs": [
                {
                    "name": "token",
                    "type": "address",
                    "indexed": false,
                    "internalType": "address"
                },
                {
                    "name": "amount",
                    "type": "uint256",
                    "indexed": false,
                    "internalType": "uint256"
                }
            ],
            "anonymous": false
        },
        {
            "type": "event",
            "name": "RewardAdded",
            "inputs": [
                {
                    "name": "reward",
                    "type": "uint256",
                    "indexed": false,
                    "internalType": "uint256"
                },
                {
                    "name": "yieldRate",
                    "type": "uint256",
                    "indexed": false,
                    "internalType": "uint256"
                }
            ],
            "anonymous": false
        },
        {
            "type": "event",
            "name": "TimelockChanged",
            "inputs": [
                {
                    "name": "timelock_address",
                    "type": "address",
                    "indexed": false,
                    "internalType": "address"
                }
            ],
            "anonymous": false
        },
        {
            "type": "event",
            "name": "YieldCollected",
            "inputs": [
                {
                    "name": "staker",
                    "type": "address",
                    "indexed": true,
                    "internalType": "address"
                },
                {
                    "name": "recipient",
                    "type": "address",
                    "indexed": true,
                    "internalType": "address"
                },
                {
                    "name": "yield",
                    "type": "uint256",
                    "indexed": false,
                    "internalType": "uint256"
                },
                {
                    "name": "tokenAddress",
                    "type": "address",
                    "indexed": false,
                    "internalType": "address"
                }
            ],
            "anonymous": false
        },
        {
            "type": "event",
            "name": "YieldDurationUpdated",
            "inputs": [
                {
                    "name": "newDuration",
                    "type": "uint256",
                    "indexed": false,
                    "internalType": "uint256"
                }
            ],
            "anonymous": false
        },
        {
            "type": "error",
            "name": "AddressGreylisted",
            "inputs": []
        },
        {
            "type": "error",
            "name": "InitializeFailed",
            "inputs": []
        },
        {
            "type": "error",
            "name": "InvalidOwnershipAcceptance",
            "inputs": []
        },
        {
            "type": "error",
            "name": "NotOwnerOrTimelock",
            "inputs": []
        },
        {
            "type": "error",
            "name": "OnlyOwner",
            "inputs": []
        },
        {
            "type": "error",
            "name": "OwnerCannotBeZero",
            "inputs": []
        },
        {
            "type": "error",
            "name": "SenderNotAuthorizedClaimer",
            "inputs": []
        },
        {
            "type": "error",
            "name": "SenderNotRewarder",
            "inputs": []
        },
        {
            "type": "error",
            "name": "TransferHelperTransferFailed",
            "inputs": []
        },
        {
            "type": "error",
            "name": "YieldCollectionPaused",
            "inputs": []
        },
        {
            "type": "error",
            "name": "YieldPeriodMustCompleteBeforeChangingToNewPeriod",
            "inputs": []
        }
    ],
    "bytecode": {
        "object": "0x60806040526017805460ff191690553480156018575f80fd5b505f80546001600160a01b0319163390811782556040805192835260208301919091527fb532073b38c83145e3e5135377a08bf9aab55bc0fd7c1179cd4fb995d2a5159c910160405180910390a160016002556017805461ff001916610100179055612826806100875f395ff3fe608060405234801561000f575f80fd5b5060043610610303575f3560e01c80638c329f661161019d578063c2c4c5c1116100e8578063ebe2b12b11610093578063f8c8765e1161006e578063f8c8765e146106e8578063fc939bb1146106fb578063fff6cae914610703575f80fd5b8063ebe2b12b146106ac578063f3b0fb45146106b5578063f43ae1c7146106c8575f80fd5b8063d8ae7014116100c3578063d8ae70141461065b578063e172cf2114610683578063e9218ff61461068c575f80fd5b8063c2c4c5c114610628578063c8f33c9114610630578063d15166ff14610639575f80fd5b80639f8a835a11610148578063b04b91ad11610123578063b04b91ad146105c1578063b1dd0ce9146105e0578063bdacb30314610615575f80fd5b80639f8a835a14610582578063a875f47214610595578063ad1148cb146105b4575f80fd5b8063941d9f6511610178578063941d9f6514610553578063948e25a2146105665780639513fdf814610579575f80fd5b80638c329f661461050e5780638da5cb5b1461052157806391519bda14610540575f80fd5b806350fe98ac1161025d57806374ea0b981161020857806385a74fde116101e357806385a74fde146104c85780638980f11f146104db5780638b80f480146104ee575f80fd5b806374ea0b98146104a557806379ba5097146104b85780637c262871146104c0575f80fd5b80635de9fae3116102385780635de9fae31461048b5780635e450ad5146104945780636999ac931461049c575f80fd5b806350fe98ac1461044457806353a47bb71461046357806356d9fff314610483575f80fd5b806331ca208c116102bd57806349a9b8481161029857806349a9b848146103cd5780634bc66f32146103ec5780634c5de82314610431575f80fd5b806331ca208c146103855780633c6b16ab146103a757806342c92f6e146103ba575f80fd5b806314b30537116102ed57806314b30537146103365780631627540c1461036857806319aec6d21461037d575f80fd5b80628cc2621461030757806312ab50c41461032d575b5f80fd5b61031a6103153660046122cb565b61070b565b6040519081526020015b60405180910390f35b61031a600f5481565b6103586103443660046122cb565b60116020525f908152604090205460ff1681565b6040519015158152602001610324565b61037b6103763660046122cb565b610904565b005b61031a6109ce565b6103586103933660046122cb565b60156020525f908152604090205460ff1681565b61037b6103b53660046122e6565b6109e4565b61037b6103c83660046122cb565b610b9b565b61031a6103db3660046122cb565b60136020525f908152604090205481565b60065461040c9073ffffffffffffffffffffffffffffffffffffffff1681565b60405173ffffffffffffffffffffffffffffffffffffffff9091168152602001610324565b61037b61043f3660046123c5565b610c64565b61031a6104523660046122cb565b600e6020525f908152604090205481565b60015461040c9073ffffffffffffffffffffffffffffffffffffffff1681565b61031a610ca6565b61031a60105481565b61031a610cbc565b61031a60095481565b61037b6104b33660046122e6565b610d1b565b61037b610e10565b61031a610f03565b61037b6104d63660046122cb565b610f0e565b61037b6104e9366004612464565b610fcb565b60035461040c9073ffffffffffffffffffffffffffffffffffffffff1681565b61037b61051c36600461248e565b6110b8565b5f5461040c9073ffffffffffffffffffffffffffffffffffffffff1681565b61037b61054e3660046124d2565b611180565b61037b6105613660046122cb565b611209565b61037b6105743660046124f5565b6112d2565b61031a600c5481565b61037b6105903660046122cb565b611379565b61031a6105a33660046122cb565b600d6020525f908152604090205481565b6017546103589060ff1681565b61031a6105cf3660046122cb565b60126020525f908152604090205481565b61040c6105ee3660046122cb565b60166020525f908152604090205473ffffffffffffffffffffffffffffffffffffffff1681565b61037b6106233660046122cb565b611387565b61037b611470565b61031a60085481565b6103586106473660046122cb565b600b6020525f908152604090205460ff1681565b61066e6106693660046122cb565b61147d565b60408051928352602083019190915201610324565b61031a600a5481565b60045461040c9073ffffffffffffffffffffffffffffffffffffffff1681565b61031a60075481565b61031a6106c33660046122cb565b611557565b60055461040c9073ffffffffffffffffffffffffffffffffffffffff1681565b61037b6106f6366004612510565b6115c8565b61031a611737565b61037b611764565b73ffffffffffffffffffffffffffffffffffffffff81165f9081526011602052604081205460ff1661073e57505f919050565b5f806107498461147d565b9092509050620f42405f8390036108105773ffffffffffffffffffffffffffffffffffffffff85165f90815260146020526040902054821161078f57505f949350505050565b73ffffffffffffffffffffffffffffffffffffffff85165f908152601460205260408120546107be9084612596565b73ffffffffffffffffffffffffffffffffffffffff87165f90815260146020526040812054919250906107f19042612596565b90508061080183620f42406125a9565b61080b91906125c0565b925050505b73ffffffffffffffffffffffffffffffffffffffff85165f90815260126020526040812054808511156108455780915061085e565b600261085182876125f8565b61085b91906125c0565b91505b73ffffffffffffffffffffffffffffffffffffffff87165f908152600e6020526040902054610898620f4240670de0b6b3a76400006125a9565b73ffffffffffffffffffffffffffffffffffffffff89165f908152600d602052604090205485906108c7610cbc565b6108d19190612596565b6108db90866125a9565b6108e591906125a9565b6108ef91906125c0565b6108f991906125f8565b979650505050505050565b5f5473ffffffffffffffffffffffffffffffffffffffff163314610954576040517f5fc483c500000000000000000000000000000000000000000000000000000000815260040160405180910390fd5b600180547fffffffffffffffffffffffff00000000000000000000000000000000000000001673ffffffffffffffffffffffffffffffffffffffff83169081179091556040519081527f906a1c6bd7e3091ea86693dd029a831c19049ce77f1dce2ce0bab1cacbabce22906020015b60405180910390a150565b5f600a546009546109df91906125a9565b905090565b335f908152600b602052604090205460ff16610a2c576040517fae582d4300000000000000000000000000000000000000000000000000000000815260040160405180910390fd5b600454610a519073ffffffffffffffffffffffffffffffffffffffff16333084611811565b610a59611764565b6007544210610a7757600a54610a6f90826125c0565b600955610ab7565b5f42600754610a869190612596565b90505f60095482610a9791906125a9565b600a54909150610aa782856125f8565b610ab191906125c0565b60095550505b426008819055600a54610ac9916125f8565b600755600354604080517fc906fbb9000000000000000000000000000000000000000000000000000000008152905173ffffffffffffffffffffffffffffffffffffffff9092169163c906fbb9916004808201926020929091908290030181865afa158015610b3a573d5f803e3d5ffd5b505050506040513d601f19601f82011682018060405250810190610b5e919061260b565b6010556009546040805183815260208101929092527f6c07ee05dcf262f13abf9d87b846ee789d2f90fe991d495acd7d7fc109ee1f5591016109c3565b5f5473ffffffffffffffffffffffffffffffffffffffff163314801590610bda575060065473ffffffffffffffffffffffffffffffffffffffff163314155b15610c11576040517ffee4291a00000000000000000000000000000000000000000000000000000000815260040160405180910390fd5b73ffffffffffffffffffffffffffffffffffffffff165f908152600b6020526040902080547fffffffffffffffffffffffffffffffffffffffffffffffffffffffffffffff00811660ff90911615179055565b5f5b8151811015610ca257610c77611764565b610c9a828281518110610c8c57610c8c612622565b60200260200101515f6118ac565b600101610c66565b5050565b5f6007544210610cb7575060075490565b504290565b5f6010545f03610ccd5750600c5490565b601054600954600854610cde610ca6565b610ce89190612596565b610cf291906125a9565b610d0490670de0b6b3a76400006125a9565b610d0e91906125c0565b600c546109df91906125f8565b5f5473ffffffffffffffffffffffffffffffffffffffff163314801590610d5a575060065473ffffffffffffffffffffffffffffffffffffffff163314155b15610d91576040517ffee4291a00000000000000000000000000000000000000000000000000000000815260040160405180910390fd5b60075415801590610da457506007544211155b15610ddb576040517f350e95f600000000000000000000000000000000000000000000000000000000815260040160405180910390fd5b600a8190556040518181527fce653f06b9044b00e7d9d01b9b4228e84812092cb6a38371889bef19370d21f7906020016109c3565b60015473ffffffffffffffffffffffffffffffffffffffff163314610e61576040517fd74b334e00000000000000000000000000000000000000000000000000000000815260040160405180910390fd5b5f546001546040805173ffffffffffffffffffffffffffffffffffffffff93841681529290911660208301527fb532073b38c83145e3e5135377a08bf9aab55bc0fd7c1179cd4fb995d2a5159c910160405180910390a1600180545f80547fffffffffffffffffffffffff000000000000000000000000000000000000000090811673ffffffffffffffffffffffffffffffffffffffff841617909155169055565b5f6109df3333611c01565b5f5473ffffffffffffffffffffffffffffffffffffffff163314801590610f4d575060065473ffffffffffffffffffffffffffffffffffffffff163314155b15610f84576040517ffee4291a00000000000000000000000000000000000000000000000000000000815260040160405180910390fd5b600380547fffffffffffffffffffffffff00000000000000000000000000000000000000001673ffffffffffffffffffffffffffffffffffffffff92909216919091179055565b5f5473ffffffffffffffffffffffffffffffffffffffff16331480159061100a575060065473ffffffffffffffffffffffffffffffffffffffff163314155b15611041576040517ffee4291a00000000000000000000000000000000000000000000000000000000815260040160405180910390fd5b5f5461106590839073ffffffffffffffffffffffffffffffffffffffff1683611e0c565b6040805173ffffffffffffffffffffffffffffffffffffffff84168152602081018390527f55350610fe57096d8c0ffa30beede987326bccfcb0b4415804164d0dd50ce8b1910160405180910390a15050565b5f5473ffffffffffffffffffffffffffffffffffffffff1633148015906110f7575060065473ffffffffffffffffffffffffffffffffffffffff163314155b1561112e576040517ffee4291a00000000000000000000000000000000000000000000000000000000815260040160405180910390fd5b73ffffffffffffffffffffffffffffffffffffffff9182165f90815260166020526040902080547fffffffffffffffffffffffff00000000000000000000000000000000000000001691909216179055565b5f5473ffffffffffffffffffffffffffffffffffffffff1633148015906111bf575060065473ffffffffffffffffffffffffffffffffffffffff163314155b156111f6576040517ffee4291a00000000000000000000000000000000000000000000000000000000815260040160405180910390fd5b60098290558015610ca257610ca2611764565b5f5473ffffffffffffffffffffffffffffffffffffffff163314801590611248575060065473ffffffffffffffffffffffffffffffffffffffff163314155b1561127f576040517ffee4291a00000000000000000000000000000000000000000000000000000000815260040160405180910390fd5b73ffffffffffffffffffffffffffffffffffffffff165f90815260156020526040902080547fffffffffffffffffffffffffffffffffffffffffffffffffffffffffffffff00811660ff90911615179055565b5f5473ffffffffffffffffffffffffffffffffffffffff163314801590611311575060065473ffffffffffffffffffffffffffffffffffffffff163314155b15611348576040517ffee4291a00000000000000000000000000000000000000000000000000000000815260040160405180910390fd5b601780547fffffffffffffffffffffffffffffffffffffffffffffffffffffffffffffff0016911515919091179055565b6113848160016118ac565b50565b5f5473ffffffffffffffffffffffffffffffffffffffff1633148015906113c6575060065473ffffffffffffffffffffffffffffffffffffffff163314155b156113fd576040517ffee4291a00000000000000000000000000000000000000000000000000000000815260040160405180910390fd5b600680547fffffffffffffffffffffffff00000000000000000000000000000000000000001673ffffffffffffffffffffffffffffffffffffffff83169081179091556040519081527ff02fdf7b40fb25784d39342249bbb15cee2bc0288f75ded1cf8ad2e63d4d91aa906020016109c3565b61147b3360016118ac565b565b6003546040517fc12fa66b00000000000000000000000000000000000000000000000000000000815273ffffffffffffffffffffffffffffffffffffffff83811660048301525f92839283929091169063c12fa66b90602401602060405180830381865afa1580156114f1573d5f803e3d5ffd5b505050506040513d601f19601f82011682018060405250810190611515919061260b565b73ffffffffffffffffffffffffffffffffffffffff85165f908152601360205260409020549250905042821161154d575f9250611551565b8092505b50915091565b73ffffffffffffffffffffffffffffffffffffffff8181165f9081526016602052604081205490911633146115b8576040517f86e2586e00000000000000000000000000000000000000000000000000000000815260040160405180910390fd5b6115c28233611c01565b92915050565b601754610100900460ff16806115f2575073ffffffffffffffffffffffffffffffffffffffff8216155b80611614575060055473ffffffffffffffffffffffffffffffffffffffff1615155b1561164b576040517fd08e7ac200000000000000000000000000000000000000000000000000000000815260040160405180910390fd5b5f805473ffffffffffffffffffffffffffffffffffffffff9586167fffffffffffffffffffffffff000000000000000000000000000000000000000091821681178355600580549588169583168617905560048054831690951790945560068054958716958216959095179094556003805492909516919093161790925542600855908152600b6020526040902080547fffffffffffffffffffffffffffffffffffffffffffffffffffffffffffffff0016600117905562093a80600a55601780547fffffffffffffffffffffffffffffffffffffffffffffffffffffffffffff00ff16610100179055565b5f6010545f0361174657505f90565b601054620f4240600f5461175a91906125a9565b6109df91906125c0565b61176c610cbc565b600c55600354604080517fc906fbb9000000000000000000000000000000000000000000000000000000008152905173ffffffffffffffffffffffffffffffffffffffff9092169163c906fbb9916004808201926020929091908290030181865afa1580156117dd573d5f803e3d5ffd5b505050506040513d601f19601f82011682018060405250810190611801919061260b565b60105561180c610ca6565b600855565b6040805173ffffffffffffffffffffffffffffffffffffffff85811660248301528416604482015260648082018490528251808303909101815260849091019091526020810180517bffffffffffffffffffffffffffffffffffffffffffffffffffffffff167f23b872dd000000000000000000000000000000000000000000000000000000001790526118a6908590611f4c565b50505050565b80156118ba576118ba611764565b6118c38261205c565b73ffffffffffffffffffffffffffffffffffffffff8281165f818152601260205260408082205460035491517fc12fa66b000000000000000000000000000000000000000000000000000000008152600481019490945293919291169063c12fa66b90602401602060405180830381865afa158015611944573d5f803e3d5ffd5b505050506040513d601f19601f82011682018060405250810190611968919061260b565b73ffffffffffffffffffffffffffffffffffffffff8581165f8181526012602052604080822085905560035490517f7eb1554e0000000000000000000000000000000000000000000000000000000081526004810193909352602483018290529394509290911690637eb1554e906044015f60405180830381865afa1580156119f3573d5f803e3d5ffd5b505050506040513d5f823e601f3d9081017fffffffffffffffffffffffffffffffffffffffffffffffffffffffffffffffe0168201604052611a389190810190612673565b90505f8082511115611a6557815f81518110611a5657611a56612622565b60200260200101516060015190505b600182511115611aee575f5b8251811015611aec57816fffffffffffffffffffffffffffffffff16838281518110611a9f57611a9f612622565b6020026020010151606001516fffffffffffffffffffffffffffffffff161015611ae457828181518110611ad557611ad5612622565b60200260200101516060015191505b600101611a71565b505b73ffffffffffffffffffffffffffffffffffffffff86165f9081526013602052604090206fffffffffffffffffffffffffffffffff82169055838310611b52575f611b398585612596565b905080600f54611b4991906125f8565b600f5550611b72565b5f611b5d8486612596565b905080600f54611b6d9190612596565b600f55505b73ffffffffffffffffffffffffffffffffffffffff86165f9081526011602052604090205460ff16611bf95773ffffffffffffffffffffffffffffffffffffffff86165f90815260116020908152604080832080547fffffffffffffffffffffffffffffffffffffffffffffffffffffffffffffff00166001179055601490915290204290555b505050505050565b5f6002805403611c72576040517f08c379a000000000000000000000000000000000000000000000000000000000815260206004820152601f60248201527f5265656e7472616e637947756172643a207265656e7472616e742063616c6c0060448201526064015b60405180910390fd5b6002805560175460ff1615611cb3576040517f6efa33c900000000000000000000000000000000000000000000000000000000815260040160405180910390fd5b82611cbf8160016118ac565b73ffffffffffffffffffffffffffffffffffffffff84165f9081526015602052604090205460ff1615611d1e576040517f70e5228400000000000000000000000000000000000000000000000000000000815260040160405180910390fd5b73ffffffffffffffffffffffffffffffffffffffff84165f908152600e602052604090205491508115611dda5773ffffffffffffffffffffffffffffffffffffffff8085165f908152600e6020526040812055600554611d8091168484611e0c565b6005546040805184815273ffffffffffffffffffffffffffffffffffffffff9283166020820152858316928716917fca927b8152f4c35113c332dd69d3f2fc3328428c7d560f0e84a556a3a4ef20a0910160405180910390a35b5073ffffffffffffffffffffffffffffffffffffffff9092165f90815260146020526040902042905550600160025590565b6040805173ffffffffffffffffffffffffffffffffffffffff8481166024830152604480830185905283518084039091018152606490920183526020820180517bffffffffffffffffffffffffffffffffffffffffffffffffffffffff167fa9059cbb0000000000000000000000000000000000000000000000000000000017905291515f92839290871691611ea2919061276c565b5f604051808303815f865af19150503d805f8114611edb576040519150601f19603f3d011682016040523d82523d5f602084013e611ee0565b606091505b5091509150811580611f0e5750805115801590611f0e575080806020019051810190611f0c9190612782565b155b15611f45576040517f19a9708500000000000000000000000000000000000000000000000000000000815260040160405180910390fd5b5050505050565b5f611fad826040518060400160405280602081526020017f5361666545524332303a206c6f772d6c6576656c2063616c6c206661696c65648152508573ffffffffffffffffffffffffffffffffffffffff166120bd9092919063ffffffff16565b8051909150156120575780806020019051810190611fcb9190612782565b612057576040517f08c379a000000000000000000000000000000000000000000000000000000000815260206004820152602a60248201527f5361666545524332303a204552433230206f7065726174696f6e20646964206e60448201527f6f742073756363656564000000000000000000000000000000000000000000006064820152608401611c69565b505050565b73ffffffffffffffffffffffffffffffffffffffff811615611384575f6120828261070b565b73ffffffffffffffffffffffffffffffffffffffff83165f908152600e6020908152604080832093909355600c54600d909152919020555050565b60606120cb84845f856120d5565b90505b9392505050565b606082471015612167576040517f08c379a000000000000000000000000000000000000000000000000000000000815260206004820152602660248201527f416464726573733a20696e73756666696369656e742062616c616e636520666f60448201527f722063616c6c00000000000000000000000000000000000000000000000000006064820152608401611c69565b73ffffffffffffffffffffffffffffffffffffffff85163b6121e5576040517f08c379a000000000000000000000000000000000000000000000000000000000815260206004820152601d60248201527f416464726573733a2063616c6c20746f206e6f6e2d636f6e74726163740000006044820152606401611c69565b5f808673ffffffffffffffffffffffffffffffffffffffff16858760405161220d919061276c565b5f6040518083038185875af1925050503d805f8114612247576040519150601f19603f3d011682016040523d82523d5f602084013e61224c565b606091505b50915091506108f9828286606083156122665750816120ce565b8251156122765782518084602001fd5b816040517f08c379a0000000000000000000000000000000000000000000000000000000008152600401611c69919061279d565b73ffffffffffffffffffffffffffffffffffffffff81168114611384575f80fd5b5f602082840312156122db575f80fd5b81356120ce816122aa565b5f602082840312156122f6575f80fd5b5035919050565b7f4e487b71000000000000000000000000000000000000000000000000000000005f52604160045260245ffd5b60405160c0810167ffffffffffffffff8111828210171561234d5761234d6122fd565b60405290565b604051601f82017fffffffffffffffffffffffffffffffffffffffffffffffffffffffffffffffe016810167ffffffffffffffff8111828210171561239a5761239a6122fd565b604052919050565b5f67ffffffffffffffff8211156123bb576123bb6122fd565b5060051b60200190565b5f602082840312156123d5575f80fd5b813567ffffffffffffffff8111156123eb575f80fd5b8201601f810184136123fb575f80fd5b803561240e612409826123a2565b612353565b8082825260208201915060208360051b85010192508683111561242f575f80fd5b6020840193505b8284101561245a578335612449816122aa565b825260209384019390910190612436565b9695505050505050565b5f8060408385031215612475575f80fd5b8235612480816122aa565b946020939093013593505050565b5f806040838503121561249f575f80fd5b82356124aa816122aa565b915060208301356124ba816122aa565b809150509250929050565b8015158114611384575f80fd5b5f80604083850312156124e3575f80fd5b8235915060208301356124ba816124c5565b5f60208284031215612505575f80fd5b81356120ce816124c5565b5f805f8060808587031215612523575f80fd5b843561252e816122aa565b9350602085013561253e816122aa565b9250604085013561254e816122aa565b9150606085013561255e816122aa565b939692955090935050565b7f4e487b71000000000000000000000000000000000000000000000000000000005f52601160045260245ffd5b818103818111156115c2576115c2612569565b80820281158282048414176115c2576115c2612569565b5f826125f3577f4e487b71000000000000000000000000000000000000000000000000000000005f52601260045260245ffd5b500490565b808201808211156115c2576115c2612569565b5f6020828403121561261b575f80fd5b5051919050565b7f4e487b71000000000000000000000000000000000000000000000000000000005f52603260045260245ffd5b80516fffffffffffffffffffffffffffffffff8116811461266e575f80fd5b919050565b5f60208284031215612683575f80fd5b815167ffffffffffffffff811115612699575f80fd5b8201601f810184136126a9575f80fd5b80516126b7612409826123a2565b80828252602082019150602060c084028501019250868311156126d8575f80fd5b6020840193505b8284101561245a5760c084880312156126f6575f80fd5b6126fe61232a565b8451815261270e6020860161264f565b6020820152604085015180600f0b8114612726575f80fd5b60408201526127376060860161264f565b6060820152608085015161274a816122aa565b608082015260a08581015190820152825260c0909301926020909101906126df565b5f82518060208501845e5f920191825250919050565b5f60208284031215612792575f80fd5b81516120ce816124c5565b602081525f82518060208401528060208501604085015e5f6040828501015260407fffffffffffffffffffffffffffffffffffffffffffffffffffffffffffffffe0601f8301168401019150509291505056fea2646970667358221220dbe7758a264cdda7bc83a789af33903b696b43fe0824996aed4dfbd9555f62fc64736f6c634300081a0033",
        "linkReferences": {}
    },
    "methodIdentifiers": {
        "acceptOwnership()": "79ba5097",
        "bulkCheckpointOtherUsers(address[])": "4c5de823",
        "checkpoint()": "c2c4c5c1",
        "checkpointOtherUser(address)": "9f8a835a",
        "earned(address)": "008cc262",
        "eligibleCurrentVePMX(address)": "d8ae7014",
        "emittedToken()": "e9218ff6",
        "emittedTokenAddress()": "f43ae1c7",
        "fractionParticipating()": "fc939bb1",
        "getYield()": "7c262871",
        "getYieldForDuration()": "19aec6d2",
        "getYieldThirdParty(address)": "f3b0fb45",
        "greylist(address)": "31ca208c",
        "greylistAddress(address)": "941d9f65",
        "initialize(address,address,address,address)": "f8c8765e",
        "lastTimeYieldApplicable()": "56d9fff3",
        "lastUpdateTime()": "c8f33c91",
        "nominateNewOwner(address)": "1627540c",
        "nominatedOwner()": "53a47bb7",
        "notifyRewardAmount(uint256)": "3c6b16ab",
        "owner()": "8da5cb5b",
        "periodFinish()": "ebe2b12b",
        "recoverERC20(address,uint256)": "8980f11f",
        "rewardNotifiers(address)": "d15166ff",
        "setPauses(bool)": "948e25a2",
        "setThirdPartyClaimer(address,address)": "8c329f66",
        "setTimelock(address)": "bdacb303",
        "setVePMXAggregator(address)": "85a74fde",
        "setYieldDuration(uint256)": "74ea0b98",
        "setYieldRate(uint256,bool)": "91519bda",
        "sync()": "fff6cae9",
        "thirdPartyClaimers(address)": "b1dd0ce9",
        "timelockAddress()": "4bc66f32",
        "toggleRewardNotifier(address)": "42c92f6e",
        "totalComboVePMXSupplyStored()": "5de9fae3",
        "totalVePMXParticipating()": "12ab50c4",
        "userIsInitialized(address)": "14b30537",
        "userVePMXCheckpointed(address)": "b04b91ad",
        "userVePMXEndpointCheckpointed(address)": "49a9b848",
        "userYieldPerTokenPaid(address)": "a875f472",
        "vePMXAggregator()": "8b80f480",
        "yieldCollectionPaused()": "ad1148cb",
        "yieldDuration()": "e172cf21",
        "yieldPerVePMX()": "5e450ad5",
        "yieldPerVePMXStored()": "9513fdf8",
        "yieldRate()": "6999ac93",
        "yields(address)": "50fe98ac"
    },
    "id": 71
}