{
  "address": "0x6B69F76917Cb218288Ab1ea5A330F63B08dF8078",
  "abi": [
    {
      "inputs": [],
      "stateMutability": "nonpayable",
      "type": "constructor"
    },
    {
      "inputs": [],
      "name": "DS_MATH_ADD_OVERFLOW",
      "type": "error"
    },
    {
      "inputs": [],
      "name": "DS_MATH_MUL_OVERFLOW",
      "type": "error"
    },
    {
      "anonymous": false,
      "inputs": [
        {
          "indexed": false,
          "internalType": "uint256",
          "name": "gasPerBatch",
          "type": "uint256"
        }
      ],
      "name": "ChangeGasPerBatch",
      "type": "event"
    },
    {
      "anonymous": false,
      "inputs": [
        {
          "indexed": false,
          "internalType": "uint256",
          "name": "gasPerPosition",
          "type": "uint256"
        }
      ],
      "name": "ChangeGasPerPosition",
      "type": "event"
    },
    {
      "anonymous": false,
      "inputs": [
        {
          "indexed": false,
          "internalType": "uint8",
          "name": "version",
          "type": "uint8"
        }
      ],
      "name": "Initialized",
      "type": "event"
    },
    {
      "anonymous": false,
      "inputs": [
        {
          "indexed": false,
          "internalType": "address",
          "name": "account",
          "type": "address"
        }
      ],
      "name": "Paused",
      "type": "event"
    },
    {
      "anonymous": false,
      "inputs": [
        {
          "indexed": false,
          "internalType": "address",
          "name": "account",
          "type": "address"
        }
      ],
      "name": "Unpaused",
      "type": "event"
    },
    {
      "inputs": [
        {
          "internalType": "uint256[]",
          "name": "_ids",
          "type": "uint256[]"
        },
        {
          "components": [
            {
              "internalType": "uint256",
              "name": "shares",
              "type": "uint256"
            },
            {
              "components": [
                {
                  "internalType": "address",
                  "name": "to",
                  "type": "address"
                },
                {
                  "components": [
                    {
                      "internalType": "string",
                      "name": "dexName",
                      "type": "string"
                    },
                    {
                      "internalType": "uint256",
                      "name": "shares",
                      "type": "uint256"
                    },
                    {
                      "internalType": "bytes",
                      "name": "payload",
                      "type": "bytes"
                    }
                  ],
                  "internalType": "struct PrimexPricingLibrary.Path[]",
                  "name": "paths",
                  "type": "tuple[]"
                }
              ],
              "internalType": "struct PrimexPricingLibrary.Route[]",
              "name": "routes",
              "type": "tuple[]"
            }
          ],
          "internalType": "struct PrimexPricingLibrary.MegaRoute[]",
          "name": "_megaRoutes",
          "type": "tuple[]"
        },
        {
          "internalType": "address",
          "name": "_positionAsset",
          "type": "address"
        },
        {
          "internalType": "address",
          "name": "_soldAsset",
          "type": "address"
        },
        {
          "internalType": "contract IBucketV3",
          "name": "_bucket",
          "type": "address"
        },
        {
          "internalType": "uint256[]",
          "name": "_conditionIndexes",
          "type": "uint256[]"
        },
        {
          "internalType": "enum PositionLibrary.CloseReason",
          "name": "_closeReason",
          "type": "uint8"
        },
        {
          "internalType": "bytes",
          "name": "_positionSoldAssetOracleData",
          "type": "bytes"
        },
        {
          "internalType": "bytes",
          "name": "_nativePmxOracleData",
          "type": "bytes"
        },
        {
          "internalType": "bytes",
          "name": "_nativeSoldAssetOracleData",
          "type": "bytes"
        },
        {
          "internalType": "bytes",
          "name": "_positionNativeAssetOracleData",
          "type": "bytes"
        },
        {
          "internalType": "bytes",
          "name": "_pmxSoldAssetOracleData",
          "type": "bytes"
        },
        {
          "internalType": "bytes[][]",
          "name": "_pullOracleData",
          "type": "bytes[][]"
        },
        {
          "internalType": "uint256[]",
          "name": "_pullOracleTypes",
          "type": "uint256[]"
        }
      ],
      "name": "closeBatchPositions",
      "outputs": [],
      "stateMutability": "payable",
      "type": "function"
    },
    {
      "inputs": [],
      "name": "gasPerBatch",
      "outputs": [
        {
          "internalType": "uint256",
          "name": "",
          "type": "uint256"
        }
      ],
      "stateMutability": "view",
      "type": "function"
    },
    {
      "inputs": [],
      "name": "gasPerPosition",
      "outputs": [
        {
          "internalType": "uint256",
          "name": "",
          "type": "uint256"
        }
      ],
      "stateMutability": "view",
      "type": "function"
    },
    {
      "inputs": [
        {
          "internalType": "address",
          "name": "_registry",
          "type": "address"
        }
      ],
      "name": "initialize",
      "outputs": [],
      "stateMutability": "nonpayable",
      "type": "function"
    },
    {
      "inputs": [
        {
          "internalType": "address",
          "name": "_positionManager",
          "type": "address"
        },
        {
          "internalType": "address",
          "name": "_priceOracle",
          "type": "address"
        },
        {
          "internalType": "address",
          "name": "_whiteBlackList",
          "type": "address"
        },
        {
          "internalType": "uint256",
          "name": "_gasPerPosition",
          "type": "uint256"
        },
        {
          "internalType": "uint256",
          "name": "_gasPerBatch",
          "type": "uint256"
        }
      ],
      "name": "initializeAfterUpgrade",
      "outputs": [],
      "stateMutability": "nonpayable",
      "type": "function"
    },
    {
      "inputs": [],
      "name": "pause",
      "outputs": [],
      "stateMutability": "nonpayable",
      "type": "function"
    },
    {
      "inputs": [],
      "name": "paused",
      "outputs": [
        {
          "internalType": "bool",
          "name": "",
          "type": "bool"
        }
      ],
      "stateMutability": "view",
      "type": "function"
    },
    {
      "inputs": [],
      "name": "positionManager",
      "outputs": [
        {
          "internalType": "contract IPositionManagerV2",
          "name": "",
          "type": "address"
        }
      ],
      "stateMutability": "view",
      "type": "function"
    },
    {
      "inputs": [],
      "name": "priceOracle",
      "outputs": [
        {
          "internalType": "contract IPriceOracleV2",
          "name": "",
          "type": "address"
        }
      ],
      "stateMutability": "view",
      "type": "function"
    },
    {
      "inputs": [],
      "name": "registry",
      "outputs": [
        {
          "internalType": "address",
          "name": "",
          "type": "address"
        }
      ],
      "stateMutability": "view",
      "type": "function"
    },
    {
      "inputs": [
        {
          "internalType": "uint256",
          "name": "_newGasPerBatch",
          "type": "uint256"
        }
      ],
      "name": "setGasPerBatch",
      "outputs": [],
      "stateMutability": "nonpayable",
      "type": "function"
    },
    {
      "inputs": [
        {
          "internalType": "uint256",
          "name": "_newGasPerPosition",
          "type": "uint256"
        }
      ],
      "name": "setGasPerPosition",
      "outputs": [],
      "stateMutability": "nonpayable",
      "type": "function"
    },
    {
      "inputs": [
        {
          "internalType": "bytes4",
          "name": "interfaceId",
          "type": "bytes4"
        }
      ],
      "name": "supportsInterface",
      "outputs": [
        {
          "internalType": "bool",
          "name": "",
          "type": "bool"
        }
      ],
      "stateMutability": "view",
      "type": "function"
    },
    {
      "inputs": [],
      "name": "unpause",
      "outputs": [],
      "stateMutability": "nonpayable",
      "type": "function"
    },
    {
      "inputs": [],
      "name": "whiteBlackList",
      "outputs": [
        {
          "internalType": "contract IWhiteBlackList",
          "name": "",
          "type": "address"
        }
      ],
      "stateMutability": "view",
      "type": "function"
    }
  ],
  "transactionHash": "0xb4c762d0c62743d1df2a9b252fdb2613cf5b22bfd20c70b8ec9c44c6963ef48f",
  "args": [],
  "numDeployments": 1,
  "solcInputHash": "a40cbe14c80d3d42e946a5aebe2ca9f7",
  "bytecode": "0x60808060405234620000c6576000549060ff8260081c1662000074575060ff8082160362000038575b60405161477d9081620000cc8239f35b60ff90811916176000557f7f26b83ff96e1f2b6a682f133852f6798a09c465da95921460cefb3847402498602060405160ff8152a13862000028565b62461bcd60e51b815260206004820152602760248201527f496e697469616c697a61626c653a20636f6e747261637420697320696e697469604482015266616c697a696e6760c81b6064820152608490fd5b600080fdfe61060080604052600436101561001457600080fd5b60006104805260003560e01c90816301ffc9a71461404d575080632630c12f146140215780633bcf4556146109045780633f4ba83a146107e95780635c975abb146107c3578063791b98bc146107975780637b1039991461076b5780638456cb591461068a57806394747a0d14610669578063a9664f38146105c6578063c4d66de814610474578063def56e3c14610453578063e9d8151d146101db578063ea106a8e146101015763ef379d17146100cb57600080fd5b346100fa5761048051806003193601126100f75760cb546040516001600160a01b039091168152602090f35b80fd5b6104805180fd5b346100fa5760203660031901126100fa5760cc54604051632474521560e21b81527fc0fc8e4dc5cff6febdf550b80d566f654e2baf1a02ea1060208c2f8ab2dd1b63600482015233602482015290602090829060449082906001600160a01b03165afa9081156101cd57610480519161019f575b501561018d576101866004356146e5565b6104805180f35b60405163036be76f60e61b8152600490fd5b6101c0915060203d81116101c6575b6101b88183614205565b810190614226565b81610175565b503d6101ae565b6040513d61048051823e3d90fd5b346100fa5760a03660031901126100fa576101f46140e6565b6001600160a01b03906024358281169081900361044e576102136140d0565b8360cc5416926040518094632474521560e21b825261048051600483015233602483015281604460209788935afa9081156101cd576104805191610431575b501561018d578490610102610480515460ff8160081c161580610424575b6102799061413d565b61ffff1916176104805155166040516301ffc9a760e01b808252633d79d7fb60e11b60048301528582602481865afa9182156101cd576104805192610405575b50816103b2575b8161035e575b501561034c577f7f26b83ff96e1f2b6a682f133852f6798a09c465da95921460cefb3847402498946bffffffffffffffffffffffff60a01b92168260cb54161760cb558160c954161760c95560ca54161760ca556103256064356146e5565b610330608435614716565b61048051805461ff001916905560405160028152a16104805180f35b60405163044aa57560e41b8152600490fd5b604051908152633df6cef760e01b600482015290508481602481868a165afa9081156101cd576104805191610395575b50866102c6565b6103ac9150853d87116101c6576101b88183614205565b8661038e565b6040518181526333ca6d2360e21b60048201529091508581602481885afa9081156101cd5761048051916103e8575b50906102c0565b6103ff9150863d88116101c6576101b88183614205565b876103e1565b61041d919250863d88116101c6576101b88183614205565b90876102b9565b50600260ff821610610270565b6104489150853d87116101c6576101b88183614205565b86610252565b600080fd5b346100fa5761048051806003193601126100f757602060cd54604051908152f35b346100fa5760203660031901126100fa5761048d6140e6565b61048051549060ff8260081c1615918280936105b9575b80156105a2575b6104b49061413d565b6104805160ff19821660011781559083610590575b50506040516301ffc9a760e01b8152637965db0b60e01b60048201526001600160a01b039190911690602081602481855afa9081156101cd576104805191610572575b501561034c576bffffffffffffffffffffffff60a01b60cc54161760cc55610535576104805180f35b6104805161ff001981541690557f7f26b83ff96e1f2b6a682f133852f6798a09c465da95921460cefb3847402498602060405160018152a1610186565b61058a915060203d81116101c6576101b88183614205565b8361050c565b61ffff191661010117905582806104c9565b50303b1580156104ab575060ff81166001146104ab565b50600160ff8216106104a4565b346100fa5760203660031901126100fa5760cc54604051632474521560e21b81527fc0fc8e4dc5cff6febdf550b80d566f654e2baf1a02ea1060208c2f8ab2dd1b63600482015233602482015290602090829060449082906001600160a01b03165afa9081156101cd57610480519161064b575b501561018d57610186600435614716565b610663915060203d81116101c6576101b88183614205565b8161063a565b346100fa5761048051806003193601126100f757602060ce54604051908152f35b346100fa5761048051806003193601126100f75760cc54604051632474521560e21b81527f5c91514091af31f62f596a314af7d5be40146b2f2355969392f055e12e0982fb600482015233602482015290602090829060449082906001600160a01b03165afa9081156101cd57610480519161074d575b501561018d5761070f61463a565b600160ff1960655416176065557f62e78cea01bee320cd4e420270b5ea74000d11b0c9f74754ebdbfc544b05a2586020604051338152a16104805180f35b610765915060203d81116101c6576101b88183614205565b81610701565b346100fa5761048051806003193601126100f75760cc546040516001600160a01b039091168152602090f35b346100fa5761048051806003193601126100f75760c9546040516001600160a01b039091168152602090f35b346100fa5761048051806003193601126100f757602060ff606554166040519015158152f35b346100fa5761048051806003193601126100f75760cc54604051632474521560e21b81527f5a7d4408f4759dddd7fdfd0d21abd99341dc2f52cda14804988a9b2df20766d8600482015233602482015290602090829060449082906001600160a01b03165afa9081156101cd5761048051916108e6575b501561018d5760655460ff8116156108aa5760ff19166065557f5db9ee0a495bf2e6ff9c91a7834c1ba4fdd244a5e8aa4e537bd38aeae4b073aa6020604051338152a16104805180f35b60405162461bcd60e51b815260206004820152601460248201527314185d5cd8589b194e881b9bdd081c185d5cd95960621b6044820152606490fd5b6108fe915060203d81116101c6576101b88183614205565b81610860565b6101c03660031901126100fa576004356001600160401b0381116100fa576109309036906004016140a0565b6102a052610320526024356001600160401b0381116100fa576109579036906004016140a0565b61044052610260526109676140d0565b6103c0526064356001600160a01b03811690036100fa576084356001600160a01b03811681036100fa576001600160401b0360a435116100fa576109b03660a4356004016140a0565b6101e05261038052600760c43510156104e08190526100fa576001600160401b0360e435116100fa576109e83660e435600401614110565b61042052610340526001600160401b0361010435116100fa57610a113661010435600401614110565b6104a052610460526001600160401b0361012435116100fa57610a3a3661012435600401614110565b610140526080526001600160401b0361014435116100fa57610a623661014435600401614110565b610400526101c0526001600160401b0361016435116100fa57610a8b3661016435600401614110565b610540526102e0526001600160401b0361018435116100fa57610ab436610184356004016140a0565b60e0526104c0526001600160401b036101a435116100fa57610adc366101a4356004016140a0565b6102205261012052600260015414613fdc57600260015560cb54604051630723eb0360e51b815233600482015290602090829060249082906001600160a01b03165afa9081156101cd576104805191613fbd575b50613fab57610b3d61463a565b5a610280526102a05115613f9957610480516104e052600560c4351480610360528015610100528015613f8d575b613f6e575b610b7c6102a051614255565b61030052610b8c6102a051614255565b6103e052610b9c6102a051614255565b610ba86102a051614255565b610bb46102a051614255565b610bc06102a051614255565b90604051918260c08101106001600160401b0360c085011117613e0f5760c083016040526005835260a036602085013760c95460405163a8905dab60e01b81526103c0516001600160a01b03606435811660048401529081166024830152909116939091602083604481885afa9283156101cd576104805193613f3a575b506040516301ddf49360e61b815293602085600481895afa9485156101cd576104805195613f06575b50604051633f4a2d2760e01b8152966020886004818a5afa9788156101cd576104805198613ee5575b5060ca546001600160a01b03166105a052604051637496a94d60e11b81529860208a6004818b5afa998a156101cd57610480519a613ea1575b50604051634cb4430f60e11b81526020816004818c5afa80156101cd57610480516105c052613e5d575b50604051631dae49b960e21b81526103c0516001600160a01b039081166004830152606435166024820152602081806044810103816105a0515afa80156101cd576104805161058052613e29575b50610d5e610d516102a05161423e565b6040518061050052614205565b6102a0516105005152601f19610d766102a05161423e565b0160a05261048051610180525b60a051610180511015610db557610d986142bd565b602061018051610500510101526020610180510161018052610d83565b610dc5604051806105e0526141ea565b610480516105e05152610dde604051806103a0526141ea565b610480516103a05152610df36102a051614255565b60c052610e026102a051614255565b6105605260405180610200526001600160401b036104408201918210911117613e0f576102005161044081016040526103005190526103e051602061020051015260406102005101526060610200510152608061020051015260a061020051015260c06102005101526104805160e061020051015261010061020051015261012061020051015261014061020051015260018060a01b03166101606102005101526105a05161018061020051015260018060a01b03166101a061020051015260018060a01b036105c051166101c0610200510152610580516101e0610200510152610500516102008051015260018060a01b038116151561022061020051015260018060a01b0381166102406102005101526104805161026061020051015261048051610280610200510152610480516102a0610200510152610480516102c06102005101526105e0516102e061020051015261048051610300610200510152610480516103206102005101526104805161034061020051015261048051610360610200510152610480516103806102005101526103a0516103a0610200510152610480516103c061020051015260c0516103e061020051015261056051610400610200510152610480516104206102005101526105a0513b156100fa5760405163f197ce3560e01b8152604481016040600483015260e051905260648101606460e05160051b830101906104c05161048051925b60e0518410156110a757606319858203018352611037826104c051614329565b808352602083019060208160051b850101938361048051905b83821061107157505050505050602080600192930193019301929190611017565b909192939495602080611099600193601f19888203018a526110938b876142f8565b906142d7565b980196019493920190611050565b84810360031901602486015261022080518252519093509150506001600160fb1b0381116100fa57602083809260051b806101205184870137610480519401030181346105a0515af180156101cd57613e00575b50610220610200510151613d08575b610480515b6102a0518110156117b457606061016060405161112b816141b3565b61048051815261048051602082015261048051604082015261048051838201526104805160808201526104805160a08201526104805160c08201526104805160e0820152610480516101008201526104805161012082015261048051610140820152015260018060a01b0360c95416906111ac816102a0516103205161436c565b35916040519263eb02c30160e01b845260048401528260248161048051935afa9182156101cd57610480519261169c575b5061022061020051015115611670575b60408201516001600160a01b0384811691160361165e57611215816102a0516103205161436c565b35611224826102005151614446565b526103c05160a08301516001600160a01b0391821691160361164c5760c0820151611256826060610200510151614446565b526102005161022081015161048051901561164557506103606020840151910151906000918015918215611625575b505015611613576b019d971e4fe8401e74000000810181116115fd57806b019d971e4fe8401e740000008101106115eb576b019d971e4fe8401e740000006b033b2e3c9fd0803ce80000009101045b6112e5826080610200510151614446565b5260808201516112fc8260a0610200510151614446565b5260018060a01b0360e08301511661131b826020610200510151614446565b52611348602061016084015160405180938192630b02f07160e31b8352846004840152602483019061445a565b03817338180A880B06491F44Ad25Ebb5a37e7B5df42d175af49081156101cd5761048051916115b1575b50611384826040610200510151614446565b6001600160a01b0390911690526104e051611597576103605161010051611585575b611412575b61140d91506113d36113c4826060610200510151614446565b51610260610200510151614291565b6102606102005101526113ff6113f0826080610200510151614446565b516102a0610200510151614291565b6102a061020051015261435d565b61110f565b60018060a01b0360c954169161142f826102a0516103205161436c565b3592611442836101e0516103805161436c565b3560405194630f2bd83960e01b8652600486015260248501528360448161048051935afa9283156101cd5761048051936114fa575b506101409061149c8361140d9561020080510151906114968383614446565b52614446565b50015142036113ab5760c06102005101516114c86114c26114bc83614429565b5161435d565b91614429565b526114ec6114dd826060610200510151614446565b51610280610200510151614291565b6102806102005101526113ab565b903d8094833e61150a8483614205565b60208285810103126100fa5781516001600160401b0381116100fa57604081840186850103126100fa5760405190611541826141cf565b8381018051835260200151916001600160401b0383116100fa576115768561149c94889461140d9a61014099019201016143e4565b60208201529550505090611477565b5060006104e052600660c435146113a6565b634e487b7160e01b61048051526021600452602461048051fd5b90506020813d6020116115e3575b816115cc60209383614205565b810103126100fa576115dd90614392565b84611372565b3d91506115bf565b604051630a77254f60e01b8152600490fd5b634e487b7160e01b600052601160045260246000fd5b604051631550e8b760e01b8152600490fd5b9150915061163d61163683836144b6565b92836144c9565b148580611285565b90506112d4565b604051630803ae7360e11b8152600490fd5b6040516378e2205360e11b8152600490fd5b60608201516064356001600160a01b039081169116146111ed57604051632d3665a760e01b8152600490fd5b90913d8091833e6116ad8183614205565b60208282810103126100fa578151916001600160401b0383116100fa5761018083820183830103126100fa57604051926116e6846141b3565b8181018051855260208082015190860152604001516001600160a01b03811681036100fa57604085015261171e606082840101614392565b606085015260808183010151608085015261173d60a082840101614392565b60a085015260c0818301015160c085015261175c60e082840101614392565b60e08501528181016101008181015190860152610120808201519086015261014080820151908601526101600151906001600160401b0382116100fa576117a79383019201016143e4565b61016082015290836111dd565b506102005161016001516040516391f03efd60e01b815290602090829060049082906001600160a01b03165afa9081156101cd576104805191613cce575b5060018060a01b03166102c0610200510152604051806101a0528060e08101106001600160401b0360e083011117611eae5760e08101604052610480519052606060206101a05101526104805160406101a05101526104805160606101a05101526104805160806101a05101526104805160a06101a05101526104805160c06101a05101526104e051611597576103605115613c2b5761020051610180015160405163416be2f360e01b81526103c0516001600160a01b03908116600483015260648035821660248401526060604484015261042051610340519394602094869490911692849283926118e892840191906142d7565b039161048051905af19081156101cd576104805191613bf9575b5060406101a051015261191a61020080510151614439565b51516101a0516060018190526102005161016001516040516352ff146960e11b81526004810192909252602090829060249082906001600160a01b03165afa9081156101cd576104805191613bbf575b5060018060a01b03168060806101a05101528015159081613b60575b501561336f576119946142bd565b50610480515b6102a051811015611a77576119b58161020080510151614446565b5180516101a0519060608201511491826119f1575b5050156119df576119da9061435d565b61199a565b60405163013645bb60e21b8152600490fd5b6020919250611a359060408360018060a01b036080870151169201519401519360405180958194829363d99a550760e01b845260406004850152604484019061445a565b90602483015203915afa9081156101cd576104805191611a58575b5083806119ca565b611a71915060203d6020116101c6576101b88183614205565b83611a50565b50600160e06102005101525b610200516101408101516102c0820151610260909201516001600160a01b039283169290911690813b156100fa5760405192636336129b60e11b845260018060a01b036103c05116600485015260248401526044830152816064816104805180945af180156101cd57613b4a575b50610260610200510151604051908160c08101106001600160401b0360c084011117611eae5760c0820160409081526103c0516001600160a01b03908116845260643516602084015282015261044051611b4a9061423e565b611b576040519182614205565b61044051815260208101926104405160051b610260519036908201116100fa576101605283835b6104405160051b6102605161016051918101821015611f10576001600160401b038235116100fa5760409135013603126100fa5760405190611bbf826141cf565b61016051356102605101358252610160513561026051016001600160401b036020820135116100fa5736601f602083013583010112156100fa57611c09602082013582013561423e565b95611c176040519788614205565b60208281013580840135808a5261016051610260518b85019a94913501909201913660059290921b830101116100fa576020909792919694959701935b6020840135610160513561026051010160208086013586013560051b820101861015611ee7576001600160401b038635116100fa57604086359091013603601f1901126100fa5760405197611ca8896141cf565b611cc56020873581880135610160513561026051010101016140fc565b895285356020860135610160513561026051010101966001600160401b036040890135116100fa5736603f60408a01358a010112156100fa57611d11602060408a01358a01013561423e565b98611d1f6040519a8b614205565b602060408a01358a0101358a5260208a019160408a0135893560208a01356101605135610260510101010136604060208d8281013501013560051b830101116100fa57604001925b60408b01358a3560208b013561016051356102605101010101604060208d8281013501013560051b820101851015611ec4576001600160401b038535116100fa576060853582013603603f1901126100fa57604051908160608101106001600160401b03606084011117611eae576060820160405260408635820101356001600160401b0381116100fa5736605f8289358501010112156100fa57611e1c91369188359091010160408101359060600161447f565b815260608c8c8c602060408a359401359235910135610160513561026051010101010101356020820152843560408d01358c3560208d01356101605135610260510101010101916080830135916001600160401b0383116100fa5736605f8486010112156100fa576020938493611e9e9136910160408101359060600161447f565b6040820152815201930192611d67565b634e487b7160e01b600052604160045260246000fd5b50506020808d019b909b529a865291999198919750509485019490920191611c54565b509350949690506020939591508382015281520192602061016051016101605291929092611b7e565b606083018681523060808501524260a0850152610200516101008101516102c08201516101809092015160408051632489c00560e21b815260c06004820181905289516001600160a01b0390811660c48401526020808c0151821660e4850152938b0151610104840152965161012483019190915280516101848301819052610480518d989397600583901b89016101a4908101988a988716979290961695948e949201929088015b828210613a1c5750505060808201516001600160a01b03166101448701525060a00151610164850152602484015260448301526064820152600160848201528082036003190160a48201526104205161034051602093839261201a926142d7565b03817344e30A94d18118e4d3Bf78C4Dd8FBD0B66782Cf55af49081156101cd5761048051916139ea575b5061032061020051015261205a6102a051614255565b6102e061020051015261206f6102a051614255565b6103a06102005101526104e05161159757600460c435146103c0610200510152610480515b6102a0518110156120f657806120d96120ca6120ba6120f1946060610200510151614446565b51610320610200510151906144b6565b610260610200510151906144c9565b6120eb826103a0610200510151614446565b5261435d565b612094565b50600460c43514613569575b61020051604081015160208201516103a08301516101808401516102208501519394929391926001600160a01b0390911691156135625760025b6101c08201516101a0830151610160909301516102a05160ce546001600160a01b03928316969583169592909316939261218291612179916144c9565b60cd5490614291565b60c954604051633f4a2d2760e01b815291979190602090829060049082906001600160a01b03165afa9081156101cd576024916040916104805191613533575b5081516327bcf3db60e11b81526001600482015292839182906001600160a01b03165afa80156101cd5761048051906134fc575b61220591506102a051906144c9565b60400197886040116134e257604051998a6101e08101106001600160401b036101e08d011117611eae576101e08b016040526102a0518b5260208b015260408a0152606089015260018060a01b0360643516608089015260a088015260088110156134cc5760c087015260e0860152610100850152610120840152610140830152600460c435146101608301526101808201526122a8366101405160805161447f565b6101a08201526122bf36610540516102e05161447f565b6101c0820152604051906315c7ca2f60e31b8252602060048301528051602483015281806123f66101c06123db61233961232361230d60208901516101e06044890152610204880190614595565b6040890151878203602319016064890152614595565b6060880151868203602319016084880152614547565b60808701516001600160a01b0390811660a487015260a08801511660c486015260c087015161236c9060e487019061457b565b60e08701516001600160a01b0390811661010487015261010088015181166101248701526101208801511661014486015261014087015161016486015261016087015115156101848601526101808701516101a48601526101a0870151858203602319016101c487015261445a565b940151828503602319016101e484015261048051949061445a565b03817344e30A94d18118e4d3Bf78C4Dd8FBD0B66782Cf55af480156101cd5761048051918291613468575b506104006102005101526103e0610200510152600660c435146130f6575b610480515b6102a0518110156125925780612477612468612538936103e0610200510151614446565b51610420610200510151614291565b61042061020051015261020051816103c082015161258b576103a061249d920151614446565b516124af826080610200510151614446565b51101561253d576124c8816103a0610200510151614446565b516124da826080610200510151614446565b5190036124ef826103e0610200510151614446565b519003612504826102e0610200510151614446565b525b61252a61251b826102e0610200510151614446565b51610300610200510151614291565b61030061020051015261435d565b612444565b61254e816080610200510151614446565b51612561826103e0610200510151614446565b5101612575826103a0610200510151614446565b5190036103806102005101908151019052612506565b505061435d565b506125ac6102005161042061032082015191015190614588565b6103406102005101526004602060018060a01b0361016061020051015116604051928380926361d027b360e01b82525afa9081156101cd5761048051916130bc575b5061042061020051015190734FFa6c545a6249baF2D66ce21CeF3D2C2cCa69D03b156100fa57604051636336129b60e11b8152610480516001600160a01b0360648035821660048501529316602483015260448201939093529190829081734FFa6c545a6249baF2D66ce21CeF3D2C2cCa69D05af480156101cd576130a6575b50610200516102208101511561308d576001600160a01b038216906126a0905b61042061032082015191015190614588565b90734FFa6c545a6249baF2D66ce21CeF3D2C2cCa69D03b156100fa57604051636336129b60e11b8152610480516001600160a01b0360648035821660048501529316602483015260448201939093529190829081734FFa6c545a6249baF2D66ce21CeF3D2C2cCa69D05af480156101cd57613077575b50610200516103c081015115612f7b5750610200516103408101516102a08201519081811115612f6e57505050610200516103006103408201516102a083015190039101525b61020051610220810151612e1a575b5060c95461020051805160208201516102409092015190926001600160a01b039182169116803b156100fa576127d6936127c49260405195869586958694630aaaf60160e11b8652608060048701526084860190614547565b84810360031901602486015290614595565b906102a051604484015260648301526104805194859103925af180156101cd57612e04575b50610480515b6102a051811015612a035761281a816102005151614446565b5161020051602001516001600160a01b0390612837908490614446565b511661284a836060610200510151614446565b519161288461286a612864866102e0610200510151614446565b5161467e565b61287e6128648760a0610200510151614446565b9061460d565b612895856080610200510151614446565b516128c56128ab876103a0610200510151614446565b516128be886103e0610200510151614446565b5190614588565b604080516001600160a01b038a81168252606435811660208301526103c05116918101919091526060810196909652608086019290925260a085015260c084015260c43560e084015233927f4a06c6510972c5a49ff5582d7d8e59f20228038c8cb9ea05d78f02ac7ee406629061010090a4612945816102005151614446565b519060018060a01b0361295f826020610200510151614446565b5161020051610220810151909290911690156129f457612987836103e06002945b0151614446565b519361299b84610400610200510151614446565b519460088410156115975760607f68c1d3a775fd37da20ef77475b9074ee3b57e4d73d94e046e892720b5043ff72916129ef976040519160018060a01b0360643516835260208301526040820152a461435d565b612801565b612987836103e0600394612980565b612a1461026061020051015161467e565b612a2d610480519161287e61028061020051015161467e565b13612a3e575b600180556104805180f35b610200516101a08101516001600160a01b03166102405261026081015161028090910151612a6b91614588565b6102c052612a8460e06102005101518061052052614287565b612a915a61028051614588565b60c0610200510151604051604081016020808301526104405190526060810160606104405160051b83010191610260519461048051935b61044051851015612c4157605f19838203018452612ae98761026051614626565b612aff6040830191803584526020810190614329565b8091926040602086015252606083019060608160051b850101938361048051905b838210612b4157505050505050602080600192980194019401939295612ac8565b909192939495605f19848203018652612b5a8783614626565b604082019190612b82906001600160a01b03612b75826140fc565b1683526020810190614329565b829193604060208395015252606081019060608360051b82010193809361048051915b818310612bc8575050505050506020806001929801960192019093929193612b20565b909192939495605f19858203018652605e1982360301873512156100fa57602080612c33600193858b350190612c25612c12612c0484806142f8565b6060855260608501916142d7565b92858101358684015260408101906142f8565b9160408185039101526142d7565b980196019493019190612ba5565b909550819350612c5a925003601f198101835282614205565b519060405192836101408101106001600160401b0361014086011117611eae57610140840160409081523385526103c0516001600160a01b031660208601526102c0519085015261052051612cae90614287565b6105205160608501526102a051608085015260a084015260c083015260e0820152612ce0366104a0516104605161447f565b610100820152612cf736610400516101c05161447f565b610120820152610240513b156100fa576040805163ee4bc79960e01b815260206004820181905283516001600160a01b039081166024840152908401511660448201529082015160648201526060820151909190612d5481614287565b6084830152608081015160a483015260a081015160c48301528180612dd1610120612db6612d9360c087015161014060e4870152610164860190614547565b60e08701516101048601526101008701518582036023190161012487015261445a565b9401518285036023190161014484015261048051949061445a565b038161048051610240515af180156101cd57612dee575b50612a33565b612df7906141a0565b610480518015612de85780fd5b612e0d906141a0565b6104805180156127fb5780fd5b602081015160808201516103c08301519192909115612f5a5761016001516040516361d027b360e01b815290602090829060049082906001600160a01b03165afa9081156101cd576104805191612f20575b50905b6102005161030081015161038090910151916001600160a01b0386163b156100fa57612ec990612eb76040519663eae12b7f60e01b885260c0600489015260c4880190614595565b86810360031901602488015290614547565b9260018060a01b03166044850152606484015260848301526102a05160a48301528180610480519203818360018060a01b0387165af180156101cd571561276b57612f13906141a0565b61048051801561276b5780fd5b90506020813d602011612f52575b81612f3b60209383614205565b810103126100fa57612f4c90614392565b84612e6c565b3d9150612f2e565b6101c001516001600160a01b031690612e6f565b610380910391015261275c565b60018060a01b036101c082015116906102e06020820151910151604051918260808101106001600160401b03608085011117611eae57608083016040528252602082015260018060a01b036064351660408201526102a0516060820152813b156100fa57604051809281809363b1a11ae960e01b825260206004830152606061302961301383516080602487015260a4860190614595565b6020840151858203602319016044870152614547565b60408301516001600160a01b031660648501529101516084830152610480519490039184905af180156101cd57613061575b5061275c565b61306a906141a0565b61048051801561305b5780fd5b613080906141a0565b6104805180156127165780fd5b6101c08101516001600160a01b0316906126a09061268e565b6130af906141a0565b61048051801561266e5780fd5b90506020813d6020116130ee575b816130d760209383614205565b810103126100fa576130e890614392565b826125ee565b3d91506130ca565b60405163313ce56760e01b81526103c051602090829060049082906001600160a01b03165afa9081156101cd576131409161313b916104805191613449575b506145eb565b6145fc565b6101a05160a0015260405163313ce56760e01b81526020816004816064356001600160a01b03165afa80156101cd5761313b613189916131a093610480519161341a57506145eb565b8060c06101a05101526103206102005101516144b6565b6131ba61026061020051015160a06101a0510151906144b6565b670de0b6b3a764000082818102048114831517156115fd5782818082020403611613576131ec8260011c828502614291565b920282106115eb576131fd916144c9565b60406101a051015261321461020080510151614439565b51516101a0516060018190526102005161016001516040516352ff146960e11b81526004810192909252602090829060249082906001600160a01b03165afa9081156101cd5761048051916133e0575b5060018060a01b03168060806101a05101528015159081613381575b501561336f5761328e6142bd565b50610480515b6102a05181101561335f576132af8161020080510151614446565b5180516101a0519060608201511491826132d9575b5050156119df576132d49061435d565b613294565b602091925061331d9060408360018060a01b03608087015116920151940151936040518095819482936311ee885d60e21b845260406004850152604484019061445a565b90602483015203915afa9081156101cd576104805191613340575b5083806132c4565b613359915060203d6020116101c6576101b88183614205565b83613338565b50600260e061020051015261243f565b60405163016e747160e21b8152600490fd5b6040516301ffc9a760e01b8152630452934760e01b60048201529150602090829060249082905afa9081156101cd5761048051916133c1575b5082613280565b6133da915060203d6020116101c6576101b88183614205565b826133ba565b90506020813d602011613412575b816133fb60209383614205565b810103126100fa5761340c90614392565b82613264565b3d91506133ee565b61343c915060203d602011613442575b6134348183614205565b8101906145d2565b85613135565b503d61342a565b613462915060203d602011613442576134348183614205565b84613135565b9190503d8091833e61347a8183614205565b60408282810103126100fa5781516001600160401b0381116100fa576134a5908284019084016144e9565b9160208101516001600160401b0381116100fa576134c692820191016144e9565b83612421565b634e487b7160e01b600052602160045260246000fd5b634e487b7160e01b61048051526011600452602461048051fd5b506040813d60401161352b575b8161351660409383614205565b810103126100fa5760206122059101516121f6565b3d9150613509565b613555915060203d60201161355b575b61354d8183614205565b81019061429e565b8d6121c2565b503d613543565b600361213c565b60405163280188b760e21b81526020816004816001600160a01b0386165afa9081156101cd5761048051916139b8575b506101a0515261020051606081015161018090910151604051637296b81160e01b81526103c0516001600160a01b0390811660048301526064358116602483015260a0604483015290929116906135f49060a4840190614547565b906064830152600319828203016084830152818061361d610480519361042051610340516142d7565b03817344e30A94d18118e4d3Bf78C4Dd8FBD0B66782Cf55af49081156101cd57610480519161397a575b5060206101a0510152610480515b6102a05181101561396a5761020051604001516001600160a01b039061367c908390614446565b51166137a557610480515b613698826080610200510151614446565b51151590816136b6575b50156119df576136b19061435d565b613655565b6136d291506136cc8360206101a0510151614446565b51614588565b610200516101e081015190610120810151906136f8856080610100840151930151614446565b51916101a051519360405195632b08ee0160e21b87526004870152602486015260448501526064840152608483015260a482015260208160c4817338180A880B06491F44Ad25Ebb5a37e7B5df42d175af480156101cd57610480519061376b575b670de0b6b3a7640000915010836136a2565b506020813d60201161379d575b8161378560209383614205565b8101031261044e57670de0b6b3a76400009051613759565b3d9150613778565b610200516101608101516101808201516103a0909201516001600160a01b0391821692909116906137d7908490614446565b51610200516101a00151604051919391906001600160a01b03166001600160401b03610120830190811190831117611eae57613908946020946101009461012085016040528452858401526002604084015260018060a01b03606435166060840152608083015260a08201526104805160c0820152600160e0820152613863366101405160805161447f565b82820152604051938492839263b18bb31360e01b845285600485015260018060a01b03815116602485015260018060a01b03868201511660448501526138b16040820151606486019061457b565b60608101516001600160a01b039081166084860152608082015160a486015260a08201511660c485015260c081015160e485015260e08101511515610104850152015161012061012484015261014483019061445a565b03817344e30A94d18118e4d3Bf78C4Dd8FBD0B66782Cf55af49081156101cd576104805191613938575b50613687565b90506020813d602011613962575b8161395360209383614205565b8101031261044e575183613932565b3d9150613946565b50600360e0610200510152612102565b3d8092823e6139898282614205565b60208183810103126100fa5780516001600160401b0381116100fa576139b292820191016144e9565b82613647565b90506020813d6020116139e2575b816139d360209383614205565b8101031261044e575182613599565b3d91506139c6565b90506020813d602011613a14575b81613a0560209383614205565b8101031261044e575182612044565b3d91506139f8565b9193949596975091976101a3198a820301825288519060206040820192805183520151916040602083015282518091526060820190602060608260051b850101940192610480515b828110613a895750505050506020806001929a01920192018997969594939192611fb9565b9091929394605f1983820301855285516020604083019160018060a01b0381511684520151916040602082015282518092526060810190602060608460051b83010194019261048051915b818310613af557505050505060208060019297019501910192919092613a64565b9091929394602080613b3d600193605f198682030189528951906040613b24835160608452606084019061445a565b928581015186840152015190604081840391015261445a565b9701950193019190613ad4565b613b53906141a0565b610480518015611af15780fd5b6040516301ffc9a760e01b8152630452934760e01b60048201529150602090829060249082905afa9081156101cd576104805191613ba0575b5082611986565b613bb9915060203d6020116101c6576101b88183614205565b82613b99565b90506020813d602011613bf1575b81613bda60209383614205565b810103126100fa57613beb90614392565b8261196a565b3d9150613bcd565b90506020813d602011613c23575b81613c1460209383614205565b8101031261044e575182611902565b3d9150613c07565b60006104e05260c435600203613c9f57604051634ad09aa560e01b81526020816004816001600160a01b0386165afa9081156101cd576104805191613c80575b50156119df57600460e0610200510152611a83565b613c99915060203d6020116101c6576101b88183614205565b82613c6b565b600660c435148015613cc2575b611a8357604051633e653aad60e11b8152600490fd5b50600460c43514613cac565b90506020813d602011613d00575b81613ce960209383614205565b810103126100fa57613cfa90614392565b826117f2565b3d9150613cdc565b60405163011ddaef60e71b81526020816004816001600160a01b0386165afa9081156101cd576104805191613dbe575b506001600160a01b03606435811691160361164c576040516368d0612f60e01b81526020816004816001600160a01b0386165afa9081156101cd576104805191613d8c575b5061036061020051015261110a565b90506020813d602011613db6575b81613da760209383614205565b8101031261044e575182613d7d565b3d9150613d9a565b90506020813d602011613df8575b81613dd960209383614205565b810103126100fa57516001600160a01b03811681036100fa5782613d38565b3d9150613dcc565b613e09906141a0565b816110fb565b634e487b7160e01b61048051526041600452602461048051fd5b6020813d602011613e55575b81613e4260209383614205565b810103126100fa5751610580528b610d41565b3d9150613e35565b6020813d602011613e99575b81613e7660209383614205565b810103126100fa57516001600160a01b03811681036100fa576105c0528b610cf3565b3d9150613e69565b9099506020813d602011613edd575b81613ebd60209383614205565b810103126100fa57516001600160a01b03811681036100fa57988b610cc9565b3d9150613eb0565b613eff91985060203d60201161355b5761354d8183614205565b968a610c90565b9094506020813d602011613f32575b81613f2260209383614205565b810103126100fa57519389610c67565b3d9150613f15565b9092506020813d602011613f66575b81613f5660209383614205565b810103126100fa57519188610c3e565b3d9150613f49565b6101e0516102a05114610b705760405163554a08d160e11b8152600490fd5b50600660c43514610b6b565b604051635651391960e01b8152600490fd5b6040516333df015b60e01b8152600490fd5b613fd6915060203d6020116101c6576101b88183614205565b82610b30565b60405162461bcd60e51b815260206004820152601f60248201527f5265656e7472616e637947756172643a207265656e7472616e742063616c6c006044820152606490fd5b346100fa5761048051806003193601126100f75760ca546040516001600160a01b039091168152602090f35b3461044e57602036600319011261044e576004359063ffffffff60e01b821680920361044e576020916355b7181560e01b811490811561408f575b5015158152f35b6301ffc9a760e01b14905083614088565b9181601f8401121561044e578235916001600160401b03831161044e576020808501948460051b01011161044e57565b604435906001600160a01b038216820361044e57565b600435906001600160a01b038216820361044e57565b35906001600160a01b038216820361044e57565b9181601f8401121561044e578235916001600160401b03831161044e576020838186019501011161044e57565b1561414457565b60405162461bcd60e51b815260206004820152602e60248201527f496e697469616c697a61626c653a20636f6e747261637420697320616c72656160448201526d191e481a5b9a5d1a585b1a5e995960921b6064820152608490fd5b6001600160401b038111611eae57604052565b61018081019081106001600160401b03821117611eae57604052565b604081019081106001600160401b03821117611eae57604052565b602081019081106001600160401b03821117611eae57604052565b90601f801991011681019081106001600160401b03821117611eae57604052565b9081602091031261044e5751801515810361044e5790565b6001600160401b038111611eae5760051b60200190565b9061425f8261423e565b61426c6040519182614205565b828152809261427d601f199161423e565b0190602036910137565b600511156134cc57565b919082018092116115fd57565b9081602091031261044e57516001600160a01b038116810361044e5790565b604051906142ca826141cf565b6060602083600081520152565b908060209392818452848401376000828201840152601f01601f1916010190565b9035601e198236030181121561044e5701602081359101916001600160401b03821161044e57813603831361044e57565b9035601e198236030181121561044e5701602081359101916001600160401b03821161044e578160051b3603831361044e57565b60001981146115fd5760010190565b919081101561437c5760051b0190565b634e487b7160e01b600052603260045260246000fd5b51906001600160a01b038216820361044e57565b6001600160401b038111611eae57601f01601f191660200190565b60005b8381106143d45750506000910152565b81810151838201526020016143c4565b81601f8201121561044e5780516143fa816143a6565b926144086040519485614205565b8184526020828401011161044e5761442691602080850191016143c1565b90565b80516004101561437c5760a00190565b80511561437c5760200190565b805182101561437c5760209160051b010190565b90602091614473815180928185528580860191016143c1565b601f01601f1916010190565b92919261448b826143a6565b916144996040519384614205565b82948184528183011161044e578281602093846000960137010152565b818102929181159184041417156115fd57565b81156144d3570490565b634e487b7160e01b600052601260045260246000fd5b81601f8201121561044e578051916145008361423e565b9261450e6040519485614205565b808452602092838086019260051b82010192831161044e578301905b828210614538575050505090565b8151815290830190830161452a565b90815180825260208080930193019160005b828110614567575050505090565b835185529381019392810192600101614559565b9060088210156134cc5752565b919082039182116115fd57565b90815180825260208080930193019160005b8281106145b5575050505090565b83516001600160a01b0316855293810193928101926001016145a7565b9081602091031261044e575160ff8116810361044e5790565b60ff166012039060ff82116115fd57565b60ff16604d81116115fd57600a0a90565b818103929160001380158285131691841216176115fd57565b9035603e198236030181121561044e570190565b60ff6065541661464657565b60405162461bcd60e51b815260206004820152601060248201526f14185d5cd8589b194e881c185d5cd95960821b6044820152606490fd5b6001600160ff1b03811161468f5790565b60405162461bcd60e51b815260206004820152602860248201527f53616665436173743a2076616c756520646f65736e27742066697420696e2061604482015267371034b73a191a9b60c11b6064820152608490fd5b60207facc3c379a8e9a6c0053634e4b47028287aeef1e6c02ef5b70562fa3002c93555918060cd55604051908152a1565b60207f22ea0d3381fb6dc0d04918bfe5419fabbbc1b9aebceb78508b26dab44bf301fc918060ce55604051908152a156fea2646970667358221220f58b68a5e86e0ca1187a221b2930db6f9f73850ddb1f6f2d20501d02c83c1bd764736f6c63430008120033",
  "deployedBytecode": "0x61060080604052600436101561001457600080fd5b60006104805260003560e01c90816301ffc9a71461404d575080632630c12f146140215780633bcf4556146109045780633f4ba83a146107e95780635c975abb146107c3578063791b98bc146107975780637b1039991461076b5780638456cb591461068a57806394747a0d14610669578063a9664f38146105c6578063c4d66de814610474578063def56e3c14610453578063e9d8151d146101db578063ea106a8e146101015763ef379d17146100cb57600080fd5b346100fa5761048051806003193601126100f75760cb546040516001600160a01b039091168152602090f35b80fd5b6104805180fd5b346100fa5760203660031901126100fa5760cc54604051632474521560e21b81527fc0fc8e4dc5cff6febdf550b80d566f654e2baf1a02ea1060208c2f8ab2dd1b63600482015233602482015290602090829060449082906001600160a01b03165afa9081156101cd57610480519161019f575b501561018d576101866004356146e5565b6104805180f35b60405163036be76f60e61b8152600490fd5b6101c0915060203d81116101c6575b6101b88183614205565b810190614226565b81610175565b503d6101ae565b6040513d61048051823e3d90fd5b346100fa5760a03660031901126100fa576101f46140e6565b6001600160a01b03906024358281169081900361044e576102136140d0565b8360cc5416926040518094632474521560e21b825261048051600483015233602483015281604460209788935afa9081156101cd576104805191610431575b501561018d578490610102610480515460ff8160081c161580610424575b6102799061413d565b61ffff1916176104805155166040516301ffc9a760e01b808252633d79d7fb60e11b60048301528582602481865afa9182156101cd576104805192610405575b50816103b2575b8161035e575b501561034c577f7f26b83ff96e1f2b6a682f133852f6798a09c465da95921460cefb3847402498946bffffffffffffffffffffffff60a01b92168260cb54161760cb558160c954161760c95560ca54161760ca556103256064356146e5565b610330608435614716565b61048051805461ff001916905560405160028152a16104805180f35b60405163044aa57560e41b8152600490fd5b604051908152633df6cef760e01b600482015290508481602481868a165afa9081156101cd576104805191610395575b50866102c6565b6103ac9150853d87116101c6576101b88183614205565b8661038e565b6040518181526333ca6d2360e21b60048201529091508581602481885afa9081156101cd5761048051916103e8575b50906102c0565b6103ff9150863d88116101c6576101b88183614205565b876103e1565b61041d919250863d88116101c6576101b88183614205565b90876102b9565b50600260ff821610610270565b6104489150853d87116101c6576101b88183614205565b86610252565b600080fd5b346100fa5761048051806003193601126100f757602060cd54604051908152f35b346100fa5760203660031901126100fa5761048d6140e6565b61048051549060ff8260081c1615918280936105b9575b80156105a2575b6104b49061413d565b6104805160ff19821660011781559083610590575b50506040516301ffc9a760e01b8152637965db0b60e01b60048201526001600160a01b039190911690602081602481855afa9081156101cd576104805191610572575b501561034c576bffffffffffffffffffffffff60a01b60cc54161760cc55610535576104805180f35b6104805161ff001981541690557f7f26b83ff96e1f2b6a682f133852f6798a09c465da95921460cefb3847402498602060405160018152a1610186565b61058a915060203d81116101c6576101b88183614205565b8361050c565b61ffff191661010117905582806104c9565b50303b1580156104ab575060ff81166001146104ab565b50600160ff8216106104a4565b346100fa5760203660031901126100fa5760cc54604051632474521560e21b81527fc0fc8e4dc5cff6febdf550b80d566f654e2baf1a02ea1060208c2f8ab2dd1b63600482015233602482015290602090829060449082906001600160a01b03165afa9081156101cd57610480519161064b575b501561018d57610186600435614716565b610663915060203d81116101c6576101b88183614205565b8161063a565b346100fa5761048051806003193601126100f757602060ce54604051908152f35b346100fa5761048051806003193601126100f75760cc54604051632474521560e21b81527f5c91514091af31f62f596a314af7d5be40146b2f2355969392f055e12e0982fb600482015233602482015290602090829060449082906001600160a01b03165afa9081156101cd57610480519161074d575b501561018d5761070f61463a565b600160ff1960655416176065557f62e78cea01bee320cd4e420270b5ea74000d11b0c9f74754ebdbfc544b05a2586020604051338152a16104805180f35b610765915060203d81116101c6576101b88183614205565b81610701565b346100fa5761048051806003193601126100f75760cc546040516001600160a01b039091168152602090f35b346100fa5761048051806003193601126100f75760c9546040516001600160a01b039091168152602090f35b346100fa5761048051806003193601126100f757602060ff606554166040519015158152f35b346100fa5761048051806003193601126100f75760cc54604051632474521560e21b81527f5a7d4408f4759dddd7fdfd0d21abd99341dc2f52cda14804988a9b2df20766d8600482015233602482015290602090829060449082906001600160a01b03165afa9081156101cd5761048051916108e6575b501561018d5760655460ff8116156108aa5760ff19166065557f5db9ee0a495bf2e6ff9c91a7834c1ba4fdd244a5e8aa4e537bd38aeae4b073aa6020604051338152a16104805180f35b60405162461bcd60e51b815260206004820152601460248201527314185d5cd8589b194e881b9bdd081c185d5cd95960621b6044820152606490fd5b6108fe915060203d81116101c6576101b88183614205565b81610860565b6101c03660031901126100fa576004356001600160401b0381116100fa576109309036906004016140a0565b6102a052610320526024356001600160401b0381116100fa576109579036906004016140a0565b61044052610260526109676140d0565b6103c0526064356001600160a01b03811690036100fa576084356001600160a01b03811681036100fa576001600160401b0360a435116100fa576109b03660a4356004016140a0565b6101e05261038052600760c43510156104e08190526100fa576001600160401b0360e435116100fa576109e83660e435600401614110565b61042052610340526001600160401b0361010435116100fa57610a113661010435600401614110565b6104a052610460526001600160401b0361012435116100fa57610a3a3661012435600401614110565b610140526080526001600160401b0361014435116100fa57610a623661014435600401614110565b610400526101c0526001600160401b0361016435116100fa57610a8b3661016435600401614110565b610540526102e0526001600160401b0361018435116100fa57610ab436610184356004016140a0565b60e0526104c0526001600160401b036101a435116100fa57610adc366101a4356004016140a0565b6102205261012052600260015414613fdc57600260015560cb54604051630723eb0360e51b815233600482015290602090829060249082906001600160a01b03165afa9081156101cd576104805191613fbd575b50613fab57610b3d61463a565b5a610280526102a05115613f9957610480516104e052600560c4351480610360528015610100528015613f8d575b613f6e575b610b7c6102a051614255565b61030052610b8c6102a051614255565b6103e052610b9c6102a051614255565b610ba86102a051614255565b610bb46102a051614255565b610bc06102a051614255565b90604051918260c08101106001600160401b0360c085011117613e0f5760c083016040526005835260a036602085013760c95460405163a8905dab60e01b81526103c0516001600160a01b03606435811660048401529081166024830152909116939091602083604481885afa9283156101cd576104805193613f3a575b506040516301ddf49360e61b815293602085600481895afa9485156101cd576104805195613f06575b50604051633f4a2d2760e01b8152966020886004818a5afa9788156101cd576104805198613ee5575b5060ca546001600160a01b03166105a052604051637496a94d60e11b81529860208a6004818b5afa998a156101cd57610480519a613ea1575b50604051634cb4430f60e11b81526020816004818c5afa80156101cd57610480516105c052613e5d575b50604051631dae49b960e21b81526103c0516001600160a01b039081166004830152606435166024820152602081806044810103816105a0515afa80156101cd576104805161058052613e29575b50610d5e610d516102a05161423e565b6040518061050052614205565b6102a0516105005152601f19610d766102a05161423e565b0160a05261048051610180525b60a051610180511015610db557610d986142bd565b602061018051610500510101526020610180510161018052610d83565b610dc5604051806105e0526141ea565b610480516105e05152610dde604051806103a0526141ea565b610480516103a05152610df36102a051614255565b60c052610e026102a051614255565b6105605260405180610200526001600160401b036104408201918210911117613e0f576102005161044081016040526103005190526103e051602061020051015260406102005101526060610200510152608061020051015260a061020051015260c06102005101526104805160e061020051015261010061020051015261012061020051015261014061020051015260018060a01b03166101606102005101526105a05161018061020051015260018060a01b03166101a061020051015260018060a01b036105c051166101c0610200510152610580516101e0610200510152610500516102008051015260018060a01b038116151561022061020051015260018060a01b0381166102406102005101526104805161026061020051015261048051610280610200510152610480516102a0610200510152610480516102c06102005101526105e0516102e061020051015261048051610300610200510152610480516103206102005101526104805161034061020051015261048051610360610200510152610480516103806102005101526103a0516103a0610200510152610480516103c061020051015260c0516103e061020051015261056051610400610200510152610480516104206102005101526105a0513b156100fa5760405163f197ce3560e01b8152604481016040600483015260e051905260648101606460e05160051b830101906104c05161048051925b60e0518410156110a757606319858203018352611037826104c051614329565b808352602083019060208160051b850101938361048051905b83821061107157505050505050602080600192930193019301929190611017565b909192939495602080611099600193601f19888203018a526110938b876142f8565b906142d7565b980196019493920190611050565b84810360031901602486015261022080518252519093509150506001600160fb1b0381116100fa57602083809260051b806101205184870137610480519401030181346105a0515af180156101cd57613e00575b50610220610200510151613d08575b610480515b6102a0518110156117b457606061016060405161112b816141b3565b61048051815261048051602082015261048051604082015261048051838201526104805160808201526104805160a08201526104805160c08201526104805160e0820152610480516101008201526104805161012082015261048051610140820152015260018060a01b0360c95416906111ac816102a0516103205161436c565b35916040519263eb02c30160e01b845260048401528260248161048051935afa9182156101cd57610480519261169c575b5061022061020051015115611670575b60408201516001600160a01b0384811691160361165e57611215816102a0516103205161436c565b35611224826102005151614446565b526103c05160a08301516001600160a01b0391821691160361164c5760c0820151611256826060610200510151614446565b526102005161022081015161048051901561164557506103606020840151910151906000918015918215611625575b505015611613576b019d971e4fe8401e74000000810181116115fd57806b019d971e4fe8401e740000008101106115eb576b019d971e4fe8401e740000006b033b2e3c9fd0803ce80000009101045b6112e5826080610200510151614446565b5260808201516112fc8260a0610200510151614446565b5260018060a01b0360e08301511661131b826020610200510151614446565b52611348602061016084015160405180938192630b02f07160e31b8352846004840152602483019061445a565b038173__$3ea787592ca519a32436565b5d70444cd7$__5af49081156101cd5761048051916115b1575b50611384826040610200510151614446565b6001600160a01b0390911690526104e051611597576103605161010051611585575b611412575b61140d91506113d36113c4826060610200510151614446565b51610260610200510151614291565b6102606102005101526113ff6113f0826080610200510151614446565b516102a0610200510151614291565b6102a061020051015261435d565b61110f565b60018060a01b0360c954169161142f826102a0516103205161436c565b3592611442836101e0516103805161436c565b3560405194630f2bd83960e01b8652600486015260248501528360448161048051935afa9283156101cd5761048051936114fa575b506101409061149c8361140d9561020080510151906114968383614446565b52614446565b50015142036113ab5760c06102005101516114c86114c26114bc83614429565b5161435d565b91614429565b526114ec6114dd826060610200510151614446565b51610280610200510151614291565b6102806102005101526113ab565b903d8094833e61150a8483614205565b60208285810103126100fa5781516001600160401b0381116100fa57604081840186850103126100fa5760405190611541826141cf565b8381018051835260200151916001600160401b0383116100fa576115768561149c94889461140d9a61014099019201016143e4565b60208201529550505090611477565b5060006104e052600660c435146113a6565b634e487b7160e01b61048051526021600452602461048051fd5b90506020813d6020116115e3575b816115cc60209383614205565b810103126100fa576115dd90614392565b84611372565b3d91506115bf565b604051630a77254f60e01b8152600490fd5b634e487b7160e01b600052601160045260246000fd5b604051631550e8b760e01b8152600490fd5b9150915061163d61163683836144b6565b92836144c9565b148580611285565b90506112d4565b604051630803ae7360e11b8152600490fd5b6040516378e2205360e11b8152600490fd5b60608201516064356001600160a01b039081169116146111ed57604051632d3665a760e01b8152600490fd5b90913d8091833e6116ad8183614205565b60208282810103126100fa578151916001600160401b0383116100fa5761018083820183830103126100fa57604051926116e6846141b3565b8181018051855260208082015190860152604001516001600160a01b03811681036100fa57604085015261171e606082840101614392565b606085015260808183010151608085015261173d60a082840101614392565b60a085015260c0818301015160c085015261175c60e082840101614392565b60e08501528181016101008181015190860152610120808201519086015261014080820151908601526101600151906001600160401b0382116100fa576117a79383019201016143e4565b61016082015290836111dd565b506102005161016001516040516391f03efd60e01b815290602090829060049082906001600160a01b03165afa9081156101cd576104805191613cce575b5060018060a01b03166102c0610200510152604051806101a0528060e08101106001600160401b0360e083011117611eae5760e08101604052610480519052606060206101a05101526104805160406101a05101526104805160606101a05101526104805160806101a05101526104805160a06101a05101526104805160c06101a05101526104e051611597576103605115613c2b5761020051610180015160405163416be2f360e01b81526103c0516001600160a01b03908116600483015260648035821660248401526060604484015261042051610340519394602094869490911692849283926118e892840191906142d7565b039161048051905af19081156101cd576104805191613bf9575b5060406101a051015261191a61020080510151614439565b51516101a0516060018190526102005161016001516040516352ff146960e11b81526004810192909252602090829060249082906001600160a01b03165afa9081156101cd576104805191613bbf575b5060018060a01b03168060806101a05101528015159081613b60575b501561336f576119946142bd565b50610480515b6102a051811015611a77576119b58161020080510151614446565b5180516101a0519060608201511491826119f1575b5050156119df576119da9061435d565b61199a565b60405163013645bb60e21b8152600490fd5b6020919250611a359060408360018060a01b036080870151169201519401519360405180958194829363d99a550760e01b845260406004850152604484019061445a565b90602483015203915afa9081156101cd576104805191611a58575b5083806119ca565b611a71915060203d6020116101c6576101b88183614205565b83611a50565b50600160e06102005101525b610200516101408101516102c0820151610260909201516001600160a01b039283169290911690813b156100fa5760405192636336129b60e11b845260018060a01b036103c05116600485015260248401526044830152816064816104805180945af180156101cd57613b4a575b50610260610200510151604051908160c08101106001600160401b0360c084011117611eae5760c0820160409081526103c0516001600160a01b03908116845260643516602084015282015261044051611b4a9061423e565b611b576040519182614205565b61044051815260208101926104405160051b610260519036908201116100fa576101605283835b6104405160051b6102605161016051918101821015611f10576001600160401b038235116100fa5760409135013603126100fa5760405190611bbf826141cf565b61016051356102605101358252610160513561026051016001600160401b036020820135116100fa5736601f602083013583010112156100fa57611c09602082013582013561423e565b95611c176040519788614205565b60208281013580840135808a5261016051610260518b85019a94913501909201913660059290921b830101116100fa576020909792919694959701935b6020840135610160513561026051010160208086013586013560051b820101861015611ee7576001600160401b038635116100fa57604086359091013603601f1901126100fa5760405197611ca8896141cf565b611cc56020873581880135610160513561026051010101016140fc565b895285356020860135610160513561026051010101966001600160401b036040890135116100fa5736603f60408a01358a010112156100fa57611d11602060408a01358a01013561423e565b98611d1f6040519a8b614205565b602060408a01358a0101358a5260208a019160408a0135893560208a01356101605135610260510101010136604060208d8281013501013560051b830101116100fa57604001925b60408b01358a3560208b013561016051356102605101010101604060208d8281013501013560051b820101851015611ec4576001600160401b038535116100fa576060853582013603603f1901126100fa57604051908160608101106001600160401b03606084011117611eae576060820160405260408635820101356001600160401b0381116100fa5736605f8289358501010112156100fa57611e1c91369188359091010160408101359060600161447f565b815260608c8c8c602060408a359401359235910135610160513561026051010101010101356020820152843560408d01358c3560208d01356101605135610260510101010101916080830135916001600160401b0383116100fa5736605f8486010112156100fa576020938493611e9e9136910160408101359060600161447f565b6040820152815201930192611d67565b634e487b7160e01b600052604160045260246000fd5b50506020808d019b909b529a865291999198919750509485019490920191611c54565b509350949690506020939591508382015281520192602061016051016101605291929092611b7e565b606083018681523060808501524260a0850152610200516101008101516102c08201516101809092015160408051632489c00560e21b815260c06004820181905289516001600160a01b0390811660c48401526020808c0151821660e4850152938b0151610104840152965161012483019190915280516101848301819052610480518d989397600583901b89016101a4908101988a988716979290961695948e949201929088015b828210613a1c5750505060808201516001600160a01b03166101448701525060a00151610164850152602484015260448301526064820152600160848201528082036003190160a48201526104205161034051602093839261201a926142d7565b038173__$75df3f6366b0557754cd3ba14359105414$__5af49081156101cd5761048051916139ea575b5061032061020051015261205a6102a051614255565b6102e061020051015261206f6102a051614255565b6103a06102005101526104e05161159757600460c435146103c0610200510152610480515b6102a0518110156120f657806120d96120ca6120ba6120f1946060610200510151614446565b51610320610200510151906144b6565b610260610200510151906144c9565b6120eb826103a0610200510151614446565b5261435d565b612094565b50600460c43514613569575b61020051604081015160208201516103a08301516101808401516102208501519394929391926001600160a01b0390911691156135625760025b6101c08201516101a0830151610160909301516102a05160ce546001600160a01b03928316969583169592909316939261218291612179916144c9565b60cd5490614291565b60c954604051633f4a2d2760e01b815291979190602090829060049082906001600160a01b03165afa9081156101cd576024916040916104805191613533575b5081516327bcf3db60e11b81526001600482015292839182906001600160a01b03165afa80156101cd5761048051906134fc575b61220591506102a051906144c9565b60400197886040116134e257604051998a6101e08101106001600160401b036101e08d011117611eae576101e08b016040526102a0518b5260208b015260408a0152606089015260018060a01b0360643516608089015260a088015260088110156134cc5760c087015260e0860152610100850152610120840152610140830152600460c435146101608301526101808201526122a8366101405160805161447f565b6101a08201526122bf36610540516102e05161447f565b6101c0820152604051906315c7ca2f60e31b8252602060048301528051602483015281806123f66101c06123db61233961232361230d60208901516101e06044890152610204880190614595565b6040890151878203602319016064890152614595565b6060880151868203602319016084880152614547565b60808701516001600160a01b0390811660a487015260a08801511660c486015260c087015161236c9060e487019061457b565b60e08701516001600160a01b0390811661010487015261010088015181166101248701526101208801511661014486015261014087015161016486015261016087015115156101848601526101808701516101a48601526101a0870151858203602319016101c487015261445a565b940151828503602319016101e484015261048051949061445a565b038173__$75df3f6366b0557754cd3ba14359105414$__5af480156101cd5761048051918291613468575b506104006102005101526103e0610200510152600660c435146130f6575b610480515b6102a0518110156125925780612477612468612538936103e0610200510151614446565b51610420610200510151614291565b61042061020051015261020051816103c082015161258b576103a061249d920151614446565b516124af826080610200510151614446565b51101561253d576124c8816103a0610200510151614446565b516124da826080610200510151614446565b5190036124ef826103e0610200510151614446565b519003612504826102e0610200510151614446565b525b61252a61251b826102e0610200510151614446565b51610300610200510151614291565b61030061020051015261435d565b612444565b61254e816080610200510151614446565b51612561826103e0610200510151614446565b5101612575826103a0610200510151614446565b5190036103806102005101908151019052612506565b505061435d565b506125ac6102005161042061032082015191015190614588565b6103406102005101526004602060018060a01b0361016061020051015116604051928380926361d027b360e01b82525afa9081156101cd5761048051916130bc575b506104206102005101519073__$183737d697d7aa9b5df9988cbe11bc4947$__3b156100fa57604051636336129b60e11b8152610480516001600160a01b036064803582166004850152931660248301526044820193909352919082908173__$183737d697d7aa9b5df9988cbe11bc4947$__5af480156101cd576130a6575b50610200516102208101511561308d576001600160a01b038216906126a0905b61042061032082015191015190614588565b9073__$183737d697d7aa9b5df9988cbe11bc4947$__3b156100fa57604051636336129b60e11b8152610480516001600160a01b036064803582166004850152931660248301526044820193909352919082908173__$183737d697d7aa9b5df9988cbe11bc4947$__5af480156101cd57613077575b50610200516103c081015115612f7b5750610200516103408101516102a08201519081811115612f6e57505050610200516103006103408201516102a083015190039101525b61020051610220810151612e1a575b5060c95461020051805160208201516102409092015190926001600160a01b039182169116803b156100fa576127d6936127c49260405195869586958694630aaaf60160e11b8652608060048701526084860190614547565b84810360031901602486015290614595565b906102a051604484015260648301526104805194859103925af180156101cd57612e04575b50610480515b6102a051811015612a035761281a816102005151614446565b5161020051602001516001600160a01b0390612837908490614446565b511661284a836060610200510151614446565b519161288461286a612864866102e0610200510151614446565b5161467e565b61287e6128648760a0610200510151614446565b9061460d565b612895856080610200510151614446565b516128c56128ab876103a0610200510151614446565b516128be886103e0610200510151614446565b5190614588565b604080516001600160a01b038a81168252606435811660208301526103c05116918101919091526060810196909652608086019290925260a085015260c084015260c43560e084015233927f4a06c6510972c5a49ff5582d7d8e59f20228038c8cb9ea05d78f02ac7ee406629061010090a4612945816102005151614446565b519060018060a01b0361295f826020610200510151614446565b5161020051610220810151909290911690156129f457612987836103e06002945b0151614446565b519361299b84610400610200510151614446565b519460088410156115975760607f68c1d3a775fd37da20ef77475b9074ee3b57e4d73d94e046e892720b5043ff72916129ef976040519160018060a01b0360643516835260208301526040820152a461435d565b612801565b612987836103e0600394612980565b612a1461026061020051015161467e565b612a2d610480519161287e61028061020051015161467e565b13612a3e575b600180556104805180f35b610200516101a08101516001600160a01b03166102405261026081015161028090910151612a6b91614588565b6102c052612a8460e06102005101518061052052614287565b612a915a61028051614588565b60c0610200510151604051604081016020808301526104405190526060810160606104405160051b83010191610260519461048051935b61044051851015612c4157605f19838203018452612ae98761026051614626565b612aff6040830191803584526020810190614329565b8091926040602086015252606083019060608160051b850101938361048051905b838210612b4157505050505050602080600192980194019401939295612ac8565b909192939495605f19848203018652612b5a8783614626565b604082019190612b82906001600160a01b03612b75826140fc565b1683526020810190614329565b829193604060208395015252606081019060608360051b82010193809361048051915b818310612bc8575050505050506020806001929801960192019093929193612b20565b909192939495605f19858203018652605e1982360301873512156100fa57602080612c33600193858b350190612c25612c12612c0484806142f8565b6060855260608501916142d7565b92858101358684015260408101906142f8565b9160408185039101526142d7565b980196019493019190612ba5565b909550819350612c5a925003601f198101835282614205565b519060405192836101408101106001600160401b0361014086011117611eae57610140840160409081523385526103c0516001600160a01b031660208601526102c0519085015261052051612cae90614287565b6105205160608501526102a051608085015260a084015260c083015260e0820152612ce0366104a0516104605161447f565b610100820152612cf736610400516101c05161447f565b610120820152610240513b156100fa576040805163ee4bc79960e01b815260206004820181905283516001600160a01b039081166024840152908401511660448201529082015160648201526060820151909190612d5481614287565b6084830152608081015160a483015260a081015160c48301528180612dd1610120612db6612d9360c087015161014060e4870152610164860190614547565b60e08701516101048601526101008701518582036023190161012487015261445a565b9401518285036023190161014484015261048051949061445a565b038161048051610240515af180156101cd57612dee575b50612a33565b612df7906141a0565b610480518015612de85780fd5b612e0d906141a0565b6104805180156127fb5780fd5b602081015160808201516103c08301519192909115612f5a5761016001516040516361d027b360e01b815290602090829060049082906001600160a01b03165afa9081156101cd576104805191612f20575b50905b6102005161030081015161038090910151916001600160a01b0386163b156100fa57612ec990612eb76040519663eae12b7f60e01b885260c0600489015260c4880190614595565b86810360031901602488015290614547565b9260018060a01b03166044850152606484015260848301526102a05160a48301528180610480519203818360018060a01b0387165af180156101cd571561276b57612f13906141a0565b61048051801561276b5780fd5b90506020813d602011612f52575b81612f3b60209383614205565b810103126100fa57612f4c90614392565b84612e6c565b3d9150612f2e565b6101c001516001600160a01b031690612e6f565b610380910391015261275c565b60018060a01b036101c082015116906102e06020820151910151604051918260808101106001600160401b03608085011117611eae57608083016040528252602082015260018060a01b036064351660408201526102a0516060820152813b156100fa57604051809281809363b1a11ae960e01b825260206004830152606061302961301383516080602487015260a4860190614595565b6020840151858203602319016044870152614547565b60408301516001600160a01b031660648501529101516084830152610480519490039184905af180156101cd57613061575b5061275c565b61306a906141a0565b61048051801561305b5780fd5b613080906141a0565b6104805180156127165780fd5b6101c08101516001600160a01b0316906126a09061268e565b6130af906141a0565b61048051801561266e5780fd5b90506020813d6020116130ee575b816130d760209383614205565b810103126100fa576130e890614392565b826125ee565b3d91506130ca565b60405163313ce56760e01b81526103c051602090829060049082906001600160a01b03165afa9081156101cd576131409161313b916104805191613449575b506145eb565b6145fc565b6101a05160a0015260405163313ce56760e01b81526020816004816064356001600160a01b03165afa80156101cd5761313b613189916131a093610480519161341a57506145eb565b8060c06101a05101526103206102005101516144b6565b6131ba61026061020051015160a06101a0510151906144b6565b670de0b6b3a764000082818102048114831517156115fd5782818082020403611613576131ec8260011c828502614291565b920282106115eb576131fd916144c9565b60406101a051015261321461020080510151614439565b51516101a0516060018190526102005161016001516040516352ff146960e11b81526004810192909252602090829060249082906001600160a01b03165afa9081156101cd5761048051916133e0575b5060018060a01b03168060806101a05101528015159081613381575b501561336f5761328e6142bd565b50610480515b6102a05181101561335f576132af8161020080510151614446565b5180516101a0519060608201511491826132d9575b5050156119df576132d49061435d565b613294565b602091925061331d9060408360018060a01b03608087015116920151940151936040518095819482936311ee885d60e21b845260406004850152604484019061445a565b90602483015203915afa9081156101cd576104805191613340575b5083806132c4565b613359915060203d6020116101c6576101b88183614205565b83613338565b50600260e061020051015261243f565b60405163016e747160e21b8152600490fd5b6040516301ffc9a760e01b8152630452934760e01b60048201529150602090829060249082905afa9081156101cd5761048051916133c1575b5082613280565b6133da915060203d6020116101c6576101b88183614205565b826133ba565b90506020813d602011613412575b816133fb60209383614205565b810103126100fa5761340c90614392565b82613264565b3d91506133ee565b61343c915060203d602011613442575b6134348183614205565b8101906145d2565b85613135565b503d61342a565b613462915060203d602011613442576134348183614205565b84613135565b9190503d8091833e61347a8183614205565b60408282810103126100fa5781516001600160401b0381116100fa576134a5908284019084016144e9565b9160208101516001600160401b0381116100fa576134c692820191016144e9565b83612421565b634e487b7160e01b600052602160045260246000fd5b634e487b7160e01b61048051526011600452602461048051fd5b506040813d60401161352b575b8161351660409383614205565b810103126100fa5760206122059101516121f6565b3d9150613509565b613555915060203d60201161355b575b61354d8183614205565b81019061429e565b8d6121c2565b503d613543565b600361213c565b60405163280188b760e21b81526020816004816001600160a01b0386165afa9081156101cd5761048051916139b8575b506101a0515261020051606081015161018090910151604051637296b81160e01b81526103c0516001600160a01b0390811660048301526064358116602483015260a0604483015290929116906135f49060a4840190614547565b906064830152600319828203016084830152818061361d610480519361042051610340516142d7565b038173__$75df3f6366b0557754cd3ba14359105414$__5af49081156101cd57610480519161397a575b5060206101a0510152610480515b6102a05181101561396a5761020051604001516001600160a01b039061367c908390614446565b51166137a557610480515b613698826080610200510151614446565b51151590816136b6575b50156119df576136b19061435d565b613655565b6136d291506136cc8360206101a0510151614446565b51614588565b610200516101e081015190610120810151906136f8856080610100840151930151614446565b51916101a051519360405195632b08ee0160e21b87526004870152602486015260448501526064840152608483015260a482015260208160c48173__$3ea787592ca519a32436565b5d70444cd7$__5af480156101cd57610480519061376b575b670de0b6b3a7640000915010836136a2565b506020813d60201161379d575b8161378560209383614205565b8101031261044e57670de0b6b3a76400009051613759565b3d9150613778565b610200516101608101516101808201516103a0909201516001600160a01b0391821692909116906137d7908490614446565b51610200516101a00151604051919391906001600160a01b03166001600160401b03610120830190811190831117611eae57613908946020946101009461012085016040528452858401526002604084015260018060a01b03606435166060840152608083015260a08201526104805160c0820152600160e0820152613863366101405160805161447f565b82820152604051938492839263b18bb31360e01b845285600485015260018060a01b03815116602485015260018060a01b03868201511660448501526138b16040820151606486019061457b565b60608101516001600160a01b039081166084860152608082015160a486015260a08201511660c485015260c081015160e485015260e08101511515610104850152015161012061012484015261014483019061445a565b038173__$75df3f6366b0557754cd3ba14359105414$__5af49081156101cd576104805191613938575b50613687565b90506020813d602011613962575b8161395360209383614205565b8101031261044e575183613932565b3d9150613946565b50600360e0610200510152612102565b3d8092823e6139898282614205565b60208183810103126100fa5780516001600160401b0381116100fa576139b292820191016144e9565b82613647565b90506020813d6020116139e2575b816139d360209383614205565b8101031261044e575182613599565b3d91506139c6565b90506020813d602011613a14575b81613a0560209383614205565b8101031261044e575182612044565b3d91506139f8565b9193949596975091976101a3198a820301825288519060206040820192805183520151916040602083015282518091526060820190602060608260051b850101940192610480515b828110613a895750505050506020806001929a01920192018997969594939192611fb9565b9091929394605f1983820301855285516020604083019160018060a01b0381511684520151916040602082015282518092526060810190602060608460051b83010194019261048051915b818310613af557505050505060208060019297019501910192919092613a64565b9091929394602080613b3d600193605f198682030189528951906040613b24835160608452606084019061445a565b928581015186840152015190604081840391015261445a565b9701950193019190613ad4565b613b53906141a0565b610480518015611af15780fd5b6040516301ffc9a760e01b8152630452934760e01b60048201529150602090829060249082905afa9081156101cd576104805191613ba0575b5082611986565b613bb9915060203d6020116101c6576101b88183614205565b82613b99565b90506020813d602011613bf1575b81613bda60209383614205565b810103126100fa57613beb90614392565b8261196a565b3d9150613bcd565b90506020813d602011613c23575b81613c1460209383614205565b8101031261044e575182611902565b3d9150613c07565b60006104e05260c435600203613c9f57604051634ad09aa560e01b81526020816004816001600160a01b0386165afa9081156101cd576104805191613c80575b50156119df57600460e0610200510152611a83565b613c99915060203d6020116101c6576101b88183614205565b82613c6b565b600660c435148015613cc2575b611a8357604051633e653aad60e11b8152600490fd5b50600460c43514613cac565b90506020813d602011613d00575b81613ce960209383614205565b810103126100fa57613cfa90614392565b826117f2565b3d9150613cdc565b60405163011ddaef60e71b81526020816004816001600160a01b0386165afa9081156101cd576104805191613dbe575b506001600160a01b03606435811691160361164c576040516368d0612f60e01b81526020816004816001600160a01b0386165afa9081156101cd576104805191613d8c575b5061036061020051015261110a565b90506020813d602011613db6575b81613da760209383614205565b8101031261044e575182613d7d565b3d9150613d9a565b90506020813d602011613df8575b81613dd960209383614205565b810103126100fa57516001600160a01b03811681036100fa5782613d38565b3d9150613dcc565b613e09906141a0565b816110fb565b634e487b7160e01b61048051526041600452602461048051fd5b6020813d602011613e55575b81613e4260209383614205565b810103126100fa5751610580528b610d41565b3d9150613e35565b6020813d602011613e99575b81613e7660209383614205565b810103126100fa57516001600160a01b03811681036100fa576105c0528b610cf3565b3d9150613e69565b9099506020813d602011613edd575b81613ebd60209383614205565b810103126100fa57516001600160a01b03811681036100fa57988b610cc9565b3d9150613eb0565b613eff91985060203d60201161355b5761354d8183614205565b968a610c90565b9094506020813d602011613f32575b81613f2260209383614205565b810103126100fa57519389610c67565b3d9150613f15565b9092506020813d602011613f66575b81613f5660209383614205565b810103126100fa57519188610c3e565b3d9150613f49565b6101e0516102a05114610b705760405163554a08d160e11b8152600490fd5b50600660c43514610b6b565b604051635651391960e01b8152600490fd5b6040516333df015b60e01b8152600490fd5b613fd6915060203d6020116101c6576101b88183614205565b82610b30565b60405162461bcd60e51b815260206004820152601f60248201527f5265656e7472616e637947756172643a207265656e7472616e742063616c6c006044820152606490fd5b346100fa5761048051806003193601126100f75760ca546040516001600160a01b039091168152602090f35b3461044e57602036600319011261044e576004359063ffffffff60e01b821680920361044e576020916355b7181560e01b811490811561408f575b5015158152f35b6301ffc9a760e01b14905083614088565b9181601f8401121561044e578235916001600160401b03831161044e576020808501948460051b01011161044e57565b604435906001600160a01b038216820361044e57565b600435906001600160a01b038216820361044e57565b35906001600160a01b038216820361044e57565b9181601f8401121561044e578235916001600160401b03831161044e576020838186019501011161044e57565b1561414457565b60405162461bcd60e51b815260206004820152602e60248201527f496e697469616c697a61626c653a20636f6e747261637420697320616c72656160448201526d191e481a5b9a5d1a585b1a5e995960921b6064820152608490fd5b6001600160401b038111611eae57604052565b61018081019081106001600160401b03821117611eae57604052565b604081019081106001600160401b03821117611eae57604052565b602081019081106001600160401b03821117611eae57604052565b90601f801991011681019081106001600160401b03821117611eae57604052565b9081602091031261044e5751801515810361044e5790565b6001600160401b038111611eae5760051b60200190565b9061425f8261423e565b61426c6040519182614205565b828152809261427d601f199161423e565b0190602036910137565b600511156134cc57565b919082018092116115fd57565b9081602091031261044e57516001600160a01b038116810361044e5790565b604051906142ca826141cf565b6060602083600081520152565b908060209392818452848401376000828201840152601f01601f1916010190565b9035601e198236030181121561044e5701602081359101916001600160401b03821161044e57813603831361044e57565b9035601e198236030181121561044e5701602081359101916001600160401b03821161044e578160051b3603831361044e57565b60001981146115fd5760010190565b919081101561437c5760051b0190565b634e487b7160e01b600052603260045260246000fd5b51906001600160a01b038216820361044e57565b6001600160401b038111611eae57601f01601f191660200190565b60005b8381106143d45750506000910152565b81810151838201526020016143c4565b81601f8201121561044e5780516143fa816143a6565b926144086040519485614205565b8184526020828401011161044e5761442691602080850191016143c1565b90565b80516004101561437c5760a00190565b80511561437c5760200190565b805182101561437c5760209160051b010190565b90602091614473815180928185528580860191016143c1565b601f01601f1916010190565b92919261448b826143a6565b916144996040519384614205565b82948184528183011161044e578281602093846000960137010152565b818102929181159184041417156115fd57565b81156144d3570490565b634e487b7160e01b600052601260045260246000fd5b81601f8201121561044e578051916145008361423e565b9261450e6040519485614205565b808452602092838086019260051b82010192831161044e578301905b828210614538575050505090565b8151815290830190830161452a565b90815180825260208080930193019160005b828110614567575050505090565b835185529381019392810192600101614559565b9060088210156134cc5752565b919082039182116115fd57565b90815180825260208080930193019160005b8281106145b5575050505090565b83516001600160a01b0316855293810193928101926001016145a7565b9081602091031261044e575160ff8116810361044e5790565b60ff166012039060ff82116115fd57565b60ff16604d81116115fd57600a0a90565b818103929160001380158285131691841216176115fd57565b9035603e198236030181121561044e570190565b60ff6065541661464657565b60405162461bcd60e51b815260206004820152601060248201526f14185d5cd8589b194e881c185d5cd95960821b6044820152606490fd5b6001600160ff1b03811161468f5790565b60405162461bcd60e51b815260206004820152602860248201527f53616665436173743a2076616c756520646f65736e27742066697420696e2061604482015267371034b73a191a9b60c11b6064820152608490fd5b60207facc3c379a8e9a6c0053634e4b47028287aeef1e6c02ef5b70562fa3002c93555918060cd55604051908152a1565b60207f22ea0d3381fb6dc0d04918bfe5419fabbbc1b9aebceb78508b26dab44bf301fc918060ce55604051908152a156fea2646970667358221220f58b68a5e86e0ca1187a221b2930db6f9f73850ddb1f6f2d20501d02c83c1bd764736f6c63430008120033",
  "libraries": {
    "PrimexPricingLibrary": "0x44e30A94d18118e4d3Bf78C4Dd8FBD0B66782Cf5",
    "PositionLibrary": "0x38180A880B06491F44Ad25Ebb5a37e7B5df42d17",
    "Errors": "0x988288925196F0725268378d0C7c8aA0E50EB423",
    "TokenTransfersLibrary": "0x4FFa6c545a6249baF2D66ce21CeF3D2C2cCa69D0"
  },
  "devdoc": {
    "events": {
      "Initialized(uint8)": {
        "details": "Triggered when the contract has been initialized or reinitialized."
      },
      "Paused(address)": {
        "details": "Emitted when the pause is triggered by `account`."
      },
      "Unpaused(address)": {
        "details": "Emitted when the pause is lifted by `account`."
      }
    },
    "kind": "dev",
    "methods": {
      "closeBatchPositions(uint256[],(uint256,(address,(string,uint256,bytes)[])[])[],address,address,address,uint256[],uint8,bytes,bytes,bytes,bytes,bytes,bytes[][],uint256[])": {
        "params": {
          "_bucket": "The instance of the bucket.",
          "_closeReason": "The reason for closing positions.",
          "_conditionIndexes": "The array of the indexes of close conditions for each position.",
          "_ids": "An array of IDs of the positions to be closed.",
          "_megaRoutes": "An array of routes for swap.",
          "_positionAsset": "The address of the position asset.",
          "_soldAsset": "The address of the borrowed asset."
        }
      },
      "initialize(address)": {
        "params": {
          "_registry": "The address of the PrimexRegistry contract."
        }
      },
      "initializeAfterUpgrade(address,address,address,uint256,uint256)": {
        "details": "Only BIG_TIMELOCK_ADMIN can call it.",
        "params": {
          "_gasPerBatch": "The gas amount per batch.",
          "_gasPerPosition": "The gas amount per position.",
          "_positionManager": "The address of the PositionManager contract.",
          "_priceOracle": "The address of the PriceOracle contract.",
          "_whiteBlackList": "The address of the WhiteBlackList contract."
        }
      },
      "pause()": {
        "details": "Triggers stopped state. This function can only be called by an address with the EMERGENCY_ADMIN role. Requirements: - The contract must not be paused."
      },
      "paused()": {
        "details": "Returns true if the contract is paused, and false otherwise."
      },
      "setGasPerBatch(uint256)": {
        "details": "Only callable by the MEDIUM_TIMELOCK_ADMIN role."
      },
      "setGasPerPosition(uint256)": {
        "details": "Only callable by the MEDIUM_TIMELOCK_ADMIN role."
      },
      "supportsInterface(bytes4)": {
        "params": {
          "interfaceId": "The interface id to check"
        }
      },
      "unpause()": {
        "details": "Returns to normal state. This function can only be called by an address with the SMALL_TIMELOCK_ADMIN or MEDIUM_TIMELOCK_ADMIN role depending on the contract. Requirements: - The contract must be paused."
      }
    },
    "version": 1
  },
  "userdoc": {
    "kind": "user",
    "methods": {
      "closeBatchPositions(uint256[],(uint256,(address,(string,uint256,bytes)[])[])[],address,address,address,uint256[],uint8,bytes,bytes,bytes,bytes,bytes,bytes[][],uint256[])": {
        "notice": "Closes positions in batch"
      },
      "gasPerBatch()": {
        "notice": "Retrieves the gasPerBatch"
      },
      "gasPerPosition()": {
        "notice": "Retrieves the gasPerPosition"
      },
      "initialize(address)": {
        "notice": "Initializes the contract with the specified parameters."
      },
      "initializeAfterUpgrade(address,address,address,uint256,uint256)": {
        "notice": "Re-Initializes the contract with the specified parameters."
      },
      "positionManager()": {
        "notice": "Retrieves the address of PositionManager contract."
      },
      "priceOracle()": {
        "notice": "Retrieves the address of PriceOracle contract."
      },
      "registry()": {
        "notice": "Retrieves the address of Registry contract."
      },
      "setGasPerBatch(uint256)": {
        "notice": "Set the gas amount per batch."
      },
      "setGasPerPosition(uint256)": {
        "notice": "Set the gas amount per position."
      },
      "supportsInterface(bytes4)": {
        "notice": "Interface checker"
      },
      "whiteBlackList()": {
        "notice": "Retrieves the address of WhiteBlackList contract."
      }
    },
    "version": 1
  },
  "storageLayout": {
    "storage": [
      {
        "astId": 2890,
        "contract": "contracts/BatchManager/BatchManager.sol:BatchManager",
        "label": "_initialized",
        "offset": 0,
        "slot": "0",
        "type": "t_uint8"
      },
      {
        "astId": 2893,
        "contract": "contracts/BatchManager/BatchManager.sol:BatchManager",
        "label": "_initializing",
        "offset": 1,
        "slot": "0",
        "type": "t_bool"
      },
      {
        "astId": 3193,
        "contract": "contracts/BatchManager/BatchManager.sol:BatchManager",
        "label": "_status",
        "offset": 0,
        "slot": "1",
        "type": "t_uint256"
      },
      {
        "astId": 3262,
        "contract": "contracts/BatchManager/BatchManager.sol:BatchManager",
        "label": "__gap",
        "offset": 0,
        "slot": "2",
        "type": "t_array(t_uint256)49_storage"
      },
      {
        "astId": 5867,
        "contract": "contracts/BatchManager/BatchManager.sol:BatchManager",
        "label": "__gap",
        "offset": 0,
        "slot": "51",
        "type": "t_array(t_uint256)50_storage"
      },
      {
        "astId": 3073,
        "contract": "contracts/BatchManager/BatchManager.sol:BatchManager",
        "label": "_paused",
        "offset": 0,
        "slot": "101",
        "type": "t_bool"
      },
      {
        "astId": 3178,
        "contract": "contracts/BatchManager/BatchManager.sol:BatchManager",
        "label": "__gap",
        "offset": 0,
        "slot": "102",
        "type": "t_array(t_uint256)49_storage"
      },
      {
        "astId": 6506,
        "contract": "contracts/BatchManager/BatchManager.sol:BatchManager",
        "label": "__gap",
        "offset": 0,
        "slot": "151",
        "type": "t_array(t_uint256)50_storage"
      },
      {
        "astId": 23238,
        "contract": "contracts/BatchManager/BatchManager.sol:BatchManager",
        "label": "positionManager",
        "offset": 0,
        "slot": "201",
        "type": "t_contract(IPositionManagerV2)46983"
      },
      {
        "astId": 23242,
        "contract": "contracts/BatchManager/BatchManager.sol:BatchManager",
        "label": "priceOracle",
        "offset": 0,
        "slot": "202",
        "type": "t_contract(IPriceOracleV2)51202"
      },
      {
        "astId": 23246,
        "contract": "contracts/BatchManager/BatchManager.sol:BatchManager",
        "label": "whiteBlackList",
        "offset": 0,
        "slot": "203",
        "type": "t_contract(IWhiteBlackList)66205"
      },
      {
        "astId": 23249,
        "contract": "contracts/BatchManager/BatchManager.sol:BatchManager",
        "label": "registry",
        "offset": 0,
        "slot": "204",
        "type": "t_address"
      },
      {
        "astId": 23252,
        "contract": "contracts/BatchManager/BatchManager.sol:BatchManager",
        "label": "gasPerPosition",
        "offset": 0,
        "slot": "205",
        "type": "t_uint256"
      },
      {
        "astId": 23255,
        "contract": "contracts/BatchManager/BatchManager.sol:BatchManager",
        "label": "gasPerBatch",
        "offset": 0,
        "slot": "206",
        "type": "t_uint256"
      }
    ],
    "types": {
      "t_address": {
        "encoding": "inplace",
        "label": "address",
        "numberOfBytes": "20"
      },
      "t_array(t_uint256)49_storage": {
        "base": "t_uint256",
        "encoding": "inplace",
        "label": "uint256[49]",
        "numberOfBytes": "1568"
      },
      "t_array(t_uint256)50_storage": {
        "base": "t_uint256",
        "encoding": "inplace",
        "label": "uint256[50]",
        "numberOfBytes": "1600"
      },
      "t_bool": {
        "encoding": "inplace",
        "label": "bool",
        "numberOfBytes": "1"
      },
      "t_contract(IPositionManagerV2)46983": {
        "encoding": "inplace",
        "label": "contract IPositionManagerV2",
        "numberOfBytes": "20"
      },
      "t_contract(IPriceOracleV2)51202": {
        "encoding": "inplace",
        "label": "contract IPriceOracleV2",
        "numberOfBytes": "20"
      },
      "t_contract(IWhiteBlackList)66205": {
        "encoding": "inplace",
        "label": "contract IWhiteBlackList",
        "numberOfBytes": "20"
      },
      "t_uint256": {
        "encoding": "inplace",
        "label": "uint256",
        "numberOfBytes": "32"
      },
      "t_uint8": {
        "encoding": "inplace",
        "label": "uint8",
        "numberOfBytes": "1"
      }
    }
  }
}