{
    "address": "0xD556f25a8150263B05f8fC1600d0A9bf012A3ed0",
    "abi": [
        {
            "type": "constructor",
            "inputs": [],
            "stateMutability": "nonpayable"
        },
        {
            "type": "function",
            "name": "MAXTIME_INT128",
            "inputs": [],
            "outputs": [
                {
                    "name": "",
                    "type": "int128",
                    "internalType": "int128"
                }
            ],
            "stateMutability": "view"
        },
        {
            "type": "function",
            "name": "MAXTIME_UINT256",
            "inputs": [],
            "outputs": [
                {
                    "name": "",
                    "type": "uint256",
                    "internalType": "uint256"
                }
            ],
            "stateMutability": "view"
        },
        {
            "type": "function",
            "name": "MAX_CONTRIBUTOR_LOCKS",
            "inputs": [],
            "outputs": [
                {
                    "name": "",
                    "type": "uint8",
                    "internalType": "uint8"
                }
            ],
            "stateMutability": "view"
        },
        {
            "type": "function",
            "name": "MAX_USER_LOCKS",
            "inputs": [],
            "outputs": [
                {
                    "name": "",
                    "type": "uint8",
                    "internalType": "uint8"
                }
            ],
            "stateMutability": "view"
        },
        {
            "type": "function",
            "name": "MIN_LOCK_AMOUNT",
            "inputs": [],
            "outputs": [
                {
                    "name": "",
                    "type": "uint256",
                    "internalType": "uint256"
                }
            ],
            "stateMutability": "view"
        },
        {
            "type": "function",
            "name": "MULTIPLIER_UINT256",
            "inputs": [],
            "outputs": [
                {
                    "name": "",
                    "type": "uint256",
                    "internalType": "uint256"
                }
            ],
            "stateMutability": "view"
        },
        {
            "type": "function",
            "name": "VOTE_WEIGHT_MULTIPLIER_INT128",
            "inputs": [],
            "outputs": [
                {
                    "name": "",
                    "type": "int128",
                    "internalType": "int128"
                }
            ],
            "stateMutability": "view"
        },
        {
            "type": "function",
            "name": "VOTE_WEIGHT_MULTIPLIER_UINT256",
            "inputs": [],
            "outputs": [
                {
                    "name": "",
                    "type": "uint256",
                    "internalType": "uint256"
                }
            ],
            "stateMutability": "view"
        },
        {
            "type": "function",
            "name": "WEEK_UINT128",
            "inputs": [],
            "outputs": [
                {
                    "name": "",
                    "type": "uint128",
                    "internalType": "uint128"
                }
            ],
            "stateMutability": "view"
        },
        {
            "type": "function",
            "name": "WEEK_UINT256",
            "inputs": [],
            "outputs": [
                {
                    "name": "",
                    "type": "uint256",
                    "internalType": "uint256"
                }
            ],
            "stateMutability": "view"
        },
        {
            "type": "function",
            "name": "acceptTransferOwnership",
            "inputs": [],
            "outputs": [],
            "stateMutability": "nonpayable"
        },
        {
            "type": "function",
            "name": "activateEmergencyUnlock",
            "inputs": [],
            "outputs": [],
            "stateMutability": "nonpayable"
        },
        {
            "type": "function",
            "name": "admin",
            "inputs": [],
            "outputs": [
                {
                    "name": "",
                    "type": "address",
                    "internalType": "address"
                }
            ],
            "stateMutability": "view"
        },
        {
            "type": "function",
            "name": "balanceOf",
            "inputs": [
                {
                    "name": "_addr",
                    "type": "address",
                    "internalType": "address"
                }
            ],
            "outputs": [
                {
                    "name": "_balance",
                    "type": "uint256",
                    "internalType": "uint256"
                }
            ],
            "stateMutability": "view"
        },
        {
            "type": "function",
            "name": "balanceOfAllLocksAtBlock",
            "inputs": [
                {
                    "name": "_addr",
                    "type": "address",
                    "internalType": "address"
                },
                {
                    "name": "_block",
                    "type": "uint256",
                    "internalType": "uint256"
                }
            ],
            "outputs": [
                {
                    "name": "_balance",
                    "type": "uint256",
                    "internalType": "uint256"
                }
            ],
            "stateMutability": "view"
        },
        {
            "type": "function",
            "name": "balanceOfAllLocksAtTime",
            "inputs": [
                {
                    "name": "_addr",
                    "type": "address",
                    "internalType": "address"
                },
                {
                    "name": "_timestamp",
                    "type": "uint256",
                    "internalType": "uint256"
                }
            ],
            "outputs": [
                {
                    "name": "_balance",
                    "type": "uint256",
                    "internalType": "uint256"
                }
            ],
            "stateMutability": "view"
        },
        {
            "type": "function",
            "name": "balanceOfAt",
            "inputs": [
                {
                    "name": "_addr",
                    "type": "address",
                    "internalType": "address"
                },
                {
                    "name": "_block",
                    "type": "uint256",
                    "internalType": "uint256"
                }
            ],
            "outputs": [
                {
                    "name": "_balance",
                    "type": "uint256",
                    "internalType": "uint256"
                }
            ],
            "stateMutability": "view"
        },
        {
            "type": "function",
            "name": "balanceOfLockedPmx",
            "inputs": [
                {
                    "name": "_addr",
                    "type": "address",
                    "internalType": "address"
                }
            ],
            "outputs": [
                {
                    "name": "_balanceOfLockedPmx",
                    "type": "uint256",
                    "internalType": "uint256"
                }
            ],
            "stateMutability": "view"
        },
        {
            "type": "function",
            "name": "balanceOfOneLockAtBlock",
            "inputs": [
                {
                    "name": "_addr",
                    "type": "address",
                    "internalType": "address"
                },
                {
                    "name": "_lockIndex",
                    "type": "uint128",
                    "internalType": "uint128"
                },
                {
                    "name": "_block",
                    "type": "uint256",
                    "internalType": "uint256"
                }
            ],
            "outputs": [
                {
                    "name": "_balance",
                    "type": "uint256",
                    "internalType": "uint256"
                }
            ],
            "stateMutability": "view"
        },
        {
            "type": "function",
            "name": "balanceOfOneLockAtTime",
            "inputs": [
                {
                    "name": "_addr",
                    "type": "address",
                    "internalType": "address"
                },
                {
                    "name": "_lockIndex",
                    "type": "uint128",
                    "internalType": "uint128"
                },
                {
                    "name": "_timestamp",
                    "type": "uint256",
                    "internalType": "uint256"
                }
            ],
            "outputs": [
                {
                    "name": "_balance",
                    "type": "uint256",
                    "internalType": "uint256"
                }
            ],
            "stateMutability": "view"
        },
        {
            "type": "function",
            "name": "checkpoint",
            "inputs": [],
            "outputs": [],
            "stateMutability": "nonpayable"
        },
        {
            "type": "function",
            "name": "commitTransferOwnership",
            "inputs": [
                {
                    "name": "_addr",
                    "type": "address",
                    "internalType": "address"
                }
            ],
            "outputs": [],
            "stateMutability": "nonpayable"
        },
        {
            "type": "function",
            "name": "createLock",
            "inputs": [
                {
                    "name": "_addr",
                    "type": "address",
                    "internalType": "address"
                },
                {
                    "name": "_value",
                    "type": "uint256",
                    "internalType": "uint256"
                },
                {
                    "name": "_unlockTime",
                    "type": "uint128",
                    "internalType": "uint128"
                }
            ],
            "outputs": [
                {
                    "name": "_index",
                    "type": "uint128",
                    "internalType": "uint128"
                },
                {
                    "name": "_newLockId",
                    "type": "uint256",
                    "internalType": "uint256"
                }
            ],
            "stateMutability": "nonpayable"
        },
        {
            "type": "function",
            "name": "decimals",
            "inputs": [],
            "outputs": [
                {
                    "name": "",
                    "type": "uint256",
                    "internalType": "uint256"
                }
            ],
            "stateMutability": "view"
        },
        {
            "type": "function",
            "name": "depositFor",
            "inputs": [
                {
                    "name": "_addr",
                    "type": "address",
                    "internalType": "address"
                },
                {
                    "name": "_value",
                    "type": "uint256",
                    "internalType": "uint256"
                },
                {
                    "name": "_lockIndex",
                    "type": "uint128",
                    "internalType": "uint128"
                }
            ],
            "outputs": [],
            "stateMutability": "nonpayable"
        },
        {
            "type": "function",
            "name": "emergencyUnlockActive",
            "inputs": [],
            "outputs": [
                {
                    "name": "",
                    "type": "bool",
                    "internalType": "bool"
                }
            ],
            "stateMutability": "view"
        },
        {
            "type": "function",
            "name": "epoch",
            "inputs": [],
            "outputs": [
                {
                    "name": "",
                    "type": "uint256",
                    "internalType": "uint256"
                }
            ],
            "stateMutability": "view"
        },
        {
            "type": "function",
            "name": "findBlockEpoch",
            "inputs": [
                {
                    "name": "_block",
                    "type": "uint256",
                    "internalType": "uint256"
                },
                {
                    "name": "_maxEpoch",
                    "type": "uint256",
                    "internalType": "uint256"
                }
            ],
            "outputs": [
                {
                    "name": "",
                    "type": "uint256",
                    "internalType": "uint256"
                }
            ],
            "stateMutability": "view"
        },
        {
            "type": "function",
            "name": "findUserTimestampEpoch",
            "inputs": [
                {
                    "name": "_addr",
                    "type": "address",
                    "internalType": "address"
                },
                {
                    "name": "_lockId",
                    "type": "uint256",
                    "internalType": "uint256"
                },
                {
                    "name": "_ts",
                    "type": "uint256",
                    "internalType": "uint256"
                }
            ],
            "outputs": [
                {
                    "name": "_min",
                    "type": "uint256",
                    "internalType": "uint256"
                }
            ],
            "stateMutability": "view"
        },
        {
            "type": "function",
            "name": "floxContributors",
            "inputs": [
                {
                    "name": "contributor",
                    "type": "address",
                    "internalType": "address"
                }
            ],
            "outputs": [
                {
                    "name": "isContributor",
                    "type": "bool",
                    "internalType": "bool"
                }
            ],
            "stateMutability": "view"
        },
        {
            "type": "function",
            "name": "futureAdmin",
            "inputs": [],
            "outputs": [
                {
                    "name": "",
                    "type": "address",
                    "internalType": "address"
                }
            ],
            "stateMutability": "view"
        },
        {
            "type": "function",
            "name": "getCreateLockTsBounds",
            "inputs": [],
            "outputs": [
                {
                    "name": "_earliestLockEnd",
                    "type": "uint128",
                    "internalType": "uint128"
                },
                {
                    "name": "_latestLockEnd",
                    "type": "uint128",
                    "internalType": "uint128"
                }
            ],
            "stateMutability": "view"
        },
        {
            "type": "function",
            "name": "getIncreaseUnlockTimeTsBounds",
            "inputs": [
                {
                    "name": "_user",
                    "type": "address",
                    "internalType": "address"
                },
                {
                    "name": "_id",
                    "type": "uint256",
                    "internalType": "uint256"
                }
            ],
            "outputs": [
                {
                    "name": "_earliestLockEnd",
                    "type": "uint128",
                    "internalType": "uint128"
                },
                {
                    "name": "_latestLockEnd",
                    "type": "uint128",
                    "internalType": "uint128"
                }
            ],
            "stateMutability": "view"
        },
        {
            "type": "function",
            "name": "getLastGlobalPoint",
            "inputs": [],
            "outputs": [
                {
                    "name": "_lastPoint",
                    "type": "tuple",
                    "internalType": "struct IvePMXStructs.Point",
                    "components": [
                        {
                            "name": "bias",
                            "type": "int128",
                            "internalType": "int128"
                        },
                        {
                            "name": "slope",
                            "type": "int128",
                            "internalType": "int128"
                        },
                        {
                            "name": "ts",
                            "type": "uint256",
                            "internalType": "uint256"
                        },
                        {
                            "name": "blk",
                            "type": "uint256",
                            "internalType": "uint256"
                        },
                        {
                            "name": "pmxAmt",
                            "type": "uint256",
                            "internalType": "uint256"
                        }
                    ]
                }
            ],
            "stateMutability": "view"
        },
        {
            "type": "function",
            "name": "getLastUserPoint",
            "inputs": [
                {
                    "name": "_addr",
                    "type": "address",
                    "internalType": "address"
                },
                {
                    "name": "_lockIndex",
                    "type": "uint128",
                    "internalType": "uint128"
                }
            ],
            "outputs": [
                {
                    "name": "_lastPoint",
                    "type": "tuple",
                    "internalType": "struct IvePMXStructs.Point",
                    "components": [
                        {
                            "name": "bias",
                            "type": "int128",
                            "internalType": "int128"
                        },
                        {
                            "name": "slope",
                            "type": "int128",
                            "internalType": "int128"
                        },
                        {
                            "name": "ts",
                            "type": "uint256",
                            "internalType": "uint256"
                        },
                        {
                            "name": "blk",
                            "type": "uint256",
                            "internalType": "uint256"
                        },
                        {
                            "name": "pmxAmt",
                            "type": "uint256",
                            "internalType": "uint256"
                        }
                    ]
                }
            ],
            "stateMutability": "view"
        },
        {
            "type": "function",
            "name": "getLastUserSlope",
            "inputs": [
                {
                    "name": "_addr",
                    "type": "address",
                    "internalType": "address"
                },
                {
                    "name": "_lockIndex",
                    "type": "uint128",
                    "internalType": "uint128"
                }
            ],
            "outputs": [
                {
                    "name": "",
                    "type": "int128",
                    "internalType": "int128"
                }
            ],
            "stateMutability": "view"
        },
        {
            "type": "function",
            "name": "getLockIndexById",
            "inputs": [
                {
                    "name": "_addr",
                    "type": "address",
                    "internalType": "address"
                },
                {
                    "name": "_id",
                    "type": "uint256",
                    "internalType": "uint256"
                }
            ],
            "outputs": [
                {
                    "name": "_index",
                    "type": "uint128",
                    "internalType": "uint128"
                }
            ],
            "stateMutability": "view"
        },
        {
            "type": "function",
            "name": "getUserPointAtEpoch",
            "inputs": [
                {
                    "name": "_addr",
                    "type": "address",
                    "internalType": "address"
                },
                {
                    "name": "_lockIndex",
                    "type": "uint128",
                    "internalType": "uint128"
                },
                {
                    "name": "_uepoch",
                    "type": "uint256",
                    "internalType": "uint256"
                }
            ],
            "outputs": [
                {
                    "name": "_lastPoint",
                    "type": "tuple",
                    "internalType": "struct IvePMXStructs.Point",
                    "components": [
                        {
                            "name": "bias",
                            "type": "int128",
                            "internalType": "int128"
                        },
                        {
                            "name": "slope",
                            "type": "int128",
                            "internalType": "int128"
                        },
                        {
                            "name": "ts",
                            "type": "uint256",
                            "internalType": "uint256"
                        },
                        {
                            "name": "blk",
                            "type": "uint256",
                            "internalType": "uint256"
                        },
                        {
                            "name": "pmxAmt",
                            "type": "uint256",
                            "internalType": "uint256"
                        }
                    ]
                }
            ],
            "stateMutability": "view"
        },
        {
            "type": "function",
            "name": "increaseAmount",
            "inputs": [
                {
                    "name": "_value",
                    "type": "uint256",
                    "internalType": "uint256"
                },
                {
                    "name": "_lockIndex",
                    "type": "uint128",
                    "internalType": "uint128"
                }
            ],
            "outputs": [],
            "stateMutability": "nonpayable"
        },
        {
            "type": "function",
            "name": "increaseUnlockTime",
            "inputs": [
                {
                    "name": "_unlockTime",
                    "type": "uint128",
                    "internalType": "uint128"
                },
                {
                    "name": "_lockIndex",
                    "type": "uint128",
                    "internalType": "uint128"
                }
            ],
            "outputs": [],
            "stateMutability": "nonpayable"
        },
        {
            "type": "function",
            "name": "indicesToIds",
            "inputs": [
                {
                    "name": "user",
                    "type": "address",
                    "internalType": "address"
                },
                {
                    "name": "index",
                    "type": "uint128",
                    "internalType": "uint128"
                }
            ],
            "outputs": [
                {
                    "name": "id",
                    "type": "uint256",
                    "internalType": "uint256"
                }
            ],
            "stateMutability": "view"
        },
        {
            "type": "function",
            "name": "initialize",
            "inputs": [
                {
                    "name": "_admin",
                    "type": "address",
                    "internalType": "address"
                },
                {
                    "name": "_tokenAddr",
                    "type": "address",
                    "internalType": "address"
                },
                {
                    "name": "_name",
                    "type": "string",
                    "internalType": "string"
                },
                {
                    "name": "_symbol",
                    "type": "string",
                    "internalType": "string"
                },
                {
                    "name": "_version",
                    "type": "string",
                    "internalType": "string"
                }
            ],
            "outputs": [],
            "stateMutability": "nonpayable"
        },
        {
            "type": "function",
            "name": "isLockCreatedByFloxContributor",
            "inputs": [
                {
                    "name": "user",
                    "type": "address",
                    "internalType": "address"
                },
                {
                    "name": "id",
                    "type": "uint256",
                    "internalType": "uint256"
                }
            ],
            "outputs": [
                {
                    "name": "createdByFloxContributor",
                    "type": "bool",
                    "internalType": "bool"
                }
            ],
            "stateMutability": "view"
        },
        {
            "type": "function",
            "name": "isPaused",
            "inputs": [],
            "outputs": [
                {
                    "name": "",
                    "type": "bool",
                    "internalType": "bool"
                }
            ],
            "stateMutability": "view"
        },
        {
            "type": "function",
            "name": "locked",
            "inputs": [
                {
                    "name": "user",
                    "type": "address",
                    "internalType": "address"
                },
                {
                    "name": "id",
                    "type": "uint256",
                    "internalType": "uint256"
                }
            ],
            "outputs": [
                {
                    "name": "amount",
                    "type": "int128",
                    "internalType": "int128"
                },
                {
                    "name": "end",
                    "type": "uint128",
                    "internalType": "uint128"
                }
            ],
            "stateMutability": "view"
        },
        {
            "type": "function",
            "name": "lockedById",
            "inputs": [
                {
                    "name": "_addr",
                    "type": "address",
                    "internalType": "address"
                },
                {
                    "name": "_id",
                    "type": "uint256",
                    "internalType": "uint256"
                }
            ],
            "outputs": [
                {
                    "name": "_amount",
                    "type": "int128",
                    "internalType": "int128"
                },
                {
                    "name": "_end",
                    "type": "uint128",
                    "internalType": "uint128"
                }
            ],
            "stateMutability": "view"
        },
        {
            "type": "function",
            "name": "lockedByIdExtended",
            "inputs": [
                {
                    "name": "_addr",
                    "type": "address",
                    "internalType": "address"
                },
                {
                    "name": "_id",
                    "type": "uint256",
                    "internalType": "uint256"
                }
            ],
            "outputs": [
                {
                    "name": "_extendedLockInfo",
                    "type": "tuple",
                    "internalType": "struct IvePMXStructs.LockedBalanceExtended",
                    "components": [
                        {
                            "name": "id",
                            "type": "uint256",
                            "internalType": "uint256"
                        },
                        {
                            "name": "index",
                            "type": "uint128",
                            "internalType": "uint128"
                        },
                        {
                            "name": "amount",
                            "type": "int128",
                            "internalType": "int128"
                        },
                        {
                            "name": "end",
                            "type": "uint128",
                            "internalType": "uint128"
                        }
                    ]
                }
            ],
            "stateMutability": "view"
        },
        {
            "type": "function",
            "name": "lockedByIndex",
            "inputs": [
                {
                    "name": "_addr",
                    "type": "address",
                    "internalType": "address"
                },
                {
                    "name": "_index",
                    "type": "uint128",
                    "internalType": "uint128"
                }
            ],
            "outputs": [
                {
                    "name": "_amount",
                    "type": "int128",
                    "internalType": "int128"
                },
                {
                    "name": "_end",
                    "type": "uint128",
                    "internalType": "uint128"
                }
            ],
            "stateMutability": "view"
        },
        {
            "type": "function",
            "name": "lockedEnd",
            "inputs": [
                {
                    "name": "_addr",
                    "type": "address",
                    "internalType": "address"
                },
                {
                    "name": "_index",
                    "type": "uint128",
                    "internalType": "uint128"
                }
            ],
            "outputs": [
                {
                    "name": "",
                    "type": "uint256",
                    "internalType": "uint256"
                }
            ],
            "stateMutability": "view"
        },
        {
            "type": "function",
            "name": "name",
            "inputs": [],
            "outputs": [
                {
                    "name": "",
                    "type": "string",
                    "internalType": "string"
                }
            ],
            "stateMutability": "view"
        },
        {
            "type": "function",
            "name": "nextId",
            "inputs": [
                {
                    "name": "user",
                    "type": "address",
                    "internalType": "address"
                }
            ],
            "outputs": [
                {
                    "name": "nextId",
                    "type": "uint256",
                    "internalType": "uint256"
                }
            ],
            "stateMutability": "view"
        },
        {
            "type": "function",
            "name": "numLocks",
            "inputs": [
                {
                    "name": "user",
                    "type": "address",
                    "internalType": "address"
                }
            ],
            "outputs": [
                {
                    "name": "numLocks",
                    "type": "uint128",
                    "internalType": "uint128"
                }
            ],
            "stateMutability": "view"
        },
        {
            "type": "function",
            "name": "numberOfFloxContributorCreatedLocks",
            "inputs": [
                {
                    "name": "user",
                    "type": "address",
                    "internalType": "address"
                }
            ],
            "outputs": [
                {
                    "name": "numberOfLocks",
                    "type": "uint8",
                    "internalType": "uint8"
                }
            ],
            "stateMutability": "view"
        },
        {
            "type": "function",
            "name": "numberOfUserCreatedLocks",
            "inputs": [
                {
                    "name": "user",
                    "type": "address",
                    "internalType": "address"
                }
            ],
            "outputs": [
                {
                    "name": "numberOfLocks",
                    "type": "uint8",
                    "internalType": "uint8"
                }
            ],
            "stateMutability": "view"
        },
        {
            "type": "function",
            "name": "pointHistory",
            "inputs": [
                {
                    "name": "epoch",
                    "type": "uint256",
                    "internalType": "uint256"
                }
            ],
            "outputs": [
                {
                    "name": "bias",
                    "type": "int128",
                    "internalType": "int128"
                },
                {
                    "name": "slope",
                    "type": "int128",
                    "internalType": "int128"
                },
                {
                    "name": "ts",
                    "type": "uint256",
                    "internalType": "uint256"
                },
                {
                    "name": "blk",
                    "type": "uint256",
                    "internalType": "uint256"
                },
                {
                    "name": "pmxAmt",
                    "type": "uint256",
                    "internalType": "uint256"
                }
            ],
            "stateMutability": "view"
        },
        {
            "type": "function",
            "name": "recoverIERC20",
            "inputs": [
                {
                    "name": "_tokenAddr",
                    "type": "address",
                    "internalType": "address"
                },
                {
                    "name": "_amount",
                    "type": "uint256",
                    "internalType": "uint256"
                }
            ],
            "outputs": [],
            "stateMutability": "nonpayable"
        },
        {
            "type": "function",
            "name": "setFloxContributor",
            "inputs": [
                {
                    "name": "_floxContributor",
                    "type": "address",
                    "internalType": "address"
                },
                {
                    "name": "_isFloxContributor",
                    "type": "bool",
                    "internalType": "bool"
                }
            ],
            "outputs": [],
            "stateMutability": "nonpayable"
        },
        {
            "type": "function",
            "name": "setVePMXUtils",
            "inputs": [
                {
                    "name": "_vePmxUtilsAddr",
                    "type": "address",
                    "internalType": "address"
                }
            ],
            "outputs": [],
            "stateMutability": "nonpayable"
        },
        {
            "type": "function",
            "name": "slopeChanges",
            "inputs": [
                {
                    "name": "time",
                    "type": "uint256",
                    "internalType": "uint256"
                }
            ],
            "outputs": [
                {
                    "name": "slopeChange",
                    "type": "int128",
                    "internalType": "int128"
                }
            ],
            "stateMutability": "view"
        },
        {
            "type": "function",
            "name": "supply",
            "inputs": [],
            "outputs": [
                {
                    "name": "",
                    "type": "uint256",
                    "internalType": "uint256"
                }
            ],
            "stateMutability": "view"
        },
        {
            "type": "function",
            "name": "supplyAt",
            "inputs": [
                {
                    "name": "_point",
                    "type": "tuple",
                    "internalType": "struct IvePMXStructs.Point",
                    "components": [
                        {
                            "name": "bias",
                            "type": "int128",
                            "internalType": "int128"
                        },
                        {
                            "name": "slope",
                            "type": "int128",
                            "internalType": "int128"
                        },
                        {
                            "name": "ts",
                            "type": "uint256",
                            "internalType": "uint256"
                        },
                        {
                            "name": "blk",
                            "type": "uint256",
                            "internalType": "uint256"
                        },
                        {
                            "name": "pmxAmt",
                            "type": "uint256",
                            "internalType": "uint256"
                        }
                    ]
                },
                {
                    "name": "_t",
                    "type": "uint256",
                    "internalType": "uint256"
                }
            ],
            "outputs": [
                {
                    "name": "",
                    "type": "uint256",
                    "internalType": "uint256"
                }
            ],
            "stateMutability": "view"
        },
        {
            "type": "function",
            "name": "symbol",
            "inputs": [],
            "outputs": [
                {
                    "name": "",
                    "type": "string",
                    "internalType": "string"
                }
            ],
            "stateMutability": "view"
        },
        {
            "type": "function",
            "name": "toggleContractPause",
            "inputs": [],
            "outputs": [],
            "stateMutability": "nonpayable"
        },
        {
            "type": "function",
            "name": "token",
            "inputs": [],
            "outputs": [
                {
                    "name": "",
                    "type": "address",
                    "internalType": "address"
                }
            ],
            "stateMutability": "view"
        },
        {
            "type": "function",
            "name": "totalPMXSupply",
            "inputs": [],
            "outputs": [
                {
                    "name": "",
                    "type": "uint256",
                    "internalType": "uint256"
                }
            ],
            "stateMutability": "view"
        },
        {
            "type": "function",
            "name": "totalPMXSupplyAt",
            "inputs": [
                {
                    "name": "_block",
                    "type": "uint256",
                    "internalType": "uint256"
                }
            ],
            "outputs": [
                {
                    "name": "",
                    "type": "uint256",
                    "internalType": "uint256"
                }
            ],
            "stateMutability": "view"
        },
        {
            "type": "function",
            "name": "totalSupply",
            "inputs": [],
            "outputs": [
                {
                    "name": "",
                    "type": "uint256",
                    "internalType": "uint256"
                }
            ],
            "stateMutability": "view"
        },
        {
            "type": "function",
            "name": "totalSupply",
            "inputs": [
                {
                    "name": "_timestamp",
                    "type": "uint256",
                    "internalType": "uint256"
                }
            ],
            "outputs": [
                {
                    "name": "",
                    "type": "uint256",
                    "internalType": "uint256"
                }
            ],
            "stateMutability": "view"
        },
        {
            "type": "function",
            "name": "totalSupplyAt",
            "inputs": [
                {
                    "name": "_block",
                    "type": "uint256",
                    "internalType": "uint256"
                }
            ],
            "outputs": [
                {
                    "name": "",
                    "type": "uint256",
                    "internalType": "uint256"
                }
            ],
            "stateMutability": "view"
        },
        {
            "type": "function",
            "name": "userPointEpoch",
            "inputs": [
                {
                    "name": "user",
                    "type": "address",
                    "internalType": "address"
                },
                {
                    "name": "id",
                    "type": "uint256",
                    "internalType": "uint256"
                }
            ],
            "outputs": [
                {
                    "name": "epoch",
                    "type": "uint256",
                    "internalType": "uint256"
                }
            ],
            "stateMutability": "view"
        },
        {
            "type": "function",
            "name": "userPointHistory",
            "inputs": [
                {
                    "name": "user",
                    "type": "address",
                    "internalType": "address"
                },
                {
                    "name": "id",
                    "type": "uint256",
                    "internalType": "uint256"
                },
                {
                    "name": "epoch",
                    "type": "uint256",
                    "internalType": "uint256"
                }
            ],
            "outputs": [
                {
                    "name": "bias",
                    "type": "int128",
                    "internalType": "int128"
                },
                {
                    "name": "slope",
                    "type": "int128",
                    "internalType": "int128"
                },
                {
                    "name": "ts",
                    "type": "uint256",
                    "internalType": "uint256"
                },
                {
                    "name": "blk",
                    "type": "uint256",
                    "internalType": "uint256"
                },
                {
                    "name": "pmxAmt",
                    "type": "uint256",
                    "internalType": "uint256"
                }
            ],
            "stateMutability": "view"
        },
        {
            "type": "function",
            "name": "userPointHistoryTs",
            "inputs": [
                {
                    "name": "_addr",
                    "type": "address",
                    "internalType": "address"
                },
                {
                    "name": "_lockIndex",
                    "type": "uint128",
                    "internalType": "uint128"
                },
                {
                    "name": "_idx",
                    "type": "uint256",
                    "internalType": "uint256"
                }
            ],
            "outputs": [
                {
                    "name": "",
                    "type": "uint256",
                    "internalType": "uint256"
                }
            ],
            "stateMutability": "view"
        },
        {
            "type": "function",
            "name": "vePmxUtils",
            "inputs": [],
            "outputs": [
                {
                    "name": "",
                    "type": "address",
                    "internalType": "contract VestedPMXUtils"
                }
            ],
            "stateMutability": "view"
        },
        {
            "type": "function",
            "name": "version",
            "inputs": [],
            "outputs": [
                {
                    "name": "",
                    "type": "string",
                    "internalType": "string"
                }
            ],
            "stateMutability": "view"
        },
        {
            "type": "function",
            "name": "withdraw",
            "inputs": [
                {
                    "name": "_lockIndex",
                    "type": "uint128",
                    "internalType": "uint128"
                }
            ],
            "outputs": [
                {
                    "name": "_value",
                    "type": "uint256",
                    "internalType": "uint256"
                }
            ],
            "stateMutability": "nonpayable"
        },
        {
            "type": "event",
            "name": "ApplyOwnership",
            "inputs": [
                {
                    "name": "admin",
                    "type": "address",
                    "indexed": false,
                    "internalType": "address"
                }
            ],
            "anonymous": false
        },
        {
            "type": "event",
            "name": "CommitOwnership",
            "inputs": [
                {
                    "name": "admin",
                    "type": "address",
                    "indexed": false,
                    "internalType": "address"
                }
            ],
            "anonymous": false
        },
        {
            "type": "event",
            "name": "ContractPause",
            "inputs": [
                {
                    "name": "isPaused",
                    "type": "bool",
                    "indexed": false,
                    "internalType": "bool"
                }
            ],
            "anonymous": false
        },
        {
            "type": "event",
            "name": "Deposit",
            "inputs": [
                {
                    "name": "staker",
                    "type": "address",
                    "indexed": true,
                    "internalType": "address"
                },
                {
                    "name": "payor",
                    "type": "address",
                    "indexed": true,
                    "internalType": "address"
                },
                {
                    "name": "endingTimestamp",
                    "type": "uint256",
                    "indexed": true,
                    "internalType": "uint256"
                },
                {
                    "name": "value",
                    "type": "uint256",
                    "indexed": false,
                    "internalType": "uint256"
                },
                {
                    "name": "depositType",
                    "type": "uint128",
                    "indexed": false,
                    "internalType": "uint128"
                },
                {
                    "name": "txTimestamp",
                    "type": "uint256",
                    "indexed": false,
                    "internalType": "uint256"
                }
            ],
            "anonymous": false
        },
        {
            "type": "event",
            "name": "EmergencyUnlockActivated",
            "inputs": [],
            "anonymous": false
        },
        {
            "type": "event",
            "name": "FloxContributorUpdate",
            "inputs": [
                {
                    "name": "contributor",
                    "type": "address",
                    "indexed": true,
                    "internalType": "address"
                },
                {
                    "name": "isContributor",
                    "type": "bool",
                    "indexed": false,
                    "internalType": "bool"
                }
            ],
            "anonymous": false
        },
        {
            "type": "event",
            "name": "Supply",
            "inputs": [
                {
                    "name": "prevSupply",
                    "type": "uint256",
                    "indexed": false,
                    "internalType": "uint256"
                },
                {
                    "name": "supply",
                    "type": "uint256",
                    "indexed": false,
                    "internalType": "uint256"
                }
            ],
            "anonymous": false
        },
        {
            "type": "event",
            "name": "VePmxUtilsContractUpdated",
            "inputs": [
                {
                    "name": "vePmxUtilsAddr",
                    "type": "address",
                    "indexed": false,
                    "internalType": "address"
                }
            ],
            "anonymous": false
        },
        {
            "type": "event",
            "name": "Withdraw",
            "inputs": [
                {
                    "name": "staker",
                    "type": "address",
                    "indexed": true,
                    "internalType": "address"
                },
                {
                    "name": "recipient",
                    "type": "address",
                    "indexed": true,
                    "internalType": "address"
                },
                {
                    "name": "value",
                    "type": "uint256",
                    "indexed": false,
                    "internalType": "uint256"
                },
                {
                    "name": "ts",
                    "type": "uint256",
                    "indexed": false,
                    "internalType": "uint256"
                }
            ],
            "anonymous": false
        },
        {
            "type": "error",
            "name": "AdminNotSet",
            "inputs": []
        },
        {
            "type": "error",
            "name": "AdminOnly",
            "inputs": []
        },
        {
            "type": "error",
            "name": "CannotMergeLockWithItself",
            "inputs": []
        },
        {
            "type": "error",
            "name": "DecimalsExceedMaximumValue",
            "inputs": []
        },
        {
            "type": "error",
            "name": "EmergencyUnlockActive",
            "inputs": []
        },
        {
            "type": "error",
            "name": "FutureAdminOnly",
            "inputs": []
        },
        {
            "type": "error",
            "name": "InitializeFailed",
            "inputs": []
        },
        {
            "type": "error",
            "name": "InvalidBlockNumber",
            "inputs": []
        },
        {
            "type": "error",
            "name": "InvalidLockIndex",
            "inputs": []
        },
        {
            "type": "error",
            "name": "InvalidTimestamp",
            "inputs": []
        },
        {
            "type": "error",
            "name": "LockCanOnlyBeUpToFourYears",
            "inputs": []
        },
        {
            "type": "error",
            "name": "LockDidNotExpire",
            "inputs": []
        },
        {
            "type": "error",
            "name": "LockExpired",
            "inputs": []
        },
        {
            "type": "error",
            "name": "LockIDNotInUse",
            "inputs": []
        },
        {
            "type": "error",
            "name": "MaximumFloxContributorLocksReached",
            "inputs": []
        },
        {
            "type": "error",
            "name": "MaximumUserLocksReached",
            "inputs": []
        },
        {
            "type": "error",
            "name": "MinLockAmount",
            "inputs": []
        },
        {
            "type": "error",
            "name": "MustBeInAFutureEpochWeek",
            "inputs": []
        },
        {
            "type": "error",
            "name": "NoExistingLockFound",
            "inputs": []
        },
        {
            "type": "error",
            "name": "NotLockingForSelfOrFloxContributor",
            "inputs": []
        },
        {
            "type": "error",
            "name": "OperationIsPaused",
            "inputs": []
        },
        {
            "type": "error",
            "name": "UnableToRecoverPMX",
            "inputs": []
        }
    ],
    "bytecode": {
        "object": "0x6080604052348015600e575f80fd5b5060015f55615aba806100205f395ff3fe608060405234801561000f575f80fd5b50600436106104dd575f3560e01c80637c10d93a11610291578063c2c4c5c111610162578063e97d35ae116100dd578063f851a44011610093578063fb2bc0b711610079578063fb2bc0b714610ecd578063fc0c546a14610ed5578063fc26cf3414610ef5575f80fd5b8063f851a44014610ea0578063f894648514610ec0575f80fd5b8063ed669886116100c3578063ed66988614610e41578063ee1f785b14610e54578063f52a36f714610e7e575f80fd5b8063e97d35ae14610e26578063ed0600d914610e39575f80fd5b8063d8399b7d11610132578063e13d7f9811610118578063e13d7f9814610e00578063e1cebf0b14610e13578063e7ee4b79146106ca575f80fd5b8063d8399b7d14610dec578063dd764abf14610df4575f80fd5b8063c2c4c5c114610d99578063c67d526a14610da1578063d41a464114610da9578063d721421314610de4575f80fd5b806395d89b411161020c578063b187bd26116101c2578063bd85b039116101a8578063bd85b03914610d1d578063bf7bab7314610d30578063c052580714610d86575f80fd5b8063b187bd2614610cc7578063b9ef083014610cec575f80fd5b806399e9c19b116101f257806399e9c19b14610c04578063a15d874a14610ca1578063b0a0d79914610cb4575f80fd5b806395d89b4114610be9578063981b24d014610bf1575f80fd5b80638ad4c44711610261578063900cf0cf11610247578063900cf0cf14610bba57806391c9f0a014610bc3578063929edf4514610bd6575f80fd5b80638ad4c44714610b585780638b2e014e14610ba7575f80fd5b80637c10d93a14610af057806386f9c86414610b1b57806387096bc014610b23578063890b4cfc14610b45575f80fd5b806346190ec4116103cb578063520221e9116103465780636e083e7f116102fc57806377bc368c116102e257806377bc368c14610a705780637aa9b55614610aca5780637b37110714610ae8575f80fd5b80636e083e7f14610a2157806370a0823114610a5d575f80fd5b806354fd4d501161032c57806354fd4d50146109dc5780635ae3afa7146109e45780635f96d4e7146109f7575f80fd5b8063520221e91461095d57806353974fcf14610968575f80fd5b80634cb654af1161039b5780634ee2cd7e116103815780634ee2cd7e146108a55780634fd9d1e0146108b857806350bb3fa4146108da575f80fd5b80634cb654af1461087b5780634eb99c2d1461089b575f80fd5b806346190ec4146107c5578063466003b2146107e45780634834d089146107f75780634957e8921461080a575f80fd5b8063145925b61161045b578063313ce5671161042b5780633b9a760c116104115780633b9a760c146107005780633f2f5ee2146107225780634545304a14610735575f80fd5b8063313ce567146106e457806338dbff66146106ed575f80fd5b8063145925b6146105f557806318160ddd1461060457806321c984e91461060c5780632394c386146106ca575f80fd5b80630536a608116104b05780630e058678116104965780630e05867814610588578063111aa3991461059b5780631354f127146105b0575f80fd5b80630536a6081461053657806306fdde0314610573575f80fd5b806302012997146104e157806302387a7b14610507578063039eda011461051a578063047fc9aa1461052d575b5f80fd5b6104f46104ef366004615139565b610efd565b6040519081526020015b60405180910390f35b6104f4610515366004615171565b610fd1565b6104f461052836600461518a565b610fe3565b6104f460035481565b6105636105443660046151a1565b600760209081525f928352604080842090915290825290205460ff1681565b60405190151581526020016104fe565b61057b611096565b6040516104fe91906151c9565b6104f46105963660046151a1565b611122565b6105ae6105a936600461521c565b6111ae565b005b6001546105d09073ffffffffffffffffffffffffffffffffffffffff1681565b60405173ffffffffffffffffffffffffffffffffffffffff90911681526020016104fe565b6104f4670de0b6b3a764000081565b6104f4611433565b61069f61061a366004615255565b73ffffffffffffffffffffffffffffffffffffffff9091165f908152600460209081526040808320600583528184206fffffffffffffffffffffffffffffffff95861685528352818420548452825291829020825180840190935254600f81900b80845270010000000000000000000000000000000090910490931691018190529091565b60408051600f9390930b83526fffffffffffffffffffffffffffffffff9091166020830152016104fe565b6106d2600881565b60405160ff90911681526020016104fe565b6104f460155481565b6104f46106fb366004615286565b611442565b6106d261070e366004615139565b60096020525f908152604090205460ff1681565b6105ae61073036600461537c565b6114bd565b61079561074336600461542b565b600e60209081525f93845260408085208252928452828420905282529020805460018201546002830154600390930154600f83810b94700100000000000000000000000000000000909404900b929085565b60408051600f96870b81529490950b6020850152938301919091526060820152608081019190915260a0016104fe565b6104f46107d3366004615139565b600a6020525f908152604090205481565b6105ae6107f23660046151a1565b611706565b6104f461080536600461546c565b611852565b61081d6108183660046151a1565b6119bd565b6040516104fe91905f608082019050825182526fffffffffffffffffffffffffffffffff60208401511660208301526040830151600f0b60408301526fffffffffffffffffffffffffffffffff606084015116606083015292915050565b6017546105d09073ffffffffffffffffffffffffffffffffffffffff1681565b6104f462093a8081565b6104f46108b33660046151a1565b611a89565b6105636108c6366004615139565b60186020525f908152604090205460ff1681565b61069f6108e83660046151a1565b73ffffffffffffffffffffffffffffffffffffffff919091165f90815260046020908152604080832093835292815290829020825180840190935254600f81900b8084527001000000000000000000000000000000009091046fffffffffffffffffffffffffffffffff169290910182905291565b6104f4630784ce0081565b6104f46109763660046154f9565b73ffffffffffffffffffffffffffffffffffffffff83165f8181526005602090815260408083206fffffffffffffffffffffffffffffffff87168452825280832054938352600e8252808320938352928152828220848352905220600101549392505050565b61057b611a9b565b6104f46109f236600461542b565b611aa8565b6104f4610a05366004615255565b600560209081525f928352604080842090915290825290205481565b610a34610a2f3660046151a1565b611b79565b604080516fffffffffffffffffffffffffffffffff9384168152929091166020830152016104fe565b6104f4610a6b366004615139565b611c5b565b610a83610a7e3660046154f9565b611c66565b6040516104fe91905f60a0820190508251600f0b82526020830151600f0b602083015260408301516040830152606083015160608301526080830151608083015292915050565b610ad5630784ce0081565b604051600f9190910b81526020016104fe565b6105ae611d4d565b610afa62093a8081565b6040516fffffffffffffffffffffffffffffffff90911681526020016104fe565b6105ae611e72565b6106d2610b31366004615139565b60086020525f908152604090205460ff1681565b6104f4610b533660046154f9565b611f55565b610795610b6636600461518a565b600d6020525f90815260409020805460018201546002830154600390930154600f83810b94700100000000000000000000000000000000909404900b929085565b6104f4610bb53660046151a1565b61215e565b6104f4600c5481565b6105ae610bd1366004615139565b6121e2565b6105ae610be4366004615533565b6122a6565b61057b6124e5565b6104f4610bff36600461518a565b6124f2565b610ad5610c12366004615255565b73ffffffffffffffffffffffffffffffffffffffff82165f8181526005602090815260408083206fffffffffffffffffffffffffffffffff86168452825280832054848452600f808452828520828652845282852054958552600e8452828520918552908352818420948452939091529020547001000000000000000000000000000000009004900b92915050565b610a83610caf366004615255565b6126dd565b610afa610cc23660046151a1565b6127d8565b6001546105639074010000000000000000000000000000000000000000900460ff1681565b610afa610cfa366004615139565b600b6020525f90815260409020546fffffffffffffffffffffffffffffffff1681565b6104f4610d2b36600461518a565b612894565b61069f610d3e3660046151a1565b600460209081525f9283526040808420909152908252902054600f81900b9070010000000000000000000000000000000090046fffffffffffffffffffffffffffffffff1682565b6105ae610d94366004615564565b6129a2565b6105ae612a7c565b610a34612b52565b610dbc610db736600461521c565b612ba8565b604080516fffffffffffffffffffffffffffffffff90931683526020830191909152016104fe565b610a83613297565b6105ae613332565b6104f464e8d4a5100081565b6105ae610e0e366004615599565b613415565b6105ae610e21366004615139565b6136e1565b6104f4610e343660046154f9565b6137a5565b6104f4613bb1565b6104f4610e4f366004615255565b613c41565b6104f4610e623660046151a1565b600f60209081525f928352604080842090915290825290205481565b610ad5610e8c36600461518a565b60106020525f9081526040902054600f0b81565b6016546105d09073ffffffffffffffffffffffffffffffffffffffff1681565b6011546105639060ff1681565b6104f4600381565b6002546105d09073ffffffffffffffffffffffffffffffffffffffff1681565b610ad5600381565b73ffffffffffffffffffffffffffffffffffffffff81165f908152600b60205260408120546fffffffffffffffffffffffffffffffff16815b816fffffffffffffffffffffffffffffffff16816fffffffffffffffffffffffffffffffff161015610fca5773ffffffffffffffffffffffffffffffffffffffff84165f908152600460209081526040808320600583528184206fffffffffffffffffffffffffffffffff8087168652908452828520548552925290912054610fc09116846155e0565b9250600101610f36565b5050919050565b5f610fdd333384613cc5565b92915050565b5f4382111561101e576040517f4e47846c00000000000000000000000000000000000000000000000000000000815260040160405180910390fd5b5f61102b83600c54611442565b5f908152600d6020908152604091829020825160a0810184528154600f81810b8352700100000000000000000000000000000000909104900b928101929092526001810154928201929092526002820154606082015260039091015460809091018190529392505050565b601280546110a3906155f3565b80601f01602080910402602001604051908101604052809291908181526020018280546110cf906155f3565b801561111a5780601f106110f15761010080835404028352916020019161111a565b820191905f5260205f20905b8154815290600101906020018083116110fd57829003601f168201915b505050505081565b73ffffffffffffffffffffffffffffffffffffffff82165f908152600b60205260408120546fffffffffffffffffffffffffffffffff16815b816fffffffffffffffffffffffffffffffff16816fffffffffffffffffffffffffffffffff1610156111a6576111928582866137a5565b61119c90846155e0565b925060010161115b565b505092915050565b60025f540361121e576040517f08c379a000000000000000000000000000000000000000000000000000000000815260206004820152601f60248201527f5265656e7472616e637947756172643a207265656e7472616e742063616c6c0060448201526064015b60405180910390fd5b60025f5560015474010000000000000000000000000000000000000000900460ff1615611277576040517f6087c16000000000000000000000000000000000000000000000000000000000815260040160405180910390fd5b64e8d4a510008210156112b6576040517f24c09d8600000000000000000000000000000000000000000000000000000000815260040160405180910390fd5b73ffffffffffffffffffffffffffffffffffffffff83165f8181526005602090815260408083206fffffffffffffffffffffffffffffffff8616845282528083205493835260048252808320848452909152812080549091600f9190910b1361134b576040517f4331e8f900000000000000000000000000000000000000000000000000000000815260040160405180910390fd5b8054427001000000000000000000000000000000009091046fffffffffffffffffffffffffffffffff16116113ac576040517ff6fafba000000000000000000000000000000000000000000000000000000000815260040160405180910390fd5b73ffffffffffffffffffffffffffffffffffffffff85165f9081526004602090815260408083208584528252808320815180830190925254600f81900b825270010000000000000000000000000000000090046fffffffffffffffffffffffffffffffff16918101919091526114289187918791908188614395565b505060015f55505050565b5f61143d42612894565b905090565b5f808281805b60808110156114b257828410156114b257600261146584866155e0565b6114709060016155e0565b61147a9190615671565b5f818152600d6020526040902060020154909250871061149c578193506114aa565b6114a7600183615684565b92505b600101611448565b509195945050505050565b73ffffffffffffffffffffffffffffffffffffffff841615806114f7575060025473ffffffffffffffffffffffffffffffffffffffff1615155b1561152e576040517fd08e7ac200000000000000000000000000000000000000000000000000000000815260040160405180910390fd5b601680547fffffffffffffffffffffffff00000000000000000000000000000000000000001673ffffffffffffffffffffffffffffffffffffffff87161790555f808052600d602052437f81955a0a11e65eac625c29e8882660bae4e165a75d72780094acae8ece9a29f055427f81955a0a11e65eac625c29e8882660bae4e165a75d72780094acae8ece9a29ef557f81955a0a11e65eac625c29e8882660bae4e165a75d72780094acae8ece9a29f15560126115eb84826156e3565b5060136115f883826156e3565b50601461160582826156e3565b505f8473ffffffffffffffffffffffffffffffffffffffff1663313ce5676040518163ffffffff1660e01b8152600401602060405180830381865afa158015611650573d5f803e3d5ffd5b505050506040513d601f19601f8201168201806040525081019061167491906157fa565b60ff16905060ff8111156116b4576040517ff20f57e600000000000000000000000000000000000000000000000000000000815260040160405180910390fd5b600280547fffffffffffffffffffffffff00000000000000000000000000000000000000001673ffffffffffffffffffffffffffffffffffffffff969096169590951790945550505060ff1660155550565b60165473ffffffffffffffffffffffffffffffffffffffff163314611757576040517fc15c60b400000000000000000000000000000000000000000000000000000000815260040160405180910390fd5b60025473ffffffffffffffffffffffffffffffffffffffff908116908316036117ac576040517f39e7ebca00000000000000000000000000000000000000000000000000000000815260040160405180910390fd5b6016546040517fa9059cbb00000000000000000000000000000000000000000000000000000000815273ffffffffffffffffffffffffffffffffffffffff9182166004820152602481018390529083169063a9059cbb906044016020604051808303815f875af1158015611822573d5f803e3d5ffd5b505050506040513d601f19601f82011682018060405250810190611846919061581a565b61184e575f80fd5b5050565b6011545f9060ff161561186e57611867613bb1565b9050610fdd565b5f8390505f62093a808083604001516118879190615671565b6118919190615835565b905083826040015111156118d1576040517fb7d0949700000000000000000000000000000000000000000000000000000000815260040160405180910390fd5b5f5b60ff811015611977576118e962093a80836155e0565b91505f858311156118fc5785925061190f565b505f82815260106020526040902054600f0b5b604084015161191e9084615684565b846020015161192d919061584c565b8451859061193c908390615872565b600f0b90525085830361194f5750611977565b808460200181815161196191906158c0565b600f0b90525050604083018290526001016118d3565b505f825f0151600f0b121561198a575f82525b815160808301516fffffffffffffffffffffffffffffffff909116908110156119b4575060808201515b95945050505050565b604080516080810182525f80825260208083018290528284018290526060830182905273ffffffffffffffffffffffffffffffffffffffff8616825260048152838220858352815290839020835180850190945254600f81900b845270010000000000000000000000000000000090046fffffffffffffffffffffffffffffffff169083015282815290611a5184846127d8565b6fffffffffffffffffffffffffffffffff9081166020808501919091528251600f0b6040850152919091015116606082015292915050565b5f611a948383611122565b9392505050565b601480546110a3906155f3565b73ffffffffffffffffffffffffffffffffffffffff83165f908152600f60209081526040808320858452909152812054815b6080811015611b705781831015611b70575f6002611af884866155e0565b611b039060016155e0565b611b0d9190615671565b73ffffffffffffffffffffffffffffffffffffffff88165f908152600e602090815260408083208a845282528083208484529091529020600101549091508510611b5957809350611b67565b611b64600182615684565b92505b50600101611ada565b50509392505050565b73ffffffffffffffffffffffffffffffffffffffff82165f908152600460209081526040808320848452909152812054819062093a8090611be190829070010000000000000000000000000000000090046fffffffffffffffffffffffffffffffff1661590e565b611beb919061594d565b611bf89062093a80615978565b915062093a80611c0c630784ce0042615978565b611c199062093a8061594d565b611c23919061590e565b9050806fffffffffffffffffffffffffffffffff16826fffffffffffffffffffffffffffffffff1610611c54578091505b9250929050565b5f610fdd824261215e565b611c996040518060a001604052805f600f0b81526020015f600f0b81526020015f81526020015f81526020015f81525090565b5073ffffffffffffffffffffffffffffffffffffffff9092165f8181526005602090815260408083206fffffffffffffffffffffffffffffffff909516835293815283822054928252600e815283822092825291825282812093815292815291819020815160a0810183528154600f81810b8352700100000000000000000000000000000000909104900b938101939093526001810154918301919091526002810154606083015260030154608082015290565b60175473ffffffffffffffffffffffffffffffffffffffff163314611d9e576040517f0f89263400000000000000000000000000000000000000000000000000000000815260040160405180910390fd5b60175473ffffffffffffffffffffffffffffffffffffffff1680611dee576040517fe2db036000000000000000000000000000000000000000000000000000000000815260040160405180910390fd5b6016805473ffffffffffffffffffffffffffffffffffffffff83167fffffffffffffffffffffffff000000000000000000000000000000000000000091821681179092556017805490911690556040519081527febee2d5739011062cb4f14113f3b36bf0ffe3da5c0568f64189d1012a1189105906020015b60405180910390a150565b60165473ffffffffffffffffffffffffffffffffffffffff163314611ec3576040517fc15c60b400000000000000000000000000000000000000000000000000000000815260040160405180910390fd5b6001805460ff7401000000000000000000000000000000000000000080830482161581027fffffffffffffffffffffff00ffffffffffffffffffffffffffffffffffffffff90931692909217928390556040517f79734b6e7debe05b78de4a5258ce230a8990ca364a016f0fbeabb8e6ca93394f93611f4b9390049091161515815260200190565b60405180910390a1565b6011545f9060ff1615611fbc575073ffffffffffffffffffffffffffffffffffffffff83165f908152600460209081526040808320600583528184206fffffffffffffffffffffffffffffffff808816865290845282852054855292529091205416611a94565b8115611fc85781611fca565b425b73ffffffffffffffffffffffffffffffffffffffff85165f9081526005602090815260408083206fffffffffffffffffffffffffffffffff8816845290915281205491935061201a868386611aa8565b9050805f0361202d575f92505050611a94565b6120606040518060a001604052805f600f0b81526020015f600f0b81526020015f81526020015f81526020015f81525090565b5073ffffffffffffffffffffffffffffffffffffffff86165f908152600e602090815260408083208584528252808320848452825291829020825160a0810184528154600f81810b8352700100000000000000000000000000000000909104900b92810192909252600181015492820183905260028101546060830152600301546080820152906120f19086615684565b8160200151612100919061584c565b8151829061210f908390615872565b600f90810b90915282515f910b12159050612128575f81525b805f01516fffffffffffffffffffffffffffffffff169350806080015184101561215457806080015193505b5050509392505050565b73ffffffffffffffffffffffffffffffffffffffff82165f908152600b60205260408120546fffffffffffffffffffffffffffffffff16815b816fffffffffffffffffffffffffffffffff16816fffffffffffffffffffffffffffffffff1610156111a6576121ce858286611f55565b6121d890846155e0565b9250600101612197565b60165473ffffffffffffffffffffffffffffffffffffffff163314612233576040517fc15c60b400000000000000000000000000000000000000000000000000000000815260040160405180910390fd5b600180547fffffffffffffffffffffffff00000000000000000000000000000000000000001673ffffffffffffffffffffffffffffffffffffffff83169081179091556040519081527fdff35488885ad538ee6eed4596f1a276503a943e680f19f691ed762d7a88aaaf90602001611e67565b60025f5403612311576040517f08c379a000000000000000000000000000000000000000000000000000000000815260206004820152601f60248201527f5265656e7472616e637947756172643a207265656e7472616e742063616c6c006044820152606401611215565b60025f5560015474010000000000000000000000000000000000000000900460ff161561236a576040517f6087c16000000000000000000000000000000000000000000000000000000000815260040160405180910390fd5b64e8d4a510008210156123a9576040517f24c09d8600000000000000000000000000000000000000000000000000000000815260040160405180910390fd5b335f8181526005602090815260408083206fffffffffffffffffffffffffffffffff8616845282528083205493835260048252808320848452909152812080549091600f9190910b13612428576040517f4331e8f900000000000000000000000000000000000000000000000000000000815260040160405180910390fd5b80546fffffffffffffffffffffffffffffffff428116700100000000000000000000000000000000909204161161248b576040517ff6fafba000000000000000000000000000000000000000000000000000000000815260040160405180910390fd5b604080518082019091528154600f81900b825270010000000000000000000000000000000090046fffffffffffffffffffffffffffffffff1660208201526124db90339086905f90600288614395565b505060015f555050565b601380546110a3906155f3565b5f4382111561252d576040517f4e47846c00000000000000000000000000000000000000000000000000000000815260040160405180910390fd5b5f61253a83600c54611442565b5f818152600d60209081526040808320815160a0810183528154600f81810b8352700100000000000000000000000000000000909104900b9381019390935260018101549183019190915260028101546060830152600301546080820152600c549293509183101561267a575f600d816125b58660016155e0565b815260208082019290925260409081015f20815160a0810183528154600f81810b8352700100000000000000000000000000000000909104900b938101939093526001810154918301919091526002810154606080840182905260039092015460808401529085015191925014612674578260600151816060015161263a9190615684565b8360400151826040015161264e9190615684565b606085015161265d9089615684565b6126679190615835565b6126719190615671565b91505b506126c9565b438260600151146126c95760608201516126949043615684565b60408301516126a39042615684565b60608401516126b29088615684565b6126bc9190615835565b6126c69190615671565b90505b6119b48282846040015161080591906155e0565b6127106040518060a001604052805f600f0b81526020015f600f0b81526020015f81526020015f81526020015f81525090565b5073ffffffffffffffffffffffffffffffffffffffff9091165f8181526005602090815260408083206fffffffffffffffffffffffffffffffff909516835293815283822054838352600f808352858420828552835285842054948452600e835285842091845290825284832093835292815290839020835160a081018552815480850b8252700100000000000000000000000000000000900490930b9183019190915260018101549282019290925260028201546060820152600390910154608082015290565b73ffffffffffffffffffffffffffffffffffffffff82165f90815260066020908152604080832084845282528083208151606081018352815481526001909101546fffffffffffffffffffffffffffffffff81169382019390935270010000000000000000000000000000000090920460ff161515908201819052612889576040517f8417403400000000000000000000000000000000000000000000000000000000815260040160405180910390fd5b602001519392505050565b6011545f9060ff16156128a957610fdd613bb1565b81156128b557816128b7565b425b600c549092505f9081805b608081101561292c578284101561292c5760026128df84866155e0565b6128ea9060016155e0565b6128f49190615671565b5f818152600d6020526040902060010154909250861061291657819350612924565b612921600183615684565b92505b6001016128c2565b505f838152600d6020908152604091829020825160a0810184528154600f81810b8352700100000000000000000000000000000000909104900b928101929092526001810154928201929092526002820154606082015260039091015460808201526129988187611852565b9695505050505050565b60165473ffffffffffffffffffffffffffffffffffffffff1633146129f3576040517fc15c60b400000000000000000000000000000000000000000000000000000000815260040160405180910390fd5b73ffffffffffffffffffffffffffffffffffffffff82165f8181526018602090815260409182902080547fffffffffffffffffffffffffffffffffffffffffffffffffffffffffffffff001685151590811790915591519182527f1b6e6916bd76fb0e62ff02acf466a38852d02426c13ba96e69803693ac627d58910160405180910390a25050565b60015474010000000000000000000000000000000000000000900460ff1615612ad1576040517f6087c16000000000000000000000000000000000000000000000000000000000815260040160405180910390fd5b60115460ff1615612b0e576040517ffcfb534f00000000000000000000000000000000000000000000000000000000815260040160405180910390fd5b6040805180820182525f808252602080830182905283518085019094528184528301819052612b50929091906fffffffffffffffffffffffffffffffff614672565b565b5f8062093a80612b62814261590e565b612b6c919061594d565b612b799062093a80615978565b915062093a8080612b8e630784ce0042615978565b612b98919061590e565b612ba2919061594d565b90509091565b5f8060025f5403612c15576040517f08c379a000000000000000000000000000000000000000000000000000000000815260206004820152601f60248201527f5265656e7472616e637947756172643a207265656e7472616e742063616c6c006044820152606401611215565b60025f5560015474010000000000000000000000000000000000000000900460ff1615612c6e576040517f6087c16000000000000000000000000000000000000000000000000000000000815260040160405180910390fd5b64e8d4a51000841015612cad576040517f24c09d8600000000000000000000000000000000000000000000000000000000815260040160405180910390fd5b3373ffffffffffffffffffffffffffffffffffffffff861614801590612ce25750335f9081526018602052604090205460ff16155b15612d19576040517fe90513a400000000000000000000000000000000000000000000000000000000815260040160405180910390fd5b3373ffffffffffffffffffffffffffffffffffffffff8616148015612d67575073ffffffffffffffffffffffffffffffffffffffff85165f9081526008602081905260409091205460ff1610155b15612d9e576040517f8d38fa5700000000000000000000000000000000000000000000000000000000815260040160405180910390fd5b335f9081526018602052604090205460ff168015612dd257503373ffffffffffffffffffffffffffffffffffffffff861614155b8015612e08575073ffffffffffffffffffffffffffffffffffffffff85165f90815260096020526040902054600860ff90911610155b15612e3f576040517ffe39307800000000000000000000000000000000000000000000000000000000815260040160405180910390fd5b73ffffffffffffffffffffffffffffffffffffffff85165f908152600a60205260408120805460019290612e749084906155e0565b90915550505073ffffffffffffffffffffffffffffffffffffffff84165f908152600a60205260408120549062093a80612eae818661590e565b612eb8919061594d565b73ffffffffffffffffffffffffffffffffffffffff87165f9081526004602090815260408083208684529091529020909150426fffffffffffffffffffffffffffffffff831611612f35576040517f6df7c20200000000000000000000000000000000000000000000000000000000815260040160405180910390fd5b612f43630784ce00426155e0565b826fffffffffffffffffffffffffffffffff161115612f8e576040517ff245ec8e00000000000000000000000000000000000000000000000000000000815260040160405180910390fd5b73ffffffffffffffffffffffffffffffffffffffff87165f818152600560209081526040808320600b80845282852080546fffffffffffffffffffffffffffffffff90811687529285528386208a9055868652600685528386208a875285529285208981558354600191820180547fffffffffffffffffffffffffffffff00000000000000000000000000000000001691851691909117700100000000000000000000000000000000179055958552909252805490929161305191859116615978565b92506101000a8154816fffffffffffffffffffffffffffffffff02191690836fffffffffffffffffffffffffffffffff1602179055508673ffffffffffffffffffffffffffffffffffffffff163373ffffffffffffffffffffffffffffffffffffffff160361310f5773ffffffffffffffffffffffffffffffffffffffff87165f9081526008602052604081208054600192906130f290849060ff166159a0565b92506101000a81548160ff021916908360ff1602179055506131bd565b73ffffffffffffffffffffffffffffffffffffffff87165f90815260096020526040812080546001929061314790849060ff166159a0565b825460ff9182166101009390930a92830291909202199091161790555073ffffffffffffffffffffffffffffffffffffffff87165f908152600760209081526040808320868452909152902080547fffffffffffffffffffffffffffffffffffffffffffffffffffffffffffffff001660011790555b6040805180820182528254600f81900b82526fffffffffffffffffffffffffffffffff700100000000000000000000000000000000909104811660208084019190915273ffffffffffffffffffffffffffffffffffffffff8b165f908152600b9091529290922054613243928a928a92879260019161323e918391166159b9565b614395565b73ffffffffffffffffffffffffffffffffffffffff87165f908152600b6020526040902054613286906001906fffffffffffffffffffffffffffffffff166159b9565b60015f559792965091945050505050565b6132ca6040518060a001604052805f600f0b81526020015f600f0b81526020015f81526020015f81526020015f81525090565b50600c545f908152600d6020908152604091829020825160a0810184528154600f81810b8352700100000000000000000000000000000000909104900b9281019290925260018101549282019290925260028201546060820152600390910154608082015290565b60165473ffffffffffffffffffffffffffffffffffffffff163314613383576040517fc15c60b400000000000000000000000000000000000000000000000000000000815260040160405180910390fd5b60115460ff16156133c0576040517ffcfb534f00000000000000000000000000000000000000000000000000000000815260040160405180910390fd5b601180547fffffffffffffffffffffffffffffffffffffffffffffffffffffffffffffff001660011790556040517f9961dd0c30c9f532f28144e481f13454df7edc16e55f83cdfa28cce1f3278df1905f90a1565b60025f5403613480576040517f08c379a000000000000000000000000000000000000000000000000000000000815260206004820152601f60248201527f5265656e7472616e637947756172643a207265656e7472616e742063616c6c006044820152606401611215565b60025f5560015474010000000000000000000000000000000000000000900460ff16156134d9576040517f6087c16000000000000000000000000000000000000000000000000000000000815260040160405180910390fd5b335f8181526005602090815260408083206fffffffffffffffffffffffffffffffff861684528252808320549383526004825280832084845290915281209062093a80613526818761590e565b613530919061594d565b8254909150427001000000000000000000000000000000009091046fffffffffffffffffffffffffffffffff1611613594576040517ff6fafba000000000000000000000000000000000000000000000000000000000815260040160405180910390fd5b81545f600f9190910b136135d4576040517f4331e8f900000000000000000000000000000000000000000000000000000000815260040160405180910390fd5b81546fffffffffffffffffffffffffffffffff700100000000000000000000000000000000909104811690821611613638576040517f6df7c20200000000000000000000000000000000000000000000000000000000815260040160405180910390fd5b613646630784ce00426155e0565b816fffffffffffffffffffffffffffffffff161115613691576040517ff245ec8e00000000000000000000000000000000000000000000000000000000815260040160405180910390fd5b604080518082019091528254600f81900b825270010000000000000000000000000000000090046fffffffffffffffffffffffffffffffff1660208201526114289033905f908490600389614395565b60165473ffffffffffffffffffffffffffffffffffffffff163314613732576040517fc15c60b400000000000000000000000000000000000000000000000000000000815260040160405180910390fd5b601780547fffffffffffffffffffffffff00000000000000000000000000000000000000001673ffffffffffffffffffffffffffffffffffffffff83169081179091556040519081527f2f56810a6bf40af059b96d3aea4db54081f378029a518390491093a7b67032e990602001611e67565b6011545f9060ff161561380c575073ffffffffffffffffffffffffffffffffffffffff83165f908152600460209081526040808320600583528184206fffffffffffffffffffffffffffffffff808816865290845282852054855292529091205416611a94565b43821115613846576040517f4e47846c00000000000000000000000000000000000000000000000000000000815260040160405180910390fd5b73ffffffffffffffffffffffffffffffffffffffff84165f8181526005602090815260408083206fffffffffffffffffffffffffffffffff88168452825280832054938352600f8252808320848452909152812054815b60808110156139335781831015613933575f60026138bb84866155e0565b6138c69060016155e0565b6138d09190615671565b73ffffffffffffffffffffffffffffffffffffffff8a165f908152600e602090815260408083208984528252808320848452909152902060020154909150871061391c5780935061392a565b613927600182615684565b92505b5060010161389d565b5073ffffffffffffffffffffffffffffffffffffffff87165f908152600e6020908152604080832086845282528083208584528252808320815160a0810183528154600f81810b8352700100000000000000000000000000000000909104900b9381019390935260018101549183019190915260028101546060830152600301546080820152600c5490916139c88883611442565b5f818152600d60209081526040808320815160a0810183528154600f81810b8352700100000000000000000000000000000000909104900b93810193909352600181015491830191909152600281015460608301526003015460808201529192508084841015613ad5575f600d81613a418760016155e0565b815260208082019290925260409081015f20815160a0810183528154600f81810b8352700100000000000000000000000000000000909104900b9381019390935260018101549183019190915260028101546060808401829052600390920154608084015290860151919250613ab79190615684565b925083604001518160400151613acd9190615684565b915050613af9565b6060830151613ae49043615684565b9150826040015142613af69190615684565b90505b60408301518215613b36578284606001518d613b159190615684565b613b1f9084615835565b613b299190615671565b613b3390826155e0565b90505b6040870151613b459082615684565b8760200151613b54919061584c565b87518890613b63908390615872565b600f90810b9091526080890151895190910b12159050613b895786608001519a50613ba0565b86516fffffffffffffffffffffffffffffffff169a505b505050505050505050509392505050565b6002546040517f70a082310000000000000000000000000000000000000000000000000000000081523060048201525f9173ffffffffffffffffffffffffffffffffffffffff16906370a0823190602401602060405180830381865afa158015613c1d573d5f803e3d5ffd5b505050506040513d601f19601f8201168201806040525081019061143d91906159e1565b6011545f9060ff1615613c55575042610fdd565b5073ffffffffffffffffffffffffffffffffffffffff919091165f8181526005602090815260408083206fffffffffffffffffffffffffffffffff958616845282528083205493835260048252808320938352929052205470010000000000000000000000000000000090041690565b5f60025f5403613d31576040517f08c379a000000000000000000000000000000000000000000000000000000000815260206004820152601f60248201527f5265656e7472616e637947756172643a207265656e7472616e742063616c6c006044820152606401611215565b60025f90815573ffffffffffffffffffffffffffffffffffffffff85168152600b60205260409020546fffffffffffffffffffffffffffffffff90811690831610613da8576040517f7ecccce000000000000000000000000000000000000000000000000000000000815260040160405180910390fd5b60015474010000000000000000000000000000000000000000900460ff1615613dfd576040517f6087c16000000000000000000000000000000000000000000000000000000000815260040160405180910390fd5b73ffffffffffffffffffffffffffffffffffffffff84165f8181526005602090815260408083206fffffffffffffffffffffffffffffffff80881685529083528184205494845260048352818420858552835292819020815180830190925254600f81900b825270010000000000000000000000000000000090048316918101829052914216108015613e93575060115460ff16155b15613eca576040517f143025ba00000000000000000000000000000000000000000000000000000000815260040160405180910390fd5b8051604080518082019091525f80825260208201526fffffffffffffffffffffffffffffffff9091169350613f0187838388614672565b73ffffffffffffffffffffffffffffffffffffffff87165f908152600560209081526040808320600b9092528220548290613f50906001906fffffffffffffffffffffffffffffffff166159b9565b6fffffffffffffffffffffffffffffffff908116825260208083019390935260409182015f9081205473ffffffffffffffffffffffffffffffffffffffff8d16808352600586528483208c85168452808752858420839055908352600b9095529281205492945091613fc591600191166159b9565b6fffffffffffffffffffffffffffffffff908116825260208083019390935260409182015f90812081905573ffffffffffffffffffffffffffffffffffffffff8c16808252600685528382208683528552838220600190810180547001000000000000000000000000000000008e87167fffffffffffffffffffffffffffffff000000000000000000000000000000000092831617179091558a8452858420848155820180549091169055908252600b909452918220805490929161408c918591166159b9565b82546fffffffffffffffffffffffffffffffff9182166101009390930a92830291909202199091161790555073ffffffffffffffffffffffffffffffffffffffff88165f90815260076020908152604080832087845290915290205460ff166141445773ffffffffffffffffffffffffffffffffffffffff88165f90815260086020526040812080546001929061412790849060ff166159f8565b92506101000a81548160ff021916908360ff160217905550614195565b73ffffffffffffffffffffffffffffffffffffffff88165f90815260096020526040812080546001929061417c90849060ff166159f8565b92506101000a81548160ff021916908360ff1602179055505b6003546141a28682615684565b6003556002546040517fa9059cbb00000000000000000000000000000000000000000000000000000000815273ffffffffffffffffffffffffffffffffffffffff8a81166004830152602482018990529091169063a9059cbb906044016020604051808303815f875af115801561421b573d5f803e3d5ffd5b505050506040513d601f19601f8201168201806040525081019061423f919061581a565b6142a5576040517f08c379a000000000000000000000000000000000000000000000000000000000815260206004820152600f60248201527f5472616e73666572206661696c656400000000000000000000000000000000006044820152606401611215565b60115460ff16156142f2576040805180820182525f8082526020808301829052835180850190945281845283018190526142f2929091906fffffffffffffffffffffffffffffffff614672565b6040805187815242602082015273ffffffffffffffffffffffffffffffffffffffff808b1692908c16917ff341246adaac6f497bc2a656f546ab9e182111d630394f0c57c710a59a2cb567910160405180910390a36003546040805183815260208101929092527f5e2aa66efd74cce82b21852e317e5490d9ecc9e6bb953ae24d90851258cc2f5c910160405180910390a1505060015f55509195945050505050565b60115460ff16156143d2576040517ffcfb534f00000000000000000000000000000000000000000000000000000000815260040160405180910390fd5b6002546040517f23b872dd0000000000000000000000000000000000000000000000000000000081523360048201523060248201526044810187905273ffffffffffffffffffffffffffffffffffffffff909116906323b872dd906064016020604051808303815f875af115801561444c573d5f803e3d5ffd5b505050506040513d601f19601f82011682018060405250810190614470919061581a565b614478575f80fd5b600354604080518082019091528451600f0b81526020808601516fffffffffffffffffffffffffffffffff16908201528491906144b588836155e0565b6003558051889082906144c99083906158c0565b600f0b9052506fffffffffffffffffffffffffffffffff871615614500576fffffffffffffffffffffffffffffffff871660208201525b73ffffffffffffffffffffffffffffffffffffffff89165f908152600460209081526040808320600583528184206fffffffffffffffffffffffffffffffff808a16865290845282852054855290835292208351918401518316700100000000000000000000000000000000029190921617905561458089848387614672565b80602001516fffffffffffffffffffffffffffffffff163373ffffffffffffffffffffffffffffffffffffffff168a73ffffffffffffffffffffffffffffffffffffffff167f14c0149cb9a81e88858fe68435647550d00aa572a036ef0d518745c27c61b9fc8b894260405161461b939291909283526fffffffffffffffffffffffffffffffff919091166020830152604082015260600190565b60405180910390a47f5e2aa66efd74cce82b21852e317e5490d9ecc9e6bb953ae24d90851258cc2f5c8261464f8a826155e0565b6040805192835260208301919091520160405180910390a1505050505050505050565b6040805160a080820183525f80835260208084018290528385018290526060808501839052608080860184905286519485018752838552918401839052948301829052938201819052928101839052600c5491929091819073ffffffffffffffffffffffffffffffffffffffff8916156148ba574288602001516fffffffffffffffffffffffffffffffff1611801561471057505f885f0151600f0b135b15614780578751630784ce00906147299060039061584c565b6147339190615a11565b600f0b60208087019190915288015161475f9042906fffffffffffffffffffffffffffffffff16615684565b856020015161476e919061584c565b885161477a91906158c0565b600f0b85525b4287602001516fffffffffffffffffffffffffffffffff161180156147aa57505f875f0151600f0b135b1561481a578651630784ce00906147c39060039061584c565b6147cd9190615a11565b600f0b6020808601919091528701516147f99042906fffffffffffffffffffffffffffffffff16615684565b8460200151614808919061584c565b875161481491906158c0565b600f0b84525b6020808901516fffffffffffffffffffffffffffffffff9081165f90815260108352604090205491890151600f9290920b945016156148ba5787602001516fffffffffffffffffffffffffffffffff1687602001516fffffffffffffffffffffffffffffffff160361488e578291506148ba565b6020808801516fffffffffffffffffffffffffffffffff165f90815260109091526040902054600f0b91505b6040805160a0810182525f8082526020820181905242928201929092524360608201526080810191909152811561494e57505f818152600d6020908152604091829020825160a0810184528154600f81810b8352700100000000000000000000000000000000909104900b928101929092526001810154928201929092526002820154606082015260039091015460808201525b5f816040015190505f6040518060a00160405280845f0151600f0b81526020018460200151600f0b81526020018460400151815260200184606001518152602001846080015181525090505f83604001514211156149f0576149c26fffffffffffffffffffffffffffffffff841642615684565b60608501516149d19043615684565b6149e390670de0b6b3a7640000615835565b6149ed9190615671565b90505b6149fd8385848489614d83565b935073ffffffffffffffffffffffffffffffffffffffff8d1615614b635788602001518860200151614a2f9190615872565b84602001818151614a4091906158c0565b600f0b90525088518851614a549190615872565b84518590614a639083906158c0565b600f90810b9091528d518d5190820b910b13159050614ab1578b518b51614a8a9190615872565b6fffffffffffffffffffffffffffffffff1684608001818151614aad91906155e0565b9052505b8b518b51600f91820b910b1215614b3b578a518c51614ad09190615872565b6fffffffffffffffffffffffffffffffff1684608001818151614af39190615684565b9052508a51600f0b158015614b1e5750428c602001516fffffffffffffffffffffffffffffffff1611155b15614b3b578b5184518590614b34908390615872565b600f0b9052505b5f8460200151600f0b1215614b51575f60208501525b5f845f0151600f0b1215614b63575f84525b600c545f908152600d60209081526040918290208651918701516fffffffffffffffffffffffffffffffff90811670010000000000000000000000000000000002921691909117815590850151600182015560608501516002820155608085015160039091015573ffffffffffffffffffffffffffffffffffffffff8d1615614d7457428c602001516fffffffffffffffffffffffffffffffff161115614cb0576020890151614c1390886158c0565b96508b602001516fffffffffffffffffffffffffffffffff168b602001516fffffffffffffffffffffffffffffffff1603614c5a576020880151614c579088615872565b96505b60208c8101516fffffffffffffffffffffffffffffffff9081165f9081526010909252604090912080547fffffffffffffffffffffffffffffffff00000000000000000000000000000000169189169190911790555b428b602001516fffffffffffffffffffffffffffffffff161115614d69578b602001516fffffffffffffffffffffffffffffffff168b602001516fffffffffffffffffffffffffffffffff161115614d69576020880151614d119087615872565b60208c8101516fffffffffffffffffffffffffffffffff9081165f9081526010909252604090912080547fffffffffffffffffffffffffffffffff000000000000000000000000000000001691831691909117905595505b614d748d898c614fe7565b50505050505050505050505050565b614db66040518060a001604052805f600f0b81526020015f600f0b81526020015f81526020015f81526020015f81525090565b5f62093a80614dd7816fffffffffffffffffffffffffffffffff8a16615671565b614de19190615835565b90505f5b60ff811015614fd957614dfb62093a8083615978565b91505f42836fffffffffffffffffffffffffffffffff161115614e2057429250614e46565b506fffffffffffffffffffffffffffffffff82165f90815260106020526040902054600f0b5b614e5089846159b9565b8860200151614e5f919061584c565b88518990614e6e908390615872565b600f0b905250602088018051829190614e889083906158c0565b600f90810b90915289515f910b12159050614ea1575f88525b5f8860200151600f0b1215614eb7575f60208901525b6fffffffffffffffffffffffffffffffff83166040808a018290528801519399508993670de0b6b3a764000091614eee9190615684565b614f0a906fffffffffffffffffffffffffffffffff8916615835565b614f149190615671565b8760600151614f2391906155e0565b6060890152614f336001866155e0565b9450426fffffffffffffffffffffffffffffffff16836fffffffffffffffffffffffffffffffff1603614f6c5750436060880152614fd9565b5f858152600d60209081526040918290208a51918b01516fffffffffffffffffffffffffffffffff90811670010000000000000000000000000000000002921691909117815590890151600182015560608901516002820155608089015160039091015550600101614de5565b505050600c55509092915050565b73ffffffffffffffffffffffffffffffffffffffff83165f8181526005602090815260408083206fffffffffffffffffffffffffffffffff86168452825280832054938352600f82528083208484529091528120546150479060016155e0565b73ffffffffffffffffffffffffffffffffffffffff9095165f818152600f602090815260408083208684528252808320899055428882019081524360608a01908152858552600484528285208886528452828520546fffffffffffffffffffffffffffffffff90811660808c01908152968652600e85528386209886529784528285209a8552998352922087519790910151851670010000000000000000000000000000000002969094169590951783559351600183015550925160028401555051600390910155565b803573ffffffffffffffffffffffffffffffffffffffff81168114615134575f80fd5b919050565b5f60208284031215615149575f80fd5b611a9482615111565b80356fffffffffffffffffffffffffffffffff81168114615134575f80fd5b5f60208284031215615181575f80fd5b611a9482615152565b5f6020828403121561519a575f80fd5b5035919050565b5f80604083850312156151b2575f80fd5b6151bb83615111565b946020939093013593505050565b602081525f82518060208401528060208501604085015e5f6040828501015260407fffffffffffffffffffffffffffffffffffffffffffffffffffffffffffffffe0601f83011684010191505092915050565b5f805f6060848603121561522e575f80fd5b61523784615111565b92506020840135915061524c60408501615152565b90509250925092565b5f8060408385031215615266575f80fd5b61526f83615111565b915061527d60208401615152565b90509250929050565b5f8060408385031215615297575f80fd5b50508035926020909101359150565b7f4e487b71000000000000000000000000000000000000000000000000000000005f52604160045260245ffd5b5f82601f8301126152e2575f80fd5b813567ffffffffffffffff8111156152fc576152fc6152a6565b604051601f82017fffffffffffffffffffffffffffffffffffffffffffffffffffffffffffffffe0908116603f0116810167ffffffffffffffff81118282101715615349576153496152a6565b604052818152838201602001851015615360575f80fd5b816020850160208301375f918101602001919091529392505050565b5f805f805f60a08688031215615390575f80fd5b61539986615111565b94506153a760208701615111565b9350604086013567ffffffffffffffff8111156153c2575f80fd5b6153ce888289016152d3565b935050606086013567ffffffffffffffff8111156153ea575f80fd5b6153f6888289016152d3565b925050608086013567ffffffffffffffff811115615412575f80fd5b61541e888289016152d3565b9150509295509295909350565b5f805f6060848603121561543d575f80fd5b61544684615111565b95602085013595506040909401359392505050565b8035600f81900b8114615134575f80fd5b5f8082840360c081121561547e575f80fd5b60a081121561548b575f80fd5b5060405160a0810167ffffffffffffffff811182821017156154af576154af6152a6565b6040526154bb8461545b565b81526154c96020850161545b565b60208201526040848101359082015260608085013590820152608080850135908201529460a09093013593505050565b5f805f6060848603121561550b575f80fd5b61551484615111565b925061552260208501615152565b929592945050506040919091013590565b5f8060408385031215615544575f80fd5b8235915061527d60208401615152565b8015158114615561575f80fd5b50565b5f8060408385031215615575575f80fd5b61557e83615111565b9150602083013561558e81615554565b809150509250929050565b5f80604083850312156155aa575f80fd5b61526f83615152565b7f4e487b71000000000000000000000000000000000000000000000000000000005f52601160045260245ffd5b80820180821115610fdd57610fdd6155b3565b600181811c9082168061560757607f821691505b60208210810361563e577f4e487b71000000000000000000000000000000000000000000000000000000005f52602260045260245ffd5b50919050565b7f4e487b71000000000000000000000000000000000000000000000000000000005f52601260045260245ffd5b5f8261567f5761567f615644565b500490565b81810381811115610fdd57610fdd6155b3565b601f8211156156de57805f5260205f20601f840160051c810160208510156156bc5750805b601f840160051c820191505b818110156156db575f81556001016156c8565b50505b505050565b815167ffffffffffffffff8111156156fd576156fd6152a6565b6157118161570b84546155f3565b84615697565b6020601f821160018114615762575f831561572c5750848201515b7fffffffffffffffffffffffffffffffffffffffffffffffffffffffffffffffff600385901b1c1916600184901b1784556156db565b5f848152602081207fffffffffffffffffffffffffffffffffffffffffffffffffffffffffffffffe08516915b828110156157af578785015182556020948501946001909201910161578f565b50848210156157eb57868401517fffffffffffffffffffffffffffffffffffffffffffffffffffffffffffffffff600387901b60f8161c191681555b50505050600190811b01905550565b5f6020828403121561580a575f80fd5b815160ff81168114611a94575f80fd5b5f6020828403121561582a575f80fd5b8151611a9481615554565b8082028115828204841417610fdd57610fdd6155b3565b5f82600f0b82600f0b0280600f0b915080821461586b5761586b6155b3565b5092915050565b600f82810b9082900b037fffffffffffffffffffffffffffffffff8000000000000000000000000000000081126f7fffffffffffffffffffffffffffffff82131715610fdd57610fdd6155b3565b600f81810b9083900b016f7fffffffffffffffffffffffffffffff81137fffffffffffffffffffffffffffffffff8000000000000000000000000000000082121715610fdd57610fdd6155b3565b5f6fffffffffffffffffffffffffffffffff83168061592f5761592f615644565b806fffffffffffffffffffffffffffffffff84160491505092915050565b6fffffffffffffffffffffffffffffffff818116838216029081169081811461586b5761586b6155b3565b6fffffffffffffffffffffffffffffffff8181168382160190811115610fdd57610fdd6155b3565b60ff8181168382160190811115610fdd57610fdd6155b3565b6fffffffffffffffffffffffffffffffff8281168282160390811115610fdd57610fdd6155b3565b5f602082840312156159f1575f80fd5b5051919050565b60ff8281168282160390811115610fdd57610fdd6155b3565b5f81600f0b83600f0b80615a2757615a27615644565b7fffffffffffffffffffffffffffffffffffffffffffffffffffffffffffffffff81147fffffffffffffffffffffffffffffffff8000000000000000000000000000000083141615615a7b57615a7b6155b3565b9005939250505056fea264697066735822122071a07952806f7dfdaf26e72f15fde1c1dc128d274350406e7bc7331edbe1d01b64736f6c634300081a0033",
        "linkReferences": {}
    },
    "methodIdentifiers": {
        "MAXTIME_INT128()": "7aa9b556",
        "MAXTIME_UINT256()": "520221e9",
        "MAX_CONTRIBUTOR_LOCKS()": "2394c386",
        "MAX_USER_LOCKS()": "e7ee4b79",
        "MIN_LOCK_AMOUNT()": "dd764abf",
        "MULTIPLIER_UINT256()": "145925b6",
        "VOTE_WEIGHT_MULTIPLIER_INT128()": "fc26cf34",
        "VOTE_WEIGHT_MULTIPLIER_UINT256()": "fb2bc0b7",
        "WEEK_UINT128()": "7c10d93a",
        "WEEK_UINT256()": "4eb99c2d",
        "acceptTransferOwnership()": "7b371107",
        "activateEmergencyUnlock()": "d8399b7d",
        "admin()": "f851a440",
        "balanceOf(address)": "70a08231",
        "balanceOfAllLocksAtBlock(address,uint256)": "0e058678",
        "balanceOfAllLocksAtTime(address,uint256)": "8b2e014e",
        "balanceOfAt(address,uint256)": "4ee2cd7e",
        "balanceOfLockedPmx(address)": "02012997",
        "balanceOfOneLockAtBlock(address,uint128,uint256)": "e97d35ae",
        "balanceOfOneLockAtTime(address,uint128,uint256)": "890b4cfc",
        "checkpoint()": "c2c4c5c1",
        "commitTransferOwnership(address)": "e1cebf0b",
        "createLock(address,uint256,uint128)": "d41a4641",
        "decimals()": "313ce567",
        "depositFor(address,uint256,uint128)": "111aa399",
        "emergencyUnlockActive()": "f8946485",
        "epoch()": "900cf0cf",
        "findBlockEpoch(uint256,uint256)": "38dbff66",
        "findUserTimestampEpoch(address,uint256,uint256)": "5ae3afa7",
        "floxContributors(address)": "4fd9d1e0",
        "futureAdmin()": "4cb654af",
        "getCreateLockTsBounds()": "c67d526a",
        "getIncreaseUnlockTimeTsBounds(address,uint256)": "6e083e7f",
        "getLastGlobalPoint()": "d7214213",
        "getLastUserPoint(address,uint128)": "a15d874a",
        "getLastUserSlope(address,uint128)": "99e9c19b",
        "getLockIndexById(address,uint256)": "b0a0d799",
        "getUserPointAtEpoch(address,uint128,uint256)": "77bc368c",
        "increaseAmount(uint256,uint128)": "929edf45",
        "increaseUnlockTime(uint128,uint128)": "e13d7f98",
        "indicesToIds(address,uint128)": "5f96d4e7",
        "initialize(address,address,string,string,string)": "3f2f5ee2",
        "isLockCreatedByFloxContributor(address,uint256)": "0536a608",
        "isPaused()": "b187bd26",
        "locked(address,uint256)": "bf7bab73",
        "lockedById(address,uint256)": "50bb3fa4",
        "lockedByIdExtended(address,uint256)": "4957e892",
        "lockedByIndex(address,uint128)": "21c984e9",
        "lockedEnd(address,uint128)": "ed669886",
        "name()": "06fdde03",
        "nextId(address)": "46190ec4",
        "numLocks(address)": "b9ef0830",
        "numberOfFloxContributorCreatedLocks(address)": "3b9a760c",
        "numberOfUserCreatedLocks(address)": "87096bc0",
        "pointHistory(uint256)": "8ad4c447",
        "recoverIERC20(address,uint256)": "466003b2",
        "setFloxContributor(address,bool)": "c0525807",
        "setVePMXUtils(address)": "91c9f0a0",
        "slopeChanges(uint256)": "f52a36f7",
        "supply()": "047fc9aa",
        "supplyAt((int128,int128,uint256,uint256,uint256),uint256)": "4834d089",
        "symbol()": "95d89b41",
        "toggleContractPause()": "86f9c864",
        "token()": "fc0c546a",
        "totalPMXSupply()": "ed0600d9",
        "totalPMXSupplyAt(uint256)": "039eda01",
        "totalSupply()": "18160ddd",
        "totalSupply(uint256)": "bd85b039",
        "totalSupplyAt(uint256)": "981b24d0",
        "userPointEpoch(address,uint256)": "ee1f785b",
        "userPointHistory(address,uint256,uint256)": "4545304a",
        "userPointHistoryTs(address,uint128,uint256)": "53974fcf",
        "vePmxUtils()": "1354f127",
        "version()": "54fd4d50",
        "withdraw(uint128)": "02387a7b"
    },
    "id": 69
}