{
    "address": "0x6F984D17A32db3E21ed7964695694f0Ed61cB0bb",
    "abi": [
        {
            "type": "constructor",
            "inputs": [],
            "stateMutability": "nonpayable"
        },
        {
            "type": "function",
            "name": "acceptOwnership",
            "inputs": [],
            "outputs": [],
            "stateMutability": "nonpayable"
        },
        {
            "type": "function",
            "name": "addAddlVePMXContract",
            "inputs": [
                {
                    "name": "_addr",
                    "type": "address",
                    "internalType": "address"
                }
            ],
            "outputs": [],
            "stateMutability": "nonpayable"
        },
        {
            "type": "function",
            "name": "addlVeContracts",
            "inputs": [
                {
                    "name": "",
                    "type": "address",
                    "internalType": "address"
                }
            ],
            "outputs": [
                {
                    "name": "",
                    "type": "bool",
                    "internalType": "bool"
                }
            ],
            "stateMutability": "view"
        },
        {
            "type": "function",
            "name": "addlVeContractsArr",
            "inputs": [
                {
                    "name": "",
                    "type": "uint256",
                    "internalType": "uint256"
                }
            ],
            "outputs": [
                {
                    "name": "",
                    "type": "address",
                    "internalType": "address"
                }
            ],
            "stateMutability": "view"
        },
        {
            "type": "function",
            "name": "allAddlVeContractsAddresses",
            "inputs": [],
            "outputs": [
                {
                    "name": "_addresses",
                    "type": "address[]",
                    "internalType": "address[]"
                }
            ],
            "stateMutability": "view"
        },
        {
            "type": "function",
            "name": "allAddlVeContractsLength",
            "inputs": [],
            "outputs": [
                {
                    "name": "_length",
                    "type": "uint256",
                    "internalType": "uint256"
                }
            ],
            "stateMutability": "view"
        },
        {
            "type": "function",
            "name": "balanceOf",
            "inputs": [
                {
                    "name": "_addr",
                    "type": "address",
                    "internalType": "address"
                }
            ],
            "outputs": [
                {
                    "name": "_balance",
                    "type": "uint256",
                    "internalType": "uint256"
                }
            ],
            "stateMutability": "view"
        },
        {
            "type": "function",
            "name": "decimals",
            "inputs": [],
            "outputs": [
                {
                    "name": "",
                    "type": "uint256",
                    "internalType": "uint256"
                }
            ],
            "stateMutability": "view"
        },
        {
            "type": "function",
            "name": "fpisLocker",
            "inputs": [],
            "outputs": [
                {
                    "name": "",
                    "type": "address",
                    "internalType": "contract IFPISLocker"
                }
            ],
            "stateMutability": "view"
        },
        {
            "type": "function",
            "name": "getAllCurrActiveLocks",
            "inputs": [
                {
                    "name": "_account",
                    "type": "address",
                    "internalType": "address"
                },
                {
                    "name": "_estimateCrudeVePMX",
                    "type": "bool",
                    "internalType": "bool"
                }
            ],
            "outputs": [
                {
                    "name": "_currActiveLocks",
                    "type": "tuple[]",
                    "internalType": "struct IvePMXStructs.LockedBalanceExtendedV2[]",
                    "components": [
                        {
                            "name": "id",
                            "type": "uint256",
                            "internalType": "uint256"
                        },
                        {
                            "name": "index",
                            "type": "uint128",
                            "internalType": "uint128"
                        },
                        {
                            "name": "amount",
                            "type": "int128",
                            "internalType": "int128"
                        },
                        {
                            "name": "end",
                            "type": "uint128",
                            "internalType": "uint128"
                        },
                        {
                            "name": "location",
                            "type": "address",
                            "internalType": "address"
                        },
                        {
                            "name": "estimatedCurrLockVePMX",
                            "type": "uint256",
                            "internalType": "uint256"
                        }
                    ]
                }
            ],
            "stateMutability": "view"
        },
        {
            "type": "function",
            "name": "getAllExpiredLocks",
            "inputs": [
                {
                    "name": "_account",
                    "type": "address",
                    "internalType": "address"
                }
            ],
            "outputs": [
                {
                    "name": "_expiredLocks",
                    "type": "tuple[]",
                    "internalType": "struct IvePMXStructs.LockedBalanceExtendedV2[]",
                    "components": [
                        {
                            "name": "id",
                            "type": "uint256",
                            "internalType": "uint256"
                        },
                        {
                            "name": "index",
                            "type": "uint128",
                            "internalType": "uint128"
                        },
                        {
                            "name": "amount",
                            "type": "int128",
                            "internalType": "int128"
                        },
                        {
                            "name": "end",
                            "type": "uint128",
                            "internalType": "uint128"
                        },
                        {
                            "name": "location",
                            "type": "address",
                            "internalType": "address"
                        },
                        {
                            "name": "estimatedCurrLockVePMX",
                            "type": "uint256",
                            "internalType": "uint256"
                        }
                    ]
                }
            ],
            "stateMutability": "view"
        },
        {
            "type": "function",
            "name": "initialize",
            "inputs": [
                {
                    "name": "_owner",
                    "type": "address",
                    "internalType": "address"
                },
                {
                    "name": "_timelockAddress",
                    "type": "address",
                    "internalType": "address"
                },
                {
                    "name": "_veAddresses",
                    "type": "address[6]",
                    "internalType": "address[6]"
                }
            ],
            "outputs": [],
            "stateMutability": "nonpayable"
        },
        {
            "type": "function",
            "name": "l1VePMXTotalSupplyOracle",
            "inputs": [],
            "outputs": [
                {
                    "name": "",
                    "type": "address",
                    "internalType": "contract L1VePMXTotalSupplyOracle"
                }
            ],
            "stateMutability": "view"
        },
        {
            "type": "function",
            "name": "l1vePMX",
            "inputs": [],
            "outputs": [
                {
                    "name": "",
                    "type": "address",
                    "internalType": "contract IL1VePMX"
                }
            ],
            "stateMutability": "view"
        },
        {
            "type": "function",
            "name": "lFpisUtils",
            "inputs": [],
            "outputs": [
                {
                    "name": "",
                    "type": "address",
                    "internalType": "contract FPISLockerUtils"
                }
            ],
            "stateMutability": "view"
        },
        {
            "type": "function",
            "name": "name",
            "inputs": [],
            "outputs": [
                {
                    "name": "",
                    "type": "string",
                    "internalType": "string"
                }
            ],
            "stateMutability": "view"
        },
        {
            "type": "function",
            "name": "nominateNewOwner",
            "inputs": [
                {
                    "name": "_owner",
                    "type": "address",
                    "internalType": "address"
                }
            ],
            "outputs": [],
            "stateMutability": "nonpayable"
        },
        {
            "type": "function",
            "name": "nominatedOwner",
            "inputs": [],
            "outputs": [
                {
                    "name": "",
                    "type": "address",
                    "internalType": "address"
                }
            ],
            "stateMutability": "view"
        },
        {
            "type": "function",
            "name": "owner",
            "inputs": [],
            "outputs": [
                {
                    "name": "",
                    "type": "address",
                    "internalType": "address"
                }
            ],
            "stateMutability": "view"
        },
        {
            "type": "function",
            "name": "recoverERC20",
            "inputs": [
                {
                    "name": "_tokenAddress",
                    "type": "address",
                    "internalType": "address"
                },
                {
                    "name": "_tokenAmount",
                    "type": "uint256",
                    "internalType": "uint256"
                }
            ],
            "outputs": [],
            "stateMutability": "nonpayable"
        },
        {
            "type": "function",
            "name": "removeAddlVePMXContract",
            "inputs": [
                {
                    "name": "_addr",
                    "type": "address",
                    "internalType": "address"
                }
            ],
            "outputs": [],
            "stateMutability": "nonpayable"
        },
        {
            "type": "function",
            "name": "setAddresses",
            "inputs": [
                {
                    "name": "_veAddresses",
                    "type": "address[6]",
                    "internalType": "address[6]"
                }
            ],
            "outputs": [],
            "stateMutability": "nonpayable"
        },
        {
            "type": "function",
            "name": "setTimelock",
            "inputs": [
                {
                    "name": "_newTimelock",
                    "type": "address",
                    "internalType": "address"
                }
            ],
            "outputs": [],
            "stateMutability": "nonpayable"
        },
        {
            "type": "function",
            "name": "symbol",
            "inputs": [],
            "outputs": [
                {
                    "name": "",
                    "type": "string",
                    "internalType": "string"
                }
            ],
            "stateMutability": "view"
        },
        {
            "type": "function",
            "name": "timelockAddress",
            "inputs": [],
            "outputs": [
                {
                    "name": "",
                    "type": "address",
                    "internalType": "address"
                }
            ],
            "stateMutability": "view"
        },
        {
            "type": "function",
            "name": "ttlCombinedVePMX",
            "inputs": [
                {
                    "name": "_user",
                    "type": "address",
                    "internalType": "address"
                }
            ],
            "outputs": [
                {
                    "name": "_currBal",
                    "type": "uint256",
                    "internalType": "uint256"
                }
            ],
            "stateMutability": "view"
        },
        {
            "type": "function",
            "name": "ttlCombinedVePMXTotalSupply",
            "inputs": [],
            "outputs": [
                {
                    "name": "_totalSupply",
                    "type": "uint256",
                    "internalType": "uint256"
                }
            ],
            "stateMutability": "view"
        },
        {
            "type": "function",
            "name": "ttlCombinedVePMXTotalSupplyDetailed",
            "inputs": [],
            "outputs": [
                {
                    "name": "_supplyInfo",
                    "type": "tuple",
                    "internalType": "struct VePMXAggregator.DetailedTotalSupplyInfo",
                    "components": [
                        {
                            "name": "vestedPMXTotal",
                            "type": "uint256",
                            "internalType": "uint256"
                        },
                        {
                            "name": "fpisLockerTotal",
                            "type": "uint256",
                            "internalType": "uint256"
                        },
                        {
                            "name": "l1vePMXTotal",
                            "type": "uint256",
                            "internalType": "uint256"
                        },
                        {
                            "name": "otherSourcesTotal",
                            "type": "uint256",
                            "internalType": "uint256"
                        },
                        {
                            "name": "grandTotal",
                            "type": "uint256",
                            "internalType": "uint256"
                        }
                    ]
                }
            ],
            "stateMutability": "view"
        },
        {
            "type": "function",
            "name": "vePMX",
            "inputs": [],
            "outputs": [
                {
                    "name": "",
                    "type": "address",
                    "internalType": "contract IVestedPMX"
                }
            ],
            "stateMutability": "view"
        },
        {
            "type": "function",
            "name": "vePMXUtils",
            "inputs": [],
            "outputs": [
                {
                    "name": "",
                    "type": "address",
                    "internalType": "contract IVestedPMXUtils"
                }
            ],
            "stateMutability": "view"
        },
        {
            "type": "event",
            "name": "AddlVePMXContractAdded",
            "inputs": [
                {
                    "name": "addr",
                    "type": "address",
                    "indexed": false,
                    "internalType": "address"
                }
            ],
            "anonymous": false
        },
        {
            "type": "event",
            "name": "AddlVePMXContractRemoved",
            "inputs": [
                {
                    "name": "addr",
                    "type": "address",
                    "indexed": false,
                    "internalType": "address"
                }
            ],
            "anonymous": false
        },
        {
            "type": "event",
            "name": "DefaultInitialization",
            "inputs": [],
            "anonymous": false
        },
        {
            "type": "event",
            "name": "OwnerChanged",
            "inputs": [
                {
                    "name": "oldOwner",
                    "type": "address",
                    "indexed": false,
                    "internalType": "address"
                },
                {
                    "name": "newOwner",
                    "type": "address",
                    "indexed": false,
                    "internalType": "address"
                }
            ],
            "anonymous": false
        },
        {
            "type": "event",
            "name": "OwnerNominated",
            "inputs": [
                {
                    "name": "newOwner",
                    "type": "address",
                    "indexed": false,
                    "internalType": "address"
                }
            ],
            "anonymous": false
        },
        {
            "type": "event",
            "name": "RecoveredERC20",
            "inputs": [
                {
                    "name": "token",
                    "type": "address",
                    "indexed": false,
                    "internalType": "address"
                },
                {
                    "name": "amount",
                    "type": "uint256",
                    "indexed": false,
                    "internalType": "uint256"
                }
            ],
            "anonymous": false
        },
        {
            "type": "event",
            "name": "RewardAdded",
            "inputs": [
                {
                    "name": "reward",
                    "type": "uint256",
                    "indexed": false,
                    "internalType": "uint256"
                },
                {
                    "name": "yieldRate",
                    "type": "uint256",
                    "indexed": false,
                    "internalType": "uint256"
                }
            ],
            "anonymous": false
        },
        {
            "type": "event",
            "name": "TimelockChanged",
            "inputs": [
                {
                    "name": "timelock_address",
                    "type": "address",
                    "indexed": false,
                    "internalType": "address"
                }
            ],
            "anonymous": false
        },
        {
            "type": "event",
            "name": "YieldCollected",
            "inputs": [
                {
                    "name": "user",
                    "type": "address",
                    "indexed": true,
                    "internalType": "address"
                },
                {
                    "name": "yield",
                    "type": "uint256",
                    "indexed": false,
                    "internalType": "uint256"
                },
                {
                    "name": "tokenAddress",
                    "type": "address",
                    "indexed": false,
                    "internalType": "address"
                }
            ],
            "anonymous": false
        },
        {
            "type": "event",
            "name": "YieldDurationUpdated",
            "inputs": [
                {
                    "name": "newDuration",
                    "type": "uint256",
                    "indexed": false,
                    "internalType": "uint256"
                }
            ],
            "anonymous": false
        },
        {
            "type": "error",
            "name": "InitializeFailed",
            "inputs": []
        },
        {
            "type": "error",
            "name": "InvalidOwnershipAcceptance",
            "inputs": []
        },
        {
            "type": "error",
            "name": "NotOwnerOrTimelock",
            "inputs": []
        },
        {
            "type": "error",
            "name": "OnlyOwner",
            "inputs": []
        },
        {
            "type": "error",
            "name": "OwnerCannotBeZero",
            "inputs": []
        },
        {
            "type": "error",
            "name": "TransferHelperTransferFailed",
            "inputs": []
        }
    ],
    "bytecode": {
        "object": "0x6080604052348015600e575f80fd5b505f80546001600160a01b0319163390811782556040805192835260208301919091527fb532073b38c83145e3e5135377a08bf9aab55bc0fd7c1179cd4fb995d2a5159c910160405180910390a16145b8806100695f395ff3fe608060405234801561000f575f80fd5b50600436106101d1575f3560e01c80638980f11f116100fe578063bdacb3031161009e578063e09a76231161006e578063e09a7623146104ab578063ea9ea1b2146104f4578063f4ebfcae14610509578063f868139b14610529575f80fd5b8063bdacb30314610475578063c0f456bd14610488578063c12fa66b14610490578063c906fbb9146104a3575f80fd5b806395d89b41116100d957806395d89b41146103f65780639aeb7e9e1461042f578063a6bffe7b14610442578063b462340914610455575f80fd5b80638980f11f146103a45780638da5cb5b146103b757806394908f2b146103d6575f80fd5b806353a47bb7116101745780637873fae6116101445780637873fae61461033c57806379ba50971461035c5780637eb1554e146103645780638619261f14610384575f80fd5b806353a47bb7146102e3578063576221561461030357806370a08231146103165780637351bf9614610329575f80fd5b80631627540c116101af5780631627540c146102485780632f9b12f81461025b578063313ce5671461028d5780634bc66f321461029e575f80fd5b806303d8477f146101d557806306fdde03146101ea5780630c3facc614610235575b5f80fd5b6101e86101e3366004613dd5565b610549565b005b60408051808201909152600a81527f56657374656420504d580000000000000000000000000000000000000000000060208201525b60405161022c9190613df4565b60405180910390f35b6101e8610243366004613e68565b610bf9565b6101e8610256366004613e68565b61120b565b61027d610269366004613e68565b600a6020525f908152604090205460ff1681565b604051901515815260200161022c565b60125b60405190815260200161022c565b6008546102be9073ffffffffffffffffffffffffffffffffffffffff1681565b60405173ffffffffffffffffffffffffffffffffffffffff909116815260200161022c565b6001546102be9073ffffffffffffffffffffffffffffffffffffffff1681565b6102be610311366004613e8a565b6112ce565b610290610324366004613e68565b611303565b6101e8610337366004613f46565b611313565b6003546102be9073ffffffffffffffffffffffffffffffffffffffff1681565b6101e8611524565b610377610372366004613fe1565b611617565b60405161022c9190614018565b6004546102be9073ffffffffffffffffffffffffffffffffffffffff1681565b6101e86103b23660046140d1565b612538565b5f546102be9073ffffffffffffffffffffffffffffffffffffffff1681565b6007546102be9073ffffffffffffffffffffffffffffffffffffffff1681565b60408051808201909152600581527f7665504d58000000000000000000000000000000000000000000000000000000602082015261021f565b6101e861043d366004613e68565b612625565b610377610450366004613e68565b6128fd565b6005546102be9073ffffffffffffffffffffffffffffffffffffffff1681565b6101e8610483366004613e68565b613496565b600954610290565b61029061049e366004613e68565b61357f565b6102906138a8565b6104b36138bc565b60405161022c91905f60a082019050825182526020830151602083015260408301516040830152606083015160608301526080830151608083015292915050565b6104fc613c28565b60405161022c91906140fb565b6002546102be9073ffffffffffffffffffffffffffffffffffffffff1681565b6006546102be9073ffffffffffffffffffffffffffffffffffffffff1681565b5f5473ffffffffffffffffffffffffffffffffffffffff163314801590610588575060085473ffffffffffffffffffffffffffffffffffffffff163314155b156105bf576040517ffee4291a00000000000000000000000000000000000000000000000000000000815260040160405180910390fd5b5f6105cd6020830183613e68565b73ffffffffffffffffffffffffffffffffffffffff160361064f576040517f08c379a000000000000000000000000000000000000000000000000000000000815260206004820152601560248201527f7665504d58206d757374206e6f7420626520307830000000000000000000000060448201526064015b60405180910390fd5b5f6106606040830160208401613e68565b73ffffffffffffffffffffffffffffffffffffffff16036106dd576040517f08c379a000000000000000000000000000000000000000000000000000000000815260206004820152601a60248201527f7665504d585574696c73206d757374206e6f74206265203078300000000000006044820152606401610646565b5f6106ee6060830160408401613e68565b73ffffffffffffffffffffffffffffffffffffffff160361076b576040517f08c379a000000000000000000000000000000000000000000000000000000000815260206004820152601a60248201527f465049534c6f636b6572206d757374206e6f74206265203078300000000000006044820152606401610646565b5f61077c6080830160608401613e68565b73ffffffffffffffffffffffffffffffffffffffff16036107f9576040517f08c379a000000000000000000000000000000000000000000000000000000000815260206004820152601f60248201527f465049534c6f636b65725574696c73206d757374206e6f7420626520307830006044820152606401610646565b5f61080a60a0830160808401613e68565b73ffffffffffffffffffffffffffffffffffffffff1603610887576040517f08c379a000000000000000000000000000000000000000000000000000000000815260206004820152601760248201527f4c315665504d58206d757374206e6f74206265203078300000000000000000006044820152606401610646565b5f61089860c0830160a08401613e68565b73ffffffffffffffffffffffffffffffffffffffff160361093b576040517f08c379a000000000000000000000000000000000000000000000000000000000815260206004820152602860248201527f4c315665504d58546f74616c537570706c794f7261636c65206d757374206e6f60448201527f74206265203078300000000000000000000000000000000000000000000000006064820152608401610646565b6109486020820182613e68565b600280547fffffffffffffffffffffffff00000000000000000000000000000000000000001673ffffffffffffffffffffffffffffffffffffffff9290921691909117905561099d6040820160208301613e68565b600580547fffffffffffffffffffffffff00000000000000000000000000000000000000001673ffffffffffffffffffffffffffffffffffffffff929092169190911790555f6109f36060830160408401613e68565b73ffffffffffffffffffffffffffffffffffffffff1614158015610a3c57505f610a236080830160608401613e68565b73ffffffffffffffffffffffffffffffffffffffff1614155b15610aec57610a516060820160408301613e68565b600380547fffffffffffffffffffffffff00000000000000000000000000000000000000001673ffffffffffffffffffffffffffffffffffffffff92909216919091179055610aa66080820160608301613e68565b600680547fffffffffffffffffffffffff00000000000000000000000000000000000000001673ffffffffffffffffffffffffffffffffffffffff929092169190911790555b5f610afd60a0830160808401613e68565b73ffffffffffffffffffffffffffffffffffffffff1614158015610b4657505f610b2d60c0830160a08401613e68565b73ffffffffffffffffffffffffffffffffffffffff1614155b15610bf657610b5b60a0820160808301613e68565b600480547fffffffffffffffffffffffff00000000000000000000000000000000000000001673ffffffffffffffffffffffffffffffffffffffff92909216919091179055610bb060c0820160a08301613e68565b600780547fffffffffffffffffffffffff00000000000000000000000000000000000000001673ffffffffffffffffffffffffffffffffffffffff929092169190911790555b50565b5f5473ffffffffffffffffffffffffffffffffffffffff163314801590610c38575060085473ffffffffffffffffffffffffffffffffffffffff163314155b15610c6f576040517ffee4291a00000000000000000000000000000000000000000000000000000000815260040160405180910390fd5b73ffffffffffffffffffffffffffffffffffffffff8116610cec576040517f08c379a000000000000000000000000000000000000000000000000000000000815260206004820152601560248201527f5a65726f206164647265737320646574656374656400000000000000000000006044820152606401610646565b8073ffffffffffffffffffffffffffffffffffffffff166318160ddd6040518163ffffffff1660e01b8152600401602060405180830381865afa158015610d35573d5f803e3d5ffd5b505050506040513d601f19601f82011682018060405250810190610d599190614175565b506040517f70a082310000000000000000000000000000000000000000000000000000000081525f600482015273ffffffffffffffffffffffffffffffffffffffff8216906370a0823190602401602060405180830381865afa158015610dc2573d5f803e3d5ffd5b505050506040513d601f19601f82011682018060405250810190610de69190614175565b506040517fb9ef08300000000000000000000000000000000000000000000000000000000081525f600482015273ffffffffffffffffffffffffffffffffffffffff82169063b9ef083090602401602060405180830381865afa158015610e4f573d5f803e3d5ffd5b505050506040513d601f19601f82011682018060405250810190610e7391906141b0565b508073ffffffffffffffffffffffffffffffffffffffff16631354f1276040518163ffffffff1660e01b8152600401602060405180830381865afa158015610ebd573d5f803e3d5ffd5b505050506040513d601f19601f82011682018060405250810190610ee191906141d4565b6040517f3c5933120000000000000000000000000000000000000000000000000000000081525f600482015273ffffffffffffffffffffffffffffffffffffffff9190911690633c593312906024015f60405180830381865afa158015610f4a573d5f803e3d5ffd5b505050506040513d5f823e601f3d9081017fffffffffffffffffffffffffffffffffffffffffffffffffffffffffffffffe0168201604052610f8f919081019061433f565b508073ffffffffffffffffffffffffffffffffffffffff16631354f1276040518163ffffffff1660e01b8152600401602060405180830381865afa158015610fd9573d5f803e3d5ffd5b505050506040513d601f19601f82011682018060405250810190610ffd91906141d4565b6040517fba12f878000000000000000000000000000000000000000000000000000000008152670de0b6b3a7640000600482015262093a80602482015273ffffffffffffffffffffffffffffffffffffffff919091169063ba12f87890604401602060405180830381865afa158015611078573d5f803e3d5ffd5b505050506040513d601f19601f8201168201806040525081019061109c9190614175565b5073ffffffffffffffffffffffffffffffffffffffff81165f908152600a602052604090205460ff161561112c576040517f08c379a000000000000000000000000000000000000000000000000000000000815260206004820152601660248201527f4164647265737320616c726561647920657869737473000000000000000000006044820152606401610646565b73ffffffffffffffffffffffffffffffffffffffff81165f818152600a6020908152604080832080547fffffffffffffffffffffffffffffffffffffffffffffffffffffffffffffff001660019081179091556009805491820181559093527f6e1540171b6c0c960b71a7020d9f60077f6af931a8bbf590da0223dacf75c7af90920180547fffffffffffffffffffffffff0000000000000000000000000000000000000000168417905590519182527f6bc0d2b70a4ba1f38aea9b58e496945a89a69279e6e212f6cb6de6478ffad08b91015b60405180910390a150565b5f5473ffffffffffffffffffffffffffffffffffffffff16331461125b576040517f5fc483c500000000000000000000000000000000000000000000000000000000815260040160405180910390fd5b600180547fffffffffffffffffffffffff00000000000000000000000000000000000000001673ffffffffffffffffffffffffffffffffffffffff83169081179091556040519081527f906a1c6bd7e3091ea86693dd029a831c19049ce77f1dce2ce0bab1cacbabce2290602001611200565b600981815481106112dd575f80fd5b5f9182526020909120015473ffffffffffffffffffffffffffffffffffffffff16905081565b5f61130d8261357f565b92915050565b600b5460ff1615611350576040517fd08e7ac200000000000000000000000000000000000000000000000000000000815260040160405180910390fd5b5f805473ffffffffffffffffffffffffffffffffffffffff8581167fffffffffffffffffffffffff000000000000000000000000000000000000000092831617909255600880548584169083161790558251600280548316918416919091179055602083015160058054909216908316179055604082015116158015906113f05750606081015173ffffffffffffffffffffffffffffffffffffffff1615155b156114515760408101516003805473ffffffffffffffffffffffffffffffffffffffff9283167fffffffffffffffffffffffff0000000000000000000000000000000000000000918216179091556060830151600680549190931691161790555b608081015173ffffffffffffffffffffffffffffffffffffffff1615801590611493575060a081015173ffffffffffffffffffffffffffffffffffffffff1615155b156114f45760808101516004805473ffffffffffffffffffffffffffffffffffffffff9283167fffffffffffffffffffffffff00000000000000000000000000000000000000009182161790915560a0830151600780549190931691161790555b5050600b80547fffffffffffffffffffffffffffffffffffffffffffffffffffffffffffffff0016600117905550565b60015473ffffffffffffffffffffffffffffffffffffffff163314611575576040517fd74b334e00000000000000000000000000000000000000000000000000000000815260040160405180910390fd5b5f546001546040805173ffffffffffffffffffffffffffffffffffffffff93841681529290911660208301527fb532073b38c83145e3e5135377a08bf9aab55bc0fd7c1179cd4fb995d2a5159c910160405180910390a1600180545f80547fffffffffffffffffffffffff000000000000000000000000000000000000000090811673ffffffffffffffffffffffffffffffffffffffff841617909155169055565b6002546040517fb9ef083000000000000000000000000000000000000000000000000000000000815273ffffffffffffffffffffffffffffffffffffffff84811660048301526060925f9291169063b9ef083090602401602060405180830381865afa158015611689573d5f803e3d5ffd5b505050506040513d601f19601f820116820180604052508101906116ad91906141b0565b6003546fffffffffffffffffffffffffffffffff91909116915073ffffffffffffffffffffffffffffffffffffffff1615611793576003546040517fb9ef083000000000000000000000000000000000000000000000000000000000815273ffffffffffffffffffffffffffffffffffffffff86811660048301529091169063b9ef083090602401602060405180830381865afa158015611750573d5f803e3d5ffd5b505050506040513d601f19601f8201168201806040525081019061177491906141b0565b611790906fffffffffffffffffffffffffffffffff168261445c565b90505b60045473ffffffffffffffffffffffffffffffffffffffff16158015906117d1575060075473ffffffffffffffffffffffffffffffffffffffff1615155b156117e4576117e160018261445c565b90505b5f5b6009548110156118e3575f6009828154811061180457611804614148565b5f9182526020909120015473ffffffffffffffffffffffffffffffffffffffff16905080156118da576040517fb9ef083000000000000000000000000000000000000000000000000000000000815273ffffffffffffffffffffffffffffffffffffffff878116600483015282169063b9ef083090602401602060405180830381865afa158015611897573d5f803e3d5ffd5b505050506040513d601f19601f820116820180604052508101906118bb91906141b0565b6118d7906fffffffffffffffffffffffffffffffff168461445c565b92505b506001016117e6565b505f808267ffffffffffffffff8111156118ff576118ff613ea1565b60405190808252806020026020018201604052801561197c57816020015b6040805160c0810182525f8082526020808301829052928201819052606082018190526080820181905260a082015282527fffffffffffffffffffffffffffffffffffffffffffffffffffffffffffffffff90920191018161191d5790505b506005546040517f3c59331200000000000000000000000000000000000000000000000000000000815273ffffffffffffffffffffffffffffffffffffffff89811660048301529293505f9290911690633c593312906024015f60405180830381865afa1580156119ef573d5f803e3d5ffd5b505050506040513d5f823e601f3d9081017fffffffffffffffffffffffffffffffffffffffffffffffffffffffffffffffe0168201604052611a34919081019061433f565b6060015190505f5b8151811015611c04575f828281518110611a5857611a58614148565b602002602001015190505f8815611b34576005546040830151606084015173ffffffffffffffffffffffffffffffffffffffff9092169163ba12f8789190611aa190429061446f565b6040517fffffffff0000000000000000000000000000000000000000000000000000000060e085901b168152600f9290920b60048301526fffffffffffffffffffffffffffffffff166024820152604401602060405180830381865afa158015611b0d573d5f803e3d5ffd5b505050506040513d601f19601f82011682018060405250810190611b319190614175565b90505b6040518060c00160405280835f0151815260200183602001516fffffffffffffffffffffffffffffffff1681526020018360400151600f0b815260200183606001516fffffffffffffffffffffffffffffffff16815260200160025f9054906101000a900473ffffffffffffffffffffffffffffffffffffffff1673ffffffffffffffffffffffffffffffffffffffff16815260200182815250858781518110611be057611be0614148565b602002602001018190525085611bf590614497565b95508260010192505050611a3c565b505060035473ffffffffffffffffffffffffffffffffffffffff1615611ea9576006546040517f3c59331200000000000000000000000000000000000000000000000000000000815273ffffffffffffffffffffffffffffffffffffffff88811660048301525f921690633c593312906024015f60405180830381865afa158015611c91573d5f803e3d5ffd5b505050506040513d5f823e601f3d9081017fffffffffffffffffffffffffffffffffffffffffffffffffffffffffffffffe0168201604052611cd6919081019061433f565b6060015190505f5b8151811015611ea6575f828281518110611cfa57611cfa614148565b602002602001015190505f8815611dd6576006546040830151606084015173ffffffffffffffffffffffffffffffffffffffff90921691630e5f6d5d9190611d4390429061446f565b6040517fffffffff0000000000000000000000000000000000000000000000000000000060e085901b168152600f9290920b60048301526fffffffffffffffffffffffffffffffff166024820152604401602060405180830381865afa158015611daf573d5f803e3d5ffd5b505050506040513d601f19601f82011682018060405250810190611dd39190614175565b90505b6040518060c00160405280835f0151815260200183602001516fffffffffffffffffffffffffffffffff1681526020018360400151600f0b815260200183606001516fffffffffffffffffffffffffffffffff16815260200160035f9054906101000a900473ffffffffffffffffffffffffffffffffffffffff1673ffffffffffffffffffffffffffffffffffffffff16815260200182815250858781518110611e8257611e82614148565b602002602001018190525085611e9790614497565b95508260010192505050611cde565b50505b60045473ffffffffffffffffffffffffffffffffffffffff1615801590611ee7575060075473ffffffffffffffffffffffffffffffffffffffff1615155b156120c357600480546040517fcbf9fe5f00000000000000000000000000000000000000000000000000000000815273ffffffffffffffffffffffffffffffffffffffff898116938201939093525f929091169063cbf9fe5f90602401606060405180830381865afa158015611f5f573d5f803e3d5ffd5b505050506040513d601f19601f82011682018060405250810190611f8391906144e5565b905042816020015167ffffffffffffffff1611156120c1575f861561203957600480546040517f70a0823100000000000000000000000000000000000000000000000000000000815273ffffffffffffffffffffffffffffffffffffffff8b8116938201939093529116906370a0823190602401602060405180830381865afa158015612012573d5f803e3d5ffd5b505050506040513d601f19601f820116820180604052508101906120369190614175565b90505b6040805160c0810182525f8082526020808301919091528451600f0b928201929092529083015167ffffffffffffffff16606082015260045473ffffffffffffffffffffffffffffffffffffffff16608082015260a0810182905283518490869081106120a8576120a8614148565b6020026020010181905250836120bd90614497565b9350505b505b5f5b60095481101561244a575f600982815481106120e3576120e3614148565b5f9182526020909120015473ffffffffffffffffffffffffffffffffffffffff1690508015612441575f8173ffffffffffffffffffffffffffffffffffffffff16631354f1276040518163ffffffff1660e01b8152600401602060405180830381865afa158015612156573d5f803e3d5ffd5b505050506040513d601f19601f8201168201806040525081019061217a91906141d4565b6040517f3c59331200000000000000000000000000000000000000000000000000000000815273ffffffffffffffffffffffffffffffffffffffff8b811660048301529190911690633c593312906024015f60405180830381865afa1580156121e5573d5f803e3d5ffd5b505050506040513d5f823e601f3d9081017fffffffffffffffffffffffffffffffffffffffffffffffffffffffffffffffe016820160405261222a919081019061433f565b6060015190505f5b815181101561243e575f82828151811061224e5761224e614148565b602002602001015190505f8a1561238f578473ffffffffffffffffffffffffffffffffffffffff16631354f1276040518163ffffffff1660e01b8152600401602060405180830381865afa1580156122a8573d5f803e3d5ffd5b505050506040513d601f19601f820116820180604052508101906122cc91906141d4565b73ffffffffffffffffffffffffffffffffffffffff1663ba12f87883604001514285606001516122fc919061446f565b6040517fffffffff0000000000000000000000000000000000000000000000000000000060e085901b168152600f9290920b60048301526fffffffffffffffffffffffffffffffff166024820152604401602060405180830381865afa158015612368573d5f803e3d5ffd5b505050506040513d601f19601f8201168201806040525081019061238c9190614175565b90505b6040518060c00160405280835f0151815260200183602001516fffffffffffffffffffffffffffffffff1681526020018360400151600f0b815260200183606001516fffffffffffffffffffffffffffffffff1681526020018673ffffffffffffffffffffffffffffffffffffffff1681526020018281525087898151811061241a5761241a614148565b60200260200101819052508761242f90614497565b97508260010192505050612232565b50505b506001016120c5565b508167ffffffffffffffff81111561246457612464613ea1565b6040519080825280602002602001820160405280156124e157816020015b6040805160c0810182525f8082526020808301829052928201819052606082018190526080820181905260a082015282527fffffffffffffffffffffffffffffffffffffffffffffffffffffffffffffffff9092019101816124825790505b5093505f5b845181101561252e5781818151811061250157612501614148565b602002602001015185828151811061251b5761251b614148565b60209081029190910101526001016124e6565b5050505092915050565b5f5473ffffffffffffffffffffffffffffffffffffffff163314801590612577575060085473ffffffffffffffffffffffffffffffffffffffff163314155b156125ae576040517ffee4291a00000000000000000000000000000000000000000000000000000000815260040160405180910390fd5b5f546125d290839073ffffffffffffffffffffffffffffffffffffffff1683613c95565b6040805173ffffffffffffffffffffffffffffffffffffffff84168152602081018390527f55350610fe57096d8c0ffa30beede987326bccfcb0b4415804164d0dd50ce8b1910160405180910390a15050565b5f5473ffffffffffffffffffffffffffffffffffffffff163314801590612664575060085473ffffffffffffffffffffffffffffffffffffffff163314155b1561269b576040517ffee4291a00000000000000000000000000000000000000000000000000000000815260040160405180910390fd5b73ffffffffffffffffffffffffffffffffffffffff8116612718576040517f08c379a000000000000000000000000000000000000000000000000000000000815260206004820152601560248201527f5a65726f206164647265737320646574656374656400000000000000000000006044820152606401610646565b73ffffffffffffffffffffffffffffffffffffffff81165f908152600a602052604090205460ff1615156001146127ab576040517f08c379a000000000000000000000000000000000000000000000000000000000815260206004820152601360248201527f41646472657373206e6f6e6578697374656e74000000000000000000000000006044820152606401610646565b73ffffffffffffffffffffffffffffffffffffffff81165f908152600a6020526040812080547fffffffffffffffffffffffffffffffffffffffffffffffffffffffffffffff001690555b6009548110156128b6578173ffffffffffffffffffffffffffffffffffffffff166009828154811061282a5761282a614148565b5f9182526020909120015473ffffffffffffffffffffffffffffffffffffffff16036128ae575f6009828154811061286457612864614148565b905f5260205f20015f6101000a81548173ffffffffffffffffffffffffffffffffffffffff021916908373ffffffffffffffffffffffffffffffffffffffff1602179055506128b6565b6001016127f6565b5060405173ffffffffffffffffffffffffffffffffffffffff821681527f8b694915bdaaf8611c716268b6dfe4db12cd0e2b00906647f31b3df1969e903090602001611200565b6002546040517fb9ef083000000000000000000000000000000000000000000000000000000000815273ffffffffffffffffffffffffffffffffffffffff83811660048301526060925f9291169063b9ef083090602401602060405180830381865afa15801561296f573d5f803e3d5ffd5b505050506040513d601f19601f8201168201806040525081019061299391906141b0565b6003546fffffffffffffffffffffffffffffffff91909116915073ffffffffffffffffffffffffffffffffffffffff1615612a79576003546040517fb9ef083000000000000000000000000000000000000000000000000000000000815273ffffffffffffffffffffffffffffffffffffffff85811660048301529091169063b9ef083090602401602060405180830381865afa158015612a36573d5f803e3d5ffd5b505050506040513d601f19601f82011682018060405250810190612a5a91906141b0565b612a76906fffffffffffffffffffffffffffffffff168261445c565b90505b60045473ffffffffffffffffffffffffffffffffffffffff1615801590612ab7575060075473ffffffffffffffffffffffffffffffffffffffff1615155b15612aca57612ac760018261445c565b90505b5f5b600954811015612bc9575f60098281548110612aea57612aea614148565b5f9182526020909120015473ffffffffffffffffffffffffffffffffffffffff1690508015612bc0576040517fb9ef083000000000000000000000000000000000000000000000000000000000815273ffffffffffffffffffffffffffffffffffffffff868116600483015282169063b9ef083090602401602060405180830381865afa158015612b7d573d5f803e3d5ffd5b505050506040513d601f19601f82011682018060405250810190612ba191906141b0565b612bbd906fffffffffffffffffffffffffffffffff168461445c565b92505b50600101612acc565b505f808267ffffffffffffffff811115612be557612be5613ea1565b604051908082528060200260200182016040528015612c6257816020015b6040805160c0810182525f8082526020808301829052928201819052606082018190526080820181905260a082015282527fffffffffffffffffffffffffffffffffffffffffffffffffffffffffffffffff909201910181612c035790505b506005546040517f3c59331200000000000000000000000000000000000000000000000000000000815273ffffffffffffffffffffffffffffffffffffffff88811660048301529293505f9290911690633c593312906024015f60405180830381865afa158015612cd5573d5f803e3d5ffd5b505050506040513d5f823e601f3d9081017fffffffffffffffffffffffffffffffffffffffffffffffffffffffffffffffe0168201604052612d1a919081019061433f565b6080015190505f5b8151811015612e14575f828281518110612d3e57612d3e614148565b602002602001015190506040518060c00160405280825f0151815260200182602001516fffffffffffffffffffffffffffffffff1681526020018260400151600f0b815260200182606001516fffffffffffffffffffffffffffffffff16815260200160025f9054906101000a900473ffffffffffffffffffffffffffffffffffffffff1673ffffffffffffffffffffffffffffffffffffffff1681526020015f815250848681518110612df457612df4614148565b602002602001018190525084612e0990614497565b945050600101612d22565b505060035473ffffffffffffffffffffffffffffffffffffffff1615612fe3576006546040517f3c59331200000000000000000000000000000000000000000000000000000000815273ffffffffffffffffffffffffffffffffffffffff87811660048301525f921690633c593312906024015f60405180830381865afa158015612ea1573d5f803e3d5ffd5b505050506040513d5f823e601f3d9081017fffffffffffffffffffffffffffffffffffffffffffffffffffffffffffffffe0168201604052612ee6919081019061433f565b6080015190505f5b8151811015612fe0575f828281518110612f0a57612f0a614148565b602002602001015190506040518060c00160405280825f0151815260200182602001516fffffffffffffffffffffffffffffffff1681526020018260400151600f0b815260200182606001516fffffffffffffffffffffffffffffffff16815260200160035f9054906101000a900473ffffffffffffffffffffffffffffffffffffffff1673ffffffffffffffffffffffffffffffffffffffff1681526020015f815250848681518110612fc057612fc0614148565b602002602001018190525084612fd590614497565b945050600101612eee565b50505b60045473ffffffffffffffffffffffffffffffffffffffff1615801590613021575060075473ffffffffffffffffffffffffffffffffffffffff1615155b1561315d57600480546040517fcbf9fe5f00000000000000000000000000000000000000000000000000000000815273ffffffffffffffffffffffffffffffffffffffff888116938201939093525f929091169063cbf9fe5f90602401606060405180830381865afa158015613099573d5f803e3d5ffd5b505050506040513d601f19601f820116820180604052508101906130bd91906144e5565b905042816020015167ffffffffffffffff161161315b576040805160c0810182525f80825260208083018290528451600f0b938301939093529183015167ffffffffffffffff16606082015260045473ffffffffffffffffffffffffffffffffffffffff16608082015260a0810191909152825183908590811061314357613143614148565b60200260200101819052508261315890614497565b92505b505b5f5b6009548110156133a9575f6009828154811061317d5761317d614148565b5f9182526020909120015473ffffffffffffffffffffffffffffffffffffffff16905080156133a0575f8173ffffffffffffffffffffffffffffffffffffffff16631354f1276040518163ffffffff1660e01b8152600401602060405180830381865afa1580156131f0573d5f803e3d5ffd5b505050506040513d601f19601f8201168201806040525081019061321491906141d4565b6040517f3c59331200000000000000000000000000000000000000000000000000000000815273ffffffffffffffffffffffffffffffffffffffff8a811660048301529190911690633c593312906024015f60405180830381865afa15801561327f573d5f803e3d5ffd5b505050506040513d5f823e601f3d9081017fffffffffffffffffffffffffffffffffffffffffffffffffffffffffffffffe01682016040526132c4919081019061433f565b6080015190505f5b815181101561339d575f8282815181106132e8576132e8614148565b602002602001015190506040518060c00160405280825f0151815260200182602001516fffffffffffffffffffffffffffffffff1681526020018260400151600f0b815260200182606001516fffffffffffffffffffffffffffffffff1681526020018573ffffffffffffffffffffffffffffffffffffffff1681526020015f81525086888151811061337d5761337d614148565b60200260200101819052508661339290614497565b9650506001016132cc565b50505b5060010161315f565b508167ffffffffffffffff8111156133c3576133c3613ea1565b60405190808252806020026020018201604052801561344057816020015b6040805160c0810182525f8082526020808301829052928201819052606082018190526080820181905260a082015282527fffffffffffffffffffffffffffffffffffffffffffffffffffffffffffffffff9092019101816133e15790505b5093505f5b845181101561348d5781818151811061346057613460614148565b602002602001015185828151811061347a5761347a614148565b6020908102919091010152600101613445565b50505050919050565b5f5473ffffffffffffffffffffffffffffffffffffffff1633148015906134d5575060085473ffffffffffffffffffffffffffffffffffffffff163314155b1561350c576040517ffee4291a00000000000000000000000000000000000000000000000000000000815260040160405180910390fd5b600880547fffffffffffffffffffffffff00000000000000000000000000000000000000001673ffffffffffffffffffffffffffffffffffffffff83169081179091556040519081527ff02fdf7b40fb25784d39342249bbb15cee2bc0288f75ded1cf8ad2e63d4d91aa90602001611200565b6002546040517f70a0823100000000000000000000000000000000000000000000000000000000815273ffffffffffffffffffffffffffffffffffffffff83811660048301525f9216906370a0823190602401602060405180830381865afa1580156135ed573d5f803e3d5ffd5b505050506040513d601f19601f820116820180604052508101906136119190614175565b60035490915073ffffffffffffffffffffffffffffffffffffffff16156136d1576003546040517f70a0823100000000000000000000000000000000000000000000000000000000815273ffffffffffffffffffffffffffffffffffffffff8481166004830152909116906370a0823190602401602060405180830381865afa1580156136a0573d5f803e3d5ffd5b505050506040513d601f19601f820116820180604052508101906136c49190614175565b6136ce908261445c565b90505b60045473ffffffffffffffffffffffffffffffffffffffff161580159061370f575060075473ffffffffffffffffffffffffffffffffffffffff1615155b156137b557600480546040517f70a0823100000000000000000000000000000000000000000000000000000000815273ffffffffffffffffffffffffffffffffffffffff858116938201939093529116906370a0823190602401602060405180830381865afa158015613784573d5f803e3d5ffd5b505050506040513d601f19601f820116820180604052508101906137a89190614175565b6137b2908261445c565b90505b5f5b6009548110156138a2575f600982815481106137d5576137d5614148565b5f9182526020909120015473ffffffffffffffffffffffffffffffffffffffff1690508015613899576040517f70a0823100000000000000000000000000000000000000000000000000000000815273ffffffffffffffffffffffffffffffffffffffff85811660048301528216906370a0823190602401602060405180830381865afa158015613868573d5f803e3d5ffd5b505050506040513d601f19601f8201168201806040525081019061388c9190614175565b613896908461445c565b92505b506001016137b7565b50919050565b5f806138b26138bc565b6080015192915050565b6138e96040518060a001604052805f81526020015f81526020015f81526020015f81526020015f81525090565b60025f9054906101000a900473ffffffffffffffffffffffffffffffffffffffff1673ffffffffffffffffffffffffffffffffffffffff166318160ddd6040518163ffffffff1660e01b8152600401602060405180830381865afa158015613953573d5f803e3d5ffd5b505050506040513d601f19601f820116820180604052508101906139779190614175565b808252608082015260035473ffffffffffffffffffffffffffffffffffffffff1615613a475760035f9054906101000a900473ffffffffffffffffffffffffffffffffffffffff1673ffffffffffffffffffffffffffffffffffffffff166318160ddd6040518163ffffffff1660e01b8152600401602060405180830381865afa158015613a07573d5f803e3d5ffd5b505050506040513d601f19601f82011682018060405250810190613a2b9190614175565b60208201819052608082018051613a4390839061445c565b9052505b60045473ffffffffffffffffffffffffffffffffffffffff1615801590613a85575060075473ffffffffffffffffffffffffffffffffffffffff1615155b15613b345760075f9054906101000a900473ffffffffffffffffffffffffffffffffffffffff1673ffffffffffffffffffffffffffffffffffffffff166318160ddd6040518163ffffffff1660e01b8152600401602060405180830381865afa158015613af4573d5f803e3d5ffd5b505050506040513d601f19601f82011682018060405250810190613b189190614175565b60408201819052608082018051613b3090839061445c565b9052505b5f5b600954811015613c24575f60098281548110613b5457613b54614148565b5f9182526020909120015473ffffffffffffffffffffffffffffffffffffffff1690508015613c1b575f8173ffffffffffffffffffffffffffffffffffffffff166318160ddd6040518163ffffffff1660e01b8152600401602060405180830381865afa158015613bc7573d5f803e3d5ffd5b505050506040513d601f19601f82011682018060405250810190613beb9190614175565b90508084606001818151613bff919061445c565b905250608084018051829190613c1690839061445c565b905250505b50600101613b36565b5090565b60606009805480602002602001604051908101604052809291908181526020018280548015613c8b57602002820191905f5260205f20905b815473ffffffffffffffffffffffffffffffffffffffff168152600190910190602001808311613c60575b5050505050905090565b6040805173ffffffffffffffffffffffffffffffffffffffff8481166024830152604480830185905283518084039091018152606490920183526020820180517bffffffffffffffffffffffffffffffffffffffffffffffffffffffff167fa9059cbb0000000000000000000000000000000000000000000000000000000017905291515f92839290871691613d2b9190614551565b5f604051808303815f865af19150503d805f8114613d64576040519150601f19603f3d011682016040523d82523d5f602084013e613d69565b606091505b5091509150811580613d975750805115801590613d97575080806020019051810190613d959190614567565b155b15613dce576040517f19a9708500000000000000000000000000000000000000000000000000000000815260040160405180910390fd5b5050505050565b5f60c08284031215613de5575f80fd5b8260c0830111156138a2575f80fd5b602081525f82518060208401528060208501604085015e5f6040828501015260407fffffffffffffffffffffffffffffffffffffffffffffffffffffffffffffffe0601f83011684010191505092915050565b73ffffffffffffffffffffffffffffffffffffffff81168114610bf6575f80fd5b5f60208284031215613e78575f80fd5b8135613e8381613e47565b9392505050565b5f60208284031215613e9a575f80fd5b5035919050565b7f4e487b71000000000000000000000000000000000000000000000000000000005f52604160045260245ffd5b60405160c0810167ffffffffffffffff81118282101715613ef157613ef1613ea1565b60405290565b604051601f82017fffffffffffffffffffffffffffffffffffffffffffffffffffffffffffffffe016810167ffffffffffffffff81118282101715613f3e57613f3e613ea1565b604052919050565b5f805f6101008486031215613f59575f80fd5b8335613f6481613e47565b92506020840135613f7481613e47565b9150605f84018513613f84575f80fd5b613f8e60c0613ef7565b80610100860187811115613fa0575f80fd5b604087015b81811015613fc6578035613fb881613e47565b845260209384019301613fa5565b505080925050509250925092565b8015158114610bf6575f80fd5b5f8060408385031215613ff2575f80fd5b8235613ffd81613e47565b9150602083013561400d81613fd4565b809150509250929050565b602080825282518282018190525f918401906040840190835b818110156140c6578351805184526fffffffffffffffffffffffffffffffff60208201511660208501526040810151600f0b60408501526fffffffffffffffffffffffffffffffff606082015116606085015273ffffffffffffffffffffffffffffffffffffffff608082015116608085015260a081015160a08501525060c083019250602084019350600181019050614031565b509095945050505050565b5f80604083850312156140e2575f80fd5b82356140ed81613e47565b946020939093013593505050565b602080825282518282018190525f918401906040840190835b818110156140c657835173ffffffffffffffffffffffffffffffffffffffff16835260209384019390920191600101614114565b7f4e487b71000000000000000000000000000000000000000000000000000000005f52603260045260245ffd5b5f60208284031215614185575f80fd5b5051919050565b80516fffffffffffffffffffffffffffffffff811681146141ab575f80fd5b919050565b5f602082840312156141c0575f80fd5b613e838261418c565b80516141ab81613e47565b5f602082840312156141e4575f80fd5b8151613e8381613e47565b8051600f81900b81146141ab575f80fd5b5f82601f83011261420f575f80fd5b8151602083015f8067ffffffffffffffff84111561422f5761422f613ea1565b60208460051b01905061424181613ef7565b84815260079490941b8301939150506020810186841115614260575f80fd5b838310156142ea575f60808489031215614278575f80fd5b6040516080810167ffffffffffffffff8111828210171561429b5761429b613ea1565b604052845180825291506142b16020860161418c565b60208201526142c2604086016141ef565b60408201526142d36060860161418c565b606082015282525060809290920191602001614260565b5095945050505050565b5f82601f830112614303575f80fd5b61430d6060613ef7565b80606084018581111561431e575f80fd5b845b818110156140c657614331816141ef565b845260209384019301614320565b5f6020828403121561434f575f80fd5b815167ffffffffffffffff811115614365575f80fd5b82016101008185031215614377575f80fd5b61437f613ece565b614388826141c9565b815260208281015190820152604082015167ffffffffffffffff8111156143ad575f80fd5b6143b986828501614200565b604083015250606082015167ffffffffffffffff8111156143d8575f80fd5b6143e486828501614200565b606083015250608082015167ffffffffffffffff811115614403575f80fd5b61440f86828501614200565b6080830152506144228560a084016142f4565b60a0820152949350505050565b7f4e487b71000000000000000000000000000000000000000000000000000000005f52601160045260245ffd5b8082018082111561130d5761130d61442f565b6fffffffffffffffffffffffffffffffff828116828216039081111561130d5761130d61442f565b5f7fffffffffffffffffffffffffffffffffffffffffffffffffffffffffffffffff82036144c7576144c761442f565b5060010190565b805167ffffffffffffffff811681146141ab575f80fd5b5f60608284031280156144f6575f80fd5b506040516060810167ffffffffffffffff8111828210171561451a5761451a613ea1565b6040526145268361418c565b8152614534602084016144ce565b6020820152614545604084016144ce565b60408201529392505050565b5f82518060208501845e5f920191825250919050565b5f60208284031215614577575f80fd5b8151613e8381613fd456fea26469706673582212200bfc6930e89b77308e3ef1fcc78464a2a14e233b97680023df222ea121155fd664736f6c634300081a0033",
        "linkReferences": {}
    },
    "methodIdentifiers": {
        "acceptOwnership()": "79ba5097",
        "addAddlVePMXContract(address)": "0c3facc6",
        "addlVeContracts(address)": "2f9b12f8",
        "addlVeContractsArr(uint256)": "57622156",
        "allAddlVeContractsAddresses()": "ea9ea1b2",
        "allAddlVeContractsLength()": "c0f456bd",
        "balanceOf(address)": "70a08231",
        "decimals()": "313ce567",
        "fpisLocker()": "7873fae6",
        "getAllCurrActiveLocks(address,bool)": "7eb1554e",
        "getAllExpiredLocks(address)": "a6bffe7b",
        "initialize(address,address,address[6])": "7351bf96",
        "l1VePMXTotalSupplyOracle()": "94908f2b",
        "l1vePMX()": "8619261f",
        "lFpisUtils()": "f868139b",
        "name()": "06fdde03",
        "nominateNewOwner(address)": "1627540c",
        "nominatedOwner()": "53a47bb7",
        "owner()": "8da5cb5b",
        "recoverERC20(address,uint256)": "8980f11f",
        "removeAddlVePMXContract(address)": "9aeb7e9e",
        "setAddresses(address[6])": "03d8477f",
        "setTimelock(address)": "bdacb303",
        "symbol()": "95d89b41",
        "timelockAddress()": "4bc66f32",
        "ttlCombinedVePMX(address)": "c12fa66b",
        "ttlCombinedVePMXTotalSupply()": "c906fbb9",
        "ttlCombinedVePMXTotalSupplyDetailed()": "e09a7623",
        "vePMX()": "f4ebfcae",
        "vePMXUtils()": "b4623409"
    },
    "id": 68
}