{
  "address": "0xD145933C7938abe3743a83AffAA8AF13c550E109",
  "abi": [
    {
      "inputs": [],
      "stateMutability": "nonpayable",
      "type": "constructor"
    },
    {
      "inputs": [],
      "name": "DS_MATH_ADD_OVERFLOW",
      "type": "error"
    },
    {
      "inputs": [],
      "name": "DS_MATH_MUL_OVERFLOW",
      "type": "error"
    },
    {
      "anonymous": false,
      "inputs": [
        {
          "indexed": true,
          "internalType": "address",
          "name": "token",
          "type": "address"
        },
        {
          "indexed": true,
          "internalType": "address",
          "name": "priceFeed",
          "type": "address"
        }
      ],
      "name": "ChainlinkPriceFeedUpdated",
      "type": "event"
    },
    {
      "anonymous": false,
      "inputs": [
        {
          "indexed": false,
          "internalType": "address",
          "name": "priceFeed",
          "type": "address"
        }
      ],
      "name": "GasPriceFeedChanged",
      "type": "event"
    },
    {
      "anonymous": false,
      "inputs": [
        {
          "indexed": false,
          "internalType": "uint8",
          "name": "version",
          "type": "uint8"
        }
      ],
      "name": "Initialized",
      "type": "event"
    },
    {
      "anonymous": false,
      "inputs": [
        {
          "indexed": true,
          "internalType": "address",
          "name": "assetA",
          "type": "address"
        },
        {
          "indexed": true,
          "internalType": "address",
          "name": "assetB",
          "type": "address"
        },
        {
          "indexed": false,
          "internalType": "uint256",
          "name": "pairPriceDrop",
          "type": "uint256"
        }
      ],
      "name": "PairPriceDropChanged",
      "type": "event"
    },
    {
      "anonymous": false,
      "inputs": [
        {
          "indexed": true,
          "internalType": "address",
          "name": "assetA",
          "type": "address"
        },
        {
          "indexed": true,
          "internalType": "address",
          "name": "assetB",
          "type": "address"
        },
        {
          "indexed": true,
          "internalType": "address",
          "name": "priceDropFeed",
          "type": "address"
        }
      ],
      "name": "PriceDropFeedUpdated",
      "type": "event"
    },
    {
      "anonymous": false,
      "inputs": [
        {
          "indexed": true,
          "internalType": "address",
          "name": "assetA",
          "type": "address"
        },
        {
          "indexed": true,
          "internalType": "address",
          "name": "assetB",
          "type": "address"
        },
        {
          "indexed": true,
          "internalType": "address",
          "name": "priceFeed",
          "type": "address"
        }
      ],
      "name": "PriceFeedUpdated",
      "type": "event"
    },
    {
      "anonymous": false,
      "inputs": [
        {
          "indexed": true,
          "internalType": "address",
          "name": "token",
          "type": "address"
        },
        {
          "indexed": true,
          "internalType": "bytes32",
          "name": "priceFeedId",
          "type": "bytes32"
        }
      ],
      "name": "PythPairIdUpdated",
      "type": "event"
    },
    {
      "anonymous": false,
      "inputs": [
        {
          "indexed": true,
          "internalType": "address",
          "name": "tokenA",
          "type": "address"
        },
        {
          "indexed": true,
          "internalType": "address",
          "name": "tokenB",
          "type": "address"
        },
        {
          "indexed": false,
          "internalType": "uint256",
          "name": "id",
          "type": "uint256"
        }
      ],
      "name": "SupraDataFeedUpdated",
      "type": "event"
    },
    {
      "anonymous": false,
      "inputs": [
        {
          "indexed": false,
          "internalType": "uint256",
          "name": "timeTolerance",
          "type": "uint256"
        }
      ],
      "name": "TimeToleranceUpdated",
      "type": "event"
    },
    {
      "anonymous": false,
      "inputs": [
        {
          "indexed": true,
          "internalType": "uint256",
          "name": "oracleType",
          "type": "uint256"
        },
        {
          "indexed": true,
          "internalType": "address",
          "name": "oracle",
          "type": "address"
        }
      ],
      "name": "Univ3OracleUpdated",
      "type": "event"
    },
    {
      "anonymous": false,
      "inputs": [
        {
          "indexed": true,
          "internalType": "uint256",
          "name": "oracleType",
          "type": "uint256"
        },
        {
          "indexed": true,
          "internalType": "address",
          "name": "tokenA",
          "type": "address"
        },
        {
          "indexed": true,
          "internalType": "address",
          "name": "tokenB",
          "type": "address"
        },
        {
          "indexed": false,
          "internalType": "bool",
          "name": "isTrusted",
          "type": "bool"
        }
      ],
      "name": "Univ3TrustedPairUpdated",
      "type": "event"
    },
    {
      "inputs": [
        {
          "internalType": "address",
          "name": "",
          "type": "address"
        }
      ],
      "name": "chainlinkPriceFeedsUsd",
      "outputs": [
        {
          "internalType": "address",
          "name": "",
          "type": "address"
        }
      ],
      "stateMutability": "view",
      "type": "function"
    },
    {
      "inputs": [],
      "name": "eth",
      "outputs": [
        {
          "internalType": "address",
          "name": "",
          "type": "address"
        }
      ],
      "stateMutability": "view",
      "type": "function"
    },
    {
      "inputs": [],
      "name": "gasPriceFeed",
      "outputs": [
        {
          "internalType": "address",
          "name": "",
          "type": "address"
        }
      ],
      "stateMutability": "view",
      "type": "function"
    },
    {
      "inputs": [
        {
          "internalType": "address",
          "name": "assetA",
          "type": "address"
        },
        {
          "internalType": "address",
          "name": "assetB",
          "type": "address"
        },
        {
          "internalType": "bytes",
          "name": "oracleData",
          "type": "bytes"
        }
      ],
      "name": "getExchangeRate",
      "outputs": [
        {
          "internalType": "uint256",
          "name": "",
          "type": "uint256"
        }
      ],
      "stateMutability": "payable",
      "type": "function"
    },
    {
      "inputs": [],
      "name": "getGasPrice",
      "outputs": [
        {
          "internalType": "int256",
          "name": "price",
          "type": "int256"
        }
      ],
      "stateMutability": "view",
      "type": "function"
    },
    {
      "inputs": [
        {
          "internalType": "address",
          "name": "assetA",
          "type": "address"
        },
        {
          "internalType": "address",
          "name": "assetB",
          "type": "address"
        }
      ],
      "name": "getOraclePriceDrop",
      "outputs": [
        {
          "internalType": "uint256",
          "name": "",
          "type": "uint256"
        }
      ],
      "stateMutability": "view",
      "type": "function"
    },
    {
      "inputs": [
        {
          "internalType": "address",
          "name": "assetA",
          "type": "address"
        },
        {
          "internalType": "address",
          "name": "assetB",
          "type": "address"
        }
      ],
      "name": "getOraclePriceDropFeed",
      "outputs": [
        {
          "internalType": "address",
          "name": "",
          "type": "address"
        }
      ],
      "stateMutability": "view",
      "type": "function"
    },
    {
      "inputs": [
        {
          "internalType": "address",
          "name": "_assetA",
          "type": "address"
        },
        {
          "internalType": "address",
          "name": "_assetB",
          "type": "address"
        }
      ],
      "name": "getPairPriceDrop",
      "outputs": [
        {
          "internalType": "uint256",
          "name": "priceDrop",
          "type": "uint256"
        }
      ],
      "stateMutability": "view",
      "type": "function"
    },
    {
      "inputs": [
        {
          "internalType": "address",
          "name": "_assetA",
          "type": "address"
        },
        {
          "internalType": "address",
          "name": "_assetB",
          "type": "address"
        },
        {
          "internalType": "uint256",
          "name": "_pairPriceDrop",
          "type": "uint256"
        }
      ],
      "name": "increasePairPriceDrop",
      "outputs": [],
      "stateMutability": "nonpayable",
      "type": "function"
    },
    {
      "inputs": [
        {
          "internalType": "address",
          "name": "_registry",
          "type": "address"
        },
        {
          "internalType": "address",
          "name": "_eth",
          "type": "address"
        },
        {
          "internalType": "address",
          "name": "_usdt",
          "type": "address"
        },
        {
          "internalType": "address",
          "name": "_treasury",
          "type": "address"
        }
      ],
      "name": "initialize",
      "outputs": [],
      "stateMutability": "nonpayable",
      "type": "function"
    },
    {
      "inputs": [
        {
          "internalType": "address",
          "name": "",
          "type": "address"
        },
        {
          "internalType": "address",
          "name": "",
          "type": "address"
        }
      ],
      "name": "pairPriceDrops",
      "outputs": [
        {
          "internalType": "uint256",
          "name": "",
          "type": "uint256"
        }
      ],
      "stateMutability": "view",
      "type": "function"
    },
    {
      "inputs": [],
      "name": "pyth",
      "outputs": [
        {
          "internalType": "contract IPyth",
          "name": "",
          "type": "address"
        }
      ],
      "stateMutability": "view",
      "type": "function"
    },
    {
      "inputs": [
        {
          "internalType": "address",
          "name": "",
          "type": "address"
        }
      ],
      "name": "pythPairIds",
      "outputs": [
        {
          "internalType": "bytes32",
          "name": "",
          "type": "bytes32"
        }
      ],
      "stateMutability": "view",
      "type": "function"
    },
    {
      "inputs": [],
      "name": "registry",
      "outputs": [
        {
          "internalType": "address",
          "name": "",
          "type": "address"
        }
      ],
      "stateMutability": "view",
      "type": "function"
    },
    {
      "inputs": [
        {
          "internalType": "address",
          "name": "priceFeed",
          "type": "address"
        }
      ],
      "name": "setGasPriceFeed",
      "outputs": [],
      "stateMutability": "nonpayable",
      "type": "function"
    },
    {
      "inputs": [
        {
          "internalType": "address",
          "name": "_assetA",
          "type": "address"
        },
        {
          "internalType": "address",
          "name": "_assetB",
          "type": "address"
        },
        {
          "internalType": "uint256",
          "name": "_pairPriceDrop",
          "type": "uint256"
        }
      ],
      "name": "setPairPriceDrop",
      "outputs": [],
      "stateMutability": "nonpayable",
      "type": "function"
    },
    {
      "inputs": [
        {
          "internalType": "address",
          "name": "_pyth",
          "type": "address"
        }
      ],
      "name": "setPyth",
      "outputs": [],
      "stateMutability": "nonpayable",
      "type": "function"
    },
    {
      "inputs": [
        {
          "internalType": "address",
          "name": "_supraPullOracle",
          "type": "address"
        }
      ],
      "name": "setSupraPullOracle",
      "outputs": [],
      "stateMutability": "nonpayable",
      "type": "function"
    },
    {
      "inputs": [
        {
          "internalType": "address",
          "name": "_supraStorageOracle",
          "type": "address"
        }
      ],
      "name": "setSupraStorageOracle",
      "outputs": [],
      "stateMutability": "nonpayable",
      "type": "function"
    },
    {
      "inputs": [
        {
          "internalType": "uint256",
          "name": "_timeTolerance",
          "type": "uint256"
        }
      ],
      "name": "setTimeTolerance",
      "outputs": [],
      "stateMutability": "nonpayable",
      "type": "function"
    },
    {
      "inputs": [
        {
          "internalType": "address",
          "name": "_treasury",
          "type": "address"
        }
      ],
      "name": "setTreasury",
      "outputs": [],
      "stateMutability": "nonpayable",
      "type": "function"
    },
    {
      "inputs": [
        {
          "internalType": "address",
          "name": "_usdt",
          "type": "address"
        }
      ],
      "name": "setUSDT",
      "outputs": [],
      "stateMutability": "nonpayable",
      "type": "function"
    },
    {
      "inputs": [
        {
          "internalType": "bytes4",
          "name": "_interfaceId",
          "type": "bytes4"
        }
      ],
      "name": "supportsInterface",
      "outputs": [
        {
          "internalType": "bool",
          "name": "",
          "type": "bool"
        }
      ],
      "stateMutability": "view",
      "type": "function"
    },
    {
      "inputs": [
        {
          "internalType": "address",
          "name": "",
          "type": "address"
        },
        {
          "internalType": "address",
          "name": "",
          "type": "address"
        }
      ],
      "name": "supraDataFeedID",
      "outputs": [
        {
          "internalType": "uint256",
          "name": "id",
          "type": "uint256"
        },
        {
          "internalType": "bool",
          "name": "initialize",
          "type": "bool"
        }
      ],
      "stateMutability": "view",
      "type": "function"
    },
    {
      "inputs": [],
      "name": "supraPullOracle",
      "outputs": [
        {
          "internalType": "contract ISupraOraclePull",
          "name": "",
          "type": "address"
        }
      ],
      "stateMutability": "view",
      "type": "function"
    },
    {
      "inputs": [],
      "name": "supraStorageOracle",
      "outputs": [
        {
          "internalType": "contract ISupraSValueFeed",
          "name": "",
          "type": "address"
        }
      ],
      "stateMutability": "view",
      "type": "function"
    },
    {
      "inputs": [],
      "name": "timeTolerance",
      "outputs": [
        {
          "internalType": "uint256",
          "name": "",
          "type": "uint256"
        }
      ],
      "stateMutability": "view",
      "type": "function"
    },
    {
      "inputs": [],
      "name": "treasury",
      "outputs": [
        {
          "internalType": "address",
          "name": "",
          "type": "address"
        }
      ],
      "stateMutability": "view",
      "type": "function"
    },
    {
      "inputs": [
        {
          "internalType": "uint256",
          "name": "",
          "type": "uint256"
        },
        {
          "internalType": "address",
          "name": "",
          "type": "address"
        },
        {
          "internalType": "address",
          "name": "",
          "type": "address"
        }
      ],
      "name": "univ3TrustedPairs",
      "outputs": [
        {
          "internalType": "bool",
          "name": "",
          "type": "bool"
        }
      ],
      "stateMutability": "view",
      "type": "function"
    },
    {
      "inputs": [
        {
          "internalType": "uint256",
          "name": "",
          "type": "uint256"
        }
      ],
      "name": "univ3TypeOracles",
      "outputs": [
        {
          "internalType": "address",
          "name": "",
          "type": "address"
        }
      ],
      "stateMutability": "view",
      "type": "function"
    },
    {
      "inputs": [
        {
          "internalType": "address[]",
          "name": "_tokens",
          "type": "address[]"
        },
        {
          "internalType": "address[]",
          "name": "_feeds",
          "type": "address[]"
        }
      ],
      "name": "updateChainlinkPriceFeedsUsd",
      "outputs": [],
      "stateMutability": "nonpayable",
      "type": "function"
    },
    {
      "inputs": [
        {
          "internalType": "address",
          "name": "assetA",
          "type": "address"
        },
        {
          "internalType": "address",
          "name": "assetB",
          "type": "address"
        },
        {
          "internalType": "address",
          "name": "priceDropFeed",
          "type": "address"
        }
      ],
      "name": "updatePriceDropFeed",
      "outputs": [],
      "stateMutability": "nonpayable",
      "type": "function"
    },
    {
      "inputs": [
        {
          "components": [
            {
              "internalType": "address",
              "name": "assetA",
              "type": "address"
            },
            {
              "internalType": "address",
              "name": "assetB",
              "type": "address"
            },
            {
              "internalType": "address",
              "name": "priceDropFeed",
              "type": "address"
            }
          ],
          "internalType": "struct IPriceOracleV2.UpdatePriceDropFeedsParams[]",
          "name": "_updateParams",
          "type": "tuple[]"
        }
      ],
      "name": "updatePriceDropFeeds",
      "outputs": [],
      "stateMutability": "nonpayable",
      "type": "function"
    },
    {
      "inputs": [
        {
          "internalType": "bytes[][]",
          "name": "_data",
          "type": "bytes[][]"
        },
        {
          "internalType": "uint256[]",
          "name": "_oracleTypes",
          "type": "uint256[]"
        }
      ],
      "name": "updatePullOracle",
      "outputs": [],
      "stateMutability": "payable",
      "type": "function"
    },
    {
      "inputs": [
        {
          "internalType": "address[]",
          "name": "_tokens",
          "type": "address[]"
        },
        {
          "internalType": "bytes32[]",
          "name": "_priceFeedIds",
          "type": "bytes32[]"
        }
      ],
      "name": "updatePythPairId",
      "outputs": [],
      "stateMutability": "nonpayable",
      "type": "function"
    },
    {
      "inputs": [
        {
          "components": [
            {
              "internalType": "address",
              "name": "tokenA",
              "type": "address"
            },
            {
              "internalType": "address",
              "name": "tokenB",
              "type": "address"
            },
            {
              "components": [
                {
                  "internalType": "uint256",
                  "name": "id",
                  "type": "uint256"
                },
                {
                  "internalType": "bool",
                  "name": "initialize",
                  "type": "bool"
                }
              ],
              "internalType": "struct IPriceOracleStorageV3.SupraDataFeedId",
              "name": "feedData",
              "type": "tuple"
            }
          ],
          "internalType": "struct IPriceOracleV2.UpdateSupraDataFeedParams[]",
          "name": "_params",
          "type": "tuple[]"
        }
      ],
      "name": "updateSupraDataFeed",
      "outputs": [],
      "stateMutability": "nonpayable",
      "type": "function"
    },
    {
      "inputs": [
        {
          "components": [
            {
              "internalType": "uint256",
              "name": "oracleType",
              "type": "uint256"
            },
            {
              "internalType": "address",
              "name": "tokenA",
              "type": "address"
            },
            {
              "internalType": "address",
              "name": "tokenB",
              "type": "address"
            },
            {
              "internalType": "bool",
              "name": "isTrusted",
              "type": "bool"
            }
          ],
          "internalType": "struct IPriceOracleV2.UpdateUniv3TrustedPairParams[]",
          "name": "_updateParams",
          "type": "tuple[]"
        }
      ],
      "name": "updateUniv3TrustedPair",
      "outputs": [],
      "stateMutability": "nonpayable",
      "type": "function"
    },
    {
      "inputs": [
        {
          "internalType": "uint256[]",
          "name": "_oracleTypes",
          "type": "uint256[]"
        },
        {
          "internalType": "address[]",
          "name": "_oracles",
          "type": "address[]"
        }
      ],
      "name": "updateUniv3TypeOracle",
      "outputs": [],
      "stateMutability": "nonpayable",
      "type": "function"
    },
    {
      "inputs": [],
      "name": "usdt",
      "outputs": [
        {
          "internalType": "address",
          "name": "",
          "type": "address"
        }
      ],
      "stateMutability": "view",
      "type": "function"
    }
  ],
  "transactionHash": "0xb1c0c2f3f3d5f47991adbe21ffeae82b97ca01a9b62d682bec93410fda718893",
  "args": [],
  "numDeployments": 2,
  "solcInputHash": "a40cbe14c80d3d42e946a5aebe2ca9f7",
  "bytecode": "0x608080604052346100c2576000549060ff8260081c16610070575060ff80821603610035575b60405161307b9081620000c88239f35b60ff90811916176000557f7f26b83ff96e1f2b6a682f133852f6798a09c465da95921460cefb3847402498602060405160ff8152a138610025565b62461bcd60e51b815260206004820152602760248201527f496e697469616c697a61626c653a20636f6e747261637420697320696e697469604482015266616c697a696e6760c81b6064820152608490fd5b600080fdfe608080604052600436101561001357600080fd5b60003560e01c90816301ffc9a714611fec575080630a3c434c14611ece5780630bc6b20314611e6f5780630fa95a4214611e515780631e6a948f14611e285780632f48ab7d14611dff57806339d9043414611c78578063416be2f3146117fa578063455259cb146117675780634858138f1461171657806350c1b9231461167c5780635510bfce146114245780635d4934c01461138a57806361d027b31461136157806376b926e4146113355780637b1039991461130c57806384574738146112a85780638c7c9e0c1461127f578063970b6e78146111cb57806398bbc8dd146111975780639fb9b68f146110fd578063a5bbe8b514611043578063a6d1b92014611008578063ac8c5db914610f82578063b29ce00d14610f48578063b45994f814610e65578063bc5adf3714610d3c578063be49304e14610c5f578063cbaf3d0914610ba1578063cc2e4c4b14610a74578063dec0af6a14610a40578063e9a8f4841461092d578063ee22fd6f14610893578063ef44920d1461086a578063f0c9738e14610844578063f0f44260146107a8578063f197ce351461045d578063f8c8765e146101fa5763f98d06f0146101cc57600080fd5b346101f55760003660031901126101f5576039546040516001600160a01b039091168152602090f35b600080fd5b346101f55760803660031901126101f5576102136120b9565b61021b6120cf565b6102236120e5565b606435906001600160a01b0380831683036101f55760005460ff8160081c161595868097610450575b8015610439575b156103dd5760ff1982166001176000558291876103cb575b506040516301ffc9a760e01b8152637965db0b60e01b600482015291169290602081602481875afa9081156103bf57600091610391575b501561037f57816102db956001600160601b0360a01b948560335416176033551683603454161760345516906042541617604255612f89565b6000549060ff8260081c1615610326576102f157005b61ff0019166000557f7f26b83ff96e1f2b6a682f133852f6798a09c465da95921460cefb3847402498602060405160018152a1005b60405162461bcd60e51b815260206004820152602b60248201527f496e697469616c697a61626c653a20636f6e7472616374206973206e6f74206960448201526a6e697469616c697a696e6760a81b6064820152608490fd5b60405163044aa57560e41b8152600490fd5b6103b2915060203d81116103b8575b6103aa81836121b1565b8101906121d2565b876102a2565b503d6103a0565b6040513d6000823e3d90fd5b61ffff1916610101176000558761026b565b60405162461bcd60e51b815260206004820152602e60248201527f496e697469616c697a61626c653a20636f6e747261637420697320616c72656160448201526d191e481a5b9a5d1a585b1a5e995960921b6064820152608490fd5b50303b1580156102535750600160ff831614610253565b50600160ff83161061024c565b6104663661206f565b92838392930361079657349360005b81811061051757858061048457005b60018060a01b036043541660405160208101908082106001600160401b03831117610501576000938493848094938194604052525af13d156104fc573d6104ca816123e0565b906104d860405192836121b1565b8152600060203d92013e5b156104ea57005b60405163c71509d160e01b8152600490fd5b6104e3565b634e487b7160e01b600052604160045260246000fd5b61052281838761223d565b3561063b576039546001600160a01b03169061053f81868661226a565b97906040519063d47eed4560e01b8252818061056260209c8d9460048401612344565b0381875afa9889156103bf5760009961060b575b50508088116105fa5787610589916123d3565b9661059582878761226a565b9093803b156101f557604051631df3cbc560e31b8152946000938693849283916105c29160048401612344565b03925af180156103bf576105e0575b6105db915061220a565b610475565b6001600160401b038211610501576105db916040526105d1565b604051624726cd60e11b8152600490fd5b9080929950813d8311610634575b61062381836121b1565b810103126101f55751968880610576565b503d610619565b600161064882848861223d565b3514610658575b6105db9061220a565b603f546001600160a01b03169061067081868661226a565b1561078057803590601e19813603018212156101f557016001600160401b0381358181116101f557602080930181360381136101f5576106d19560009283604051809981958294632ce81dbd60e21b84528a60048501526024840191612323565b03925af180156103bf576106e9575b5050905061064f565b3d806000863e6106f981866121b1565b84019382818603126101f5578051908282116101f557016060818603126101f5576040519261072784612160565b81518381116101f5578661073c9184016122c5565b8452808201518381116101f557866107559184016122c5565b9084015260408101519182116101f5576105db9460409261077692016122c5565b91015287806106e0565b634e487b7160e01b600052603260045260246000fd5b60405163554a08d160e11b8152600490fd5b346101f55760203660031901126101f5576107c16120b9565b603354604051632474521560e21b81526000600482015233602482015290602090829060449082906001600160a01b03165afa9081156103bf57600091610826575b50156108145761081290612f89565b005b60405163036be76f60e61b8152600490fd5b61083e915060203d81116103b8576103aa81836121b1565b82610803565b346101f55760003660031901126101f557602060018060a01b0360405416604051908152f35b346101f55760003660031901126101f557603f546040516001600160a01b039091168152602090f35b346101f55760203660031901126101f5576108ac6120b9565b603354604051632474521560e21b8152600060048201523360248201526001600160a01b0392916020908290604490829087165afa9081156103bf5760009161090f575b501561081457166001600160601b0360a01b6039541617603955600080f35b610927915060203d81116103b8576103aa81836121b1565b836108f0565b346101f55761093b3661206f565b919260018060a01b039081603354166040518091632474521560e21b8252600080516020613026833981519152600483015233602483015281604460209485935afa9081156103bf57600091610a23575b5015610814578486036107965760005b8681106109a557005b806109b4610a1e92888861223d565b35856109c96109c4848c8961223d565b612229565b16600052603c84526040600020556109e56109c4828a8761223d565b856109f1838a8a61223d565b3591167f5f0ac2c1d339aa71cfd244b1806061c2dd58c142319c355a4b503464f39f0ce5600080a361220a565b61099c565b610a3a9150823d84116103b8576103aa81836121b1565b8761098c565b346101f55760203660031901126101f557600435600052603d602052602060018060a01b0360406000205416604051908152f35b346101f557610a823661206f565b603354604051632474521560e21b81526000805160206130268339815191526004820152336024820152602095946001600160a01b03939290919087908290604490829088165afa9081156103bf57600091610b84575b5015610814578181036107965760005b818110610af257005b80610b046109c4610b7f93868961223d565b85610b136109c484878c61223d565b16600052603b895285604060002091166001600160601b0360a01b825416179055610b426109c482858a61223d565b8580610b526109c485898c61223d565b1691167fe57bb0967c057cc1250686db6226a32119cd5417ae09e1905b8f844499880fe2600080a361220a565b610ae9565b610b9b9150873d89116103b8576103aa81836121b1565b87610ad9565b346101f557610baf3661212b565b603354604051632474521560e21b8152600080516020613026833981519152600482015233602482015291929190602090829060449082906001600160a01b03165afa9081156103bf57600091610c41575b50156108145781151580610c30575b15610c1e5761081292612e05565b604051633c15d6ff60e21b8152600490fd5b50670de0b6b3a76400008210610c10565b610c59915060203d81116103b8576103aa81836121b1565b84610c01565b346101f557610c6d3661212b565b603354604051632474521560e21b81527f5c91514091af31f62f596a314af7d5be40146b2f2355969392f055e12e0982fb60048201523360248201529192916001600160a01b03916020908290604490829086165afa9081156103bf57600091610d1e575b50156108145780841660005260366020526040600020908216600052602052604060002054821180610d0c5715610c1e5761081292612e05565b506706f05b59d3b20000821115610c10565b610d36915060203d81116103b8576103aa81836121b1565b85610cd2565b346101f5576020806003193601126101f557600435906001600160401b038083116101f557366023840112156101f55782600401359081116101f557602483019260243691606084020101116101f557603354604051632474521560e21b81527fc0fc8e4dc5cff6febdf550b80d566f654e2baf1a02ea1060208c2f8ab2dd1b636004820152336024820152908390829060449082906001600160a01b03165afa9081156103bf57600091610e48575b50156108145760005b818110610dfe57005b80610e3e610e136109c4610e43948689612219565b610e2886610e2285888b612219565b01612229565b610e386040610e2286898c612219565b91612e9e565b61220a565b610df5565b610e5f9150833d85116103b8576103aa81836121b1565b84610dec565b346101f55760203660031901126101f557610e7e6120b9565b603354604051632474521560e21b81527fc0fc8e4dc5cff6febdf550b80d566f654e2baf1a02ea1060208c2f8ab2dd1b6360048201523360248201526001600160a01b0392916020908290604490829087165afa9081156103bf57600091610f2a575b5015610814577f5689afd64620ca3aba1015be2907df3b5ae25149d96691ba3de19f92e96ec14d9160209116806001600160601b0360a01b6035541617603555604051908152a1005b610f42915060203d81116103b8576103aa81836121b1565b83610ee1565b346101f55760203660031901126101f5576001600160a01b03610f696120b9565b16600052603c6020526020604060002054604051908152f35b346101f55760403660031901126101f557610f9b6120b9565b6001600160a01b03908180610fae6120cf565b169116818114610ff6576000526037602052604060002090600052602052604060002054168015610fe457602090604051908152f35b604051636ae912f160e11b8152600490fd5b60405163b213646160e01b8152600490fd5b346101f55760203660031901126101f55760206001600160a01b038061102c6120b9565b16600052603b825260406000205416604051908152f35b346101f55760603660031901126101f55761105c6120b9565b6110646120cf565b61106c6120e5565b603354604051632474521560e21b81527fc0fc8e4dc5cff6febdf550b80d566f654e2baf1a02ea1060208c2f8ab2dd1b63600482015233602482015291929190602090829060449082906001600160a01b03165afa9081156103bf576000916110df575b50156108145761081292612e9e565b6110f7915060203d81116103b8576103aa81836121b1565b846110d0565b346101f55760203660031901126101f5576111166120b9565b603354604051632474521560e21b8152600060048201523360248201526001600160a01b0392916020908290604490829087165afa9081156103bf57600091611179575b501561081457166001600160601b0360a01b603f541617603f55600080f35b611191915060203d81116103b8576103aa81836121b1565b8361115a565b346101f55760403660031901126101f55760206111c36111b56120b9565b6111bd6120cf565b90612d0f565b604051908152f35b346101f55760203660031901126101f5576004356044602060018060a01b036033541660405192838092632474521560e21b825260008051602061302683398151915260048301523360248301525afa9081156103bf57600091611261575b5015610814576020817f13c9323fdd8bdc59bca744cb04a1255896c91de5ebfd82b75e0040ffd672a2ec92603a55604051908152a1005b611279915060203d81116103b8576103aa81836121b1565b8261122a565b346101f55760003660031901126101f5576034546040516001600160a01b039091168152602090f35b346101f55760603660031901126101f5576112c16120cf565b6112c96120e5565b90600435600052603e602052604060002060018060a01b0380921660005260205260406000209116600052602052602060ff604060002054166040519015158152f35b346101f55760003660031901126101f5576033546040516001600160a01b039091168152602090f35b346101f55760403660031901126101f55760206111c36113536120b9565b61135b6120cf565b90612cb1565b346101f55760003660031901126101f5576043546040516001600160a01b039091168152602090f35b346101f55760203660031901126101f5576113a36120b9565b603354604051632474521560e21b8152600060048201523360248201526001600160a01b0392916020908290604490829087165afa9081156103bf57600091611406575b501561081457166001600160601b0360a01b6040541617604055600080f35b61141e915060203d81116103b8576103aa81836121b1565b836113e7565b346101f5576020806003193601126101f5576004356001600160401b0381116101f5576114559036906004016120fb565b603354604051632474521560e21b815260008051602061302683398151915260048201523360248201529193916001600160a01b039183908290604490829086165afa9081156103bf5760009161165f575b50156108145760005b8481106114b957005b6060806114c783888861224d565b016114d19061225d565b6114dc83888861224d565b35600052603e90818652604060002085876114f8878c8c61224d565b0161150290612229565b166000528652604060002085611519868b8b61224d565b60400161152590612229565b166000528652604060002090611546919060ff801983541691151516179055565b8161155284898961224d565b0161155c9061225d565b9061156884898961224d565b35600052855260406000208461157f858a8a61224d565b60400161158b90612229565b166000528552604060002084866115a3868b8b61224d565b016115ad90612229565b1660005285526040600020906115ce919060ff801983541691151516179055565b836115da83888861224d565b35816115e7858a8a61224d565b016115f190612229565b9285806115ff878c8c61224d565b60400161160b90612229565b92611617888d8d61224d565b016116219061225d565b926040519315158452169416927fb9a3049feba6628f1f03d582f4092ed3d7b923b1e9b3e115ac55f7fd2d78198f91a461165a9061220a565b6114b0565b6116769150833d85116103b8576103aa81836121b1565b856114a7565b346101f55760203660031901126101f5576116956120b9565b603354604051632474521560e21b8152600060048201523360248201526001600160a01b0392916020908290604490829087165afa9081156103bf576000916116f8575b501561081457166001600160601b0360a01b6042541617604255600080f35b611710915060203d81116103b8576103aa81836121b1565b836116d9565b346101f55760403660031901126101f55761172f6120b9565b6117376120cf565b9060018060a01b038091166000526036602052604060002091166000526020526020604060002054604051908152f35b346101f55760003660031901126101f5576035546001600160a01b0316600081611797575b602090604051908152f35b5060a060049160405192838092633fabe5a360e21b82525afa80156103bf576020916000916117c7575b5061178c565b6117e8915060a03d81116117f3575b6117e081836121b1565b8101906124ad565b5050509050826117c1565b503d6117d6565b60603660031901126101f55761180e6120b9565b6118166120cf565b906044356001600160401b0381116101f557366023820112156101f5578060040135906001600160401b0382116101f55736602483830101116101f55760208183810103126101f5576024810135916001600160401b0383116101f55760248183010160438484010112156101f5576024838301013590611896826122ae565b936118a460405195866121b1565b828552602085019060248386010160448560051b8388010101116101f557604481860101915b60448560051b83880101018310611b895788888880518015159081611b7e575b5015611b6c5780516000198101919082116119fe576001600160a01b039182906119149083612418565b51511682851603611b5a576003815114611b2a575b6004815114611aad575b829392670de0b6b3a7640000936000946000925b8451841015611aa257611966602061195f8688612418565b510161242c565b6004811015611a8c5760021480611a84575b611a46575b6119929061198b8587612418565b519061251d565b906000918015918215611a26575b505015611a14576706f05b59d3b200008101908181116119fe5781106119ec57670de0b6b3a76400009004956119e3856119da8587612418565b5151169361220a565b92969096611947565b604051630a77254f60e01b8152600490fd5b634e487b7160e01b600052601160045260246000fd5b604051631550e8b760e01b8152600490fd5b91509150611a3e611a378383612483565b92836121ea565b1488806119a0565b9550611a5187612f09565b80611a75575b611a635760019561197d565b604051630efbb43d60e21b8152600490fd5b50611a7f82612f09565b611a57565b508615611978565b634e487b7160e01b600052602160045260246000fd5b602082604051908152f35b611abb602061195f836123fb565b6004811015611a8c576002141580611b0b575b80611aea575b6119335760405163980171a360e01b8152600490fd5b50611af9602061195f8361240b565b6004811015611a8c5760011415611ad4565b50611b1a602061195f8361240b565b6004811015611a8c571515611ace565b611b38602061195f836123fb565b6004811015611a8c576002036119295760405163980171a360e01b8152600490fd5b6040516309bf411560e11b8152600490fd5b60405163308c6ea760e21b8152600490fd5b6005915010846118ea565b82356001600160401b0381116101f557828701016060601f1982878a010301126101f55760405191611bba83612160565b60448201356001600160a01b03811681036101f5578352606482013560048110156101f55760208401526084820135906001600160401b0382116101f5576024878a010160638385010112156101f557611c19604483850101356123e0565b93611c2760405195866121b1565b83830160448101358087528b8a016024019101606401116101f5576044946000602087868882849a99859a0101356064838301018588013701013583010152604082015281520193019290506118ca565b346101f5576020806003193601126101f5576004356001600160401b0381116101f557611ca99036906004016120fb565b603354604051632474521560e21b815260008051602061302683398151915260048201523360248201526001600160a01b03939185908290604490829088165afa9081156103bf57600091611de2575b50156108145760005b828110611d0b57005b80611d7c611d1d611ddd93868661224d565b86611d2c6109c485898961224d565b1660005260418852604060002087611d498a610e22878b8b61224d565b1660005288526001611d696060604060002093604081013585550161225d565b91019060ff801983541691151516179055565b611d8a6109c482868661224d565b611d9987610e2284888861224d565b7fa38bfa44bbba9266438e9ec2c9f2001eb6517aa484626b25ec296ee888517f798888806040611dca888c8c61224d565b01359460405195865216941692a361220a565b611d02565b611df99150853d87116103b8576103aa81836121b1565b85611cf9565b346101f55760003660031901126101f5576042546040516001600160a01b039091168152602090f35b346101f55760003660031901126101f5576035546040516001600160a01b039091168152602090f35b346101f55760003660031901126101f5576020603a54604051908152f35b346101f55760403660031901126101f557611e886120b9565b611e906120cf565b9060018060a01b0380911660005260416020526040600020911660005260205260408060002060ff6001825492015416825191825215156020820152f35b346101f557611edc3661206f565b9260018060a01b039081603354166040518091632474521560e21b8252600080516020613026833981519152600483015233602483015281604460209485935afa9081156103bf57600091611fcf575b5015610814578585036107965760005b858110611f4557005b80611f576109c4611fca938a8961223d565b611f6282898761223d565b35600052603d845285604060002091166001600160601b0360a01b825416179055611f8e81888661223d565b3585611f9e6109c4848c8b61223d565b16907f23e0d9edcf44c0ab085e4918b7030577f9da7dd0c7869257b4598f9e7ff59eff600080a361220a565b611f3c565b611fe69150823d84116103b8576103aa81836121b1565b87611f2c565b346101f55760203660031901126101f5576004359063ffffffff60e01b82168092036101f5576020916333ca6d2360e21b811490811561202e575b5015158152f35b6301ffc9a760e01b14905083612027565b9181601f840112156101f5578235916001600160401b0383116101f5576020808501948460051b0101116101f557565b60406003198201126101f5576001600160401b03916004358381116101f5578261209b9160040161203f565b939093926024359182116101f5576120b59160040161203f565b9091565b600435906001600160a01b03821682036101f557565b602435906001600160a01b03821682036101f557565b604435906001600160a01b03821682036101f557565b9181601f840112156101f5578235916001600160401b0383116101f5576020808501948460071b0101116101f557565b60609060031901126101f5576001600160a01b039060043582811681036101f5579160243590811681036101f5579060443590565b606081019081106001600160401b0382111761050157604052565b608081019081106001600160401b0382111761050157604052565b604081019081106001600160401b0382111761050157604052565b90601f801991011681019081106001600160401b0382111761050157604052565b908160209103126101f5575180151581036101f55790565b81156121f4570490565b634e487b7160e01b600052601260045260246000fd5b60001981146119fe5760010190565b9190811015610780576060020190565b356001600160a01b03811681036101f55790565b91908110156107805760051b0190565b91908110156107805760071b0190565b3580151581036101f55790565b91908110156107805760051b81013590601e19813603018212156101f55701908135916001600160401b0383116101f5576020018260051b360381136101f5579190565b6001600160401b0381116105015760051b60200190565b81601f820112156101f5578051916122dc836122ae565b926122ea60405194856121b1565b808452602092838086019260051b8201019283116101f5578301905b828210612314575050505090565b81518152908301908301612306565b908060209392818452848401376000828201840152601f01601f1916010190565b9160208181850182865252604084019360408360051b82010194846000925b858410612374575050505050505090565b90919293949596603f198282030184528735601e19843603018112156101f55783018681019190356001600160401b0381116101f55780360383136101f5576123c288928392600195612323565b990194019401929594939190612363565b919082039182116119fe57565b6001600160401b03811161050157601f01601f191660200190565b8051600110156107805760400190565b8051156107805760200190565b80518210156107805760209160051b010190565b516004811015611a8c5790565b908160809103126101f5576060604051916124538361217b565b8051835260208101516020840152604081015160408401520151606082015290565b604d81116119fe57600a0a90565b818102929181159184041417156119fe57565b519069ffffffffffffffffffff821682036101f557565b908160a09103126101f5576124c181612496565b916020820151916040810151916124df608060608401519301612496565b90565b908160209103126101f5575160ff811681036101f55790565b60ff166012039060ff82116119fe57565b60ff16604d81116119fe57600a0a90565b602082810180516001600160a01b039380851692600492610348808614939092909185811015612a345715612a4957805185811015612a3457600314612839575184811015612824576001146126735750505060409384860151958487519701519685811061265f575b5086600052603d85528186600020541696871561264f57600052603e8552856000208460005285528560002082825116600052855260ff8660002054161561263f5791600060449286959451169787519889958694635d5530df60e11b865285015260248401525af19182156126355750600091612606575b50905090565b82813d831161262e575b61261a81836121b1565b8101031261262b5750518038612600565b80fd5b503d612610565b513d6000823e3d90fd5b8551632ccb516160e21b81528390fd5b86516345f68a8f60e11b81528490fd5b60001990860360031b1b9096169538612587565b828796979399989294955015612800575b829350886000146127f8575051165b16600052603b83526040918260002054169283156127e9578251633fabe5a360e21b81529360a0858481845afa9485156127de576000956127b9575b5060008513156127a9576000961561276a578382939495969750519384809263313ce56760e01b82525afa928315612635575061272161272c936124df95936127269360009261273d575b50506124fb565b61250c565b90612483565b6127388160011c613001565b6121ea565b61275c9250803d10612763575b61275481836121b1565b8101906124e2565b388061271a565b503d61274a565b819084519384809263313ce56760e01b82525afa9283156127a057509161272191612726936124df96979261273d5750506124fb565b513d87823e3d90fd5b83516302eb41cf60e51b81528390fd5b6127d291955060a03d81116117f3576117e081836121b1565b505050905093386126cf565b84513d6000823e3d90fd5b5090516345f68a8f60e11b8152fd5b915050612693565b9181939151160361281357818491612684565b6040516381c30d7b60e01b81528390fd5b602185634e487b7160e01b6000525260246000fd5b5050505092600094919294908382526041865260409384832082855116845287528483209360ff600187519661286e88612196565b805488520154168886019015158152846060885161288b8161217b565b8281528b81018390528981018390520152511561296e575050608090845416925160248551809581936344dca75160e11b8352898301525afa918215612962578192612932575b5081946060830151920151601203906012821161291f575082916127266128f892612475565b935b0151612908603a54426123d3565b1161291257505090565b5163141f934360e31b8152fd5b634e487b7160e01b815260118552602490fd5b61295491925060803d811161295b575b61294c81836121b1565b810190612439565b90386128d2565b503d612942565b508251903d90823e3d90fd5b51821683526041875284832090835286528382208451935060ff9060019061299586612196565b8054865201541615801587850152612a2457608090845416925160248551809581936344dca75160e11b8352898301525afa918215612962578192612a04575b5081946060830151920151601203906012821161291f575061272c83926127266129fe93612475565b936128fa565b612a1d91925060803d811161295b5761294c81836121b1565b90386129d5565b505050516345f68a8f60e11b8152fd5b602186634e487b7160e01b6000525260246000fd5b508697919395945082969215612b8d575b82935086600014612b85575051165b16600052603c81526040908160002054948515612b7657608090603954169560248451809881936331d98b3f60e01b8352888301525afa948515612b6b57600095612ae3575b50506060840151612ac2603a54426123d3565b1161291257505015612ada5761272c6124df91612bc5565b6124df90612bc5565b9091946080823d8211612b63575b81612afe608093836121b1565b8101031261262b57855192612b128461217b565b82518060070b8103612b5f57845280830151906001600160401b0382168203612b5f5784015285820151908160030b820361262b5750906060918684015201516060820152923880612aaf565b8280fd5b3d9150612af1565b82513d6000823e3d90fd5b5050516345f68a8f60e11b8152fd5b915050612a69565b91819391511603612ba057818691612a5a565b604051633c2f4f2360e21b81528490fd5b63ffffffff16604d81116119fe57600a0a90565b60009081815160070b128015612ca1575b8015612c8f575b612c7d57604081015160030b8203808060030b03612c695760ff169160128311612c2557509061272660ff612c1f6001600160401b036124df955116936124fb565b16612bb1565b90516001600160401b031691601119019060ff8211612c55575090612c4f60ff6124df9316612bb1565b906121ea565b634e487b7160e01b81526011600452602490fd5b634e487b7160e01b83526011600452602483fd5b6040516365a5785160e11b8152600490fd5b5060fe19604082015160030b12612bdd565b5081604082015160030b13612bd6565b90612cbc8183612d0f565b9160018060a01b0380911660005260366020526040600020911660005260205260406000205490808211600014612d0857505b670de0b6b3a7640000808211612d03575090565b905090565b9050612cef565b60018060a01b0380600092168252603760205260409281848420911683526020528282205416918215612600578051633fabe5a360e21b81529260a084600481845afa938415612df9578394612dce575b50602060049183519283809263313ce56760e01b82525afa918215612dc557509060ff918391612da7575b50166012039060128211612c555750906127266124df92612475565b612dbf915060203d81116127635761275481836121b1565b38612d8b565b513d84823e3d90fd5b6004919450612dec60209160a03d81116117f3576117e081836121b1565b5050509050949150612d60565b505051903d90823e3d90fd5b6001600160a01b039081169182151580612e93575b15612e81571691828214612e6f5760207ffc6e73fcfea315539ce6038e373ebf76c8fd5169e820723ef2d2f4485528ced8918360005260368252604060002085600052825280604060002055604051908152a3565b604051631d8fdb5560e11b8152600490fd5b604051630803ae7360e11b8152600490fd5b508181161515612e1a565b6001600160a01b039182169190811690818314610ff6577f410d79a2eddf639a562ae356290f947311e7c951e05ee1e957f18898bd664bb39060009083825260376020526040822085835260205260408220951694856001600160601b0360a01b82541617905580a4565b60018060a01b0380911690600091808352602091603c835260409081852054612f7f57603b8452808286205416612f7f57604184528185206103488652845260ff6001838720015416612f7f5760ff9360019386526041815282862091604254168652528320015416612f795790565b50600190565b5050505050600190565b6040516301ffc9a760e01b81526329abf30760e11b60048201526001600160a01b039190911690602081602481855afa9081156103bf57600091612fe3575b501561037f576001600160601b0360a01b6043541617604355565b612ffb915060203d81116103b8576103aa81836121b1565b38612fc8565b906ec097ce7bc90715b34b9f1000000000918201918281116119fe5782106119ec5756fe5a7d4408f4759dddd7fdfd0d21abd99341dc2f52cda14804988a9b2df20766d8a2646970667358221220f9572d32b83bf9ca992d08f4f7f806130ee56b531ee918dbba1fd892f0e91b1764736f6c63430008120033",
  "libraries": {},
  "devdoc": {
    "events": {
      "Initialized(uint8)": {
        "details": "Triggered when the contract has been initialized or reinitialized."
      }
    },
    "kind": "dev",
    "methods": {
      "getExchangeRate(address,address,bytes)": {
        "params": {
          "assetA": "The address of the first asset in the pair.",
          "assetB": "The address of the second asset in the pair.",
          "oracleData": "The list of oracles to use for price calculations"
        },
        "returns": {
          "_0": "exchangeRate for assetA/assetB in 10**18 decimality"
        }
      },
      "getGasPrice()": {
        "returns": {
          "price": "The current gas price."
        }
      },
      "getOraclePriceDrop(address,address)": {
        "params": {
          "assetA": "The address of the first asset.",
          "assetB": "The address of the second asset."
        },
        "returns": {
          "_0": "The priceDrop rate as a uint256 value."
        }
      },
      "getOraclePriceDropFeed(address,address)": {
        "params": {
          "assetA": "The address of the first asset in the pair.",
          "assetB": "The address of the second asset in the pair."
        },
        "returns": {
          "_0": "priceDropFeed The address of the priceDrop feed associated with the asset pair."
        }
      },
      "getPairPriceDrop(address,address)": {
        "params": {
          "_assetA": "The address of asset A.",
          "_assetB": "The address of asset B."
        },
        "returns": {
          "priceDrop": "The priceDrop rate."
        }
      },
      "increasePairPriceDrop(address,address,uint256)": {
        "details": "Only callable by the EMERGENCY_ADMIN role. The _pairPriceDrop value must be greater than the current priceDrop value for the pair and less than the maximum allowed priceDrop (WadRayMath.WAD / 2).",
        "params": {
          "_assetA": "The address of position asset",
          "_assetB": "The address of borrowed asset",
          "_pairPriceDrop": "The new priceDrop value for the pair (in wad)"
        }
      },
      "initialize(address,address,address,address)": {
        "params": {
          "_eth": "Weth address if eth isn't native token of network. Otherwise set to zero address.",
          "_registry": "The address of PrimexRegistry contract",
          "_treasury": "Address of the Treasury",
          "_usdt": "Address of the USDT token"
        }
      },
      "setGasPriceFeed(address)": {
        "details": "Only callable by the MEDIUM_TIMELOCK_ADMIN role.",
        "params": {
          "priceFeed": "The address of the gas price feed contract."
        }
      },
      "setPairPriceDrop(address,address,uint256)": {
        "details": "Only callable by the SMALL_TIMELOCK_ADMIN.",
        "params": {
          "_assetA": "The address of position asset",
          "_assetB": "The address of borrowed asset",
          "_pairPriceDrop": "The pair priceDrop (in wad)"
        }
      },
      "setPyth(address)": {
        "details": "Only callable by the BIG_TIMELOCK_ADMIN role.",
        "params": {
          "_pyth": "the address of the Pyth oracle"
        }
      },
      "setSupraPullOracle(address)": {
        "details": "Only callable by the BIG_TIMELOCK_ADMIN role.",
        "params": {
          "_supraPullOracle": "the address of the Supra pull oracle"
        }
      },
      "setSupraStorageOracle(address)": {
        "details": "Only callable by the BIG_TIMELOCK_ADMIN role.",
        "params": {
          "_supraStorageOracle": "the address of the Supra storage"
        }
      },
      "setTimeTolerance(uint256)": {
        "details": "Only callable by the SMALL_TIMELOCK_ADMIN role.",
        "params": {
          "_timeTolerance": "Time tolerance in seconds"
        }
      },
      "setTreasury(address)": {
        "details": "Only callable by the BIG_TIMELOCK_ADMIN role.",
        "params": {
          "_treasury": "the address of the treasury"
        }
      },
      "setUSDT(address)": {
        "details": "Only callable by the BIG_TIMELOCK_ADMIN role.",
        "params": {
          "_usdt": "the address of the USDT"
        }
      },
      "supportsInterface(bytes4)": {
        "params": {
          "_interfaceId": "The interface id to check"
        }
      },
      "updateChainlinkPriceFeedsUsd(address[],address[])": {
        "details": "Only callable by the SMALL_TIMELOCK_ADMIN role.",
        "params": {
          "_feeds": "Array of price feeds.",
          "_tokens": "Array of token addresses."
        }
      },
      "updatePriceDropFeed(address,address,address)": {
        "details": "Add or update priceDrop feed for assets pair. Only callable by the MEDIUM_TIMELOCK_ADMIN role.",
        "params": {
          "assetA": "The address of the first asset in the pair.",
          "assetB": "The address of the second asset in the pair.",
          "priceDropFeed": "The chain link priceDrop feed address for the pair assetA/assetB"
        }
      },
      "updatePriceDropFeeds((address,address,address)[])": {
        "details": "Add or update priceDrop feed for assets pair. Only callable by the MEDIUM_TIMELOCK_ADMIN role.",
        "params": {
          "_updateParams": "The array of the UpdatePriceDropFeedsParams structs"
        }
      },
      "updatePullOracle(bytes[][],uint256[])": {
        "params": {
          "_data": "An array of update data for passed oracles",
          "_pullOracleTypes": "An array of oracle types  (Must conform to the UpdatePullOracle struct)"
        }
      },
      "updatePythPairId(address[],bytes32[])": {
        "details": "Only callable by the SMALL_TIMELOCK_ADMIN role.",
        "params": {
          "_priceFeedIds": "Array of pair ids.",
          "_tokens": "Array of token addresses."
        }
      },
      "updateSupraDataFeed((address,address,(uint256,bool))[])": {
        "details": "Only callable by the SMALL_TIMELOCK_ADMIN role.",
        "params": {
          "_params": "Array of token pairs and Supra ids."
        }
      },
      "updateUniv3TrustedPair((uint256,address,address,bool)[])": {
        "details": "Only callable by the SMALL_TIMELOCK_ADMIN role.",
        "params": {
          "_updateParams": "Array of token pairs, their DEXs and new trusted status."
        }
      },
      "updateUniv3TypeOracle(uint256[],address[])": {
        "details": "Only callable by the SMALL_TIMELOCK_ADMIN role.",
        "params": {
          "_oracleTypes": "Array of ids of TWAP contracts.",
          "_oracles": "Array of TWAP contract addresses."
        }
      }
    },
    "version": 1
  },
  "userdoc": {
    "kind": "user",
    "methods": {
      "getExchangeRate(address,address,bytes)": {
        "notice": "Calculates exchange rate of one token to another according to the specific oracle route"
      },
      "getGasPrice()": {
        "notice": "Retrieves the current gas price from the specified gas price feed."
      },
      "getOraclePriceDrop(address,address)": {
        "notice": "Retrieves the priceDrop rate between two assets based on the oracle pair priceDrop."
      },
      "getOraclePriceDropFeed(address,address)": {
        "notice": "Retreives a priceDrop feed address from the oraclePriceDropFeeds mapping"
      },
      "getPairPriceDrop(address,address)": {
        "notice": "For a given asset pair retrieves the priceDrop rate which is the higher of the oracle pair priceDrop and the historical pair priceDrop."
      },
      "increasePairPriceDrop(address,address,uint256)": {
        "notice": "Increases the priceDrop of a pair of assets in the system."
      },
      "setGasPriceFeed(address)": {
        "notice": "Sets the gas price feed contract address."
      },
      "setPairPriceDrop(address,address,uint256)": {
        "notice": "Function to set (change) the pair priceDrop of the trading assets"
      },
      "setPyth(address)": {
        "notice": "Sets the Pyth address"
      },
      "setSupraPullOracle(address)": {
        "notice": "Sets the Supra pull oracle address"
      },
      "setSupraStorageOracle(address)": {
        "notice": "Sets the Supra storage address"
      },
      "setTimeTolerance(uint256)": {
        "notice": "Sets the time tolerance"
      },
      "setTreasury(address)": {
        "notice": "Sets the treasury address"
      },
      "setUSDT(address)": {
        "notice": "Sets the usdt address"
      },
      "supportsInterface(bytes4)": {
        "notice": "Interface checker"
      },
      "updateChainlinkPriceFeedsUsd(address[],address[])": {
        "notice": "Sets or updates the Chainlink price feed for the list of tokens to usd."
      },
      "updatePriceDropFeed(address,address,address)": {
        "notice": "Updates the priceDrop feed for a specific pair of assets."
      },
      "updatePriceDropFeeds((address,address,address)[])": {
        "notice": "Updates the priceDrop feed for a specific pair of assets."
      },
      "updatePullOracle(bytes[][],uint256[])": {
        "notice": "Updates pull oracle data for passed oracle types"
      },
      "updatePythPairId(address[],bytes32[])": {
        "notice": "Sets or updates the Pyth pair ids for the list of tokens."
      },
      "updateSupraDataFeed((address,address,(uint256,bool))[])": {
        "notice": "Sets or updates the Supra price feeds for the list of tokens."
      },
      "updateUniv3TrustedPair((uint256,address,address,bool)[])": {
        "notice": "Sets or updates the Supra price feeds for the list of tokens."
      },
      "updateUniv3TypeOracle(uint256[],address[])": {
        "notice": "Sets Uni v3-based TWAP price oracle contracts."
      }
    },
    "version": 1
  },
  "storageLayout": {
    "storage": [
      {
        "astId": 2890,
        "contract": "contracts/PriceOracle/PriceOracle.sol:PriceOracle",
        "label": "_initialized",
        "offset": 0,
        "slot": "0",
        "type": "t_uint8"
      },
      {
        "astId": 2893,
        "contract": "contracts/PriceOracle/PriceOracle.sol:PriceOracle",
        "label": "_initializing",
        "offset": 1,
        "slot": "0",
        "type": "t_bool"
      },
      {
        "astId": 6506,
        "contract": "contracts/PriceOracle/PriceOracle.sol:PriceOracle",
        "label": "__gap",
        "offset": 0,
        "slot": "1",
        "type": "t_array(t_uint256)50_storage"
      },
      {
        "astId": 53312,
        "contract": "contracts/PriceOracle/PriceOracle.sol:PriceOracle",
        "label": "registry",
        "offset": 0,
        "slot": "51",
        "type": "t_address"
      },
      {
        "astId": 53315,
        "contract": "contracts/PriceOracle/PriceOracle.sol:PriceOracle",
        "label": "eth",
        "offset": 0,
        "slot": "52",
        "type": "t_address"
      },
      {
        "astId": 53318,
        "contract": "contracts/PriceOracle/PriceOracle.sol:PriceOracle",
        "label": "gasPriceFeed",
        "offset": 0,
        "slot": "53",
        "type": "t_address"
      },
      {
        "astId": 53325,
        "contract": "contracts/PriceOracle/PriceOracle.sol:PriceOracle",
        "label": "pairPriceDrops",
        "offset": 0,
        "slot": "54",
        "type": "t_mapping(t_address,t_mapping(t_address,t_uint256))"
      },
      {
        "astId": 53332,
        "contract": "contracts/PriceOracle/PriceOracle.sol:PriceOracle",
        "label": "oraclePriceDropFeeds",
        "offset": 0,
        "slot": "55",
        "type": "t_mapping(t_address,t_mapping(t_address,t_address))"
      },
      {
        "astId": 53339,
        "contract": "contracts/PriceOracle/PriceOracle.sol:PriceOracle",
        "label": "chainLinkPriceFeeds",
        "offset": 0,
        "slot": "56",
        "type": "t_mapping(t_address,t_mapping(t_address,t_address))"
      },
      {
        "astId": 53348,
        "contract": "contracts/PriceOracle/PriceOracle.sol:PriceOracle",
        "label": "pyth",
        "offset": 0,
        "slot": "57",
        "type": "t_contract(IPyth)15115"
      },
      {
        "astId": 53351,
        "contract": "contracts/PriceOracle/PriceOracle.sol:PriceOracle",
        "label": "timeTolerance",
        "offset": 0,
        "slot": "58",
        "type": "t_uint256"
      },
      {
        "astId": 53356,
        "contract": "contracts/PriceOracle/PriceOracle.sol:PriceOracle",
        "label": "chainlinkPriceFeedsUsd",
        "offset": 0,
        "slot": "59",
        "type": "t_mapping(t_address,t_address)"
      },
      {
        "astId": 53361,
        "contract": "contracts/PriceOracle/PriceOracle.sol:PriceOracle",
        "label": "pythPairIds",
        "offset": 0,
        "slot": "60",
        "type": "t_mapping(t_address,t_bytes32)"
      },
      {
        "astId": 53366,
        "contract": "contracts/PriceOracle/PriceOracle.sol:PriceOracle",
        "label": "univ3TypeOracles",
        "offset": 0,
        "slot": "61",
        "type": "t_mapping(t_uint256,t_address)"
      },
      {
        "astId": 53375,
        "contract": "contracts/PriceOracle/PriceOracle.sol:PriceOracle",
        "label": "univ3TrustedPairs",
        "offset": 0,
        "slot": "62",
        "type": "t_mapping(t_uint256,t_mapping(t_address,t_mapping(t_address,t_bool)))"
      },
      {
        "astId": 53384,
        "contract": "contracts/PriceOracle/PriceOracle.sol:PriceOracle",
        "label": "supraPullOracle",
        "offset": 0,
        "slot": "63",
        "type": "t_contract(ISupraOraclePull)69535"
      },
      {
        "astId": 53388,
        "contract": "contracts/PriceOracle/PriceOracle.sol:PriceOracle",
        "label": "supraStorageOracle",
        "offset": 0,
        "slot": "64",
        "type": "t_contract(ISupraSValueFeed)69574"
      },
      {
        "astId": 53396,
        "contract": "contracts/PriceOracle/PriceOracle.sol:PriceOracle",
        "label": "supraDataFeedID",
        "offset": 0,
        "slot": "65",
        "type": "t_mapping(t_address,t_mapping(t_address,t_struct(SupraDataFeedId)51456_storage))"
      },
      {
        "astId": 53399,
        "contract": "contracts/PriceOracle/PriceOracle.sol:PriceOracle",
        "label": "usdt",
        "offset": 0,
        "slot": "66",
        "type": "t_address"
      },
      {
        "astId": 53402,
        "contract": "contracts/PriceOracle/PriceOracle.sol:PriceOracle",
        "label": "treasury",
        "offset": 0,
        "slot": "67",
        "type": "t_address"
      }
    ],
    "types": {
      "t_address": {
        "encoding": "inplace",
        "label": "address",
        "numberOfBytes": "20"
      },
      "t_array(t_uint256)50_storage": {
        "base": "t_uint256",
        "encoding": "inplace",
        "label": "uint256[50]",
        "numberOfBytes": "1600"
      },
      "t_bool": {
        "encoding": "inplace",
        "label": "bool",
        "numberOfBytes": "1"
      },
      "t_bytes32": {
        "encoding": "inplace",
        "label": "bytes32",
        "numberOfBytes": "32"
      },
      "t_contract(IPyth)15115": {
        "encoding": "inplace",
        "label": "contract IPyth",
        "numberOfBytes": "20"
      },
      "t_contract(ISupraOraclePull)69535": {
        "encoding": "inplace",
        "label": "contract ISupraOraclePull",
        "numberOfBytes": "20"
      },
      "t_contract(ISupraSValueFeed)69574": {
        "encoding": "inplace",
        "label": "contract ISupraSValueFeed",
        "numberOfBytes": "20"
      },
      "t_mapping(t_address,t_address)": {
        "encoding": "mapping",
        "key": "t_address",
        "label": "mapping(address => address)",
        "numberOfBytes": "32",
        "value": "t_address"
      },
      "t_mapping(t_address,t_bool)": {
        "encoding": "mapping",
        "key": "t_address",
        "label": "mapping(address => bool)",
        "numberOfBytes": "32",
        "value": "t_bool"
      },
      "t_mapping(t_address,t_bytes32)": {
        "encoding": "mapping",
        "key": "t_address",
        "label": "mapping(address => bytes32)",
        "numberOfBytes": "32",
        "value": "t_bytes32"
      },
      "t_mapping(t_address,t_mapping(t_address,t_address))": {
        "encoding": "mapping",
        "key": "t_address",
        "label": "mapping(address => mapping(address => address))",
        "numberOfBytes": "32",
        "value": "t_mapping(t_address,t_address)"
      },
      "t_mapping(t_address,t_mapping(t_address,t_bool))": {
        "encoding": "mapping",
        "key": "t_address",
        "label": "mapping(address => mapping(address => bool))",
        "numberOfBytes": "32",
        "value": "t_mapping(t_address,t_bool)"
      },
      "t_mapping(t_address,t_mapping(t_address,t_struct(SupraDataFeedId)51456_storage))": {
        "encoding": "mapping",
        "key": "t_address",
        "label": "mapping(address => mapping(address => struct IPriceOracleStorageV3.SupraDataFeedId))",
        "numberOfBytes": "32",
        "value": "t_mapping(t_address,t_struct(SupraDataFeedId)51456_storage)"
      },
      "t_mapping(t_address,t_mapping(t_address,t_uint256))": {
        "encoding": "mapping",
        "key": "t_address",
        "label": "mapping(address => mapping(address => uint256))",
        "numberOfBytes": "32",
        "value": "t_mapping(t_address,t_uint256)"
      },
      "t_mapping(t_address,t_struct(SupraDataFeedId)51456_storage)": {
        "encoding": "mapping",
        "key": "t_address",
        "label": "mapping(address => struct IPriceOracleStorageV3.SupraDataFeedId)",
        "numberOfBytes": "32",
        "value": "t_struct(SupraDataFeedId)51456_storage"
      },
      "t_mapping(t_address,t_uint256)": {
        "encoding": "mapping",
        "key": "t_address",
        "label": "mapping(address => uint256)",
        "numberOfBytes": "32",
        "value": "t_uint256"
      },
      "t_mapping(t_uint256,t_address)": {
        "encoding": "mapping",
        "key": "t_uint256",
        "label": "mapping(uint256 => address)",
        "numberOfBytes": "32",
        "value": "t_address"
      },
      "t_mapping(t_uint256,t_mapping(t_address,t_mapping(t_address,t_bool)))": {
        "encoding": "mapping",
        "key": "t_uint256",
        "label": "mapping(uint256 => mapping(address => mapping(address => bool)))",
        "numberOfBytes": "32",
        "value": "t_mapping(t_address,t_mapping(t_address,t_bool))"
      },
      "t_struct(SupraDataFeedId)51456_storage": {
        "encoding": "inplace",
        "label": "struct IPriceOracleStorageV3.SupraDataFeedId",
        "members": [
          {
            "astId": 51453,
            "contract": "contracts/PriceOracle/PriceOracle.sol:PriceOracle",
            "label": "id",
            "offset": 0,
            "slot": "0",
            "type": "t_uint256"
          },
          {
            "astId": 51455,
            "contract": "contracts/PriceOracle/PriceOracle.sol:PriceOracle",
            "label": "initialize",
            "offset": 0,
            "slot": "1",
            "type": "t_bool"
          }
        ],
        "numberOfBytes": "64"
      },
      "t_uint256": {
        "encoding": "inplace",
        "label": "uint256",
        "numberOfBytes": "32"
      },
      "t_uint8": {
        "encoding": "inplace",
        "label": "uint8",
        "numberOfBytes": "1"
      }
    }
  }
}