{
  "address": "0x03bA57169E206A37F706a529c9a470425D7CE676",
  "abi": [
    {
      "inputs": [],
      "stateMutability": "nonpayable",
      "type": "constructor"
    },
    {
      "inputs": [
        {
          "internalType": "address",
          "name": "target",
          "type": "address"
        }
      ],
      "name": "AddressEmptyCode",
      "type": "error"
    },
    {
      "inputs": [
        {
          "internalType": "address",
          "name": "account",
          "type": "address"
        }
      ],
      "name": "AddressInsufficientBalance",
      "type": "error"
    },
    {
      "inputs": [],
      "name": "DS_MATH_ADD_OVERFLOW",
      "type": "error"
    },
    {
      "inputs": [],
      "name": "DS_MATH_MUL_OVERFLOW",
      "type": "error"
    },
    {
      "inputs": [],
      "name": "FailedInnerCall",
      "type": "error"
    },
    {
      "inputs": [],
      "name": "InvalidInitialization",
      "type": "error"
    },
    {
      "inputs": [],
      "name": "NotInitializing",
      "type": "error"
    },
    {
      "inputs": [],
      "name": "ReentrancyGuardReentrantCall",
      "type": "error"
    },
    {
      "inputs": [
        {
          "internalType": "address",
          "name": "token",
          "type": "address"
        }
      ],
      "name": "SafeERC20FailedOperation",
      "type": "error"
    },
    {
      "anonymous": false,
      "inputs": [
        {
          "indexed": false,
          "internalType": "uint64",
          "name": "version",
          "type": "uint64"
        }
      ],
      "name": "Initialized",
      "type": "event"
    },
    {
      "anonymous": false,
      "inputs": [
        {
          "indexed": false,
          "internalType": "address",
          "name": "_beneficiary",
          "type": "address"
        },
        {
          "indexed": false,
          "internalType": "uint256",
          "name": "_amount",
          "type": "uint256"
        },
        {
          "indexed": false,
          "internalType": "bytes32",
          "name": "_id",
          "type": "bytes32"
        }
      ],
      "name": "TokenReleased",
      "type": "event"
    },
    {
      "anonymous": false,
      "inputs": [
        {
          "indexed": false,
          "internalType": "address",
          "name": "_sender",
          "type": "address"
        },
        {
          "indexed": false,
          "internalType": "address",
          "name": "_beneficiary",
          "type": "address"
        },
        {
          "indexed": false,
          "internalType": "uint256",
          "name": "_amount",
          "type": "uint256"
        },
        {
          "indexed": false,
          "internalType": "bytes32",
          "name": "_id",
          "type": "bytes32"
        }
      ],
      "name": "VestingScheduleCreated",
      "type": "event"
    },
    {
      "stateMutability": "payable",
      "type": "fallback"
    },
    {
      "inputs": [
        {
          "internalType": "address",
          "name": "holder",
          "type": "address"
        }
      ],
      "name": "computeNextVestingScheduleIdForHolder",
      "outputs": [
        {
          "internalType": "bytes32",
          "name": "",
          "type": "bytes32"
        }
      ],
      "stateMutability": "view",
      "type": "function"
    },
    {
      "inputs": [
        {
          "internalType": "bytes32",
          "name": "vestingScheduleId",
          "type": "bytes32"
        }
      ],
      "name": "computeReleasableAmount",
      "outputs": [
        {
          "internalType": "uint256",
          "name": "",
          "type": "uint256"
        }
      ],
      "stateMutability": "view",
      "type": "function"
    },
    {
      "inputs": [
        {
          "internalType": "address",
          "name": "holder",
          "type": "address"
        },
        {
          "internalType": "uint256",
          "name": "index",
          "type": "uint256"
        }
      ],
      "name": "computeVestingScheduleIdForAddressAndIndex",
      "outputs": [
        {
          "internalType": "bytes32",
          "name": "",
          "type": "bytes32"
        }
      ],
      "stateMutability": "pure",
      "type": "function"
    },
    {
      "inputs": [
        {
          "internalType": "address",
          "name": "_beneficiary",
          "type": "address"
        },
        {
          "internalType": "uint256",
          "name": "_amount",
          "type": "uint256"
        }
      ],
      "name": "createVestingSchedule",
      "outputs": [],
      "stateMutability": "nonpayable",
      "type": "function"
    },
    {
      "inputs": [],
      "name": "epmx",
      "outputs": [
        {
          "internalType": "contract ERC20Burnable",
          "name": "",
          "type": "address"
        }
      ],
      "stateMutability": "view",
      "type": "function"
    },
    {
      "inputs": [
        {
          "internalType": "address",
          "name": "holder",
          "type": "address"
        }
      ],
      "name": "getAllVestingSchedulesByAddress",
      "outputs": [
        {
          "components": [
            {
              "internalType": "address",
              "name": "beneficiary",
              "type": "address"
            },
            {
              "internalType": "uint256",
              "name": "cliff",
              "type": "uint256"
            },
            {
              "internalType": "uint256",
              "name": "amountTotal",
              "type": "uint256"
            },
            {
              "internalType": "uint256",
              "name": "released",
              "type": "uint256"
            }
          ],
          "internalType": "struct IRedeemerStorage.VestingSchedule[]",
          "name": "",
          "type": "tuple[]"
        }
      ],
      "stateMutability": "view",
      "type": "function"
    },
    {
      "inputs": [
        {
          "internalType": "address",
          "name": "holder",
          "type": "address"
        }
      ],
      "name": "getLastVestingScheduleForHolder",
      "outputs": [
        {
          "components": [
            {
              "internalType": "address",
              "name": "beneficiary",
              "type": "address"
            },
            {
              "internalType": "uint256",
              "name": "cliff",
              "type": "uint256"
            },
            {
              "internalType": "uint256",
              "name": "amountTotal",
              "type": "uint256"
            },
            {
              "internalType": "uint256",
              "name": "released",
              "type": "uint256"
            }
          ],
          "internalType": "struct IRedeemerStorage.VestingSchedule",
          "name": "",
          "type": "tuple"
        }
      ],
      "stateMutability": "view",
      "type": "function"
    },
    {
      "inputs": [
        {
          "internalType": "uint256",
          "name": "index",
          "type": "uint256"
        }
      ],
      "name": "getVestingIdAtIndex",
      "outputs": [
        {
          "internalType": "bytes32",
          "name": "",
          "type": "bytes32"
        }
      ],
      "stateMutability": "view",
      "type": "function"
    },
    {
      "inputs": [
        {
          "internalType": "bytes32",
          "name": "vestingScheduleId",
          "type": "bytes32"
        }
      ],
      "name": "getVestingSchedule",
      "outputs": [
        {
          "components": [
            {
              "internalType": "address",
              "name": "beneficiary",
              "type": "address"
            },
            {
              "internalType": "uint256",
              "name": "cliff",
              "type": "uint256"
            },
            {
              "internalType": "uint256",
              "name": "amountTotal",
              "type": "uint256"
            },
            {
              "internalType": "uint256",
              "name": "released",
              "type": "uint256"
            }
          ],
          "internalType": "struct IRedeemerStorage.VestingSchedule",
          "name": "",
          "type": "tuple"
        }
      ],
      "stateMutability": "view",
      "type": "function"
    },
    {
      "inputs": [
        {
          "internalType": "address",
          "name": "holder",
          "type": "address"
        },
        {
          "internalType": "uint256",
          "name": "index",
          "type": "uint256"
        }
      ],
      "name": "getVestingScheduleByAddressAndIndex",
      "outputs": [
        {
          "components": [
            {
              "internalType": "address",
              "name": "beneficiary",
              "type": "address"
            },
            {
              "internalType": "uint256",
              "name": "cliff",
              "type": "uint256"
            },
            {
              "internalType": "uint256",
              "name": "amountTotal",
              "type": "uint256"
            },
            {
              "internalType": "uint256",
              "name": "released",
              "type": "uint256"
            }
          ],
          "internalType": "struct IRedeemerStorage.VestingSchedule",
          "name": "",
          "type": "tuple"
        }
      ],
      "stateMutability": "view",
      "type": "function"
    },
    {
      "inputs": [],
      "name": "getVestingSchedulesCount",
      "outputs": [
        {
          "internalType": "uint256",
          "name": "",
          "type": "uint256"
        }
      ],
      "stateMutability": "view",
      "type": "function"
    },
    {
      "inputs": [
        {
          "internalType": "address",
          "name": "_beneficiary",
          "type": "address"
        }
      ],
      "name": "getVestingSchedulesCountByBeneficiary",
      "outputs": [
        {
          "internalType": "uint256",
          "name": "",
          "type": "uint256"
        }
      ],
      "stateMutability": "view",
      "type": "function"
    },
    {
      "inputs": [],
      "name": "getVestingSchedulesTotalAmount",
      "outputs": [
        {
          "internalType": "uint256",
          "name": "",
          "type": "uint256"
        }
      ],
      "stateMutability": "view",
      "type": "function"
    },
    {
      "inputs": [],
      "name": "getWithdrawableAmount",
      "outputs": [
        {
          "internalType": "uint256",
          "name": "amount",
          "type": "uint256"
        }
      ],
      "stateMutability": "view",
      "type": "function"
    },
    {
      "inputs": [
        {
          "internalType": "address",
          "name": "_epmx",
          "type": "address"
        },
        {
          "internalType": "address",
          "name": "_pmx",
          "type": "address"
        },
        {
          "internalType": "address",
          "name": "_registry",
          "type": "address"
        },
        {
          "internalType": "address",
          "name": "_treasury",
          "type": "address"
        },
        {
          "internalType": "bool",
          "name": "_whiteListingEnabled",
          "type": "bool"
        },
        {
          "components": [
            {
              "internalType": "uint256",
              "name": "cliff",
              "type": "uint256"
            },
            {
              "internalType": "uint256",
              "name": "duration",
              "type": "uint256"
            },
            {
              "internalType": "uint256",
              "name": "slicePeriodSeconds",
              "type": "uint256"
            },
            {
              "internalType": "uint256",
              "name": "initialUnlockPercentage",
              "type": "uint256"
            },
            {
              "internalType": "uint256",
              "name": "redeemDeadline",
              "type": "uint256"
            }
          ],
          "internalType": "struct IRedeemerStorage.VestingParams",
          "name": "_vestingParams",
          "type": "tuple"
        }
      ],
      "name": "initialize",
      "outputs": [],
      "stateMutability": "nonpayable",
      "type": "function"
    },
    {
      "inputs": [
        {
          "internalType": "address",
          "name": "",
          "type": "address"
        }
      ],
      "name": "isBlackListed",
      "outputs": [
        {
          "internalType": "bool",
          "name": "",
          "type": "bool"
        }
      ],
      "stateMutability": "view",
      "type": "function"
    },
    {
      "inputs": [
        {
          "internalType": "address",
          "name": "",
          "type": "address"
        }
      ],
      "name": "isWhiteListed",
      "outputs": [
        {
          "internalType": "bool",
          "name": "",
          "type": "bool"
        }
      ],
      "stateMutability": "view",
      "type": "function"
    },
    {
      "inputs": [],
      "name": "pmx",
      "outputs": [
        {
          "internalType": "contract IERC20",
          "name": "",
          "type": "address"
        }
      ],
      "stateMutability": "view",
      "type": "function"
    },
    {
      "inputs": [],
      "name": "registry",
      "outputs": [
        {
          "internalType": "contract IAccessControl",
          "name": "",
          "type": "address"
        }
      ],
      "stateMutability": "view",
      "type": "function"
    },
    {
      "inputs": [
        {
          "internalType": "bytes32",
          "name": "vestingScheduleId",
          "type": "bytes32"
        },
        {
          "internalType": "uint256",
          "name": "amount",
          "type": "uint256"
        }
      ],
      "name": "release",
      "outputs": [],
      "stateMutability": "nonpayable",
      "type": "function"
    },
    {
      "inputs": [
        {
          "internalType": "address[]",
          "name": "_addresses",
          "type": "address[]"
        },
        {
          "internalType": "bool[]",
          "name": "_statuses",
          "type": "bool[]"
        }
      ],
      "name": "setStatusesToBlackList",
      "outputs": [],
      "stateMutability": "nonpayable",
      "type": "function"
    },
    {
      "inputs": [
        {
          "internalType": "address[]",
          "name": "_addresses",
          "type": "address[]"
        },
        {
          "internalType": "bool[]",
          "name": "_statuses",
          "type": "bool[]"
        }
      ],
      "name": "setStatusesToWhiteList",
      "outputs": [],
      "stateMutability": "nonpayable",
      "type": "function"
    },
    {
      "inputs": [
        {
          "components": [
            {
              "internalType": "uint256",
              "name": "cliff",
              "type": "uint256"
            },
            {
              "internalType": "uint256",
              "name": "duration",
              "type": "uint256"
            },
            {
              "internalType": "uint256",
              "name": "slicePeriodSeconds",
              "type": "uint256"
            },
            {
              "internalType": "uint256",
              "name": "initialUnlockPercentage",
              "type": "uint256"
            },
            {
              "internalType": "uint256",
              "name": "redeemDeadline",
              "type": "uint256"
            }
          ],
          "internalType": "struct IRedeemerStorage.VestingParams",
          "name": "_vestingParams",
          "type": "tuple"
        }
      ],
      "name": "setVestingParams",
      "outputs": [],
      "stateMutability": "nonpayable",
      "type": "function"
    },
    {
      "inputs": [],
      "name": "switchWhiteListingFlag",
      "outputs": [],
      "stateMutability": "nonpayable",
      "type": "function"
    },
    {
      "inputs": [],
      "name": "treasury",
      "outputs": [
        {
          "internalType": "address",
          "name": "",
          "type": "address"
        }
      ],
      "stateMutability": "view",
      "type": "function"
    },
    {
      "inputs": [],
      "name": "vestingParams",
      "outputs": [
        {
          "internalType": "uint256",
          "name": "cliff",
          "type": "uint256"
        },
        {
          "internalType": "uint256",
          "name": "duration",
          "type": "uint256"
        },
        {
          "internalType": "uint256",
          "name": "slicePeriodSeconds",
          "type": "uint256"
        },
        {
          "internalType": "uint256",
          "name": "initialUnlockPercentage",
          "type": "uint256"
        },
        {
          "internalType": "uint256",
          "name": "redeemDeadline",
          "type": "uint256"
        }
      ],
      "stateMutability": "view",
      "type": "function"
    },
    {
      "inputs": [],
      "name": "withdrawUnclaimed",
      "outputs": [],
      "stateMutability": "nonpayable",
      "type": "function"
    },
    {
      "stateMutability": "payable",
      "type": "receive"
    }
  ],
  "transactionHash": "0xbfb0d836db325a2cbf170ec262343076d893db17bbc434b5da3847e02707ef33",
  "args": [],
  "numDeployments": 1,
  "solcInputHash": "4e8dc4ba13b1ae643cb5ad6cbbc5146b",
  "bytecode": "0x6080604052348015600f57600080fd5b506016601a565b60ca565b7ff0c57e16840df040f15088dc2f81fe391c3923bec73e23a9662efc9c229c6a00805468010000000000000000900460ff161560695760405163f92ee8a960e01b815260040160405180910390fd5b80546001600160401b039081161460c75780546001600160401b0319166001600160401b0390811782556040519081527fc7f505b2f371ae2175ee4913f4499e1f2633a7b5936321eed1cdaeb6115181d29060200160405180910390a15b50565b61225c806100d96000396000f3fe60806040526004361061018b5760003560e01c80637b103999116100e0578063c4b0290811610084578063f38ec10411610061578063f38ec104146104f3578063f51321d714610513578063f7c469f014610533578063f9079b371461055357005b8063c4b0290814610454578063e47d6060146104a3578063ea1bb3d5146104d357005b806390be10cc116100bd57806390be10cc146103df57806397ae48fe146103f45780639ef346b414610414578063abb823681461043457005b80637b103999146103725780637e913dc6146103925780638af104da146103bf57005b8063419544a0116101475780635a7bb69a116101245780635a7bb69a146102bc57806361d027b3146102f257806366afd8ef146103125780636f9170f61461033257005b8063419544a01461025a578063450327e41461027a57806348deb471146102a757005b80630460f0f31461019457806313083617146101d157806313de353b146101f057806320391ff61461021057806333fc56d914610225578063348829fd1461023a57005b3661019257005b005b3480156101a057600080fd5b506001546101b4906001600160a01b031681565b6040516001600160a01b0390911681526020015b60405180910390f35b3480156101dd57600080fd5b50600c545b6040519081526020016101c8565b3480156101fc57600080fd5b5061019261020b366004611df2565b610573565b34801561021c57600080fd5b50610192610626565b34801561023157600080fd5b506101926106d8565b34801561024657600080fd5b506000546101b4906001600160a01b031681565b34801561026657600080fd5b50610192610275366004611e2a565b610809565b34801561028657600080fd5b5061029a610295366004611e54565b610b9e565b6040516101c89190611e6f565b3480156102b357600080fd5b50600e546101e2565b3480156102c857600080fd5b506101e26102d7366004611e54565b6001600160a01b031660009081526010602052604090205490565b3480156102fe57600080fd5b506003546101b4906001600160a01b031681565b34801561031e57600080fd5b5061019261032d366004611ee4565b610c51565b34801561033e57600080fd5b5061036261034d366004611e54565b600a6020526000908152604090205460ff1681565b60405190151581526020016101c8565b34801561037e57600080fd5b506002546101b4906001600160a01b031681565b34801561039e57600080fd5b506103b26103ad366004611e54565b610ed5565b6040516101c89190611f06565b3480156103cb57600080fd5b506101e26103da366004611e2a565b610f5b565b3480156103eb57600080fd5b506101e2610fa3565b34801561040057600080fd5b5061019261040f366004611f86565b6110bd565b34801561042057600080fd5b506103b261042f366004611ff7565b6111ef565b34801561044057600080fd5b5061019261044f36600461201e565b611245565b34801561046057600080fd5b5060045460055460065460075460085461047b949392919085565b604080519586526020860194909452928401919091526060830152608082015260a0016101c8565b3480156104af57600080fd5b506103626104be366004611e54565b60096020526000908152604090205460ff1681565b3480156104df57600080fd5b506101e26104ee366004611ff7565b6114f6565b3480156104ff57600080fd5b5061019261050e366004611f86565b61156d565b34801561051f57600080fd5b506103b261052e366004611e2a565b611697565b34801561053f57600080fd5b506101e261054e366004611e54565b6116b3565b34801561055f57600080fd5b506101e261056e366004611ff7565b6116d7565b600254604051632474521560e21b81526000805160206121e783398151915260048201819052336024830152916001600160a01b0316906391d1485490604401602060405180830381865afa1580156105d0573d6000803e3d6000fd5b505050506040513d601f19601f820116820180604052508101906105f49190612096565b6106195760405162461bcd60e51b8152600401610610906120b3565b60405180910390fd5b61062282611755565b5050565b600254604051632474521560e21b81526000805160206121e783398151915260048201819052336024830152916001600160a01b0316906391d1485490604401602060405180830381865afa158015610683573d6000803e3d6000fd5b505050506040513d601f19601f820116820180604052508101906106a79190612096565b6106c35760405162461bcd60e51b8152600401610610906120b3565b50600b805460ff19811660ff90911615179055565b600254604051632474521560e21b81526000805160206121e783398151915260048201819052336024830152916001600160a01b0316906391d1485490604401602060405180830381865afa158015610735573d6000803e3d6000fd5b505050506040513d601f19601f820116820180604052508101906107599190612096565b6107755760405162461bcd60e51b8152600401610610906120b3565b60085442116107da5760405162461bcd60e51b815260206004820152602b60248201527f52656465656d65723a207468652072656465656d446561646c696e652068617360448201526a081b9bdd081c185cdcd95960aa1b6064820152608401610610565b60006107e4610fa3565b9050801561062257600354600154610622916001600160a01b0391821691168361189a565b6108116118f9565b61081a33611931565b61082382611931565b60085442908111156108875760405162461bcd60e51b815260206004820152602760248201527f52656465656d65723a207468652072656465656d446561646c696e6520686173604482015266081c185cdcd95960ca1b6064820152608401610610565b81610890610fa3565b10156109135760405162461bcd60e51b815260206004820152604660248201527f52656465656d65723a2063616e6e6f74206372656174652076657374696e672060448201527f7363686564756c652062656361757365206e6f742073756666696369656e7420606482015265746f6b656e7360d01b608482015260a401610610565b600082116109635760405162461bcd60e51b815260206004820152601c60248201527f52656465656d65723a20616d6f756e74206d757374206265203e2030000000006044820152606401610610565b60005461097b906001600160a01b0316333085611a1f565b600054604051630852cd8d60e31b8152600481018490526001600160a01b03909116906342966c6890602401600060405180830381600087803b1580156109c157600080fd5b505af11580156109d5573d6000803e3d6000fd5b5050505060006109e4846116b3565b6007549091506000906109f8908590611a5e565b90508015610a1757600154610a17906001600160a01b0316868361189a565b600454600090610a2790856120f6565b90506040518060800160405280876001600160a01b031681526020018281526020018387610a559190612109565b815260006020918201819052858152600d8252604090819020835181546001600160a01b0319166001600160a01b039091161781559183015160018301558201516002820155606090910151600390910155610ab18286612109565b600e6000828254610ac291906120f6565b9091555050600c805460018181019092557fdf6966c971051c3d54ec59162606531493a51404a002842f56009d7e5cf4a8c7018490556001600160a01b03871660009081526010602052604090205490610b1d9082906120f6565b6001600160a01b038816600081815260106020908152604091829020939093558051338152928301919091528101879052606081018590527fcb568f78b4393f1bc11f6025173b5db625abed9f9ae8a7eea059e8e6bf453cd19060800160405180910390a15050505050610622600160008051602061220783398151915255565b6001600160a01b0381166000908152601060205260408120546060918167ffffffffffffffff811115610bd357610bd361211c565b604051908082528060200260200182016040528015610c0c57816020015b610bf9611da9565b815260200190600190039081610bf15790505b50905060005b82811015610c4957610c248582611697565b828281518110610c3657610c36612132565b6020908102919091010152600101610c12565b509392505050565b610c596118f9565b6000828152600d60205260409020600201548290610c7657600080fd5b610c7f33611931565b6000838152600d6020526040902080546001600160a01b03163314610d035760405162461bcd60e51b815260206004820152603460248201527f52656465656d65723a206f6e6c792062656e65666963696172792063616e2072604482015273656c656173652076657374656420746f6b656e7360601b6064820152608401610610565b4281600101541115610d705760405162461bcd60e51b815260206004820152603060248201527f52656465656d65723a2074686520636c6966662074696d657374616d7020686160448201526f1cc81b9bdd081c185cdcd959081e595d60821b6064820152608401610610565b6040805160808101825282546001600160a01b031681526001830154602082015260028301549181019190915260038201546060820152600090610db390611aac565b905083811015610e2b5760405162461bcd60e51b815260206004820152603960248201527f52656465656d65723a2063616e6e6f742072656c6561736520746f6b656e732c60448201527f206e6f7420656e6f7567682076657374656420746f6b656e73000000000000006064820152608401610610565b838260030154610e3b91906120f6565b826003018190555083600f6000828254610e5591906120f6565b9182905550600f55508154600154610e7a916001600160a01b0391821691168661189a565b60408051338152602081018690529081018690527f348479508f3c8c8c8a78a143056c770bcf93ab7e19f68557bdbcbe1f741294a19060600160405180910390a1505050610622600160008051602061220783398151915255565b610edd611da9565b6001600160a01b038216600090815260106020526040812054600d9190610f0c9085906103da90600190612109565b81526020808201929092526040908101600020815160808101835281546001600160a01b0316815260018201549381019390935260028101549183019190915260030154606082015292915050565b6040516bffffffffffffffffffffffff19606084901b166020820152603481018290526000906054016040516020818303038152906040528051906020012090505b92915050565b6001546040516370a0823160e01b815230600482015260009182916001600160a01b03909116906370a0823190602401602060405180830381865afa158015610ff0573d6000803e3d6000fd5b505050506040513d601f19601f820116820180604052508101906110149190612148565b9050600f54600e546110269190612109565b8111156110b957600e54600f546001546040516370a0823160e01b81523060048201526001600160a01b03909116906370a0823190602401602060405180830381865afa15801561107b573d6000803e3d6000fd5b505050506040513d601f19601f8201168201806040525081019061109f9190612148565b6110a991906120f6565b6110b39190612109565b91505090565b5090565b600254604051632474521560e21b81526000805160206121e783398151915260048201819052336024830152916001600160a01b0316906391d1485490604401602060405180830381865afa15801561111a573d6000803e3d6000fd5b505050506040513d601f19601f8201168201806040525081019061113e9190612096565b61115a5760405162461bcd60e51b8152600401610610906120b3565b60005b848110156111e75783838281811061117757611177612132565b905060200201602081019061118c9190612161565b600960008888858181106111a2576111a2612132565b90506020020160208101906111b79190611e54565b6001600160a01b031681526020810191909152604001600020805460ff191691151591909117905560010161115d565b505050505050565b6111f7611da9565b506000908152600d6020908152604091829020825160808101845281546001600160a01b03168152600182015492810192909252600281015492820192909252600390910154606082015290565b7ff0c57e16840df040f15088dc2f81fe391c3923bec73e23a9662efc9c229c6a008054600160401b810460ff16159067ffffffffffffffff1660008115801561128b5750825b905060008267ffffffffffffffff1660011480156112a85750303b155b9050811580156112b6575080155b156112d45760405163f92ee8a960e01b815260040160405180910390fd5b845467ffffffffffffffff1916600117855583156112fe57845460ff60401b1916600160401b1785555b6040516301ffc9a760e01b81526336372b0760e01b60048201526001600160a01b038c16906301ffc9a790602401602060405180830381865afa158015611349573d6000803e3d6000fd5b505050506040513d601f19601f8201168201806040525081019061136d9190612096565b80156113e357506040516301ffc9a760e01b8152637965db0b60e01b60048201526001600160a01b038a16906301ffc9a790602401602060405180830381865afa1580156113bf573d6000803e3d6000fd5b505050506040513d601f19601f820116820180604052508101906113e39190612096565b61143a5760405162461bcd60e51b815260206004820152602260248201527f52656465656d65723a2061646472657373206973206e6f7420737570706f7274604482015261195960f21b6064820152608401610610565b600080546001600160a01b03199081166001600160a01b038e8116919091179092556001805482168d84161790556002805482168c841617905560038054909116918a16919091179055600b805460ff191688151517905561149b86611755565b6114a3611b6c565b83156114e957845460ff60401b19168555604051600181527fc7f505b2f371ae2175ee4913f4499e1f2633a7b5936321eed1cdaeb6115181d29060200160405180910390a15b5050505050505050505050565b6000818152600d6020526040812060020154829061151357600080fd5b6000838152600d6020908152604091829020825160808101845281546001600160a01b031681526001820154928101929092526002810154928201929092526003820154606082015261156590611aac565b949350505050565b600254604051632474521560e21b81526000805160206121e783398151915260048201819052336024830152916001600160a01b0316906391d1485490604401602060405180830381865afa1580156115ca573d6000803e3d6000fd5b505050506040513d601f19601f820116820180604052508101906115ee9190612096565b61160a5760405162461bcd60e51b8152600401610610906120b3565b60005b848110156111e75783838281811061162757611627612132565b905060200201602081019061163c9190612161565b600a600088888581811061165257611652612132565b90506020020160208101906116679190611e54565b6001600160a01b031681526020810191909152604001600020805460ff191691151591909117905560010161160d565b61169f611da9565b6116ac61042f8484610f5b565b9392505050565b6001600160a01b038116600090815260106020526040812054610f9d908390610f5b565b60006116e2600c5490565b82106117305760405162461bcd60e51b815260206004820152601d60248201527f52656465656d65723a20696e646578206f7574206f6620626f756e64730000006044820152606401610610565b600c828154811061174357611743612132565b90600052602060002001549050919050565b60008160200135116117a95760405162461bcd60e51b815260206004820152601e60248201527f52656465656d65723a206475726174696f6e206d757374206265203e203000006044820152606401610610565b600081604001351161180e5760405162461bcd60e51b815260206004820152602860248201527f52656465656d65723a20736c696365506572696f645365636f6e6473206d7573604482015267074206265203e20360c41b6064820152608401610610565b80356020820135101561186f5760405162461bcd60e51b815260206004820152602360248201527f52656465656d65723a206475726174696f6e206d757374206265203e3d20636c60448201526234b33360e91b6064820152608401610610565b803560045560208101356005556040810135600655606081013560075560800135600855565b505050565b6040516001600160a01b0383811660248301526044820183905261189591859182169063a9059cbb906064015b604051602081830303815290604052915060e01b6020820180516001600160e01b038381831617835250505050611b7e565b60008051602061220783398151915280546001190161192b57604051633ee5aeb560e01b815260040160405180910390fd5b60029055565b600b5460ff16156119b6576001600160a01b0381166000908152600a602052604090205460ff166119b35760405162461bcd60e51b815260206004820152602660248201527f52656465656d65723a2075736572206973206e6f7420696e20746865207768696044820152651d195b1a5cdd60d21b6064820152608401610610565b50565b6001600160a01b03811660009081526009602052604090205460ff16156119b35760405162461bcd60e51b815260206004820152601d60248201527f52656465656d65723a207573657220697320626c61636b6c69737465640000006044820152606401610610565b6040516001600160a01b038481166024830152838116604483015260648201839052611a589186918216906323b872dd906084016118c7565b50505050565b6000670de0b6b3a7640000611a8e611a768585611be1565b611a896002670de0b6b3a764000061217e565b611c22565b6116ac919061217e565b600160008051602061220783398151915255565b600454600554602083015160009242929091611ac891906120f6565b611ad29190612109565b8110611aec57826060015183604001516116ac9190612109565b6004546020840151600091611b0091612109565b611b0a9083612109565b6006549091506000611b1c828461217e565b90506000611b2a83836121a0565b90506000600460010154828960400151611b4491906121a0565b611b4e919061217e565b9050876060015181611b609190612109565b98975050505050505050565b611b74611c51565b611b7c611c9a565b565b6000611b936001600160a01b03841683611ca2565b90508051600014158015611bb8575080806020019051810190611bb69190612096565b155b1561189557604051635274afe760e01b81526001600160a01b0384166004820152602401610610565b6000811580611c0557508282611bf781836121a0565b9250611c03908361217e565b145b610f9d57604051631550e8b760e01b815260040160405180910390fd5b600082611c2f83826120f6565b9150811015610f9d57604051630a77254f60e01b815260040160405180910390fd5b7ff0c57e16840df040f15088dc2f81fe391c3923bec73e23a9662efc9c229c6a0054600160401b900460ff16611b7c57604051631afcd79f60e31b815260040160405180910390fd5b611a98611c51565b60606116ac8383600084600080856001600160a01b03168486604051611cc891906121b7565b60006040518083038185875af1925050503d8060008114611d05576040519150601f19603f3d011682016040523d82523d6000602084013e611d0a565b606091505b5091509150611d1a868383611d24565b9695505050505050565b606082611d3957611d3482611d80565b6116ac565b8151158015611d5057506001600160a01b0384163b155b15611d7957604051639996b31560e01b81526001600160a01b0385166004820152602401610610565b50806116ac565b805115611d905780518082602001fd5b604051630a12f52160e11b815260040160405180910390fd5b604051806080016040528060006001600160a01b031681526020016000815260200160008152602001600081525090565b600060a08284031215611dec57600080fd5b50919050565b600060a08284031215611e0457600080fd5b6116ac8383611dda565b80356001600160a01b0381168114611e2557600080fd5b919050565b60008060408385031215611e3d57600080fd5b611e4683611e0e565b946020939093013593505050565b600060208284031215611e6657600080fd5b6116ac82611e0e565b602080825282518282018190526000918401906040840190835b81811015611ed957611ec383855180516001600160a01b031682526020808201519083015260408082015190830152606090810151910152565b6020939093019260809290920191600101611e89565b509095945050505050565b60008060408385031215611ef757600080fd5b50508035926020909101359150565b81516001600160a01b0316815260208083015190820152604080830151908201526060808301519082015260808101610f9d565b60008083601f840112611f4c57600080fd5b50813567ffffffffffffffff811115611f6457600080fd5b6020830191508360208260051b8501011115611f7f57600080fd5b9250929050565b60008060008060408587031215611f9c57600080fd5b843567ffffffffffffffff811115611fb357600080fd5b611fbf87828801611f3a565b909550935050602085013567ffffffffffffffff811115611fdf57600080fd5b611feb87828801611f3a565b95989497509550505050565b60006020828403121561200957600080fd5b5035919050565b80151581146119b357600080fd5b600080600080600080610140878903121561203857600080fd5b61204187611e0e565b955061204f60208801611e0e565b945061205d60408801611e0e565b935061206b60608801611e0e565b9250608087013561207b81612010565b915061208a8860a08901611dda565b90509295509295509295565b6000602082840312156120a857600080fd5b81516116ac81612010565b6020808252601390820152722932b232b2b6b2b91d102327a92124a22222a760691b604082015260600190565b634e487b7160e01b600052601160045260246000fd5b80820180821115610f9d57610f9d6120e0565b81810381811115610f9d57610f9d6120e0565b634e487b7160e01b600052604160045260246000fd5b634e487b7160e01b600052603260045260246000fd5b60006020828403121561215a57600080fd5b5051919050565b60006020828403121561217357600080fd5b81356116ac81612010565b60008261219b57634e487b7160e01b600052601260045260246000fd5b500490565b8082028115828204841417610f9d57610f9d6120e0565b6000825160005b818110156121d857602081860181015185830152016121be565b50600092019182525091905056fe5a7d4408f4759dddd7fdfd0d21abd99341dc2f52cda14804988a9b2df20766d89b779b17422d0df92223018b32b4d1fa46e071723d6817e2486d003becc55f00a2646970667358221220bac7ebdc68708826a8f0b365955c6e1672b54f7e2bb84247bf70a3afe1fb877964736f6c634300081a0033",
  "devdoc": {
    "errors": {
      "AddressEmptyCode(address)": [
        {
          "details": "There's no code at `target` (it is not a contract)."
        }
      ],
      "AddressInsufficientBalance(address)": [
        {
          "details": "The ETH balance of the account is not enough to perform the operation."
        }
      ],
      "FailedInnerCall()": [
        {
          "details": "A call to an address target failed. The target may have reverted."
        }
      ],
      "InvalidInitialization()": [
        {
          "details": "The contract is already initialized."
        }
      ],
      "NotInitializing()": [
        {
          "details": "The contract is not initializing."
        }
      ],
      "ReentrancyGuardReentrantCall()": [
        {
          "details": "Unauthorized reentrant call."
        }
      ],
      "SafeERC20FailedOperation(address)": [
        {
          "details": "An operation with an ERC20 token failed."
        }
      ]
    },
    "events": {
      "Initialized(uint64)": {
        "details": "Triggered when the contract has been initialized or reinitialized."
      }
    },
    "kind": "dev",
    "methods": {
      "computeNextVestingScheduleIdForHolder(address)": {
        "details": "Computes the next vesting schedule identifier for a given holder address."
      },
      "computeReleasableAmount(bytes32)": {
        "returns": {
          "_0": "the vested amount"
        }
      },
      "computeVestingScheduleIdForAddressAndIndex(address,uint256)": {
        "details": "Computes the vesting schedule identifier for an address and an index."
      },
      "createVestingSchedule(address,uint256)": {
        "params": {
          "_amount": "total amount of tokens to be released at the end of the vesting",
          "_beneficiary": "address of the beneficiary to whom vested tokens are transferred"
        }
      },
      "getAllVestingSchedulesByAddress(address)": {
        "params": {
          "holder": "User's address"
        }
      },
      "getLastVestingScheduleForHolder(address)": {
        "details": "Returns the last vesting schedule for a given holder address."
      },
      "getVestingIdAtIndex(uint256)": {
        "details": "Returns the vesting schedule id at the given index.",
        "returns": {
          "_0": "the vesting id"
        }
      },
      "getVestingSchedule(bytes32)": {
        "returns": {
          "_0": "the vesting schedule structure information"
        }
      },
      "getVestingScheduleByAddressAndIndex(address,uint256)": {
        "returns": {
          "_0": "the vesting schedule structure information"
        }
      },
      "getVestingSchedulesCount()": {
        "details": "Returns the number of vesting schedules managed by this contract.",
        "returns": {
          "_0": "the number of vesting schedules"
        }
      },
      "getVestingSchedulesCountByBeneficiary(address)": {
        "details": "Returns the number of vesting schedules associated to a beneficiary.",
        "returns": {
          "_0": "the number of vesting schedules"
        }
      },
      "getVestingSchedulesTotalAmount()": {
        "returns": {
          "_0": "the total amount of vesting schedules"
        }
      },
      "getWithdrawableAmount()": {
        "details": "Returns the amount of tokens that can be withdrawn by the owner."
      },
      "initialize(address,address,address,address,bool,(uint256,uint256,uint256,uint256,uint256))": {
        "details": "This function should only be called once during the initial setup of the contract.",
        "params": {
          "_epmx": "The address of the EPMX",
          "_pmx": "The address of the PMX",
          "_registry": "The address of the Primex Registry",
          "_treasury": "The address of the Primex treasury to which unclaimed PMX tokens will be sent after the redeemDeadline.",
          "_vestingParams": "VestingParams struct for initialization",
          "_whiteListingEnabled": "enables or disables whitelisting"
        }
      },
      "release(bytes32,uint256)": {
        "params": {
          "amount": "the amount to release",
          "vestingScheduleId": "the vesting schedule identifier"
        }
      },
      "setStatusesToBlackList(address[],bool[])": {
        "details": "Adds or removes an address to the blackList. Only SMALL_TIMELOCK_ADMIN can call it."
      },
      "setStatusesToWhiteList(address[],bool[])": {
        "details": "Adds or removes an address to the whitelist. Only SMALL_TIMELOCK_ADMIN can call it."
      },
      "setVestingParams((uint256,uint256,uint256,uint256,uint256))": {
        "details": "Sets the vesting params.Only SMALL_TIMELOCK_ADMIN can call it."
      },
      "switchWhiteListingFlag()": {
        "details": "Enables or disables whitelisting. Only SMALL_TIMELOCK_ADMIN can call it."
      }
    },
    "title": "Redeemer",
    "version": 1
  },
  "userdoc": {
    "kind": "user",
    "methods": {
      "computeReleasableAmount(bytes32)": {
        "notice": "Computes the vested amount of tokens for the given vesting schedule identifier."
      },
      "createVestingSchedule(address,uint256)": {
        "notice": "Creates a new vesting schedule for a beneficiary."
      },
      "epmx()": {
        "notice": "Retrieves the instance of the EPMX contract."
      },
      "getAllVestingSchedulesByAddress(address)": {
        "notice": "Returns all of the user's schedules"
      },
      "getVestingSchedule(bytes32)": {
        "notice": "Returns the vesting schedule information for a given identifier."
      },
      "getVestingScheduleByAddressAndIndex(address,uint256)": {
        "notice": "Returns the vesting schedule information for a given holder and index."
      },
      "getVestingSchedulesTotalAmount()": {
        "notice": "Returns the total amount of vesting schedules."
      },
      "initialize(address,address,address,address,bool,(uint256,uint256,uint256,uint256,uint256))": {
        "notice": "Initializes the Redeemer contract."
      },
      "isBlackListed(address)": {
        "notice": "Returns true if the address is blacklisted"
      },
      "isWhiteListed(address)": {
        "notice": "Returns true if the address is whitelisted"
      },
      "pmx()": {
        "notice": "Retrieves the instance of the PMX contract."
      },
      "registry()": {
        "notice": "Retrieves the instance of PrimexRegistry contract."
      },
      "release(bytes32,uint256)": {
        "notice": "Release vested amount of tokens."
      },
      "treasury()": {
        "notice": "Retrieves the instance of the treasury contract."
      },
      "vestingParams()": {
        "notice": "Retrieves the vesting params of the contract"
      },
      "withdrawUnclaimed()": {
        "notice": "Withdraw the withdrawable amount amount if possible."
      }
    },
    "version": 1
  },
  "storageLayout": {
    "storage": [
      {
        "astId": 3092,
        "contract": "src/Redeemer.sol:Redeemer",
        "label": "epmx",
        "offset": 0,
        "slot": "0",
        "type": "t_contract(ERC20Burnable)1241"
      },
      {
        "astId": 3096,
        "contract": "src/Redeemer.sol:Redeemer",
        "label": "pmx",
        "offset": 0,
        "slot": "1",
        "type": "t_contract(IERC20)1195"
      },
      {
        "astId": 3100,
        "contract": "src/Redeemer.sol:Redeemer",
        "label": "registry",
        "offset": 0,
        "slot": "2",
        "type": "t_contract(IAccessControl)465"
      },
      {
        "astId": 3103,
        "contract": "src/Redeemer.sol:Redeemer",
        "label": "treasury",
        "offset": 0,
        "slot": "3",
        "type": "t_address"
      },
      {
        "astId": 3107,
        "contract": "src/Redeemer.sol:Redeemer",
        "label": "vestingParams",
        "offset": 0,
        "slot": "4",
        "type": "t_struct(VestingParams)2073_storage"
      },
      {
        "astId": 3112,
        "contract": "src/Redeemer.sol:Redeemer",
        "label": "isBlackListed",
        "offset": 0,
        "slot": "9",
        "type": "t_mapping(t_address,t_bool)"
      },
      {
        "astId": 3117,
        "contract": "src/Redeemer.sol:Redeemer",
        "label": "isWhiteListed",
        "offset": 0,
        "slot": "10",
        "type": "t_mapping(t_address,t_bool)"
      },
      {
        "astId": 3119,
        "contract": "src/Redeemer.sol:Redeemer",
        "label": "whiteListingEnabled",
        "offset": 0,
        "slot": "11",
        "type": "t_bool"
      },
      {
        "astId": 3122,
        "contract": "src/Redeemer.sol:Redeemer",
        "label": "vestingSchedulesIds",
        "offset": 0,
        "slot": "12",
        "type": "t_array(t_bytes32)dyn_storage"
      },
      {
        "astId": 3127,
        "contract": "src/Redeemer.sol:Redeemer",
        "label": "vestingSchedules",
        "offset": 0,
        "slot": "13",
        "type": "t_mapping(t_bytes32,t_struct(VestingSchedule)2062_storage)"
      },
      {
        "astId": 3129,
        "contract": "src/Redeemer.sol:Redeemer",
        "label": "vestingSchedulesTotalAmount",
        "offset": 0,
        "slot": "14",
        "type": "t_uint256"
      },
      {
        "astId": 3131,
        "contract": "src/Redeemer.sol:Redeemer",
        "label": "vestingReleasedTotalAmount",
        "offset": 0,
        "slot": "15",
        "type": "t_uint256"
      },
      {
        "astId": 3135,
        "contract": "src/Redeemer.sol:Redeemer",
        "label": "holdersVestingCount",
        "offset": 0,
        "slot": "16",
        "type": "t_mapping(t_address,t_uint256)"
      }
    ],
    "types": {
      "t_address": {
        "encoding": "inplace",
        "label": "address",
        "numberOfBytes": "20"
      },
      "t_array(t_bytes32)dyn_storage": {
        "base": "t_bytes32",
        "encoding": "dynamic_array",
        "label": "bytes32[]",
        "numberOfBytes": "32"
      },
      "t_bool": {
        "encoding": "inplace",
        "label": "bool",
        "numberOfBytes": "1"
      },
      "t_bytes32": {
        "encoding": "inplace",
        "label": "bytes32",
        "numberOfBytes": "32"
      },
      "t_contract(ERC20Burnable)1241": {
        "encoding": "inplace",
        "label": "contract ERC20Burnable",
        "numberOfBytes": "20"
      },
      "t_contract(IAccessControl)465": {
        "encoding": "inplace",
        "label": "contract IAccessControl",
        "numberOfBytes": "20"
      },
      "t_contract(IERC20)1195": {
        "encoding": "inplace",
        "label": "contract IERC20",
        "numberOfBytes": "20"
      },
      "t_mapping(t_address,t_bool)": {
        "encoding": "mapping",
        "key": "t_address",
        "label": "mapping(address => bool)",
        "numberOfBytes": "32",
        "value": "t_bool"
      },
      "t_mapping(t_address,t_uint256)": {
        "encoding": "mapping",
        "key": "t_address",
        "label": "mapping(address => uint256)",
        "numberOfBytes": "32",
        "value": "t_uint256"
      },
      "t_mapping(t_bytes32,t_struct(VestingSchedule)2062_storage)": {
        "encoding": "mapping",
        "key": "t_bytes32",
        "label": "mapping(bytes32 => struct IRedeemerStorage.VestingSchedule)",
        "numberOfBytes": "32",
        "value": "t_struct(VestingSchedule)2062_storage"
      },
      "t_struct(VestingParams)2073_storage": {
        "encoding": "inplace",
        "label": "struct IRedeemerStorage.VestingParams",
        "members": [
          {
            "astId": 2064,
            "contract": "src/Redeemer.sol:Redeemer",
            "label": "cliff",
            "offset": 0,
            "slot": "0",
            "type": "t_uint256"
          },
          {
            "astId": 2066,
            "contract": "src/Redeemer.sol:Redeemer",
            "label": "duration",
            "offset": 0,
            "slot": "1",
            "type": "t_uint256"
          },
          {
            "astId": 2068,
            "contract": "src/Redeemer.sol:Redeemer",
            "label": "slicePeriodSeconds",
            "offset": 0,
            "slot": "2",
            "type": "t_uint256"
          },
          {
            "astId": 2070,
            "contract": "src/Redeemer.sol:Redeemer",
            "label": "initialUnlockPercentage",
            "offset": 0,
            "slot": "3",
            "type": "t_uint256"
          },
          {
            "astId": 2072,
            "contract": "src/Redeemer.sol:Redeemer",
            "label": "redeemDeadline",
            "offset": 0,
            "slot": "4",
            "type": "t_uint256"
          }
        ],
        "numberOfBytes": "160"
      },
      "t_struct(VestingSchedule)2062_storage": {
        "encoding": "inplace",
        "label": "struct IRedeemerStorage.VestingSchedule",
        "members": [
          {
            "astId": 2055,
            "contract": "src/Redeemer.sol:Redeemer",
            "label": "beneficiary",
            "offset": 0,
            "slot": "0",
            "type": "t_address"
          },
          {
            "astId": 2057,
            "contract": "src/Redeemer.sol:Redeemer",
            "label": "cliff",
            "offset": 0,
            "slot": "1",
            "type": "t_uint256"
          },
          {
            "astId": 2059,
            "contract": "src/Redeemer.sol:Redeemer",
            "label": "amountTotal",
            "offset": 0,
            "slot": "2",
            "type": "t_uint256"
          },
          {
            "astId": 2061,
            "contract": "src/Redeemer.sol:Redeemer",
            "label": "released",
            "offset": 0,
            "slot": "3",
            "type": "t_uint256"
          }
        ],
        "numberOfBytes": "128"
      },
      "t_uint256": {
        "encoding": "inplace",
        "label": "uint256",
        "numberOfBytes": "32"
      }
    }
  }
}