{
  "address": "0x827349BA4738eFAfF783026864B4fAB6585a38E4",
  "abi": [
    {
      "inputs": [],
      "stateMutability": "nonpayable",
      "type": "constructor"
    },
    {
      "anonymous": false,
      "inputs": [
        {
          "indexed": true,
          "internalType": "address",
          "name": "depositer",
          "type": "address"
        },
        {
          "indexed": true,
          "internalType": "address",
          "name": "asset",
          "type": "address"
        },
        {
          "indexed": false,
          "internalType": "uint256",
          "name": "amount",
          "type": "uint256"
        }
      ],
      "name": "Deposit",
      "type": "event"
    },
    {
      "anonymous": false,
      "inputs": [
        {
          "indexed": false,
          "internalType": "uint8",
          "name": "version",
          "type": "uint8"
        }
      ],
      "name": "Initialized",
      "type": "event"
    },
    {
      "anonymous": false,
      "inputs": [
        {
          "indexed": false,
          "internalType": "address",
          "name": "account",
          "type": "address"
        }
      ],
      "name": "Paused",
      "type": "event"
    },
    {
      "anonymous": false,
      "inputs": [
        {
          "indexed": false,
          "internalType": "address",
          "name": "account",
          "type": "address"
        }
      ],
      "name": "Unpaused",
      "type": "event"
    },
    {
      "anonymous": false,
      "inputs": [
        {
          "indexed": true,
          "internalType": "address",
          "name": "withdrawer",
          "type": "address"
        },
        {
          "indexed": false,
          "internalType": "address",
          "name": "asset",
          "type": "address"
        },
        {
          "indexed": false,
          "internalType": "uint256",
          "name": "amount",
          "type": "uint256"
        }
      ],
      "name": "Withdraw",
      "type": "event"
    },
    {
      "inputs": [
        {
          "internalType": "address",
          "name": "",
          "type": "address"
        },
        {
          "internalType": "address",
          "name": "",
          "type": "address"
        }
      ],
      "name": "balances",
      "outputs": [
        {
          "internalType": "uint256",
          "name": "availableBalance",
          "type": "uint256"
        },
        {
          "internalType": "uint256",
          "name": "lockedBalance",
          "type": "uint256"
        }
      ],
      "stateMutability": "view",
      "type": "function"
    },
    {
      "inputs": [
        {
          "components": [
            {
              "internalType": "address[]",
              "name": "traders",
              "type": "address[]"
            },
            {
              "internalType": "uint256[]",
              "name": "amounts",
              "type": "uint256[]"
            },
            {
              "internalType": "address",
              "name": "asset",
              "type": "address"
            },
            {
              "internalType": "uint256",
              "name": "length",
              "type": "uint256"
            }
          ],
          "internalType": "struct ITraderBalanceVault.BatchTopUpAvailableBalanceParams",
          "name": "_params",
          "type": "tuple"
        }
      ],
      "name": "batchTopUpAvailableBalance",
      "outputs": [],
      "stateMutability": "nonpayable",
      "type": "function"
    },
    {
      "inputs": [
        {
          "internalType": "address",
          "name": "_asset",
          "type": "address"
        },
        {
          "internalType": "uint256",
          "name": "_amount",
          "type": "uint256"
        }
      ],
      "name": "deposit",
      "outputs": [],
      "stateMutability": "payable",
      "type": "function"
    },
    {
      "inputs": [
        {
          "internalType": "address",
          "name": "_trader",
          "type": "address"
        },
        {
          "internalType": "address",
          "name": "_asset",
          "type": "address"
        },
        {
          "internalType": "uint256",
          "name": "_amount",
          "type": "uint256"
        }
      ],
      "name": "increaseLockedBalance",
      "outputs": [],
      "stateMutability": "payable",
      "type": "function"
    },
    {
      "inputs": [
        {
          "internalType": "address",
          "name": "_registry",
          "type": "address"
        },
        {
          "internalType": "address",
          "name": "_whiteBlackList",
          "type": "address"
        }
      ],
      "name": "initialize",
      "outputs": [],
      "stateMutability": "nonpayable",
      "type": "function"
    },
    {
      "inputs": [],
      "name": "pause",
      "outputs": [],
      "stateMutability": "nonpayable",
      "type": "function"
    },
    {
      "inputs": [],
      "name": "paused",
      "outputs": [
        {
          "internalType": "bool",
          "name": "",
          "type": "bool"
        }
      ],
      "stateMutability": "view",
      "type": "function"
    },
    {
      "inputs": [],
      "name": "registry",
      "outputs": [
        {
          "internalType": "address",
          "name": "",
          "type": "address"
        }
      ],
      "stateMutability": "view",
      "type": "function"
    },
    {
      "inputs": [
        {
          "internalType": "bytes4",
          "name": "_interfaceId",
          "type": "bytes4"
        }
      ],
      "name": "supportsInterface",
      "outputs": [
        {
          "internalType": "bool",
          "name": "",
          "type": "bool"
        }
      ],
      "stateMutability": "view",
      "type": "function"
    },
    {
      "inputs": [
        {
          "internalType": "address",
          "name": "receiver",
          "type": "address"
        },
        {
          "internalType": "address",
          "name": "asset",
          "type": "address"
        },
        {
          "internalType": "uint256",
          "name": "amount",
          "type": "uint256"
        }
      ],
      "name": "topUpAvailableBalance",
      "outputs": [],
      "stateMutability": "payable",
      "type": "function"
    },
    {
      "inputs": [
        {
          "components": [
            {
              "internalType": "address",
              "name": "trader",
              "type": "address"
            },
            {
              "internalType": "address",
              "name": "receiver",
              "type": "address"
            },
            {
              "internalType": "address",
              "name": "asset",
              "type": "address"
            },
            {
              "internalType": "uint256",
              "name": "amount",
              "type": "uint256"
            }
          ],
          "internalType": "struct ITraderBalanceVault.UnlockAssetParams",
          "name": "_params",
          "type": "tuple"
        }
      ],
      "name": "unlockAsset",
      "outputs": [],
      "stateMutability": "nonpayable",
      "type": "function"
    },
    {
      "inputs": [],
      "name": "unpause",
      "outputs": [],
      "stateMutability": "nonpayable",
      "type": "function"
    },
    {
      "inputs": [
        {
          "components": [
            {
              "internalType": "address",
              "name": "trader",
              "type": "address"
            },
            {
              "internalType": "address",
              "name": "depositReceiver",
              "type": "address"
            },
            {
              "internalType": "address",
              "name": "depositAsset",
              "type": "address"
            },
            {
              "internalType": "uint256",
              "name": "depositAmount",
              "type": "uint256"
            },
            {
              "internalType": "enum ITraderBalanceVault.OpenType",
              "name": "openType",
              "type": "uint8"
            }
          ],
          "internalType": "struct ITraderBalanceVault.LockAssetParams",
          "name": "_params",
          "type": "tuple"
        }
      ],
      "name": "useTraderAssets",
      "outputs": [],
      "stateMutability": "nonpayable",
      "type": "function"
    },
    {
      "inputs": [
        {
          "internalType": "address",
          "name": "_asset",
          "type": "address"
        },
        {
          "internalType": "uint256",
          "name": "_amount",
          "type": "uint256"
        }
      ],
      "name": "withdraw",
      "outputs": [],
      "stateMutability": "nonpayable",
      "type": "function"
    },
    {
      "inputs": [
        {
          "internalType": "address",
          "name": "_from",
          "type": "address"
        },
        {
          "internalType": "address",
          "name": "_to",
          "type": "address"
        },
        {
          "internalType": "address",
          "name": "_asset",
          "type": "address"
        },
        {
          "internalType": "uint256",
          "name": "_amount",
          "type": "uint256"
        },
        {
          "internalType": "bool",
          "name": "fromLocked",
          "type": "bool"
        }
      ],
      "name": "withdrawFrom",
      "outputs": [],
      "stateMutability": "nonpayable",
      "type": "function"
    },
    {
      "stateMutability": "payable",
      "type": "receive"
    }
  ],
  "transactionHash": "0xf5fbac6f1920a68e43328f96ac0474ebd54fbbb66e49ade2fb97b2ecad0225b8",
  "args": [],
  "numDeployments": 2,
  "solcInputHash": "89aabf2fa537de3869c847bae20cae69",
  "bytecode": "0x6080806040523460bd576000549060ff8260081c16606b575060ff808216036031575b6040516119fc90816100c38239f35b60ff90811916176000557f7f26b83ff96e1f2b6a682f133852f6798a09c465da95921460cefb3847402498602060405160ff8152a1386022565b62461bcd60e51b815260206004820152602760248201527f496e697469616c697a61626c653a20636f6e747261637420697320696e697469604482015266616c697a696e6760c81b6064820152608490fd5b600080fdfe6080806040526004361015610150575b50361561001b57600080fd5b6100236117eb565b60cb54604051630723eb0360e51b815233600482015290602090829060249082906001600160a01b03165afa90811561014457600091610115575b506101035761006b611841565b341515806100fb575b156100e9573360005260ca60205260406000207399ec76235f8a5a52611b0da5f0c6b09e1dcd2c9e60005260205260406000206100b23482546116f0565b90557399ec76235f8a5a52611b0da5f0c6b09e1dcd2c9e60405134815260008051602061196783398151915260203392a360018055005b604051633abe877f60e11b8152600490fd5b506001610074565b6040516333df015b60e01b8152600490fd5b610137915060203d60201161013d575b61012f81836116a0565b8101906116d8565b3861005e565b503d610125565b6040513d6000823e3d90fd5b600090813560e01c90816301ffc9a7146115e0575080633f4ba83a146114ce578063441d68ca146113b457806347e7ef24146111af578063485cc95514610f495780635c975abb14610f265780637b10399914610efd5780638291732014610d935780638456cb5914610cbb578063a0fd10ad14610ba3578063b1a11ae914610954578063c23f001f146108f9578063c268dd3114610671578063f3fef3a3146104ae5763fb4ef4660361000f57346104ab5760a03660031901126104ab5760c954604051632474521560e21b8152600080516020611987833981519152600482015233602482015290602090829060449082906001600160a01b03165afa9081156103e557829161048c575b501561047a576001600160a01b0361027361172c565b16815260ca6020526040808220610288611742565b6001600160a01b031660009081526020919091522060843560038110156104765780158015610458575b600182036104065750506102c96064358254611782565b90555b6001600160a01b036102dc611758565b166102e45780f35b7399ec76235f8a5a52611b0da5f0c6b09e1dcd2c9e6001600160a01b03610309611742565b16146103f4577306722b0998Fa48c2Ad5e7cFeCFACDa54E148d37d8161032d611742565b91610336611758565b60643593823b156103f057604051636336129b60e11b81526001600160a01b0391821660048201529116602482015260448101849052908290829060649082905af480156103e5576103cc575b50506000805160206119a783398151915261039c61172c565b916103a5611742565b604080516001600160a01b0392831681526020810193909352931692819081015b0390a280f35b816103d6916116a0565b6103e1578138610383565b5080fd5b6040513d84823e3d90fd5b8380fd5b604051637414865560e01b8152600490fd5b15610423575060010161041c6064358254611782565b90556102cc565b600214610431575b506102cc565b610450600160643592610445848254611782565b8155019182546116f0565b90553861042b565b825460643511156102b2575b60405163317cf4f160e01b8152600490fd5b8280fd5b60405163036be76f60e61b8152600490fd5b6104a5915060203d60201161013d5761012f81836116a0565b3861025d565b80fd5b50346104ab5760403660031901126104ab576104c8611635565b6024356104d36117eb565b60cb54604051630723eb0360e51b815233600482015290602090829060249082906001600160a01b03165afa908115610666578491610647575b506101035780156100e95733835260ca6020526040832060018060a01b03831660005260205260406000208054808311610464578261054b91611782565b90556001600160a01b0382167399ec76235f8a5a52611b0da5f0c6b09e1dcd2c9e036105bb576105b18161058e6000805160206119a783398151915293336118e5565b604080516001600160a01b03909516855260208501919091523393918291820190565b0390a26001805580f35b827306722b0998Fa48c2Ad5e7cFeCFACDa54E148d37d803b156103e157604051636336129b60e11b81526001600160a01b038516600482015233602482015260448101849052908290829060649082905af480156103e557610632575b50506105b16000805160206119a78339815191529161058e565b8161063c916116a0565b610476578238610618565b610660915060203d60201161013d5761012f81836116a0565b3861050d565b6040513d86823e3d90fd5b50346104ab5760a03660031901126104ab5761068b611635565b610693611650565b604435916001600160a01b038316918284036108f5576064359260843580151581036108f15760c954604051632474521560e21b8152600080516020611987833981519152600482015233602482015290602090829060449082906001600160a01b03165afa9081156108e65788916108c7575b501561047a57156108635760018060a01b0383169081875260ca6020526040872081885260205284600160408920015410610464577399ec76235f8a5a52611b0da5f0c6b09e1dcd2c9e91875260ca6020526040872081885260205260016040882001610775868254611782565b90555b036107bd5790610798836000805160206119a783398151915294936118e5565b604080516001600160a01b0395861681526020810193909352931692819081016103c6565b847306722b0998Fa48c2Ad5e7cFeCFACDa54E148d37d91823b156103e157604051636336129b60e11b81526001600160a01b0387811660048301529190911660248201526044810185905291829060649082905af4801561085857610834575b50906000805160206119a783398151915291610798565b93610850816000805160206119a78339815191529493966116a0565b93909161081d565b6040513d87823e3d90fd5b60018060a01b0383169081875260ca6020526040872081885260205284604088205410610464577399ec76235f8a5a52611b0da5f0c6b09e1dcd2c9e91875260ca60205260408720818852602052604087206108c0868254611782565b9055610778565b6108e0915060203d60201161013d5761012f81836116a0565b38610707565b6040513d8a823e3d90fd5b8680fd5b8480fd5b50346104ab5760403660031901126104ab5760408091610917611635565b61091f611650565b9060018060a01b0316825260ca6020528282209060018060a01b03168252602052206001815491015482519182526020820152f35b50346104ab5760203660031901126104ab5760043567ffffffffffffffff81116103e15780600401608060031983360301126104765760c954604051632474521560e21b8152600080516020611987833981519152600482015233602482015290602090829060449082906001600160a01b03165afa908115610666578491610b84575b501561047a5760648201359060248301845b8381106109f5578580f35b610a0981610a03848661178f565b906117c5565b35610a17575b6001016109ea565b610a2d610a2882610a03868061178f565b61176e565b90610a3a6044870161176e565b610a4882610a03868861178f565b60c954604051632474521560e21b815260008051602061198783398151915260048201523360248201529135929190602090829060449082906001600160a01b03165afa908115610b79578a91610b5b575b501561047a576001600160a01b03169081151580610b49575b15610b37577399ec76235f8a5a52611b0da5f0c6b09e1dcd2c9e8214610b1f575b6000805160206119678339815191526020600195868060a01b031692838c5260ca825260408c20858d52825260408c20610b0f8282546116f0565b9055604051908152a39050610a0f565b8015610ad45760405163fae8279160e01b8152600490fd5b60405163044aa57560e41b8152600490fd5b506001600160a01b0384161515610ab3565b610b73915060203d811161013d5761012f81836116a0565b38610a9a565b6040513d8c823e3d90fd5b610b9d915060203d60201161013d5761012f81836116a0565b386109d8565b50346104ab5760803660031901126104ab5760c954604051632474521560e21b8152600080516020611987833981519152600482015233602482015290602090829060449082906001600160a01b03165afa9081156103e5578291610c9c575b501561047a576064356001600160a01b03610c1c61172c565b16825260ca60205260408220610c30611742565b6001600160a01b03168352602052604082206001018054610c52908390611782565b90556001600160a01b03610c64611758565b16825260ca60205260408220610c78611742565b6001600160a01b031683526020526040822080549091610c97916116f0565b905580f35b610cb5915060203d60201161013d5761012f81836116a0565b38610c03565b50346104ab57806003193601126104ab5760c954604051632474521560e21b81527f5c91514091af31f62f596a314af7d5be40146b2f2355969392f055e12e0982fb600482015233602482015290602090829060449082906001600160a01b03165afa9081156103e5578291610d74575b501561047a57610d3a611841565b600160ff1960655416176065557f62e78cea01bee320cd4e420270b5ea74000d11b0c9f74754ebdbfc544b05a2586020604051338152a180f35b610d8d915060203d60201161013d5761012f81836116a0565b38610d2c565b50610d9d36611666565b60c954604051632474521560e21b8152600080516020611987833981519152600482015233602482015291929190602090829060449082906001600160a01b03165afa908115610858578591610ede575b501561047a576001600160a01b0316917399ec76235f8a5a52611b0da5f0c6b09e1dcd2c9d198301610e6a575b81156100e95760206000805160206119678339815191529160018060a01b03169283865260ca825260408620858752825260016040872001610e5e8282546116f0565b9055604051908152a380f35b60405163313ce56760e01b8152602081600481875afa9081156108585760129160ff918791610eaf575b50161115610e1b575b60405163b7c73c5d60e01b8152600490fd5b610ed1915060203d602011610ed7575b610ec981836116a0565b810190611713565b38610e94565b503d610ebf565b610ef7915060203d60201161013d5761012f81836116a0565b38610dee565b50346104ab57806003193601126104ab5760c9546040516001600160a01b039091168152602090f35b50346104ab57806003193601126104ab57602060ff606554166040519015158152f35b50346104ab5760403660031901126104ab57610f63611635565b610f6b611650565b82549160ff8360081c1615928380946111a2575b801561118b575b1561112f5760ff19811660011785558361111e575b506040516301ffc9a760e01b8152637965db0b60e01b60048201526001600160a01b039190911690602081602481855afa9081156108585785916110ff575b508061109f575b15610b37576bffffffffffffffffffffffff60a01b60c954161760c95560018060a01b03166bffffffffffffffffffffffff60a01b60cb54161760cb5581549061106260ff8360081c1661103481611885565b61103d81611885565b60ff196065541660655561105081611885565b61105981611885565b60018055611885565b61106a575080f35b61ff00191681557f7f26b83ff96e1f2b6a682f133852f6798a09c465da95921460cefb3847402498602060405160018152a180f35b506040516301ffc9a760e01b8152633df6cef760e01b60048201526020816024816001600160a01b0387165afa9081156108585785916110e0575b50610fe1565b6110f9915060203d60201161013d5761012f81836116a0565b386110da565b611118915060203d60201161013d5761012f81836116a0565b38610fda565b61ffff191661010117845538610f9b565b60405162461bcd60e51b815260206004820152602e60248201527f496e697469616c697a61626c653a20636f6e747261637420697320616c72656160448201526d191e481a5b9a5d1a585b1a5e995960921b6064820152608490fd5b50303b158015610f865750600160ff821614610f86565b50600160ff821610610f7f565b5060403660031901126104ab576111c4611635565b6024356111cf6117eb565b60cb54604051630723eb0360e51b815233600482015290602090829060249082906001600160a01b03165afa908115610666578491611395575b5061010357611216611841565b6001600160a01b0382169181907399ec76235f8a5a52611b0da5f0c6b09e1dcd2c9e840361129f5750341515915081611296575b50156100e957345b33835260ca60205260408320828452602052604083206112738282546116f0565b905560405190815260008051602061196783398151915260203392a36001805580f35b9050153861124a565b34158061138c575b156100e95760405163313ce56760e01b8152602081600481885afa9081156113815760129160ff918891611362575b501611610e9d5760405163c37f7f7f60e01b81526001600160a01b0391909116600482015233602482015260448101919091526020816064817306722b0998Fa48c2Ad5e7cFeCFACDa54E148d37d5af4801561066657611337575b50611252565b602090813d831161135b575b61134d81836116a0565b810103126104765738611331565b503d611343565b61137b915060203d602011610ed757610ec981836116a0565b386112d6565b6040513d88823e3d90fd5b508115156112a7565b6113ae915060203d60201161013d5761012f81836116a0565b38611209565b506113be36611666565b60c954604051632474521560e21b8152600080516020611987833981519152600482015233602482015291929190602090829060449082906001600160a01b03165afa9081156108585785916114af575b501561047a576001600160a01b0316918215158061149d575b15610b37577399ec76235f8a5a52611b0da5f0c6b09e1dcd2c9e8314611483575b60206000805160206119678339815191529160018060a01b03169283865260ca825260408620858752825260408620610e5e8282546116f0565b813410156114495760405163fae8279160e01b8152600490fd5b506001600160a01b0381161515611428565b6114c8915060203d60201161013d5761012f81836116a0565b3861140f565b50346104ab57806003193601126104ab5760c954604051632474521560e21b81527f5a7d4408f4759dddd7fdfd0d21abd99341dc2f52cda14804988a9b2df20766d8600482015233602482015290602090829060449082906001600160a01b03165afa9081156103e55782916115c1575b501561047a5760655460ff8116156115855760ff19166065557f5db9ee0a495bf2e6ff9c91a7834c1ba4fdd244a5e8aa4e537bd38aeae4b073aa6020604051338152a180f35b60405162461bcd60e51b815260206004820152601460248201527314185d5cd8589b194e881b9bdd081c185d5cd95960621b6044820152606490fd5b6115da915060203d60201161013d5761012f81836116a0565b3861153f565b9050346103e15760203660031901126103e15760043563ffffffff60e01b811680910361047657602092506301ffc9a760e01b8114908115611624575b5015158152f35b6312b3ed2b60e01b1490503861161d565b600435906001600160a01b038216820361164b57565b600080fd5b602435906001600160a01b038216820361164b57565b606090600319011261164b576004356001600160a01b038116810361164b57906024356001600160a01b038116810361164b579060443590565b90601f8019910116810190811067ffffffffffffffff8211176116c257604052565b634e487b7160e01b600052604160045260246000fd5b9081602091031261164b5751801515810361164b5790565b919082018092116116fd57565b634e487b7160e01b600052601160045260246000fd5b9081602091031261164b575160ff8116810361164b5790565b6004356001600160a01b038116810361164b5790565b6044356001600160a01b038116810361164b5790565b6024356001600160a01b038116810361164b5790565b356001600160a01b038116810361164b5790565b919082039182116116fd57565b903590601e198136030182121561164b570180359067ffffffffffffffff821161164b57602001918160051b3603831361164b57565b91908110156117d55760051b0190565b634e487b7160e01b600052603260045260246000fd5b6002600154146117fc576002600155565b60405162461bcd60e51b815260206004820152601f60248201527f5265656e7472616e637947756172643a207265656e7472616e742063616c6c006044820152606490fd5b60ff6065541661184d57565b60405162461bcd60e51b815260206004820152601060248201526f14185d5cd8589b194e881c185d5cd95960821b6044820152606490fd5b1561188c57565b60405162461bcd60e51b815260206004820152602b60248201527f496e697469616c697a61626c653a20636f6e7472616374206973206e6f74206960448201526a6e697469616c697a696e6760a81b6064820152608490fd5b60008091602093604051906118fa86836116a0565b83825285820191601f19870136843751925af1903d15611960573d9067ffffffffffffffff82116116c2576040519160009190611940601f8201601f19168301856116a0565b83523d92013e5b1561194e57565b60405163c71509d160e01b8152600490fd5b5061194756fe5548c837ab068cf56a2c2479df0882a4922fd203edb7517321831d95078c5f62e965846df3dd5b1dfa65f58e31477079e90140e0908b6dd31b5aead5a57cf3659b1bfa7fa9ee420a16e124f794c35ac9f90472acc99140eb2f6447c714cad8eba26469706673582212202832e5b55d1b5df9edfe34cee2e118738dec64ec664c8b15a0216f34744c0d7264736f6c634300081a0033",
  "deployedBytecode": "0x6080806040526004361015610150575b50361561001b57600080fd5b6100236117eb565b60cb54604051630723eb0360e51b815233600482015290602090829060249082906001600160a01b03165afa90811561014457600091610115575b506101035761006b611841565b341515806100fb575b156100e9573360005260ca60205260406000207399ec76235f8a5a52611b0da5f0c6b09e1dcd2c9e60005260205260406000206100b23482546116f0565b90557399ec76235f8a5a52611b0da5f0c6b09e1dcd2c9e60405134815260008051602061196783398151915260203392a360018055005b604051633abe877f60e11b8152600490fd5b506001610074565b6040516333df015b60e01b8152600490fd5b610137915060203d60201161013d575b61012f81836116a0565b8101906116d8565b3861005e565b503d610125565b6040513d6000823e3d90fd5b600090813560e01c90816301ffc9a7146115e0575080633f4ba83a146114ce578063441d68ca146113b457806347e7ef24146111af578063485cc95514610f495780635c975abb14610f265780637b10399914610efd5780638291732014610d935780638456cb5914610cbb578063a0fd10ad14610ba3578063b1a11ae914610954578063c23f001f146108f9578063c268dd3114610671578063f3fef3a3146104ae5763fb4ef4660361000f57346104ab5760a03660031901126104ab5760c954604051632474521560e21b8152600080516020611987833981519152600482015233602482015290602090829060449082906001600160a01b03165afa9081156103e557829161048c575b501561047a576001600160a01b0361027361172c565b16815260ca6020526040808220610288611742565b6001600160a01b031660009081526020919091522060843560038110156104765780158015610458575b600182036104065750506102c96064358254611782565b90555b6001600160a01b036102dc611758565b166102e45780f35b7399ec76235f8a5a52611b0da5f0c6b09e1dcd2c9e6001600160a01b03610309611742565b16146103f45773__$183737d697d7aa9b5df9988cbe11bc4947$__8161032d611742565b91610336611758565b60643593823b156103f057604051636336129b60e11b81526001600160a01b0391821660048201529116602482015260448101849052908290829060649082905af480156103e5576103cc575b50506000805160206119a783398151915261039c61172c565b916103a5611742565b604080516001600160a01b0392831681526020810193909352931692819081015b0390a280f35b816103d6916116a0565b6103e1578138610383565b5080fd5b6040513d84823e3d90fd5b8380fd5b604051637414865560e01b8152600490fd5b15610423575060010161041c6064358254611782565b90556102cc565b600214610431575b506102cc565b610450600160643592610445848254611782565b8155019182546116f0565b90553861042b565b825460643511156102b2575b60405163317cf4f160e01b8152600490fd5b8280fd5b60405163036be76f60e61b8152600490fd5b6104a5915060203d60201161013d5761012f81836116a0565b3861025d565b80fd5b50346104ab5760403660031901126104ab576104c8611635565b6024356104d36117eb565b60cb54604051630723eb0360e51b815233600482015290602090829060249082906001600160a01b03165afa908115610666578491610647575b506101035780156100e95733835260ca6020526040832060018060a01b03831660005260205260406000208054808311610464578261054b91611782565b90556001600160a01b0382167399ec76235f8a5a52611b0da5f0c6b09e1dcd2c9e036105bb576105b18161058e6000805160206119a783398151915293336118e5565b604080516001600160a01b03909516855260208501919091523393918291820190565b0390a26001805580f35b8273__$183737d697d7aa9b5df9988cbe11bc4947$__803b156103e157604051636336129b60e11b81526001600160a01b038516600482015233602482015260448101849052908290829060649082905af480156103e557610632575b50506105b16000805160206119a78339815191529161058e565b8161063c916116a0565b610476578238610618565b610660915060203d60201161013d5761012f81836116a0565b3861050d565b6040513d86823e3d90fd5b50346104ab5760a03660031901126104ab5761068b611635565b610693611650565b604435916001600160a01b038316918284036108f5576064359260843580151581036108f15760c954604051632474521560e21b8152600080516020611987833981519152600482015233602482015290602090829060449082906001600160a01b03165afa9081156108e65788916108c7575b501561047a57156108635760018060a01b0383169081875260ca6020526040872081885260205284600160408920015410610464577399ec76235f8a5a52611b0da5f0c6b09e1dcd2c9e91875260ca6020526040872081885260205260016040882001610775868254611782565b90555b036107bd5790610798836000805160206119a783398151915294936118e5565b604080516001600160a01b0395861681526020810193909352931692819081016103c6565b8473__$183737d697d7aa9b5df9988cbe11bc4947$__91823b156103e157604051636336129b60e11b81526001600160a01b0387811660048301529190911660248201526044810185905291829060649082905af4801561085857610834575b50906000805160206119a783398151915291610798565b93610850816000805160206119a78339815191529493966116a0565b93909161081d565b6040513d87823e3d90fd5b60018060a01b0383169081875260ca6020526040872081885260205284604088205410610464577399ec76235f8a5a52611b0da5f0c6b09e1dcd2c9e91875260ca60205260408720818852602052604087206108c0868254611782565b9055610778565b6108e0915060203d60201161013d5761012f81836116a0565b38610707565b6040513d8a823e3d90fd5b8680fd5b8480fd5b50346104ab5760403660031901126104ab5760408091610917611635565b61091f611650565b9060018060a01b0316825260ca6020528282209060018060a01b03168252602052206001815491015482519182526020820152f35b50346104ab5760203660031901126104ab5760043567ffffffffffffffff81116103e15780600401608060031983360301126104765760c954604051632474521560e21b8152600080516020611987833981519152600482015233602482015290602090829060449082906001600160a01b03165afa908115610666578491610b84575b501561047a5760648201359060248301845b8381106109f5578580f35b610a0981610a03848661178f565b906117c5565b35610a17575b6001016109ea565b610a2d610a2882610a03868061178f565b61176e565b90610a3a6044870161176e565b610a4882610a03868861178f565b60c954604051632474521560e21b815260008051602061198783398151915260048201523360248201529135929190602090829060449082906001600160a01b03165afa908115610b79578a91610b5b575b501561047a576001600160a01b03169081151580610b49575b15610b37577399ec76235f8a5a52611b0da5f0c6b09e1dcd2c9e8214610b1f575b6000805160206119678339815191526020600195868060a01b031692838c5260ca825260408c20858d52825260408c20610b0f8282546116f0565b9055604051908152a39050610a0f565b8015610ad45760405163fae8279160e01b8152600490fd5b60405163044aa57560e41b8152600490fd5b506001600160a01b0384161515610ab3565b610b73915060203d811161013d5761012f81836116a0565b38610a9a565b6040513d8c823e3d90fd5b610b9d915060203d60201161013d5761012f81836116a0565b386109d8565b50346104ab5760803660031901126104ab5760c954604051632474521560e21b8152600080516020611987833981519152600482015233602482015290602090829060449082906001600160a01b03165afa9081156103e5578291610c9c575b501561047a576064356001600160a01b03610c1c61172c565b16825260ca60205260408220610c30611742565b6001600160a01b03168352602052604082206001018054610c52908390611782565b90556001600160a01b03610c64611758565b16825260ca60205260408220610c78611742565b6001600160a01b031683526020526040822080549091610c97916116f0565b905580f35b610cb5915060203d60201161013d5761012f81836116a0565b38610c03565b50346104ab57806003193601126104ab5760c954604051632474521560e21b81527f5c91514091af31f62f596a314af7d5be40146b2f2355969392f055e12e0982fb600482015233602482015290602090829060449082906001600160a01b03165afa9081156103e5578291610d74575b501561047a57610d3a611841565b600160ff1960655416176065557f62e78cea01bee320cd4e420270b5ea74000d11b0c9f74754ebdbfc544b05a2586020604051338152a180f35b610d8d915060203d60201161013d5761012f81836116a0565b38610d2c565b50610d9d36611666565b60c954604051632474521560e21b8152600080516020611987833981519152600482015233602482015291929190602090829060449082906001600160a01b03165afa908115610858578591610ede575b501561047a576001600160a01b0316917399ec76235f8a5a52611b0da5f0c6b09e1dcd2c9d198301610e6a575b81156100e95760206000805160206119678339815191529160018060a01b03169283865260ca825260408620858752825260016040872001610e5e8282546116f0565b9055604051908152a380f35b60405163313ce56760e01b8152602081600481875afa9081156108585760129160ff918791610eaf575b50161115610e1b575b60405163b7c73c5d60e01b8152600490fd5b610ed1915060203d602011610ed7575b610ec981836116a0565b810190611713565b38610e94565b503d610ebf565b610ef7915060203d60201161013d5761012f81836116a0565b38610dee565b50346104ab57806003193601126104ab5760c9546040516001600160a01b039091168152602090f35b50346104ab57806003193601126104ab57602060ff606554166040519015158152f35b50346104ab5760403660031901126104ab57610f63611635565b610f6b611650565b82549160ff8360081c1615928380946111a2575b801561118b575b1561112f5760ff19811660011785558361111e575b506040516301ffc9a760e01b8152637965db0b60e01b60048201526001600160a01b039190911690602081602481855afa9081156108585785916110ff575b508061109f575b15610b37576bffffffffffffffffffffffff60a01b60c954161760c95560018060a01b03166bffffffffffffffffffffffff60a01b60cb54161760cb5581549061106260ff8360081c1661103481611885565b61103d81611885565b60ff196065541660655561105081611885565b61105981611885565b60018055611885565b61106a575080f35b61ff00191681557f7f26b83ff96e1f2b6a682f133852f6798a09c465da95921460cefb3847402498602060405160018152a180f35b506040516301ffc9a760e01b8152633df6cef760e01b60048201526020816024816001600160a01b0387165afa9081156108585785916110e0575b50610fe1565b6110f9915060203d60201161013d5761012f81836116a0565b386110da565b611118915060203d60201161013d5761012f81836116a0565b38610fda565b61ffff191661010117845538610f9b565b60405162461bcd60e51b815260206004820152602e60248201527f496e697469616c697a61626c653a20636f6e747261637420697320616c72656160448201526d191e481a5b9a5d1a585b1a5e995960921b6064820152608490fd5b50303b158015610f865750600160ff821614610f86565b50600160ff821610610f7f565b5060403660031901126104ab576111c4611635565b6024356111cf6117eb565b60cb54604051630723eb0360e51b815233600482015290602090829060249082906001600160a01b03165afa908115610666578491611395575b5061010357611216611841565b6001600160a01b0382169181907399ec76235f8a5a52611b0da5f0c6b09e1dcd2c9e840361129f5750341515915081611296575b50156100e957345b33835260ca60205260408320828452602052604083206112738282546116f0565b905560405190815260008051602061196783398151915260203392a36001805580f35b9050153861124a565b34158061138c575b156100e95760405163313ce56760e01b8152602081600481885afa9081156113815760129160ff918891611362575b501611610e9d5760405163c37f7f7f60e01b81526001600160a01b03919091166004820152336024820152604481019190915260208160648173__$183737d697d7aa9b5df9988cbe11bc4947$__5af4801561066657611337575b50611252565b602090813d831161135b575b61134d81836116a0565b810103126104765738611331565b503d611343565b61137b915060203d602011610ed757610ec981836116a0565b386112d6565b6040513d88823e3d90fd5b508115156112a7565b6113ae915060203d60201161013d5761012f81836116a0565b38611209565b506113be36611666565b60c954604051632474521560e21b8152600080516020611987833981519152600482015233602482015291929190602090829060449082906001600160a01b03165afa9081156108585785916114af575b501561047a576001600160a01b0316918215158061149d575b15610b37577399ec76235f8a5a52611b0da5f0c6b09e1dcd2c9e8314611483575b60206000805160206119678339815191529160018060a01b03169283865260ca825260408620858752825260408620610e5e8282546116f0565b813410156114495760405163fae8279160e01b8152600490fd5b506001600160a01b0381161515611428565b6114c8915060203d60201161013d5761012f81836116a0565b3861140f565b50346104ab57806003193601126104ab5760c954604051632474521560e21b81527f5a7d4408f4759dddd7fdfd0d21abd99341dc2f52cda14804988a9b2df20766d8600482015233602482015290602090829060449082906001600160a01b03165afa9081156103e55782916115c1575b501561047a5760655460ff8116156115855760ff19166065557f5db9ee0a495bf2e6ff9c91a7834c1ba4fdd244a5e8aa4e537bd38aeae4b073aa6020604051338152a180f35b60405162461bcd60e51b815260206004820152601460248201527314185d5cd8589b194e881b9bdd081c185d5cd95960621b6044820152606490fd5b6115da915060203d60201161013d5761012f81836116a0565b3861153f565b9050346103e15760203660031901126103e15760043563ffffffff60e01b811680910361047657602092506301ffc9a760e01b8114908115611624575b5015158152f35b6312b3ed2b60e01b1490503861161d565b600435906001600160a01b038216820361164b57565b600080fd5b602435906001600160a01b038216820361164b57565b606090600319011261164b576004356001600160a01b038116810361164b57906024356001600160a01b038116810361164b579060443590565b90601f8019910116810190811067ffffffffffffffff8211176116c257604052565b634e487b7160e01b600052604160045260246000fd5b9081602091031261164b5751801515810361164b5790565b919082018092116116fd57565b634e487b7160e01b600052601160045260246000fd5b9081602091031261164b575160ff8116810361164b5790565b6004356001600160a01b038116810361164b5790565b6044356001600160a01b038116810361164b5790565b6024356001600160a01b038116810361164b5790565b356001600160a01b038116810361164b5790565b919082039182116116fd57565b903590601e198136030182121561164b570180359067ffffffffffffffff821161164b57602001918160051b3603831361164b57565b91908110156117d55760051b0190565b634e487b7160e01b600052603260045260246000fd5b6002600154146117fc576002600155565b60405162461bcd60e51b815260206004820152601f60248201527f5265656e7472616e637947756172643a207265656e7472616e742063616c6c006044820152606490fd5b60ff6065541661184d57565b60405162461bcd60e51b815260206004820152601060248201526f14185d5cd8589b194e881c185d5cd95960821b6044820152606490fd5b1561188c57565b60405162461bcd60e51b815260206004820152602b60248201527f496e697469616c697a61626c653a20636f6e7472616374206973206e6f74206960448201526a6e697469616c697a696e6760a81b6064820152608490fd5b60008091602093604051906118fa86836116a0565b83825285820191601f19870136843751925af1903d15611960573d9067ffffffffffffffff82116116c2576040519160009190611940601f8201601f19168301856116a0565b83523d92013e5b1561194e57565b60405163c71509d160e01b8152600490fd5b5061194756fe5548c837ab068cf56a2c2479df0882a4922fd203edb7517321831d95078c5f62e965846df3dd5b1dfa65f58e31477079e90140e0908b6dd31b5aead5a57cf3659b1bfa7fa9ee420a16e124f794c35ac9f90472acc99140eb2f6447c714cad8eba26469706673582212202832e5b55d1b5df9edfe34cee2e118738dec64ec664c8b15a0216f34744c0d7264736f6c634300081a0033",
  "libraries": {
    "TokenTransfersLibrary": "0x06722b0998Fa48c2Ad5e7cFeCFACDa54E148d37d"
  },
  "devdoc": {
    "events": {
      "Initialized(uint8)": {
        "details": "Triggered when the contract has been initialized or reinitialized."
      },
      "Paused(address)": {
        "details": "Emitted when the pause is triggered by `account`."
      },
      "Unpaused(address)": {
        "details": "Emitted when the pause is lifted by `account`."
      }
    },
    "kind": "dev",
    "methods": {
      "batchTopUpAvailableBalance((address[],uint256[],address,uint256))": {
        "params": {
          "_params": "A struct containing BatchTopUpAvailableBalanceParams"
        }
      },
      "deposit(address,uint256)": {
        "details": "Deposits trader collateral for margin deal",
        "params": {
          "_amount": "The amount of '_asset' to deposit",
          "_asset": "The collateral asset for deal"
        }
      },
      "increaseLockedBalance(address,address,uint256)": {
        "details": "Traders lock their collateral for the limit order.",
        "params": {
          "_amount": "The amount of '_asset' to deposit",
          "_asset": "The collateral asset for deal",
          "_trader": "The owner of collateral"
        }
      },
      "initialize(address,address)": {
        "details": "contract initializer",
        "params": {
          "_registry": "The address of Registry contract",
          "_whiteBlackList": "The address of WhiteBlackList contract"
        }
      },
      "pause()": {
        "details": "Triggers stopped state. This function can only be called by an address with the EMERGENCY_ADMIN role. Requirements: - The contract must not be paused."
      },
      "paused()": {
        "details": "Returns true if the contract is paused, and false otherwise."
      },
      "supportsInterface(bytes4)": {
        "params": {
          "_interfaceId": "The interface id to check"
        }
      },
      "topUpAvailableBalance(address,address,uint256)": {
        "params": {
          "amount": "The amount of an asset",
          "asset": "The asset address for which available balance will be increased",
          "receiver": "The address of an asset receiver"
        }
      },
      "unlockAsset((address,address,address,uint256))": {
        "details": "Unlocks trader's collateral when open position by order or update deposit.",
        "params": {
          "_params": "parameters necessary to unlock asset"
        }
      },
      "unpause()": {
        "details": "Returns to normal state. This function can only be called by an address with the SMALL_TIMELOCK_ADMIN or MEDIUM_TIMELOCK_ADMIN role depending on the contract. Requirements: - The contract must be paused."
      },
      "useTraderAssets((address,address,address,uint256,uint8))": {
        "details": "Locks deposited trader's assets as collateral for orders. Decreases the available balance when opening position. Transfers deposited amount to the deposit receiver.",
        "params": {
          "_params": "parameters necessary to lock asset"
        }
      },
      "withdraw(address,uint256)": {
        "details": "Withdraws the rest of trader's deposit after closing deal",
        "params": {
          "_amount": "The amount of '_asset' to withdraw",
          "_asset": "The collateral asset for withdraw"
        }
      },
      "withdrawFrom(address,address,address,uint256,bool)": {
        "params": {
          "_amount": "Amount of an asset",
          "_asset": "Address of an asset",
          "_from": "Withdraw from address",
          "_to": "Withdraw to address",
          "fromLocked": "True if withdraw from locked balance"
        }
      }
    },
    "version": 1
  },
  "userdoc": {
    "kind": "user",
    "methods": {
      "batchTopUpAvailableBalance((address[],uint256[],address,uint256))": {
        "notice": "The function to increase available balance for several traders"
      },
      "supportsInterface(bytes4)": {
        "notice": "Interface checker"
      },
      "topUpAvailableBalance(address,address,uint256)": {
        "notice": "Increases available balance of a receiver in the protocol"
      },
      "withdrawFrom(address,address,address,uint256,bool)": {
        "notice": "Withdraws an asset amount from an asset holder to a receiver"
      }
    },
    "version": 1
  },
  "storageLayout": {
    "storage": [
      {
        "astId": 2890,
        "contract": "contracts/TraderBalanceVault/TraderBalanceVault.sol:TraderBalanceVault",
        "label": "_initialized",
        "offset": 0,
        "slot": "0",
        "type": "t_uint8"
      },
      {
        "astId": 2893,
        "contract": "contracts/TraderBalanceVault/TraderBalanceVault.sol:TraderBalanceVault",
        "label": "_initializing",
        "offset": 1,
        "slot": "0",
        "type": "t_bool"
      },
      {
        "astId": 3193,
        "contract": "contracts/TraderBalanceVault/TraderBalanceVault.sol:TraderBalanceVault",
        "label": "_status",
        "offset": 0,
        "slot": "1",
        "type": "t_uint256"
      },
      {
        "astId": 3262,
        "contract": "contracts/TraderBalanceVault/TraderBalanceVault.sol:TraderBalanceVault",
        "label": "__gap",
        "offset": 0,
        "slot": "2",
        "type": "t_array(t_uint256)49_storage"
      },
      {
        "astId": 5867,
        "contract": "contracts/TraderBalanceVault/TraderBalanceVault.sol:TraderBalanceVault",
        "label": "__gap",
        "offset": 0,
        "slot": "51",
        "type": "t_array(t_uint256)50_storage"
      },
      {
        "astId": 3073,
        "contract": "contracts/TraderBalanceVault/TraderBalanceVault.sol:TraderBalanceVault",
        "label": "_paused",
        "offset": 0,
        "slot": "101",
        "type": "t_bool"
      },
      {
        "astId": 3178,
        "contract": "contracts/TraderBalanceVault/TraderBalanceVault.sol:TraderBalanceVault",
        "label": "__gap",
        "offset": 0,
        "slot": "102",
        "type": "t_array(t_uint256)49_storage"
      },
      {
        "astId": 6506,
        "contract": "contracts/TraderBalanceVault/TraderBalanceVault.sol:TraderBalanceVault",
        "label": "__gap",
        "offset": 0,
        "slot": "151",
        "type": "t_array(t_uint256)50_storage"
      },
      {
        "astId": 66109,
        "contract": "contracts/TraderBalanceVault/TraderBalanceVault.sol:TraderBalanceVault",
        "label": "registry",
        "offset": 0,
        "slot": "201",
        "type": "t_address"
      },
      {
        "astId": 66117,
        "contract": "contracts/TraderBalanceVault/TraderBalanceVault.sol:TraderBalanceVault",
        "label": "balances",
        "offset": 0,
        "slot": "202",
        "type": "t_mapping(t_address,t_mapping(t_address,t_struct(TraderBalance)65283_storage))"
      },
      {
        "astId": 66120,
        "contract": "contracts/TraderBalanceVault/TraderBalanceVault.sol:TraderBalanceVault",
        "label": "whiteBlackList",
        "offset": 0,
        "slot": "203",
        "type": "t_contract(IWhiteBlackList)68256"
      }
    ],
    "types": {
      "t_address": {
        "encoding": "inplace",
        "label": "address",
        "numberOfBytes": "20"
      },
      "t_array(t_uint256)49_storage": {
        "base": "t_uint256",
        "encoding": "inplace",
        "label": "uint256[49]",
        "numberOfBytes": "1568"
      },
      "t_array(t_uint256)50_storage": {
        "base": "t_uint256",
        "encoding": "inplace",
        "label": "uint256[50]",
        "numberOfBytes": "1600"
      },
      "t_bool": {
        "encoding": "inplace",
        "label": "bool",
        "numberOfBytes": "1"
      },
      "t_contract(IWhiteBlackList)68256": {
        "encoding": "inplace",
        "label": "contract IWhiteBlackList",
        "numberOfBytes": "20"
      },
      "t_mapping(t_address,t_mapping(t_address,t_struct(TraderBalance)65283_storage))": {
        "encoding": "mapping",
        "key": "t_address",
        "label": "mapping(address => mapping(address => struct ITraderBalanceVaultStorage.TraderBalance))",
        "numberOfBytes": "32",
        "value": "t_mapping(t_address,t_struct(TraderBalance)65283_storage)"
      },
      "t_mapping(t_address,t_struct(TraderBalance)65283_storage)": {
        "encoding": "mapping",
        "key": "t_address",
        "label": "mapping(address => struct ITraderBalanceVaultStorage.TraderBalance)",
        "numberOfBytes": "32",
        "value": "t_struct(TraderBalance)65283_storage"
      },
      "t_struct(TraderBalance)65283_storage": {
        "encoding": "inplace",
        "label": "struct ITraderBalanceVaultStorage.TraderBalance",
        "members": [
          {
            "astId": 65280,
            "contract": "contracts/TraderBalanceVault/TraderBalanceVault.sol:TraderBalanceVault",
            "label": "availableBalance",
            "offset": 0,
            "slot": "0",
            "type": "t_uint256"
          },
          {
            "astId": 65282,
            "contract": "contracts/TraderBalanceVault/TraderBalanceVault.sol:TraderBalanceVault",
            "label": "lockedBalance",
            "offset": 0,
            "slot": "1",
            "type": "t_uint256"
          }
        ],
        "numberOfBytes": "64"
      },
      "t_uint256": {
        "encoding": "inplace",
        "label": "uint256",
        "numberOfBytes": "32"
      },
      "t_uint8": {
        "encoding": "inplace",
        "label": "uint8",
        "numberOfBytes": "1"
      }
    }
  }
}