{
  "address": "0xB54Ca1f5B8Ec473272418334b60fc92f4D699b2B",
  "abi": [
    {
      "inputs": [],
      "stateMutability": "nonpayable",
      "type": "constructor"
    },
    {
      "inputs": [],
      "name": "DS_MATH_ADD_OVERFLOW",
      "type": "error"
    },
    {
      "inputs": [],
      "name": "DS_MATH_MUL_OVERFLOW",
      "type": "error"
    },
    {
      "anonymous": false,
      "inputs": [
        {
          "indexed": true,
          "internalType": "address",
          "name": "newPositionManagerExtension",
          "type": "address"
        }
      ],
      "name": "ChangePositionManagerExtension",
      "type": "event"
    },
    {
      "anonymous": false,
      "inputs": [
        {
          "indexed": true,
          "internalType": "uint256",
          "name": "positionId",
          "type": "uint256"
        },
        {
          "indexed": true,
          "internalType": "address",
          "name": "trader",
          "type": "address"
        },
        {
          "indexed": false,
          "internalType": "uint256",
          "name": "depositDelta",
          "type": "uint256"
        },
        {
          "indexed": false,
          "internalType": "uint256",
          "name": "scaledDebtAmount",
          "type": "uint256"
        }
      ],
      "name": "DecreaseDeposit",
      "type": "event"
    },
    {
      "anonymous": false,
      "inputs": [
        {
          "indexed": true,
          "internalType": "uint256",
          "name": "positionId",
          "type": "uint256"
        },
        {
          "indexed": true,
          "internalType": "address",
          "name": "trader",
          "type": "address"
        },
        {
          "indexed": false,
          "internalType": "uint256",
          "name": "depositDelta",
          "type": "uint256"
        },
        {
          "indexed": false,
          "internalType": "uint256",
          "name": "scaledDebtAmount",
          "type": "uint256"
        }
      ],
      "name": "IncreaseDeposit",
      "type": "event"
    },
    {
      "anonymous": false,
      "inputs": [
        {
          "indexed": false,
          "internalType": "uint8",
          "name": "version",
          "type": "uint8"
        }
      ],
      "name": "Initialized",
      "type": "event"
    },
    {
      "anonymous": false,
      "inputs": [
        {
          "indexed": true,
          "internalType": "address",
          "name": "_keeperRewardDistributor",
          "type": "address"
        }
      ],
      "name": "KeeperRewardDistributorChanged",
      "type": "event"
    },
    {
      "anonymous": false,
      "inputs": [
        {
          "indexed": true,
          "internalType": "uint256",
          "name": "maintenanceBuffer",
          "type": "uint256"
        }
      ],
      "name": "MaintenanceBufferChanged",
      "type": "event"
    },
    {
      "anonymous": false,
      "inputs": [
        {
          "indexed": true,
          "internalType": "uint256",
          "name": "positionId",
          "type": "uint256"
        },
        {
          "indexed": true,
          "internalType": "address",
          "name": "trader",
          "type": "address"
        },
        {
          "indexed": true,
          "internalType": "address",
          "name": "openedBy",
          "type": "address"
        },
        {
          "components": [
            {
              "internalType": "uint256",
              "name": "id",
              "type": "uint256"
            },
            {
              "internalType": "uint256",
              "name": "scaledDebtAmount",
              "type": "uint256"
            },
            {
              "internalType": "contract IBucketV3",
              "name": "bucket",
              "type": "address"
            },
            {
              "internalType": "address",
              "name": "soldAsset",
              "type": "address"
            },
            {
              "internalType": "uint256",
              "name": "depositAmountInSoldAsset",
              "type": "uint256"
            },
            {
              "internalType": "address",
              "name": "positionAsset",
              "type": "address"
            },
            {
              "internalType": "uint256",
              "name": "positionAmount",
              "type": "uint256"
            },
            {
              "internalType": "address",
              "name": "trader",
              "type": "address"
            },
            {
              "internalType": "uint256",
              "name": "openBorrowIndex",
              "type": "uint256"
            },
            {
              "internalType": "uint256",
              "name": "createdAt",
              "type": "uint256"
            },
            {
              "internalType": "uint256",
              "name": "updatedConditionsAt",
              "type": "uint256"
            },
            {
              "internalType": "bytes",
              "name": "extraParams",
              "type": "bytes"
            }
          ],
          "indexed": false,
          "internalType": "struct PositionLibrary.Position",
          "name": "position",
          "type": "tuple"
        },
        {
          "indexed": false,
          "internalType": "uint256",
          "name": "entryPrice",
          "type": "uint256"
        },
        {
          "indexed": false,
          "internalType": "uint256",
          "name": "leverage",
          "type": "uint256"
        },
        {
          "components": [
            {
              "internalType": "uint256",
              "name": "managerType",
              "type": "uint256"
            },
            {
              "internalType": "bytes",
              "name": "params",
              "type": "bytes"
            }
          ],
          "indexed": false,
          "internalType": "struct LimitOrderLibrary.Condition[]",
          "name": "closeConditions",
          "type": "tuple[]"
        }
      ],
      "name": "OpenPosition",
      "type": "event"
    },
    {
      "anonymous": false,
      "inputs": [
        {
          "indexed": true,
          "internalType": "uint256",
          "name": "newMultiplier",
          "type": "uint256"
        }
      ],
      "name": "OracleTolerableLimitMultiplierChanged",
      "type": "event"
    },
    {
      "anonymous": false,
      "inputs": [
        {
          "indexed": true,
          "internalType": "uint256",
          "name": "positionId",
          "type": "uint256"
        },
        {
          "indexed": true,
          "internalType": "address",
          "name": "trader",
          "type": "address"
        },
        {
          "indexed": false,
          "internalType": "address",
          "name": "bucketAddress",
          "type": "address"
        },
        {
          "indexed": false,
          "internalType": "address",
          "name": "soldAsset",
          "type": "address"
        },
        {
          "indexed": false,
          "internalType": "address",
          "name": "positionAsset",
          "type": "address"
        },
        {
          "indexed": false,
          "internalType": "uint256",
          "name": "decreasePositionAmount",
          "type": "uint256"
        },
        {
          "indexed": false,
          "internalType": "uint256",
          "name": "depositedAmount",
          "type": "uint256"
        },
        {
          "indexed": false,
          "internalType": "uint256",
          "name": "scaledDebtAmount",
          "type": "uint256"
        },
        {
          "indexed": false,
          "internalType": "int256",
          "name": "profit",
          "type": "int256"
        },
        {
          "indexed": false,
          "internalType": "uint256",
          "name": "positionDebt",
          "type": "uint256"
        },
        {
          "indexed": false,
          "internalType": "uint256",
          "name": "amountOut",
          "type": "uint256"
        }
      ],
      "name": "PartialClosePosition",
      "type": "event"
    },
    {
      "anonymous": false,
      "inputs": [
        {
          "indexed": false,
          "internalType": "address",
          "name": "account",
          "type": "address"
        }
      ],
      "name": "Paused",
      "type": "event"
    },
    {
      "anonymous": false,
      "inputs": [
        {
          "indexed": true,
          "internalType": "uint256",
          "name": "securityBuffer",
          "type": "uint256"
        }
      ],
      "name": "SecurityBufferChanged",
      "type": "event"
    },
    {
      "anonymous": false,
      "inputs": [
        {
          "indexed": true,
          "internalType": "uint256",
          "name": "oracleTolerableLimit",
          "type": "uint256"
        }
      ],
      "name": "SetDefaultOracleTolerableLimit",
      "type": "event"
    },
    {
      "anonymous": false,
      "inputs": [
        {
          "indexed": false,
          "internalType": "address",
          "name": "token0",
          "type": "address"
        },
        {
          "indexed": false,
          "internalType": "address",
          "name": "token1",
          "type": "address"
        },
        {
          "indexed": false,
          "internalType": "uint256",
          "name": "amountInToken0",
          "type": "uint256"
        },
        {
          "indexed": false,
          "internalType": "uint256",
          "name": "amountInToken1",
          "type": "uint256"
        }
      ],
      "name": "SetMaxPositionSize",
      "type": "event"
    },
    {
      "anonymous": false,
      "inputs": [
        {
          "indexed": true,
          "internalType": "address",
          "name": "assetA",
          "type": "address"
        },
        {
          "indexed": true,
          "internalType": "address",
          "name": "assetB",
          "type": "address"
        },
        {
          "indexed": false,
          "internalType": "uint256",
          "name": "oracleTolerableLimit",
          "type": "uint256"
        }
      ],
      "name": "SetOracleTolerableLimit",
      "type": "event"
    },
    {
      "anonymous": false,
      "inputs": [
        {
          "indexed": false,
          "internalType": "address",
          "name": "account",
          "type": "address"
        }
      ],
      "name": "Unpaused",
      "type": "event"
    },
    {
      "anonymous": false,
      "inputs": [
        {
          "indexed": true,
          "internalType": "uint256",
          "name": "positionId",
          "type": "uint256"
        },
        {
          "indexed": true,
          "internalType": "address",
          "name": "trader",
          "type": "address"
        },
        {
          "components": [
            {
              "internalType": "uint256",
              "name": "managerType",
              "type": "uint256"
            },
            {
              "internalType": "bytes",
              "name": "params",
              "type": "bytes"
            }
          ],
          "indexed": false,
          "internalType": "struct LimitOrderLibrary.Condition[]",
          "name": "closeConditions",
          "type": "tuple[]"
        }
      ],
      "name": "UpdatePositionConditions",
      "type": "event"
    },
    {
      "inputs": [
        {
          "internalType": "address",
          "name": "",
          "type": "address"
        },
        {
          "internalType": "uint256",
          "name": "",
          "type": "uint256"
        }
      ],
      "name": "bucketPositionIds",
      "outputs": [
        {
          "internalType": "uint256",
          "name": "",
          "type": "uint256"
        }
      ],
      "stateMutability": "view",
      "type": "function"
    },
    {
      "inputs": [
        {
          "internalType": "uint256",
          "name": "_id",
          "type": "uint256"
        },
        {
          "internalType": "address",
          "name": "_depositReceiver",
          "type": "address"
        },
        {
          "components": [
            {
              "internalType": "uint256",
              "name": "shares",
              "type": "uint256"
            },
            {
              "components": [
                {
                  "internalType": "address",
                  "name": "to",
                  "type": "address"
                },
                {
                  "components": [
                    {
                      "internalType": "string",
                      "name": "dexName",
                      "type": "string"
                    },
                    {
                      "internalType": "uint256",
                      "name": "shares",
                      "type": "uint256"
                    },
                    {
                      "internalType": "bytes",
                      "name": "payload",
                      "type": "bytes"
                    }
                  ],
                  "internalType": "struct PrimexPricingLibrary.Path[]",
                  "name": "paths",
                  "type": "tuple[]"
                }
              ],
              "internalType": "struct PrimexPricingLibrary.Route[]",
              "name": "routes",
              "type": "tuple[]"
            }
          ],
          "internalType": "struct PrimexPricingLibrary.MegaRoute[]",
          "name": "_megaRoutes",
          "type": "tuple[]"
        },
        {
          "internalType": "uint256",
          "name": "_amountOutMin",
          "type": "uint256"
        },
        {
          "internalType": "bytes",
          "name": "_positionSoldAssetOracleData",
          "type": "bytes"
        },
        {
          "internalType": "bytes",
          "name": "_pmxSoldAssetOracleData",
          "type": "bytes"
        },
        {
          "internalType": "bytes",
          "name": "_nativeSoldAssetOracleData",
          "type": "bytes"
        },
        {
          "internalType": "bytes[][]",
          "name": "_pullOracleData",
          "type": "bytes[][]"
        },
        {
          "internalType": "uint256[]",
          "name": "_pullOracleTypes",
          "type": "uint256[]"
        }
      ],
      "name": "closePosition",
      "outputs": [],
      "stateMutability": "payable",
      "type": "function"
    },
    {
      "inputs": [
        {
          "components": [
            {
              "internalType": "uint256",
              "name": "id",
              "type": "uint256"
            },
            {
              "internalType": "address",
              "name": "keeper",
              "type": "address"
            },
            {
              "components": [
                {
                  "internalType": "uint256",
                  "name": "shares",
                  "type": "uint256"
                },
                {
                  "components": [
                    {
                      "internalType": "address",
                      "name": "to",
                      "type": "address"
                    },
                    {
                      "components": [
                        {
                          "internalType": "string",
                          "name": "dexName",
                          "type": "string"
                        },
                        {
                          "internalType": "uint256",
                          "name": "shares",
                          "type": "uint256"
                        },
                        {
                          "internalType": "bytes",
                          "name": "payload",
                          "type": "bytes"
                        }
                      ],
                      "internalType": "struct PrimexPricingLibrary.Path[]",
                      "name": "paths",
                      "type": "tuple[]"
                    }
                  ],
                  "internalType": "struct PrimexPricingLibrary.Route[]",
                  "name": "routes",
                  "type": "tuple[]"
                }
              ],
              "internalType": "struct PrimexPricingLibrary.MegaRoute[]",
              "name": "megaRoutes",
              "type": "tuple[]"
            },
            {
              "internalType": "uint256",
              "name": "conditionIndex",
              "type": "uint256"
            },
            {
              "internalType": "bytes",
              "name": "ccmAdditionalParams",
              "type": "bytes"
            },
            {
              "internalType": "enum PositionLibrary.CloseReason",
              "name": "closeReason",
              "type": "uint8"
            },
            {
              "internalType": "bytes",
              "name": "positionSoldAssetOracleData",
              "type": "bytes"
            },
            {
              "internalType": "bytes",
              "name": "nativePmxOracleData",
              "type": "bytes"
            },
            {
              "internalType": "bytes",
              "name": "positionNativeAssetOracleData",
              "type": "bytes"
            },
            {
              "internalType": "bytes",
              "name": "pmxSoldAssetOracleData",
              "type": "bytes"
            },
            {
              "internalType": "bytes",
              "name": "nativeSoldAssetOracleData",
              "type": "bytes"
            },
            {
              "internalType": "bytes[][]",
              "name": "pullOracleData",
              "type": "bytes[][]"
            },
            {
              "internalType": "uint256[]",
              "name": "pullOracleTypes",
              "type": "uint256[]"
            }
          ],
          "internalType": "struct IPositionManagerV2.ClosePositionByConditionParams",
          "name": "_params",
          "type": "tuple"
        }
      ],
      "name": "closePositionByCondition",
      "outputs": [],
      "stateMutability": "payable",
      "type": "function"
    },
    {
      "inputs": [
        {
          "internalType": "uint256",
          "name": "_positionId",
          "type": "uint256"
        },
        {
          "internalType": "uint256",
          "name": "_amount",
          "type": "uint256"
        },
        {
          "internalType": "bytes",
          "name": "_positionSoldAssetOracleData",
          "type": "bytes"
        },
        {
          "internalType": "bytes",
          "name": "_nativeSoldAssetOracleData",
          "type": "bytes"
        },
        {
          "internalType": "bytes[][]",
          "name": "_pullOracleData",
          "type": "bytes[][]"
        },
        {
          "internalType": "uint256[]",
          "name": "_pullOracleTypes",
          "type": "uint256[]"
        }
      ],
      "name": "decreaseDeposit",
      "outputs": [],
      "stateMutability": "payable",
      "type": "function"
    },
    {
      "inputs": [],
      "name": "defaultOracleTolerableLimit",
      "outputs": [
        {
          "internalType": "uint256",
          "name": "",
          "type": "uint256"
        }
      ],
      "stateMutability": "view",
      "type": "function"
    },
    {
      "inputs": [
        {
          "internalType": "uint256[]",
          "name": "_ids",
          "type": "uint256[]"
        },
        {
          "internalType": "address[]",
          "name": "_traders",
          "type": "address[]"
        },
        {
          "internalType": "uint256",
          "name": "_length",
          "type": "uint256"
        },
        {
          "internalType": "address",
          "name": "_bucket",
          "type": "address"
        }
      ],
      "name": "deletePositions",
      "outputs": [],
      "stateMutability": "nonpayable",
      "type": "function"
    },
    {
      "inputs": [
        {
          "internalType": "address",
          "name": "_token",
          "type": "address"
        },
        {
          "internalType": "address",
          "name": "_to",
          "type": "address"
        },
        {
          "internalType": "uint256",
          "name": "_amount",
          "type": "uint256"
        }
      ],
      "name": "doTransferOut",
      "outputs": [],
      "stateMutability": "nonpayable",
      "type": "function"
    },
    {
      "inputs": [],
      "name": "getAllPositionsLength",
      "outputs": [
        {
          "internalType": "uint256",
          "name": "",
          "type": "uint256"
        }
      ],
      "stateMutability": "view",
      "type": "function"
    },
    {
      "inputs": [
        {
          "internalType": "address",
          "name": "_bucket",
          "type": "address"
        }
      ],
      "name": "getBucketPositionsLength",
      "outputs": [
        {
          "internalType": "uint256",
          "name": "",
          "type": "uint256"
        }
      ],
      "stateMutability": "view",
      "type": "function"
    },
    {
      "inputs": [
        {
          "internalType": "uint256",
          "name": "_positionId",
          "type": "uint256"
        },
        {
          "internalType": "uint256",
          "name": "_index",
          "type": "uint256"
        }
      ],
      "name": "getCloseCondition",
      "outputs": [
        {
          "components": [
            {
              "internalType": "uint256",
              "name": "managerType",
              "type": "uint256"
            },
            {
              "internalType": "bytes",
              "name": "params",
              "type": "bytes"
            }
          ],
          "internalType": "struct LimitOrderLibrary.Condition",
          "name": "",
          "type": "tuple"
        }
      ],
      "stateMutability": "view",
      "type": "function"
    },
    {
      "inputs": [
        {
          "internalType": "uint256",
          "name": "_positionId",
          "type": "uint256"
        }
      ],
      "name": "getCloseConditions",
      "outputs": [
        {
          "components": [
            {
              "internalType": "uint256",
              "name": "managerType",
              "type": "uint256"
            },
            {
              "internalType": "bytes",
              "name": "params",
              "type": "bytes"
            }
          ],
          "internalType": "struct LimitOrderLibrary.Condition[]",
          "name": "",
          "type": "tuple[]"
        }
      ],
      "stateMutability": "view",
      "type": "function"
    },
    {
      "inputs": [
        {
          "internalType": "address",
          "name": "assetA",
          "type": "address"
        },
        {
          "internalType": "address",
          "name": "assetB",
          "type": "address"
        }
      ],
      "name": "getOracleTolerableLimit",
      "outputs": [
        {
          "internalType": "uint256",
          "name": "",
          "type": "uint256"
        }
      ],
      "stateMutability": "view",
      "type": "function"
    },
    {
      "inputs": [
        {
          "internalType": "uint256",
          "name": "_id",
          "type": "uint256"
        }
      ],
      "name": "getPosition",
      "outputs": [
        {
          "components": [
            {
              "internalType": "uint256",
              "name": "id",
              "type": "uint256"
            },
            {
              "internalType": "uint256",
              "name": "scaledDebtAmount",
              "type": "uint256"
            },
            {
              "internalType": "contract IBucketV3",
              "name": "bucket",
              "type": "address"
            },
            {
              "internalType": "address",
              "name": "soldAsset",
              "type": "address"
            },
            {
              "internalType": "uint256",
              "name": "depositAmountInSoldAsset",
              "type": "uint256"
            },
            {
              "internalType": "address",
              "name": "positionAsset",
              "type": "address"
            },
            {
              "internalType": "uint256",
              "name": "positionAmount",
              "type": "uint256"
            },
            {
              "internalType": "address",
              "name": "trader",
              "type": "address"
            },
            {
              "internalType": "uint256",
              "name": "openBorrowIndex",
              "type": "uint256"
            },
            {
              "internalType": "uint256",
              "name": "createdAt",
              "type": "uint256"
            },
            {
              "internalType": "uint256",
              "name": "updatedConditionsAt",
              "type": "uint256"
            },
            {
              "internalType": "bytes",
              "name": "extraParams",
              "type": "bytes"
            }
          ],
          "internalType": "struct PositionLibrary.Position",
          "name": "",
          "type": "tuple"
        }
      ],
      "stateMutability": "view",
      "type": "function"
    },
    {
      "inputs": [
        {
          "internalType": "uint256",
          "name": "_index",
          "type": "uint256"
        }
      ],
      "name": "getPositionByIndex",
      "outputs": [
        {
          "components": [
            {
              "internalType": "uint256",
              "name": "id",
              "type": "uint256"
            },
            {
              "internalType": "uint256",
              "name": "scaledDebtAmount",
              "type": "uint256"
            },
            {
              "internalType": "contract IBucketV3",
              "name": "bucket",
              "type": "address"
            },
            {
              "internalType": "address",
              "name": "soldAsset",
              "type": "address"
            },
            {
              "internalType": "uint256",
              "name": "depositAmountInSoldAsset",
              "type": "uint256"
            },
            {
              "internalType": "address",
              "name": "positionAsset",
              "type": "address"
            },
            {
              "internalType": "uint256",
              "name": "positionAmount",
              "type": "uint256"
            },
            {
              "internalType": "address",
              "name": "trader",
              "type": "address"
            },
            {
              "internalType": "uint256",
              "name": "openBorrowIndex",
              "type": "uint256"
            },
            {
              "internalType": "uint256",
              "name": "createdAt",
              "type": "uint256"
            },
            {
              "internalType": "uint256",
              "name": "updatedConditionsAt",
              "type": "uint256"
            },
            {
              "internalType": "bytes",
              "name": "extraParams",
              "type": "bytes"
            }
          ],
          "internalType": "struct PositionLibrary.Position",
          "name": "",
          "type": "tuple"
        }
      ],
      "stateMutability": "view",
      "type": "function"
    },
    {
      "inputs": [
        {
          "internalType": "uint256",
          "name": "_id",
          "type": "uint256"
        }
      ],
      "name": "getPositionDebt",
      "outputs": [
        {
          "internalType": "uint256",
          "name": "",
          "type": "uint256"
        }
      ],
      "stateMutability": "view",
      "type": "function"
    },
    {
      "inputs": [
        {
          "internalType": "address",
          "name": "_trader",
          "type": "address"
        }
      ],
      "name": "getTraderPositionsLength",
      "outputs": [
        {
          "internalType": "uint256",
          "name": "",
          "type": "uint256"
        }
      ],
      "stateMutability": "view",
      "type": "function"
    },
    {
      "inputs": [
        {
          "internalType": "uint256",
          "name": "_positionId",
          "type": "uint256"
        },
        {
          "internalType": "uint256",
          "name": "_amount",
          "type": "uint256"
        },
        {
          "internalType": "address",
          "name": "_asset",
          "type": "address"
        },
        {
          "internalType": "bool",
          "name": "_takeDepositFromWallet",
          "type": "bool"
        },
        {
          "components": [
            {
              "internalType": "uint256",
              "name": "shares",
              "type": "uint256"
            },
            {
              "components": [
                {
                  "internalType": "address",
                  "name": "to",
                  "type": "address"
                },
                {
                  "components": [
                    {
                      "internalType": "string",
                      "name": "dexName",
                      "type": "string"
                    },
                    {
                      "internalType": "uint256",
                      "name": "shares",
                      "type": "uint256"
                    },
                    {
                      "internalType": "bytes",
                      "name": "payload",
                      "type": "bytes"
                    }
                  ],
                  "internalType": "struct PrimexPricingLibrary.Path[]",
                  "name": "paths",
                  "type": "tuple[]"
                }
              ],
              "internalType": "struct PrimexPricingLibrary.Route[]",
              "name": "routes",
              "type": "tuple[]"
            }
          ],
          "internalType": "struct PrimexPricingLibrary.MegaRoute[]",
          "name": "_megaRoutes",
          "type": "tuple[]"
        },
        {
          "internalType": "uint256",
          "name": "_amountOutMin",
          "type": "uint256"
        }
      ],
      "name": "increaseDeposit",
      "outputs": [],
      "stateMutability": "nonpayable",
      "type": "function"
    },
    {
      "inputs": [
        {
          "internalType": "address",
          "name": "_registry",
          "type": "address"
        },
        {
          "internalType": "address",
          "name": "_primexDNS",
          "type": "address"
        },
        {
          "internalType": "address payable",
          "name": "_traderBalanceVault",
          "type": "address"
        },
        {
          "internalType": "address",
          "name": "_priceOracle",
          "type": "address"
        },
        {
          "internalType": "address",
          "name": "_keeperRewardDistributor",
          "type": "address"
        },
        {
          "internalType": "address",
          "name": "_whiteBlackList",
          "type": "address"
        },
        {
          "internalType": "address",
          "name": "_positionManagerExtension",
          "type": "address"
        }
      ],
      "name": "initialize",
      "outputs": [],
      "stateMutability": "nonpayable",
      "type": "function"
    },
    {
      "inputs": [
        {
          "internalType": "uint256",
          "name": "_id",
          "type": "uint256"
        }
      ],
      "name": "isDelistedPosition",
      "outputs": [
        {
          "internalType": "bool",
          "name": "",
          "type": "bool"
        }
      ],
      "stateMutability": "view",
      "type": "function"
    },
    {
      "inputs": [],
      "name": "keeperRewardDistributor",
      "outputs": [
        {
          "internalType": "contract IKeeperRewardDistributorV3",
          "name": "",
          "type": "address"
        }
      ],
      "stateMutability": "view",
      "type": "function"
    },
    {
      "inputs": [],
      "name": "maintenanceBuffer",
      "outputs": [
        {
          "internalType": "uint256",
          "name": "",
          "type": "uint256"
        }
      ],
      "stateMutability": "view",
      "type": "function"
    },
    {
      "inputs": [
        {
          "internalType": "address",
          "name": "",
          "type": "address"
        },
        {
          "internalType": "address",
          "name": "",
          "type": "address"
        }
      ],
      "name": "maxPositionSize",
      "outputs": [
        {
          "internalType": "uint256",
          "name": "",
          "type": "uint256"
        }
      ],
      "stateMutability": "view",
      "type": "function"
    },
    {
      "inputs": [],
      "name": "minPositionAsset",
      "outputs": [
        {
          "internalType": "address",
          "name": "",
          "type": "address"
        }
      ],
      "stateMutability": "view",
      "type": "function"
    },
    {
      "inputs": [],
      "name": "minPositionSize",
      "outputs": [
        {
          "internalType": "uint256",
          "name": "",
          "type": "uint256"
        }
      ],
      "stateMutability": "view",
      "type": "function"
    },
    {
      "inputs": [
        {
          "components": [
            {
              "components": [
                {
                  "internalType": "string",
                  "name": "bucket",
                  "type": "string"
                },
                {
                  "internalType": "uint256",
                  "name": "borrowedAmount",
                  "type": "uint256"
                },
                {
                  "components": [
                    {
                      "internalType": "uint256",
                      "name": "shares",
                      "type": "uint256"
                    },
                    {
                      "components": [
                        {
                          "internalType": "address",
                          "name": "to",
                          "type": "address"
                        },
                        {
                          "components": [
                            {
                              "internalType": "string",
                              "name": "dexName",
                              "type": "string"
                            },
                            {
                              "internalType": "uint256",
                              "name": "shares",
                              "type": "uint256"
                            },
                            {
                              "internalType": "bytes",
                              "name": "payload",
                              "type": "bytes"
                            }
                          ],
                          "internalType": "struct PrimexPricingLibrary.Path[]",
                          "name": "paths",
                          "type": "tuple[]"
                        }
                      ],
                      "internalType": "struct PrimexPricingLibrary.Route[]",
                      "name": "routes",
                      "type": "tuple[]"
                    }
                  ],
                  "internalType": "struct PrimexPricingLibrary.MegaRoute[]",
                  "name": "depositInThirdAssetMegaRoutes",
                  "type": "tuple[]"
                }
              ],
              "internalType": "struct PositionLibrary.OpenPositionMarginParams",
              "name": "marginParams",
              "type": "tuple"
            },
            {
              "components": [
                {
                  "internalType": "uint256",
                  "name": "shares",
                  "type": "uint256"
                },
                {
                  "components": [
                    {
                      "internalType": "address",
                      "name": "to",
                      "type": "address"
                    },
                    {
                      "components": [
                        {
                          "internalType": "string",
                          "name": "dexName",
                          "type": "string"
                        },
                        {
                          "internalType": "uint256",
                          "name": "shares",
                          "type": "uint256"
                        },
                        {
                          "internalType": "bytes",
                          "name": "payload",
                          "type": "bytes"
                        }
                      ],
                      "internalType": "struct PrimexPricingLibrary.Path[]",
                      "name": "paths",
                      "type": "tuple[]"
                    }
                  ],
                  "internalType": "struct PrimexPricingLibrary.Route[]",
                  "name": "routes",
                  "type": "tuple[]"
                }
              ],
              "internalType": "struct PrimexPricingLibrary.MegaRoute[]",
              "name": "firstAssetMegaRoutes",
              "type": "tuple[]"
            },
            {
              "internalType": "address",
              "name": "depositAsset",
              "type": "address"
            },
            {
              "internalType": "uint256",
              "name": "depositAmount",
              "type": "uint256"
            },
            {
              "internalType": "address",
              "name": "positionAsset",
              "type": "address"
            },
            {
              "internalType": "uint256",
              "name": "amountOutMin",
              "type": "uint256"
            },
            {
              "internalType": "uint256",
              "name": "deadline",
              "type": "uint256"
            },
            {
              "internalType": "bool",
              "name": "takeDepositFromWallet",
              "type": "bool"
            },
            {
              "internalType": "bool",
              "name": "isProtocolFeeInPmx",
              "type": "bool"
            },
            {
              "components": [
                {
                  "internalType": "uint256",
                  "name": "managerType",
                  "type": "uint256"
                },
                {
                  "internalType": "bytes",
                  "name": "params",
                  "type": "bytes"
                }
              ],
              "internalType": "struct LimitOrderLibrary.Condition[]",
              "name": "closeConditions",
              "type": "tuple[]"
            },
            {
              "internalType": "bytes",
              "name": "firstAssetOracleData",
              "type": "bytes"
            },
            {
              "internalType": "bytes",
              "name": "thirdAssetOracleData",
              "type": "bytes"
            },
            {
              "internalType": "bytes",
              "name": "depositSoldAssetOracleData",
              "type": "bytes"
            },
            {
              "internalType": "bytes",
              "name": "positionUsdOracleData",
              "type": "bytes"
            },
            {
              "internalType": "bytes",
              "name": "nativePositionAssetOracleData",
              "type": "bytes"
            },
            {
              "internalType": "bytes",
              "name": "pmxPositionAssetOracleData",
              "type": "bytes"
            },
            {
              "internalType": "bytes",
              "name": "nativeSoldAssetOracleData",
              "type": "bytes"
            },
            {
              "internalType": "bytes[][]",
              "name": "pullOracleData",
              "type": "bytes[][]"
            },
            {
              "internalType": "uint256[]",
              "name": "pullOracleTypes",
              "type": "uint256[]"
            }
          ],
          "internalType": "struct PositionLibrary.OpenPositionParams",
          "name": "_params",
          "type": "tuple"
        }
      ],
      "name": "openPosition",
      "outputs": [],
      "stateMutability": "payable",
      "type": "function"
    },
    {
      "inputs": [
        {
          "components": [
            {
              "internalType": "address",
              "name": "sender",
              "type": "address"
            },
            {
              "components": [
                {
                  "internalType": "contract IBucketV3",
                  "name": "bucket",
                  "type": "address"
                },
                {
                  "internalType": "address",
                  "name": "positionAsset",
                  "type": "address"
                },
                {
                  "internalType": "address",
                  "name": "depositAsset",
                  "type": "address"
                },
                {
                  "internalType": "uint256",
                  "name": "depositAmount",
                  "type": "uint256"
                },
                {
                  "internalType": "address",
                  "name": "feeToken",
                  "type": "address"
                },
                {
                  "internalType": "uint256",
                  "name": "protocolFee",
                  "type": "uint256"
                },
                {
                  "internalType": "address",
                  "name": "trader",
                  "type": "address"
                },
                {
                  "internalType": "uint256",
                  "name": "deadline",
                  "type": "uint256"
                },
                {
                  "internalType": "uint256",
                  "name": "id",
                  "type": "uint256"
                },
                {
                  "internalType": "uint256",
                  "name": "leverage",
                  "type": "uint256"
                },
                {
                  "internalType": "bool",
                  "name": "shouldOpenPosition",
                  "type": "bool"
                },
                {
                  "internalType": "uint256",
                  "name": "createdAt",
                  "type": "uint256"
                },
                {
                  "internalType": "uint256",
                  "name": "updatedConditionsAt",
                  "type": "uint256"
                },
                {
                  "internalType": "bytes",
                  "name": "extraParams",
                  "type": "bytes"
                }
              ],
              "internalType": "struct LimitOrderLibrary.LimitOrder",
              "name": "order",
              "type": "tuple"
            },
            {
              "components": [
                {
                  "internalType": "uint256",
                  "name": "managerType",
                  "type": "uint256"
                },
                {
                  "internalType": "bytes",
                  "name": "params",
                  "type": "bytes"
                }
              ],
              "internalType": "struct LimitOrderLibrary.Condition[]",
              "name": "closeConditions",
              "type": "tuple[]"
            },
            {
              "components": [
                {
                  "internalType": "uint256",
                  "name": "shares",
                  "type": "uint256"
                },
                {
                  "components": [
                    {
                      "internalType": "address",
                      "name": "to",
                      "type": "address"
                    },
                    {
                      "components": [
                        {
                          "internalType": "string",
                          "name": "dexName",
                          "type": "string"
                        },
                        {
                          "internalType": "uint256",
                          "name": "shares",
                          "type": "uint256"
                        },
                        {
                          "internalType": "bytes",
                          "name": "payload",
                          "type": "bytes"
                        }
                      ],
                      "internalType": "struct PrimexPricingLibrary.Path[]",
                      "name": "paths",
                      "type": "tuple[]"
                    }
                  ],
                  "internalType": "struct PrimexPricingLibrary.Route[]",
                  "name": "routes",
                  "type": "tuple[]"
                }
              ],
              "internalType": "struct PrimexPricingLibrary.MegaRoute[]",
              "name": "firstAssetMegaRoutes",
              "type": "tuple[]"
            },
            {
              "components": [
                {
                  "internalType": "uint256",
                  "name": "shares",
                  "type": "uint256"
                },
                {
                  "components": [
                    {
                      "internalType": "address",
                      "name": "to",
                      "type": "address"
                    },
                    {
                      "components": [
                        {
                          "internalType": "string",
                          "name": "dexName",
                          "type": "string"
                        },
                        {
                          "internalType": "uint256",
                          "name": "shares",
                          "type": "uint256"
                        },
                        {
                          "internalType": "bytes",
                          "name": "payload",
                          "type": "bytes"
                        }
                      ],
                      "internalType": "struct PrimexPricingLibrary.Path[]",
                      "name": "paths",
                      "type": "tuple[]"
                    }
                  ],
                  "internalType": "struct PrimexPricingLibrary.Route[]",
                  "name": "routes",
                  "type": "tuple[]"
                }
              ],
              "internalType": "struct PrimexPricingLibrary.MegaRoute[]",
              "name": "depositInThirdAssetMegaRoutes",
              "type": "tuple[]"
            },
            {
              "internalType": "bytes",
              "name": "firstAssetOracleData",
              "type": "bytes"
            },
            {
              "internalType": "bytes",
              "name": "thirdAssetOracleData",
              "type": "bytes"
            },
            {
              "internalType": "bytes",
              "name": "depositSoldAssetOracleData",
              "type": "bytes"
            },
            {
              "internalType": "bytes",
              "name": "positionUsdOracleData",
              "type": "bytes"
            },
            {
              "internalType": "bytes",
              "name": "nativePositionAssetOracleData",
              "type": "bytes"
            },
            {
              "internalType": "bytes",
              "name": "pmxPositionAssetOracleData",
              "type": "bytes"
            },
            {
              "internalType": "bytes",
              "name": "nativeSoldAssetOracleData",
              "type": "bytes"
            },
            {
              "internalType": "uint256",
              "name": "borrowedAmount",
              "type": "uint256"
            }
          ],
          "internalType": "struct LimitOrderLibrary.OpenPositionByOrderParams",
          "name": "_params",
          "type": "tuple"
        }
      ],
      "name": "openPositionByOrder",
      "outputs": [
        {
          "internalType": "uint256",
          "name": "",
          "type": "uint256"
        },
        {
          "internalType": "uint256",
          "name": "",
          "type": "uint256"
        },
        {
          "internalType": "uint256",
          "name": "",
          "type": "uint256"
        },
        {
          "internalType": "uint256",
          "name": "",
          "type": "uint256"
        },
        {
          "internalType": "uint256",
          "name": "",
          "type": "uint256"
        }
      ],
      "stateMutability": "nonpayable",
      "type": "function"
    },
    {
      "inputs": [],
      "name": "oracleTolerableLimitMultiplier",
      "outputs": [
        {
          "internalType": "uint256",
          "name": "",
          "type": "uint256"
        }
      ],
      "stateMutability": "view",
      "type": "function"
    },
    {
      "inputs": [
        {
          "internalType": "uint256",
          "name": "_positionId",
          "type": "uint256"
        },
        {
          "internalType": "uint256",
          "name": "_amount",
          "type": "uint256"
        },
        {
          "internalType": "address",
          "name": "_depositReceiver",
          "type": "address"
        },
        {
          "components": [
            {
              "internalType": "uint256",
              "name": "shares",
              "type": "uint256"
            },
            {
              "components": [
                {
                  "internalType": "address",
                  "name": "to",
                  "type": "address"
                },
                {
                  "components": [
                    {
                      "internalType": "string",
                      "name": "dexName",
                      "type": "string"
                    },
                    {
                      "internalType": "uint256",
                      "name": "shares",
                      "type": "uint256"
                    },
                    {
                      "internalType": "bytes",
                      "name": "payload",
                      "type": "bytes"
                    }
                  ],
                  "internalType": "struct PrimexPricingLibrary.Path[]",
                  "name": "paths",
                  "type": "tuple[]"
                }
              ],
              "internalType": "struct PrimexPricingLibrary.Route[]",
              "name": "routes",
              "type": "tuple[]"
            }
          ],
          "internalType": "struct PrimexPricingLibrary.MegaRoute[]",
          "name": "_megaRoutes",
          "type": "tuple[]"
        },
        {
          "internalType": "uint256",
          "name": "_amountOutMin",
          "type": "uint256"
        },
        {
          "internalType": "bytes",
          "name": "_positionSoldAssetOracleData",
          "type": "bytes"
        },
        {
          "internalType": "bytes",
          "name": "_nativePositionAssetOracleData",
          "type": "bytes"
        },
        {
          "internalType": "bytes",
          "name": "_nativeSoldAssetOracleData",
          "type": "bytes"
        },
        {
          "internalType": "bytes",
          "name": "_pmxSoldAssetOracleData",
          "type": "bytes"
        },
        {
          "internalType": "bytes[][]",
          "name": "_pullOracleData",
          "type": "bytes[][]"
        },
        {
          "internalType": "uint256[]",
          "name": "_pullOracleTypes",
          "type": "uint256[]"
        }
      ],
      "name": "partiallyClosePosition",
      "outputs": [],
      "stateMutability": "payable",
      "type": "function"
    },
    {
      "inputs": [],
      "name": "pause",
      "outputs": [],
      "stateMutability": "nonpayable",
      "type": "function"
    },
    {
      "inputs": [],
      "name": "paused",
      "outputs": [
        {
          "internalType": "bool",
          "name": "",
          "type": "bool"
        }
      ],
      "stateMutability": "view",
      "type": "function"
    },
    {
      "inputs": [],
      "name": "positionManagerExtension",
      "outputs": [
        {
          "internalType": "address",
          "name": "",
          "type": "address"
        }
      ],
      "stateMutability": "view",
      "type": "function"
    },
    {
      "inputs": [],
      "name": "positionsId",
      "outputs": [
        {
          "internalType": "uint256",
          "name": "",
          "type": "uint256"
        }
      ],
      "stateMutability": "view",
      "type": "function"
    },
    {
      "inputs": [],
      "name": "priceOracle",
      "outputs": [
        {
          "internalType": "contract IPriceOracleV2",
          "name": "",
          "type": "address"
        }
      ],
      "stateMutability": "view",
      "type": "function"
    },
    {
      "inputs": [],
      "name": "primexDNS",
      "outputs": [
        {
          "internalType": "contract IPrimexDNSV3",
          "name": "",
          "type": "address"
        }
      ],
      "stateMutability": "view",
      "type": "function"
    },
    {
      "inputs": [],
      "name": "registry",
      "outputs": [
        {
          "internalType": "contract IAccessControl",
          "name": "",
          "type": "address"
        }
      ],
      "stateMutability": "view",
      "type": "function"
    },
    {
      "inputs": [],
      "name": "securityBuffer",
      "outputs": [
        {
          "internalType": "uint256",
          "name": "",
          "type": "uint256"
        }
      ],
      "stateMutability": "view",
      "type": "function"
    },
    {
      "inputs": [
        {
          "internalType": "address",
          "name": "_newPositionManagerExtension",
          "type": "address"
        }
      ],
      "name": "setPositionManagerExtension",
      "outputs": [],
      "stateMutability": "nonpayable",
      "type": "function"
    },
    {
      "inputs": [
        {
          "internalType": "bytes",
          "name": "_data",
          "type": "bytes"
        }
      ],
      "name": "setProtocolParamsByAdmin",
      "outputs": [],
      "stateMutability": "nonpayable",
      "type": "function"
    },
    {
      "inputs": [],
      "name": "spotTradingRewardDistributor",
      "outputs": [
        {
          "internalType": "contract ISpotTradingRewardDistributorV2",
          "name": "",
          "type": "address"
        }
      ],
      "stateMutability": "view",
      "type": "function"
    },
    {
      "inputs": [
        {
          "internalType": "bytes4",
          "name": "_interfaceId",
          "type": "bytes4"
        }
      ],
      "name": "supportsInterface",
      "outputs": [
        {
          "internalType": "bool",
          "name": "",
          "type": "bool"
        }
      ],
      "stateMutability": "view",
      "type": "function"
    },
    {
      "inputs": [],
      "name": "traderBalanceVault",
      "outputs": [
        {
          "internalType": "contract ITraderBalanceVault",
          "name": "",
          "type": "address"
        }
      ],
      "stateMutability": "view",
      "type": "function"
    },
    {
      "inputs": [
        {
          "internalType": "address",
          "name": "",
          "type": "address"
        },
        {
          "internalType": "uint256",
          "name": "",
          "type": "uint256"
        }
      ],
      "name": "traderPositionIds",
      "outputs": [
        {
          "internalType": "uint256",
          "name": "",
          "type": "uint256"
        }
      ],
      "stateMutability": "view",
      "type": "function"
    },
    {
      "inputs": [],
      "name": "unpause",
      "outputs": [],
      "stateMutability": "nonpayable",
      "type": "function"
    },
    {
      "inputs": [
        {
          "internalType": "uint256",
          "name": "_positionId",
          "type": "uint256"
        },
        {
          "components": [
            {
              "internalType": "uint256",
              "name": "managerType",
              "type": "uint256"
            },
            {
              "internalType": "bytes",
              "name": "params",
              "type": "bytes"
            }
          ],
          "internalType": "struct LimitOrderLibrary.Condition[]",
          "name": "_closeConditions",
          "type": "tuple[]"
        }
      ],
      "name": "updatePositionConditions",
      "outputs": [],
      "stateMutability": "nonpayable",
      "type": "function"
    }
  ],
  "transactionHash": "0x5f4e3387249c93e58281397e7e1e74d05175e0b73eb0ad7580160c098986d24b",
  "args": [],
  "numDeployments": 3,
  "solcInputHash": "a40cbe14c80d3d42e946a5aebe2ca9f7",
  "bytecode": "0x60808060405234620000c6576000549060ff8260081c1662000074575060ff8082160362000038575b604051614e6b9081620000cc8239f35b60ff90811916176000557f7f26b83ff96e1f2b6a682f133852f6798a09c465da95921460cefb3847402498602060405160ff8152a13862000028565b62461bcd60e51b815260206004820152602760248201527f496e697469616c697a61626c653a20636f6e747261637420697320696e697469604482015266616c697a696e6760c81b6064820152608490fd5b600080fdfe61054080604052600436101561001457600080fd5b60006103805260003560e01c90816301ffc9a71461343a575080630bbabf29146134195780630f2bd839146133c65780631555ec02146132ea5780631785884c146132be578063212d55ec1461329d5780632630c12f146132715780633587647614612daf578063365b03e414612d8e5780633bf7771f14612c945780633f4a2d2714612c685780633f4ba83a14612b4d578063414d19e31461287657806344ff7dc31461284b57806350f413221461281f5780635c975abb146127f957806360fa88e4146127bb57806362ad9e9e146125e0578063659be053146125b457806368a270c11461250d578063777d24c0146124ec5780637b103999146124c05780637fa50567146118c35780638262b7c51461183c5780638456cb5914611722578063898e971a14610d635780638992c91114610d425780639968861e14610d165780639c68a60814610cf5578063a41b4ea414610ca8578063a8905dab14610c74578063ac55640014610958578063b35ac73214610900578063bb8313c2146108df578063bd83eb4c14610820578063c5194ffb14610772578063c66c2536146106d0578063cc2ea79514610472578063d64470e914610417578063d7638a46146103d9578063e3d7bb331461037f578063e92d529a14610350578063ea0341a81461026d5763eb02c3011461020a57600080fd5b34610266576020366003190112610266576004356102266144d7565b5061023081614dcd565b610380515260dc6020526102626102566102506040610380512054613f77565b50614530565b604051918291826135b6565b0390f35b6103805180fd5b346102665760208060031936011261026657600435610380515260d38152604061038051209081549161029f83613fb2565b926102ad6040519485613777565b808452828401809261038051526103805184812090915b83831061032d5750505050604051918083019381845251809452604083019360408160051b850101929161038051955b8287106103015785850386f35b90919293828061031d600193603f198a820301865288516134cd565b96019201960195929190926102f4565b60028660019261033f859a999a613e81565b8152019201920191909594956102c4565b3461026657610380518060031936011261037c5760d8546040516001600160a01b039091168152602090f35b80fd5b34610266576020366003190112610266576004356001600160401b038111610266576103cb6103b56103d1923690600401613589565b60e0546001600160a01b0316929136919061382b565b90613862565b506103805180f35b34610266576020366003190112610266576001600160a01b036103fa613533565b16610380515260d260205260206040610380512054604051908152f35b3461026657604036600319011261026657610430613533565b6024359060018060a01b0316610380515260d1602052610380516040812090815483101561037c5760206104648484613684565b90546040519160031b1c8152f35b346102665760c03660031901126102665761048b61355f565b606435801515810361069f576001600160401b0390608435828111610266576104b89036906004016134ed565b906104c1613f21565b6104c9614d5b565b600435610380515260dc6020526104e66040610380512054613f77565b5060d65460d75460d554604051939893976001600160a01b03918216979282169693909116949291906101008901908111908911176106ba5761054b936101008901604052602435895260018060a01b03166020890152151560408801523691613fc9565b6060850152608084015260a083015260c082015260a43560e0820152602060405180809363f7e2251760e01b8252856004830152604060248301528051604483015260018060a01b038482015116606483015260408101511515608483015260e06105c7606083015161010060a4860152610144850190614380565b60808301516001600160a01b0390811660c486015260a0840151811660e486015260c084015116610104850152910151610124830152038173e381eF4cbc2e732251Ae357629dF8b1Ec82Fb8F55af49081156106ac576103805191610675575b507fad6b2ae912630f53b4805f4a0718a98a9cc995c7ac0dd218a8850dd8464a745160408354926001808060a01b0360078701541695015482519182526020820152a3600180556103805180f35b90506020813d6020116106a4575b8161069060209383613777565b8101031261069f575182610627565b600080fd5b3d9150610683565b6040513d61038051823e3d90fd5b634e487b7160e01b600052604160045260246000fd5b34610266576060366003190112610266576106e9613533565b6106f1613549565b906106fa614cd4565b73D1869a3C77C17D185c9a5e8904e0e4867e5EB1D990813b1561026657604051636336129b60e11b81526001600160a01b0391821660048201529216602483015260448035908301526103805190829060649082905af480156106ac57610763575b6103805180f35b61076c906136bf565b8061075c565b346102665760203660031901126102665761078b613533565b60d454604051632474521560e21b815261038051600482015233602482015290602090829060449082906001600160a01b03165afa9081156106ac5761038051916107f2575b50156107e05761075c90614c18565b60405163036be76f60e61b8152600490fd5b610813915060203d8111610819575b61080b8183613777565b810190613798565b826107d1565b503d610801565b34610266576020806003193601126102665760043561083e81614dcd565b610380515260dc815261087f8161085e6102506040610380512054613f77565b60405180938192632ac0a2ad60e21b835284600484015260248301906145c6565b038173e381eF4cbc2e732251Ae357629dF8b1Ec82Fb8F55af49081156106ac5761038051916108b2575b50604051908152f35b90508181813d83116108d8575b6108c98183613777565b810103126102665751826108a9565b503d6108bf565b3461026657610380518060031936011261037c57602060da54604051908152f35b3461026657604036600319011261026657610919613533565b610921613549565b9060018060a01b03809116610380515260c96020526103805190604082209216905260205260206040610380512054604051908152f35b346102665761096636613652565b604051622b155960ea1b60208083019190915260248201819052916001600160a01b03908161099482613575565b166044840152838101356101be1982360301811215610266578101906101a08060648601528235928484168094036102665785936101e4850152848782016109db90613575565b16610204850152846109ef60408301613575565b16610224850152606081013561024485015284610a0e60808301613575565b1661026485015260a081013561028485015284610a2d60c08301613575565b166102a485015260e08101356102c485015261010090818101356102e48601526101208082013561030487015261014090818301610a6a906136b2565b1515610324880152610160928381013561034489015261018095868201356103648a01528101610a999161399a565b61038489016101c090526103a4890190610ab2926139cb565b93610ac060408801886139ec565b9560431996878b83030160848c0152610ad892613a34565b610ae560608901896139ec565b8a8303880160a48c0152610af99291613ac6565b610b0660808901896139ec565b8a8303880160c48c0152610b1a9291613ac6565b610b2760a089018961399a565b8a8303880160e48c0152610b3b92916139cb565b610b4860c089018961399a565b8a830388016101048c0152610b5d92916139cb565b610b6a60e089018961399a565b8a830388016101248c0152610b7f92916139cb565b908701610b8c908861399a565b89830387016101448b0152610ba192916139cb565b908601610bae908761399a565b88830386016101648a0152610bc392916139cb565b908501610bd0908661399a565b8783038501610184890152610be592916139cb565b908401610bf2908561399a565b9092868303016101a4870152610c07926139cb565b9101356101c483015203601f1981018352610c229083613777565b60e0541690610c3091613862565b80805181010360a013610266578160a09282015191604081015160608201519085608084015193015193604051958652850152604084015260608301526080820152f35b34610266576040366003190112610266576020610ca0610c92613533565b610c9a613549565b9061465b565b604051908152f35b3461026657604036600319011261026657610cc1613533565b6024359060018060a01b0316610380515260d2602052610380516040812090815483101561037c5760206104648484613684565b3461026657610380518060031936011261037c57602060ce54604051908152f35b3461026657610380518060031936011261037c5760d5546040516001600160a01b039091168152602090f35b3461026657610380518060031936011261037c57602060ca54604051908152f35b61012036600319011261026657610d78613549565b6001600160401b039060443582811161026657610d999036906004016134ed565b92909160843582811161026657610db4903690600401613589565b6101e0526104005260a43582811161026657610dd4903690600401613589565b610220526103e05260c43582811161026657610df4903690600401613589565b6102a0526103a05260e43582811161026657610e149036906004016134ed565b9092610104351161026657610e2f36610104356004016134ed565b610e3a949194613f21565b610e42614d5b565b610e4a613d6b565b9460405193610e588561375c565b610380518552604051610e6a8161375c565b610380519052604051610e7c8161375c565b6103805190526103805193604051610e9381613709565b6103805181526103805160208201526103805160408201526103805160608201526103805160808201526103805160a08201526103805160c08201526103805160e08201526103805161010082015261012061038051910152610ef7600435614dcd565b6001600160a01b038716156117105760d7546001600160a01b031690813b1561026657610f4692610f5d6040519687958694859463f197ce3560e01b8652604060048701526044860191613c90565b906003198483030160248501526103805197613d47565b039134905af180156106ac576116fc575b50610f7f6040518061026052613725565b610f876144d7565b6102605152806020610260510152806040610260510152806060610260510152600435815260dc602052806020610fc46102506040842054613f77565b8061026051520151151560206102605101526116e85750606061026051602081015115159182910152611572575b61026051805160c081015160808201516102e05260208083015160408086015160d65460d75460d5549886015160a08901516060909901519451631dae49b960e21b81526001600160a01b03998a1660048201529489166024860152969d949c939b9615159a9698881697908116969116949193918b604481895afa9a8b156106ac57610380519b611536575b50906110df929160cb549c606061026051015115159e60018060a01b0360d85416610240526110b360405180608052613740565b608051526102e051602060805101526040608051015260018060a01b0316606060805101523691613fc9565b60808051015260643560a0608051015260c0608051015260e06080510152610100608051015261012060805101526101406080510152610160608051015261018060805101526101a060805101526101c060805101526101e06080510152610380516102006080510152610240516102206080510152611166366101e0516104005161382b565b610240608051015261117f36610220516103e05161382b565b6102606080510152611198366102a0516103a05161382b565b610280608051015261136e6101406111d161026051516040519384928392630b2aa09960e11b84526060600485015260648401906145c6565b60031983820301602484015260805151815260206080510151602082015260406080510151604082015260018060a01b03606060805101511660608201526113566113406112ca6112b46112376080805101516102a060808801526102a0870190614380565b60a0608051015160a087015260c0608051015160c087015260018060a01b0360e060805101511660e087015260018060a01b0361010060805101511661010087015260018060a01b03610120608051015116610120870152604060208b60805101518884038d8a015280518452015191816020820152019061348d565b610160608051015185820361016087015261348d565b610180608051015115156101808501526101a060805101516101a08501526101c060805101516101c08501526101e0608051015115156101e0850152610200608051015161020085015260018060a01b03610220608051015116610220850152610240608051015184820361024086015261348d565b610260608051015183820361026085015261348d565b9061028060805101519061028081840391015261348d565b610380516044830152038173e381eF4cbc2e732251Ae357629dF8b1Ec82Fb8F55af49081156106ac576103805191611472575b506102605151604081015160e0909101516113cb916001600160a01b039182169116600435614878565b60a081015160c082015160e0830151926001600160a01b03928316929091169060088410156114585761010081015161012090910151604080516001600160a01b039094168452602084019290925290820152600435907f68c1d3a775fd37da20ef77475b9074ee3b57e4d73d94e046e892720b5043ff729080606081015b0390a4600180556103805180f35b634e487b7160e01b61038051526021600452602461038051fd5b9050610140813d6101401161152e575b816114906101409383613777565b8101031261026657604051906114a582613709565b80518252602081015160208301526040810151604083015260608101516060830152608081015160058110156102665760808301526114e660a08201614cc0565b60a08301526114f760c08201614cc0565b60c083015260e0810151906008821015610266576101209160e08401526101008101516101008401520151610120820152816113a1565b3d9150611482565b9291909a506020833d60201161156a575b8161155460209383613777565b81010312610266576110df92519a90919261107f565b3d9150611547565b610260515160a0810151606090910151611598916001600160a01b03918216911661465b565b60406102605101526044602060018060a01b0360d4541660405192838092632474521560e21b82527f5770eb0b3cb4d032328b9b2070b33a4b2779280a0ec69c0dfa26ce7c00bb682860048301523360248301525afa9081156106ac5761038051916116c9575b5015610ff257604061026051015160ce5490610380519180159182156116a9575b505015611697576706f05b59d3b200008101811161167d57806706f05b59d3b2000081011061166b576706f05b59d3b20000670de0b6b3a76400009101046040610260510152610ff2565b604051630a77254f60e01b8152600490fd5b634e487b7160e01b61038051526011600452602461038051fd5b604051631550e8b760e01b8152600490fd5b915091506116c16116ba8383614694565b9283614e15565b148780611620565b6116e2915060203d6020116108195761080b8183613777565b866115ff565b634e487b7160e01b81526021600452602490fd5b61170691506136bf565b6103805186610f6e565b60405163044aa57560e41b8152600490fd5b3461026657610380518060031936011261037c5760d454604051632474521560e21b81527f5c91514091af31f62f596a314af7d5be40146b2f2355969392f055e12e0982fb600482015233602482015290602090829060449082906001600160a01b03165afa9081156106ac57610380519161181e575b50156107e05760655460ff81166117e65760019060ff1916176065557f62e78cea01bee320cd4e420270b5ea74000d11b0c9f74754ebdbfc544b05a2586020604051338152a16103805180f35b60405162461bcd60e51b815260206004820152601060248201526f14185d5cd8589b194e881c185d5cd95960821b6044820152606490fd5b611836915060203d81116108195761080b8183613777565b81611799565b34610266576040366003190112610266576024356001600160401b038111610266576118b26118726103d19236906004016134ed565b6118a4604093929351938492638262b7c560e01b60208501526004356024850152604060448501526064840191613a34565b03601f198101835282613777565b60e0546001600160a01b0316613862565b6118cc36613652565b6101a0526118d8613f21565b60a06101a0510135600781101561026657156107e0576118f6614d5b565b5a61046052610380516103405261190b613d6b565b610340526101a05160608101359035610380515260d360205260406103805120805482106124a2575b5050611a146101a05161194960208201613ea6565b6102c05261195a6040820182613eba565b61032052610100526119f76119726080830183613eef565b91909261198260c0820182613eef565b610280526101605261199760e0820182613eef565b95906119a7610120840184613eef565b61018052610140526119bd610140840184613eef565b6102005260a052611a096119d5610100850185613eef565b919092611a016119e9610160880188613eba565b989097610180810190613eba565b9a9099369161382b565b99369161382b565b61044052369161382b565b60c052610380516101c052604051611a2b81613709565b6103805181526103805160208201526103805160408201526103805160608201526103805160808201526103805160a08201526103805160c08201526103805160e08201526103805161010082015261012061038051910152611a916101a05135614dcd565b6102c0516001600160a01b0316156117105760d7546001600160a01b031690813b1561026657610f4692611ae36040519687958694859463f197ce3560e01b8652604060048701526044860191613c90565b039134905af180156106ac5761248b575b50611b056040518061042052613725565b611b0d6144d7565b61042051526101c05160206104205101526101c05160406104205101526101c05160606104205101526101a051356101c0515260dc602052611b94611b5b61025060406101c0512054613f77565b6104208051829052602080830151825190151591015251600160609182015260a08201519101516001600160a01b03908116911661465b565b60406104205101526044602060018060a01b0360d4541660405192838092632474521560e21b82527f5770eb0b3cb4d032328b9b2070b33a4b2779280a0ec69c0dfa26ce7c00bb682860048301523360248301525afa908115612293576101c0519161246c575b506123d3575b61042051805160c081015160808201516101205260208083015160e05260408085015160d65460d75460d5549785015160a08801516060909801519451631dae49b960e21b81526001600160a01b03988916600482015294881660248601529598939795151596939584169490841693909116919087604481865afa968715612293576101c0519761239f575b5060cb5497606061042051015115156103c05260018060a01b0360d8541661036052611cc06040518061030052613740565b610300515261012051602061030051015260e051604061030051015260018060a01b036102c051166060610300510152611d01366103205161010051613fc9565b60806103005101526101c05160a061030051015260c061030051015260e0610300510152610100610300510152610120610300510152610340516101406103005101526101606103005101526101806103005101526101a06103005101526101c06103005101526103c0516101e06103005101526104605161020061030051015261036051610220610300510152611da036610280516101605161382b565b610240610300510152611dba36610180516101405161382b565b610260610300510152611dd3366102005160a05161382b565b610280610300510152611fbe610140611e0d61042051516040519384928392630b2aa09960e11b84526060600485015260648401906145c6565b60031983820301602484015261030051518152602061030051015160208201526040610300510151604082015260018060a01b036060610300510151166060820152611fa5611f8e611f11611efa611e7760806103005101516102a0806080890152870190614380565b60a061030051015160a087015260c061030051015160c087015260018060a01b0360e06103005101511660e087015260018060a01b036101006103005101511661010087015260018060a01b0361012061030051015116610120870152604060208b6103005101518884038d8a015280518452015191816020820152019061348d565b61016061030051015185820361016087015261348d565b61018061030051015115156101808501526101a06103005101516101a08501526101c06103005101516101c08501526101e061030051015115156101e085015261020061030051015161020085015260018060a01b036102206103005101511661022085015261024061030051015184820361024086015261348d565b61026061030051015183820361026085015261348d565b906102806103005101519061028081840391015261348d565b60a06101a05101356044830152038173e381eF4cbc2e732251Ae357629dF8b1Ec82Fb8F55af4908115612293576101c051916122db575b506104205151604081015160e0909101516101a051612022926001600160a01b0392831692169035614878565b610420515161014081015142036120ba575b5060a081015160c082015160e0830151926001600160a01b03928316929091169060088410156114585761010081015161012090910151604080516101a0516001600160a01b03909516815260208101939093528201529035907f68c1d3a775fd37da20ef77475b9074ee3b57e4d73d94e046e892720b5043ff7290806060810161144a565b60d85460a082015160c09092015160808401516001600160a01b03928316939092169160058110156122ba575a61046051808281031161167d57604051926121018461375c565b6101c0518452604051602080820152612128816118a4604082016103205161010051613ac6565b51946040519661213788613709565b60018060a01b036102c051168852602088015260408701526060860152600160808601520360a084015260c083015260e08201526104405161010082015260c051610120820152813b156122d4576040805163ee4bc79960e01b815260206004820181905283516001600160a01b03908116602484015290840151166044820152908201516064820152606082015190929060058110156122ba579083916084830152608083015160a483015260a083015160c483015260c08301519261014060e484015261016483018451809152602061018485019501906101c0515b8181106122a157505050826122698260e08394015161010484015261012061225161010083015198602319998a8783030161012488015261348d565b91015196838203016101448401526101c0519661348d565b03916101c051905af18015612293571561203457612286906136bf565b6101c05180156120345780fd5b6040513d6101c051823e3d90fd5b8251875260209687019688965090920191600101612215565b634e487b7160e01b6101c05152602160045260246101c051fd5b6101c05180fd5b9050610140813d61014011612397575b816122f96101409383613777565b810103126122d4576040519061230e82613709565b80518252602081015160208301526040810151604083015260608101516060830152608081015160058110156122d457608083015261234f60a08201614cc0565b60a083015261236060c08201614cc0565b60c083015260e08101519060088210156122d4576101209160e0840152610100810151610100840152015161012082015281611ff5565b3d91506122eb565b9096506020813d6020116123cb575b816123bb60209383613777565b8101031261026657519588611c8e565b3d91506123ae565b604061042051015160ce54906101c051918015918215612453575b505015611697576706f05b59d3b200008101811161243957806706f05b59d3b2000081011061166b576706f05b59d3b20000670de0b6b3a76400009101046040610420510152611c01565b634e487b7160e01b6101c05152601160045260246101c051fd5b915091506124646116ba8383614694565b1483806123ee565b612485915060203d6020116108195761080b8183613777565b82611bfb565b612494906136bf565b610380516101c05281611af4565b6124b5916124af91613d85565b50613e81565b610340528080611934565b3461026657610380518060031936011261037c5760d4546040516001600160a01b039091168152602090f35b3461026657610380518060031936011261037c57602060cb54604051908152f35b34610266576020806003193601126102665760043561252b81614dcd565b610380515260dc81526125446040610380512054613f77565b50600201546001600160a01b03168181612569575050610380515b6040519015158152f35b604051634ad09aa560e01b815291829060049082905afa9081156106ac576103805191612597575b5061255f565b6125ae9150823d84116108195761080b8183613777565b82612591565b3461026657610380518060031936011261037c5760e0546040516001600160a01b039091168152602090f35b610160366003190112610266576125f561355f565b6001600160401b0390606435828111610266576126169036906004016134ed565b9260a4358181116102665761262f903690600401613589565b919060c43582811161026657612649903690600401613589565b9060e43584811161026657612662903690600401613589565b610104358681116102665761267b903690600401613589565b93909461012435888111610266576126979036906004016134ed565b97909861014435908111610266576126b39036906004016134ed565b9a909b6040519e8f9e8f90633156cf4f60e11b602083015260043560248301526024356044830152600160a01b60019003166064820152608481016101609052610184019061270192613ac6565b60843560a48f01528d81036023190160c48f0152612721929091906139cb565b906023198c83030160e48d0152612737926139cb565b906023198a8303016101048b015261274e926139cb565b9060231988830301610124890152612765926139cb565b906023198683030161014487015261277c92613c90565b906023198483030161016485015261279392613d47565b03601f19810182526127a59082613777565b60e0546103d191906001600160a01b0316613862565b34610266576020366003190112610266576001600160a01b036127dc613533565b16610380515260d160205260206040610380512054604051908152f35b3461026657610380518060031936011261037c57602060ff606554166040519015158152f35b3461026657610380518060031936011261037c5760d9546040516001600160a01b039091168152602090f35b34610266576020366003190112610266576128646144d7565b50610262610256610250600435613f77565b60031960203682011261026657600435906001600160401b038211610266578160040190610260809184360301126102665760405192839163414d19e360e01b602084015260248301602090526128cd8480613ab2565b9060448401526128dd818061399a565b6102a48501606090526103048501906128f5926139cb565b9060208101356102c48501526040810161290e916139ec565b8483036102a319016102e48601526129269291613ac6565b9061293460248201856139ec565b92604319938486830301606487015261294c92613ac6565b6001600160a01b0394908561296360448501613575565b166084860152606483013560a4860152856084840161298190613575565b1660c486015260a483013560e48601526101049060c48401358287015260e484016129ab906136b2565b151591610124928388015284016129c1906136b2565b151591610144928388015284016129d890846139ec565b91610164928789830301848a01526129ef92613a34565b9184016129fc908461399a565b92610184938789830301858a0152612a13926139cb565b908401612a20908461399a565b916101a4928789830301848a0152612a37926139cb565b918401612a44908461399a565b926101c4938789830301858a0152612a5b926139cb565b908401612a68908461399a565b916101e4928789830301848a0152612a7f926139cb565b918401612a8c908461399a565b92610204938789830301858a0152612aa3926139cb565b908401612ab0908461399a565b91610224928789830301848a0152612ac7926139cb565b918401612ad4908461399a565b92610244938789830301858a0152612aeb926139cb565b908401612af890846139ec565b8783038701610264890152612b0d9291613c90565b9201612b18916139ec565b909284830301610284850152612b2d92613d47565b03601f1981018352612b3f9083613777565b60e05416906103d191613862565b3461026657610380518060031936011261037c5760d454604051632474521560e21b81527f5a7d4408f4759dddd7fdfd0d21abd99341dc2f52cda14804988a9b2df20766d8600482015233602482015290602090829060449082906001600160a01b03165afa9081156106ac576103805191612c4a575b50156107e05760655460ff811615612c0e5760ff19166065557f5db9ee0a495bf2e6ff9c91a7834c1ba4fdd244a5e8aa4e537bd38aeae4b073aa6020604051338152a16103805180f35b60405162461bcd60e51b815260206004820152601460248201527314185d5cd8589b194e881b9bdd081c185d5cd95960621b6044820152606490fd5b612c62915060203d81116108195761080b8183613777565b81612bc4565b3461026657610380518060031936011261037c5760d6546040516001600160a01b039091168152602090f35b60c0366003190112610266576001600160401b0360443581811161026657612cc0903690600401613589565b919060643582811161026657612cda903690600401613589565b9260843581811161026657612cf39036906004016134ed565b92909360a435928311610266576103d196612d7f6118b296606496612d6f60c09a612d5b612d286118a49a36906004016134ed565b9890976040519e8f9d8e633bf7771f60e01b602082015260043560248201526024356044820152015260e48d01916139cb565b9060231998898c84030160848d01526139cb565b91868984030160a48a0152613c90565b928584030160c4860152613d47565b3461026657610380518060031936011261037c57602060cf54604051908152f35b346102665760e036600319011261026657612dc8613533565b612dd0613549565b906044356001600160a01b038116810361026657612dec61351d565b608435906001600160a01b03821682036102665760a435926001600160a01b03841684036102665760c4356001600160a01b03811690036102665761038051549560ff8760081c161596878098613264575b801561324d575b156131f1576103805160ff198216600117815590886131df575b50506040516301ffc9a760e01b8152637965db0b60e01b60048201526020816024816001600160a01b038b165afa9081156106ac5761038051916131c0575b508061315d575b806130fa575b80613097575b80613034575b80612fd1575b15611710576bffffffffffffffffffffffff60a01b9560018060a01b03168660d454161760d45560018060a01b03168560d654161760d65560018060a01b03168460d554161760d55560018060a01b03168360d754161760d75560018060a01b03168260d854161760d85560018060a01b03169060df54161760df55612f4460c435614c18565b610380515490612f8b60ff8360081c16612f5d816137b0565b612f66816137b0565b60ff1960655416606555612f79816137b0565b612f82816137b0565b600180556137b0565b612f96576103805180f35b61ff00191661038051557f7f26b83ff96e1f2b6a682f133852f6798a09c465da95921460cefb3847402498602060405160018152a18061075c565b506040516301ffc9a760e01b8152633df6cef760e01b60048201526020816024816001600160a01b038a165afa9081156106ac576103805191613015575b50612ebd565b61302e915060203d6020116108195761080b8183613777565b8861300f565b506040516301ffc9a760e01b8152631e42d3e560e01b60048201526020816024816001600160a01b0389165afa9081156106ac576103805191613078575b50612eb7565b613091915060203d6020116108195761080b8183613777565b88613072565b506040516301ffc9a760e01b81526333ca6d2360e21b60048201526020816024816001600160a01b0388165afa9081156106ac5761038051916130db575b50612eb1565b6130f4915060203d6020116108195761080b8183613777565b886130d5565b506040516301ffc9a760e01b81526312b3ed2b60e01b60048201526020816024816001600160a01b0387165afa9081156106ac57610380519161313e575b50612eab565b613157915060203d6020116108195761080b8183613777565b88613138565b506040516301ffc9a760e01b815263081e57a760e31b60048201526020816024816001600160a01b0386165afa9081156106ac5761038051916131a1575b50612ea5565b6131ba915060203d6020116108195761080b8183613777565b8861319b565b6131d9915060203d6020116108195761080b8183613777565b88612e9e565b61ffff19166101011790558780612e5f565b60405162461bcd60e51b815260206004820152602e60248201527f496e697469616c697a61626c653a20636f6e747261637420697320616c72656160448201526d191e481a5b9a5d1a585b1a5e995960921b6064820152608490fd5b50303b158015612e455750600160ff821614612e45565b50600160ff821610612e3e565b3461026657610380518060031936011261037c5760d7546040516001600160a01b039091168152602090f35b3461026657610380518060031936011261037c57602060cc54604051908152f35b3461026657610380518060031936011261037c5760db546040516001600160a01b039091168152602090f35b34610266576080366003190112610266576001600160401b036004358181116102665761331b9036906004016134ed565b906024928335908111610266576133369036906004016134ed565b926044359361334361351d565b9161334c614cd4565b610380515b86811061335f576103805180f35b61337361336d8284896144c7565b35614dcd565b61339c6133818284896144c7565b358561339661339185888b6144c7565b613ea6565b91614878565b60001981146133ad57600101613351565b87634e487b7160e01b6103805152601160045261038051fd5b34610266576040366003190112610266576133df613d6b565b50600435610380515260d36020526102626134056124af60243560406103805120613d85565b6040519182916020835260208301906134cd565b3461026657610380518060031936011261037c57602060d054604051908152f35b3461069f57602036600319011261069f576004359063ffffffff60e01b821680920361069f57602091633d79d7fb60e11b811490811561347c575b5015158152f35b6301ffc9a760e01b14905083613475565b919082519283825260005b8481106134b9575050826000602080949584010152601f8019910116010190565b602081830181015184830182015201613498565b90604060206134ea9380518452015191816020820152019061348d565b90565b9181601f8401121561069f578235916001600160401b03831161069f576020808501948460051b01011161069f57565b606435906001600160a01b038216820361069f57565b600435906001600160a01b038216820361069f57565b602435906001600160a01b038216820361069f57565b604435906001600160a01b038216820361069f57565b35906001600160a01b038216820361069f57565b9181601f8401121561069f578235916001600160401b03831161069f576020838186019501011161069f57565b6101a06134ea9260208352805160208401526020810151604084015260018060a01b03806040830151166060850152806060830151166080850152608082015160a08501528060a08301511660c085015260c082015160e085015260e08201511661010090818501528101516101209081850152810151610140908185015281015190610160918285015201519161018080820152019061348d565b6003199060208183011261069f57600435916001600160401b03831161069f57826101a09203011261069f5760040190565b805482101561369c5760005260206000200190600090565b634e487b7160e01b600052603260045260246000fd5b3590811515820361069f57565b6001600160401b0381116106ba57604052565b604081019081106001600160401b038211176106ba57604052565b61018081019081106001600160401b038211176106ba57604052565b61014081019081106001600160401b038211176106ba57604052565b608081019081106001600160401b038211176106ba57604052565b6102a081019081106001600160401b038211176106ba57604052565b602081019081106001600160401b038211176106ba57604052565b90601f801991011681019081106001600160401b038211176106ba57604052565b9081602091031261069f5751801515810361069f5790565b156137b757565b60405162461bcd60e51b815260206004820152602b60248201527f496e697469616c697a61626c653a20636f6e7472616374206973206e6f74206960448201526a6e697469616c697a696e6760a81b6064820152608490fd5b6001600160401b0381116106ba57601f01601f191660200190565b92919261383782613810565b916138456040519384613777565b82948184528183011161069f578281602093846000960137010152565b6040519060608201928284106001600160401b038511176106ba57600080916134ea95604052602785527f416464726573733a206c6f772d6c6576656c2064656c65676174652063616c6c6020860152660819985a5b195960ca1b6040860152602081519101845af43d156138f9573d916138dc83613810565b926138ea6040519485613777565b83523d6000602085013e6138fd565b6060915b9192901561395f5750815115613911575090565b3b1561391a5790565b60405162461bcd60e51b815260206004820152601d60248201527f416464726573733a2063616c6c20746f206e6f6e2d636f6e74726163740000006044820152606490fd5b8251909150156139725750805190602001fd5b60405162461bcd60e51b81526020600482015290819061399690602483019061348d565b0390fd5b9035601e198236030181121561069f5701602081359101916001600160401b03821161069f57813603831361069f57565b908060209392818452848401376000828201840152601f01601f1916010190565b9035601e198236030181121561069f5701602081359101916001600160401b03821161069f578160051b3603831361069f57565b9035603e198236030181121561069f570190565b9082818152602080910193818360051b82010194846000925b858410613a5e575050505050505090565b909192939495968580613aa1600193601f19868203018852613a90613a838d89613a20565b803583528481019061399a565b9091604090818682015201916139cb565b990194019401929594939190613a4d565b9035605e198236030181121561069f570190565b916020906104a0928084528152018093825190600591821b8301946104c0938185526000926104e0978489525b875189511015613c84578281038a52613b0d875185613a20565b613b2360408301918035845260208101906139ec565b8092604060208601525260608301906060838a1b85010161052052809388945b848610613b6d57505050505050602061052051998188510188520196600189510189529698613af3565b605f19826105205103018452613b838184613a20565b6105205160408101918d91613bb191906001600160a01b03613ba483613575565b16905260208101906139ec565b8093604060206105205101525260606105205184828201941b01016105005280610480528c915b838310613bfd5750505050602080600192610500516105205201940195019492613b43565b6020600191605f19610520516105005103018152613c6d613c216104805186613ab2565b613c5b613c45613c31838061399a565b6060610500515260606105005101916139cb565b918581013586610500510152604081019061399a565b906105005160408185039101526139cb565b610500528161048051016104805201920191613bd8565b98509650505050505050565b91908082526020809201918260059383851b820195809560009182945b878610613cc05750505050505050505090565b909192939495969798818103865287613cd98b856139ec565b808452828401908381891b86010194838a905b838210613d1057505050505050806001929b01960196019497969593929190613cad565b91939580613d36600193959799601f19888203018a52613d308b8761399a565b906139cb565b9801960192018d9594929391613cec565b81835290916001600160fb1b03831161069f5760209260051b809284830137010190565b60405190613d78826136d2565b6060602083600081520152565b805482101561369c5760005260206000209060011b0190600090565b90600182811c92168015613dd1575b6020831014613dbb57565b634e487b7160e01b600052602260045260246000fd5b91607f1691613db0565b9060405191826000825492613def84613da1565b908184526001948581169081600014613e5e5750600114613e1b575b5050613e1992500383613777565b565b9093915060005260209081600020936000915b818310613e46575050613e1993508201013880613e0b565b85548884018501529485019487945091830191613e2e565b915050613e1994506020925060ff191682840152151560051b8201013880613e0b565b90604051613e8e816136d2565b6020613ea1600183958054855201613ddb565b910152565b356001600160a01b038116810361069f5790565b903590601e198136030182121561069f57018035906001600160401b03821161069f57602001918160051b3603831361069f57565b903590601e198136030182121561069f57018035906001600160401b03821161069f5760200191813603831361069f57565b600260015414613f32576002600155565b60405162461bcd60e51b815260206004820152601f60248201527f5265656e7472616e637947756172643a207265656e7472616e742063616c6c006044820152606490fd5b60cf5481101561369c57600c9060cf600052027facb8d954e2cfef495862221e91bd7523613cf8808827cb33edfe4904cc51bf290190600090565b6001600160401b0381116106ba5760051b60200190565b9291909261050052826104c0526104e0526020613fec6105209360008552613fb2565b613ff96040519182613777565b8084526104c051815201916104e051916104c05192610500519360051b84011161069f57926104a09283525b6104c05160051b610500519084519082018110156143775735906001600160401b03821161069f57016040816104e051031261069f5760405190614068826136d2565b8035825260208101356001600160401b03811161069f576104e051601f82840101121561069f578082013561409c81613fb2565b926140aa6040519485613777565b81845260208401906104e05160208460051b86840101011161069f57602084820101915b60208460051b868401010183106140fc57505050506020808401929092525090825283518101845201614025565b82356001600160401b03811161069f576040601f1982888601016104e05103011261069f576040519061412e826136d2565b61413e6020828987010101613575565b82526001600160401b036040828987010101351161069f576104e0518488018201604081013501603f01121561069f5783870181016040810135016020013561418681613fb2565b916141946040519384613777565b8183526104e0516020840191908a88018201604081810135909101600586901b01011161069f5760408a88018201818101350101915b8a88018201604081810135909101600586901b010183106141fe5750505050918160209384809401528152019201916140ce565b6001600160401b0383351161069f576104e051906060898d0184016040810135018535018303603f19011261069f57604051918260608101106001600160401b036060850111176106ba576060830160409081528a8e01850180820135018635010135906001600160401b03821161069f578a8e0185016040810135018635018201605f0181131561069f576142af918e8c018601604081810135909101883501909101908101359060600161382b565b82528b89018301604081013501843501606081013560208401526001600160401b036080909101351161069f576104e05190898d018401604081013501853501608081013501605f0182131561069f5760209261436784938f60608e604060808c35828d8786010101358d87860101010101358c35828d8786010101358d8786010101010101359260808c3560408d8486010101358d8486010101010135918b8d35926040828285010101359201010101010161382b565b60408201528152019201916141ca565b50505090505190565b90602082519182815201908160208260051b82019401926000915b8383106143aa57505050505090565b9091929394818103835285519060206040820192805183520151916040602083015282518091526060820190602060608260051b85010194019260005b8281106144085750505050506020806001929701930193019193929061439b565b9091929394605f198382030185526020865160018060a01b03815116835201519060406020820152604081019082518092526060810190602060608460051b8301019401926000915b818310614472575050505050602080600192970195019101929190926143e7565b90919293946020806144ba600193605f1986820301895289519060406144a1835160608452606084019061348d565b928581015186840152015190604081840391015261348d565b9701950193019190614451565b919081101561369c5760051b0190565b604051906144e4826136ed565b606061016083600080825280602083015280604083015280848301528060808301528060a08301528060c08301528060e083015280610100830152806101208301526101408201520152565b9060405161453d816136ed565b610160613ea1600b8395805485526001810154602086015260018060a01b03806002830154166040870152806003830154166060870152600482015460808701528060058301541660a0870152600682015460c087015260078201541660e086015260088101546101008601526009810154610120860152600a81015461014086015201613ddb565b906134ea91805182526020810151602083015260018060a01b03806040830151166040840152806060830151166060840152608082015160808401528060a08301511660a084015260c082015160c084015260e08201511660e083015261010080820151908301526101208082015190830152610140808201519083015261016080910151916101808092820152019061348d565b60018060a01b0380911660005260cd6020526040600020911660005260205260406000205480151560001461468d5790565b5060ca5490565b818102929181159184041417156146a757565b634e487b7160e01b600052601160045260246000fd5b8181106146c8575050565b600081556001016146bd565b6146de8154613da1565b90816146e8575050565b81601f600093116001146146fa575055565b908083918252614719601f60208420940160051c8401600185016146bd565b5555565b805490811561474757600019918201916147378383613684565b909182549160031b1b1916905555565b634e487b7160e01b600052603160045260246000fd5b908082146148745761476f8154613da1565b906001600160401b0382116106ba57819061478a8454613da1565b601f8111614837575b50600090601f83116001146147cb576000926147c0575b50508160011b916000199060031b1c1916179055565b0154905038806147aa565b81526020808220858352818320935090601f1985169083905b82821061481e575050908460019594939210614805575b505050811b019055565b015460001960f88460031b161c191690553880806147fb565b84958192958501548155600180910196019401906147e4565b61486490856000526020600020601f850160051c8101916020861061486a575b601f0160051c01906146bd565b38614793565b9091508190614857565b5050565b9160009280845260209160d3835260409384862080549087815581614bc1575b50506001600160a01b0390811680875260d285528587208054600019949291858201918211614bad57614913886148fa898c8e6148da8b9a999860de98613684565b90549060031b1c96879589835260d2815283832094835252205490613684565b90919082549060031b91821b91600019901b1916179055565b868a5260de8852888a2054908a52888a2055885260d2865261493687892061471d565b84885260de865287878120551680875260d18552858720805490848201918211614b99579061496491613684565b90549060031b1c81885260d1865261498d816148fa898b20888c5260dd8a528a8c205490613684565b84885260dd86528688205490885286882055865260d184526149b085872061471d565b82865260dd8452858581205560cf54828101908111614abf576149d290613f77565b5083875260dc85526149e686882054613f77565b919091614b8557808203614ad3575b50505081855260dc83528385205460cf54828101908111614abf57614a1990613f77565b5054865260dc84528486205560cf548015614aab5701614a3881613f77565b614a975790614a8c600b838860dc9796955588600182015588600282015588600382015588600482015588600582015588600682015588600782015588600882015588600982015588600a820155016146d4565b60cf55845252812055565b634e487b7160e01b86526004869052602486fd5b634e487b7160e01b86526031600452602486fd5b634e487b7160e01b87526011600452602487fd5b600b81614b7d948293548555600182015460018601556002850181600284015416906bffffffffffffffffffffffff60a01b918282541617905560038601826003850154168282541617905560048301546004870155600586018260058501541682825416179055600683015460068701556007860191600784015416908254161790556008810154600885015560098101546009850155600a810154600a85015501910161475d565b3880806149f5565b634e487b7160e01b88526004889052602488fd5b634e487b7160e01b89526011600452602489fd5b634e487b7160e01b8a52601160045260248afd5b6001600160ff1b0382168203614c0457875284872090600190811b8201915b828110614bed5750614898565b808960029255614bfe8382016146d4565b01614be0565b634e487b7160e01b88526011600452602488fd5b6040516301ffc9a760e01b815263caaf0f5760e01b60048201526001600160a01b039190911690602081602481855afa908115614cb457600091614c96575b50156117105760e080546001600160a01b031916821790557fdddcc4cb45c2da1250e71ec604cb86c02f387bdcf776e6447f9bdf7d0ac50b00600080a2565b614cae915060203d81116108195761080b8183613777565b38614c57565b6040513d6000823e3d90fd5b51906001600160a01b038216820361069f57565b60d454604051632474521560e21b81527f28eb28c26cbbd48a6bfad016505ccf4a189452995f59d16217af8920961ed25c600482015233602482015290602090829060449082906001600160a01b03165afa908115614cb457600091614d3d575b50156107e057565b614d55915060203d81116108195761080b8183613777565b38614d35565b60df54604051630723eb0360e51b815233600482015290602090829060249082906001600160a01b03165afa908115614cb457600091614daf575b50614d9d57565b6040516333df015b60e01b8152600490fd5b614dc7915060203d81116108195761080b8183613777565b38614d96565b60cf5415159081614df3575b5015614de157565b604051631eab2a3b60e31b8152600490fd5b80915060005260dc602052614e0c604060002054613f77565b50541438614dd9565b8115614e1f570490565b634e487b7160e01b600052601260045260246000fdfea2646970667358221220a720e613af2731bd943976220286805b75f9eb0608d67eb705f4e01572db034b64736f6c63430008120033",
  "deployedBytecode": "0x61054080604052600436101561001457600080fd5b60006103805260003560e01c90816301ffc9a71461343a575080630bbabf29146134195780630f2bd839146133c65780631555ec02146132ea5780631785884c146132be578063212d55ec1461329d5780632630c12f146132715780633587647614612daf578063365b03e414612d8e5780633bf7771f14612c945780633f4a2d2714612c685780633f4ba83a14612b4d578063414d19e31461287657806344ff7dc31461284b57806350f413221461281f5780635c975abb146127f957806360fa88e4146127bb57806362ad9e9e146125e0578063659be053146125b457806368a270c11461250d578063777d24c0146124ec5780637b103999146124c05780637fa50567146118c35780638262b7c51461183c5780638456cb5914611722578063898e971a14610d635780638992c91114610d425780639968861e14610d165780639c68a60814610cf5578063a41b4ea414610ca8578063a8905dab14610c74578063ac55640014610958578063b35ac73214610900578063bb8313c2146108df578063bd83eb4c14610820578063c5194ffb14610772578063c66c2536146106d0578063cc2ea79514610472578063d64470e914610417578063d7638a46146103d9578063e3d7bb331461037f578063e92d529a14610350578063ea0341a81461026d5763eb02c3011461020a57600080fd5b34610266576020366003190112610266576004356102266144d7565b5061023081614dcd565b610380515260dc6020526102626102566102506040610380512054613f77565b50614530565b604051918291826135b6565b0390f35b6103805180fd5b346102665760208060031936011261026657600435610380515260d38152604061038051209081549161029f83613fb2565b926102ad6040519485613777565b808452828401809261038051526103805184812090915b83831061032d5750505050604051918083019381845251809452604083019360408160051b850101929161038051955b8287106103015785850386f35b90919293828061031d600193603f198a820301865288516134cd565b96019201960195929190926102f4565b60028660019261033f859a999a613e81565b8152019201920191909594956102c4565b3461026657610380518060031936011261037c5760d8546040516001600160a01b039091168152602090f35b80fd5b34610266576020366003190112610266576004356001600160401b038111610266576103cb6103b56103d1923690600401613589565b60e0546001600160a01b0316929136919061382b565b90613862565b506103805180f35b34610266576020366003190112610266576001600160a01b036103fa613533565b16610380515260d260205260206040610380512054604051908152f35b3461026657604036600319011261026657610430613533565b6024359060018060a01b0316610380515260d1602052610380516040812090815483101561037c5760206104648484613684565b90546040519160031b1c8152f35b346102665760c03660031901126102665761048b61355f565b606435801515810361069f576001600160401b0390608435828111610266576104b89036906004016134ed565b906104c1613f21565b6104c9614d5b565b600435610380515260dc6020526104e66040610380512054613f77565b5060d65460d75460d554604051939893976001600160a01b03918216979282169693909116949291906101008901908111908911176106ba5761054b936101008901604052602435895260018060a01b03166020890152151560408801523691613fc9565b6060850152608084015260a083015260c082015260a43560e0820152602060405180809363f7e2251760e01b8252856004830152604060248301528051604483015260018060a01b038482015116606483015260408101511515608483015260e06105c7606083015161010060a4860152610144850190614380565b60808301516001600160a01b0390811660c486015260a0840151811660e486015260c084015116610104850152910151610124830152038173__$3ea787592ca519a32436565b5d70444cd7$__5af49081156106ac576103805191610675575b507fad6b2ae912630f53b4805f4a0718a98a9cc995c7ac0dd218a8850dd8464a745160408354926001808060a01b0360078701541695015482519182526020820152a3600180556103805180f35b90506020813d6020116106a4575b8161069060209383613777565b8101031261069f575182610627565b600080fd5b3d9150610683565b6040513d61038051823e3d90fd5b634e487b7160e01b600052604160045260246000fd5b34610266576060366003190112610266576106e9613533565b6106f1613549565b906106fa614cd4565b73__$183737d697d7aa9b5df9988cbe11bc4947$__90813b1561026657604051636336129b60e11b81526001600160a01b0391821660048201529216602483015260448035908301526103805190829060649082905af480156106ac57610763575b6103805180f35b61076c906136bf565b8061075c565b346102665760203660031901126102665761078b613533565b60d454604051632474521560e21b815261038051600482015233602482015290602090829060449082906001600160a01b03165afa9081156106ac5761038051916107f2575b50156107e05761075c90614c18565b60405163036be76f60e61b8152600490fd5b610813915060203d8111610819575b61080b8183613777565b810190613798565b826107d1565b503d610801565b34610266576020806003193601126102665760043561083e81614dcd565b610380515260dc815261087f8161085e6102506040610380512054613f77565b60405180938192632ac0a2ad60e21b835284600484015260248301906145c6565b038173__$3ea787592ca519a32436565b5d70444cd7$__5af49081156106ac5761038051916108b2575b50604051908152f35b90508181813d83116108d8575b6108c98183613777565b810103126102665751826108a9565b503d6108bf565b3461026657610380518060031936011261037c57602060da54604051908152f35b3461026657604036600319011261026657610919613533565b610921613549565b9060018060a01b03809116610380515260c96020526103805190604082209216905260205260206040610380512054604051908152f35b346102665761096636613652565b604051622b155960ea1b60208083019190915260248201819052916001600160a01b03908161099482613575565b166044840152838101356101be1982360301811215610266578101906101a08060648601528235928484168094036102665785936101e4850152848782016109db90613575565b16610204850152846109ef60408301613575565b16610224850152606081013561024485015284610a0e60808301613575565b1661026485015260a081013561028485015284610a2d60c08301613575565b166102a485015260e08101356102c485015261010090818101356102e48601526101208082013561030487015261014090818301610a6a906136b2565b1515610324880152610160928381013561034489015261018095868201356103648a01528101610a999161399a565b61038489016101c090526103a4890190610ab2926139cb565b93610ac060408801886139ec565b9560431996878b83030160848c0152610ad892613a34565b610ae560608901896139ec565b8a8303880160a48c0152610af99291613ac6565b610b0660808901896139ec565b8a8303880160c48c0152610b1a9291613ac6565b610b2760a089018961399a565b8a8303880160e48c0152610b3b92916139cb565b610b4860c089018961399a565b8a830388016101048c0152610b5d92916139cb565b610b6a60e089018961399a565b8a830388016101248c0152610b7f92916139cb565b908701610b8c908861399a565b89830387016101448b0152610ba192916139cb565b908601610bae908761399a565b88830386016101648a0152610bc392916139cb565b908501610bd0908661399a565b8783038501610184890152610be592916139cb565b908401610bf2908561399a565b9092868303016101a4870152610c07926139cb565b9101356101c483015203601f1981018352610c229083613777565b60e0541690610c3091613862565b80805181010360a013610266578160a09282015191604081015160608201519085608084015193015193604051958652850152604084015260608301526080820152f35b34610266576040366003190112610266576020610ca0610c92613533565b610c9a613549565b9061465b565b604051908152f35b3461026657604036600319011261026657610cc1613533565b6024359060018060a01b0316610380515260d2602052610380516040812090815483101561037c5760206104648484613684565b3461026657610380518060031936011261037c57602060ce54604051908152f35b3461026657610380518060031936011261037c5760d5546040516001600160a01b039091168152602090f35b3461026657610380518060031936011261037c57602060ca54604051908152f35b61012036600319011261026657610d78613549565b6001600160401b039060443582811161026657610d999036906004016134ed565b92909160843582811161026657610db4903690600401613589565b6101e0526104005260a43582811161026657610dd4903690600401613589565b610220526103e05260c43582811161026657610df4903690600401613589565b6102a0526103a05260e43582811161026657610e149036906004016134ed565b9092610104351161026657610e2f36610104356004016134ed565b610e3a949194613f21565b610e42614d5b565b610e4a613d6b565b9460405193610e588561375c565b610380518552604051610e6a8161375c565b610380519052604051610e7c8161375c565b6103805190526103805193604051610e9381613709565b6103805181526103805160208201526103805160408201526103805160608201526103805160808201526103805160a08201526103805160c08201526103805160e08201526103805161010082015261012061038051910152610ef7600435614dcd565b6001600160a01b038716156117105760d7546001600160a01b031690813b1561026657610f4692610f5d6040519687958694859463f197ce3560e01b8652604060048701526044860191613c90565b906003198483030160248501526103805197613d47565b039134905af180156106ac576116fc575b50610f7f6040518061026052613725565b610f876144d7565b6102605152806020610260510152806040610260510152806060610260510152600435815260dc602052806020610fc46102506040842054613f77565b8061026051520151151560206102605101526116e85750606061026051602081015115159182910152611572575b61026051805160c081015160808201516102e05260208083015160408086015160d65460d75460d5549886015160a08901516060909901519451631dae49b960e21b81526001600160a01b03998a1660048201529489166024860152969d949c939b9615159a9698881697908116969116949193918b604481895afa9a8b156106ac57610380519b611536575b50906110df929160cb549c606061026051015115159e60018060a01b0360d85416610240526110b360405180608052613740565b608051526102e051602060805101526040608051015260018060a01b0316606060805101523691613fc9565b60808051015260643560a0608051015260c0608051015260e06080510152610100608051015261012060805101526101406080510152610160608051015261018060805101526101a060805101526101c060805101526101e06080510152610380516102006080510152610240516102206080510152611166366101e0516104005161382b565b610240608051015261117f36610220516103e05161382b565b6102606080510152611198366102a0516103a05161382b565b610280608051015261136e6101406111d161026051516040519384928392630b2aa09960e11b84526060600485015260648401906145c6565b60031983820301602484015260805151815260206080510151602082015260406080510151604082015260018060a01b03606060805101511660608201526113566113406112ca6112b46112376080805101516102a060808801526102a0870190614380565b60a0608051015160a087015260c0608051015160c087015260018060a01b0360e060805101511660e087015260018060a01b0361010060805101511661010087015260018060a01b03610120608051015116610120870152604060208b60805101518884038d8a015280518452015191816020820152019061348d565b610160608051015185820361016087015261348d565b610180608051015115156101808501526101a060805101516101a08501526101c060805101516101c08501526101e0608051015115156101e0850152610200608051015161020085015260018060a01b03610220608051015116610220850152610240608051015184820361024086015261348d565b610260608051015183820361026085015261348d565b9061028060805101519061028081840391015261348d565b610380516044830152038173__$3ea787592ca519a32436565b5d70444cd7$__5af49081156106ac576103805191611472575b506102605151604081015160e0909101516113cb916001600160a01b039182169116600435614878565b60a081015160c082015160e0830151926001600160a01b03928316929091169060088410156114585761010081015161012090910151604080516001600160a01b039094168452602084019290925290820152600435907f68c1d3a775fd37da20ef77475b9074ee3b57e4d73d94e046e892720b5043ff729080606081015b0390a4600180556103805180f35b634e487b7160e01b61038051526021600452602461038051fd5b9050610140813d6101401161152e575b816114906101409383613777565b8101031261026657604051906114a582613709565b80518252602081015160208301526040810151604083015260608101516060830152608081015160058110156102665760808301526114e660a08201614cc0565b60a08301526114f760c08201614cc0565b60c083015260e0810151906008821015610266576101209160e08401526101008101516101008401520151610120820152816113a1565b3d9150611482565b9291909a506020833d60201161156a575b8161155460209383613777565b81010312610266576110df92519a90919261107f565b3d9150611547565b610260515160a0810151606090910151611598916001600160a01b03918216911661465b565b60406102605101526044602060018060a01b0360d4541660405192838092632474521560e21b82527f5770eb0b3cb4d032328b9b2070b33a4b2779280a0ec69c0dfa26ce7c00bb682860048301523360248301525afa9081156106ac5761038051916116c9575b5015610ff257604061026051015160ce5490610380519180159182156116a9575b505015611697576706f05b59d3b200008101811161167d57806706f05b59d3b2000081011061166b576706f05b59d3b20000670de0b6b3a76400009101046040610260510152610ff2565b604051630a77254f60e01b8152600490fd5b634e487b7160e01b61038051526011600452602461038051fd5b604051631550e8b760e01b8152600490fd5b915091506116c16116ba8383614694565b9283614e15565b148780611620565b6116e2915060203d6020116108195761080b8183613777565b866115ff565b634e487b7160e01b81526021600452602490fd5b61170691506136bf565b6103805186610f6e565b60405163044aa57560e41b8152600490fd5b3461026657610380518060031936011261037c5760d454604051632474521560e21b81527f5c91514091af31f62f596a314af7d5be40146b2f2355969392f055e12e0982fb600482015233602482015290602090829060449082906001600160a01b03165afa9081156106ac57610380519161181e575b50156107e05760655460ff81166117e65760019060ff1916176065557f62e78cea01bee320cd4e420270b5ea74000d11b0c9f74754ebdbfc544b05a2586020604051338152a16103805180f35b60405162461bcd60e51b815260206004820152601060248201526f14185d5cd8589b194e881c185d5cd95960821b6044820152606490fd5b611836915060203d81116108195761080b8183613777565b81611799565b34610266576040366003190112610266576024356001600160401b038111610266576118b26118726103d19236906004016134ed565b6118a4604093929351938492638262b7c560e01b60208501526004356024850152604060448501526064840191613a34565b03601f198101835282613777565b60e0546001600160a01b0316613862565b6118cc36613652565b6101a0526118d8613f21565b60a06101a0510135600781101561026657156107e0576118f6614d5b565b5a61046052610380516103405261190b613d6b565b610340526101a05160608101359035610380515260d360205260406103805120805482106124a2575b5050611a146101a05161194960208201613ea6565b6102c05261195a6040820182613eba565b61032052610100526119f76119726080830183613eef565b91909261198260c0820182613eef565b610280526101605261199760e0820182613eef565b95906119a7610120840184613eef565b61018052610140526119bd610140840184613eef565b6102005260a052611a096119d5610100850185613eef565b919092611a016119e9610160880188613eba565b989097610180810190613eba565b9a9099369161382b565b99369161382b565b61044052369161382b565b60c052610380516101c052604051611a2b81613709565b6103805181526103805160208201526103805160408201526103805160608201526103805160808201526103805160a08201526103805160c08201526103805160e08201526103805161010082015261012061038051910152611a916101a05135614dcd565b6102c0516001600160a01b0316156117105760d7546001600160a01b031690813b1561026657610f4692611ae36040519687958694859463f197ce3560e01b8652604060048701526044860191613c90565b039134905af180156106ac5761248b575b50611b056040518061042052613725565b611b0d6144d7565b61042051526101c05160206104205101526101c05160406104205101526101c05160606104205101526101a051356101c0515260dc602052611b94611b5b61025060406101c0512054613f77565b6104208051829052602080830151825190151591015251600160609182015260a08201519101516001600160a01b03908116911661465b565b60406104205101526044602060018060a01b0360d4541660405192838092632474521560e21b82527f5770eb0b3cb4d032328b9b2070b33a4b2779280a0ec69c0dfa26ce7c00bb682860048301523360248301525afa908115612293576101c0519161246c575b506123d3575b61042051805160c081015160808201516101205260208083015160e05260408085015160d65460d75460d5549785015160a08801516060909801519451631dae49b960e21b81526001600160a01b03988916600482015294881660248601529598939795151596939584169490841693909116919087604481865afa968715612293576101c0519761239f575b5060cb5497606061042051015115156103c05260018060a01b0360d8541661036052611cc06040518061030052613740565b610300515261012051602061030051015260e051604061030051015260018060a01b036102c051166060610300510152611d01366103205161010051613fc9565b60806103005101526101c05160a061030051015260c061030051015260e0610300510152610100610300510152610120610300510152610340516101406103005101526101606103005101526101806103005101526101a06103005101526101c06103005101526103c0516101e06103005101526104605161020061030051015261036051610220610300510152611da036610280516101605161382b565b610240610300510152611dba36610180516101405161382b565b610260610300510152611dd3366102005160a05161382b565b610280610300510152611fbe610140611e0d61042051516040519384928392630b2aa09960e11b84526060600485015260648401906145c6565b60031983820301602484015261030051518152602061030051015160208201526040610300510151604082015260018060a01b036060610300510151166060820152611fa5611f8e611f11611efa611e7760806103005101516102a0806080890152870190614380565b60a061030051015160a087015260c061030051015160c087015260018060a01b0360e06103005101511660e087015260018060a01b036101006103005101511661010087015260018060a01b0361012061030051015116610120870152604060208b6103005101518884038d8a015280518452015191816020820152019061348d565b61016061030051015185820361016087015261348d565b61018061030051015115156101808501526101a06103005101516101a08501526101c06103005101516101c08501526101e061030051015115156101e085015261020061030051015161020085015260018060a01b036102206103005101511661022085015261024061030051015184820361024086015261348d565b61026061030051015183820361026085015261348d565b906102806103005101519061028081840391015261348d565b60a06101a05101356044830152038173__$3ea787592ca519a32436565b5d70444cd7$__5af4908115612293576101c051916122db575b506104205151604081015160e0909101516101a051612022926001600160a01b0392831692169035614878565b610420515161014081015142036120ba575b5060a081015160c082015160e0830151926001600160a01b03928316929091169060088410156114585761010081015161012090910151604080516101a0516001600160a01b03909516815260208101939093528201529035907f68c1d3a775fd37da20ef77475b9074ee3b57e4d73d94e046e892720b5043ff7290806060810161144a565b60d85460a082015160c09092015160808401516001600160a01b03928316939092169160058110156122ba575a61046051808281031161167d57604051926121018461375c565b6101c0518452604051602080820152612128816118a4604082016103205161010051613ac6565b51946040519661213788613709565b60018060a01b036102c051168852602088015260408701526060860152600160808601520360a084015260c083015260e08201526104405161010082015260c051610120820152813b156122d4576040805163ee4bc79960e01b815260206004820181905283516001600160a01b03908116602484015290840151166044820152908201516064820152606082015190929060058110156122ba579083916084830152608083015160a483015260a083015160c483015260c08301519261014060e484015261016483018451809152602061018485019501906101c0515b8181106122a157505050826122698260e08394015161010484015261012061225161010083015198602319998a8783030161012488015261348d565b91015196838203016101448401526101c0519661348d565b03916101c051905af18015612293571561203457612286906136bf565b6101c05180156120345780fd5b6040513d6101c051823e3d90fd5b8251875260209687019688965090920191600101612215565b634e487b7160e01b6101c05152602160045260246101c051fd5b6101c05180fd5b9050610140813d61014011612397575b816122f96101409383613777565b810103126122d4576040519061230e82613709565b80518252602081015160208301526040810151604083015260608101516060830152608081015160058110156122d457608083015261234f60a08201614cc0565b60a083015261236060c08201614cc0565b60c083015260e08101519060088210156122d4576101209160e0840152610100810151610100840152015161012082015281611ff5565b3d91506122eb565b9096506020813d6020116123cb575b816123bb60209383613777565b8101031261026657519588611c8e565b3d91506123ae565b604061042051015160ce54906101c051918015918215612453575b505015611697576706f05b59d3b200008101811161243957806706f05b59d3b2000081011061166b576706f05b59d3b20000670de0b6b3a76400009101046040610420510152611c01565b634e487b7160e01b6101c05152601160045260246101c051fd5b915091506124646116ba8383614694565b1483806123ee565b612485915060203d6020116108195761080b8183613777565b82611bfb565b612494906136bf565b610380516101c05281611af4565b6124b5916124af91613d85565b50613e81565b610340528080611934565b3461026657610380518060031936011261037c5760d4546040516001600160a01b039091168152602090f35b3461026657610380518060031936011261037c57602060cb54604051908152f35b34610266576020806003193601126102665760043561252b81614dcd565b610380515260dc81526125446040610380512054613f77565b50600201546001600160a01b03168181612569575050610380515b6040519015158152f35b604051634ad09aa560e01b815291829060049082905afa9081156106ac576103805191612597575b5061255f565b6125ae9150823d84116108195761080b8183613777565b82612591565b3461026657610380518060031936011261037c5760e0546040516001600160a01b039091168152602090f35b610160366003190112610266576125f561355f565b6001600160401b0390606435828111610266576126169036906004016134ed565b9260a4358181116102665761262f903690600401613589565b919060c43582811161026657612649903690600401613589565b9060e43584811161026657612662903690600401613589565b610104358681116102665761267b903690600401613589565b93909461012435888111610266576126979036906004016134ed565b97909861014435908111610266576126b39036906004016134ed565b9a909b6040519e8f9e8f90633156cf4f60e11b602083015260043560248301526024356044830152600160a01b60019003166064820152608481016101609052610184019061270192613ac6565b60843560a48f01528d81036023190160c48f0152612721929091906139cb565b906023198c83030160e48d0152612737926139cb565b906023198a8303016101048b015261274e926139cb565b9060231988830301610124890152612765926139cb565b906023198683030161014487015261277c92613c90565b906023198483030161016485015261279392613d47565b03601f19810182526127a59082613777565b60e0546103d191906001600160a01b0316613862565b34610266576020366003190112610266576001600160a01b036127dc613533565b16610380515260d160205260206040610380512054604051908152f35b3461026657610380518060031936011261037c57602060ff606554166040519015158152f35b3461026657610380518060031936011261037c5760d9546040516001600160a01b039091168152602090f35b34610266576020366003190112610266576128646144d7565b50610262610256610250600435613f77565b60031960203682011261026657600435906001600160401b038211610266578160040190610260809184360301126102665760405192839163414d19e360e01b602084015260248301602090526128cd8480613ab2565b9060448401526128dd818061399a565b6102a48501606090526103048501906128f5926139cb565b9060208101356102c48501526040810161290e916139ec565b8483036102a319016102e48601526129269291613ac6565b9061293460248201856139ec565b92604319938486830301606487015261294c92613ac6565b6001600160a01b0394908561296360448501613575565b166084860152606483013560a4860152856084840161298190613575565b1660c486015260a483013560e48601526101049060c48401358287015260e484016129ab906136b2565b151591610124928388015284016129c1906136b2565b151591610144928388015284016129d890846139ec565b91610164928789830301848a01526129ef92613a34565b9184016129fc908461399a565b92610184938789830301858a0152612a13926139cb565b908401612a20908461399a565b916101a4928789830301848a0152612a37926139cb565b918401612a44908461399a565b926101c4938789830301858a0152612a5b926139cb565b908401612a68908461399a565b916101e4928789830301848a0152612a7f926139cb565b918401612a8c908461399a565b92610204938789830301858a0152612aa3926139cb565b908401612ab0908461399a565b91610224928789830301848a0152612ac7926139cb565b918401612ad4908461399a565b92610244938789830301858a0152612aeb926139cb565b908401612af890846139ec565b8783038701610264890152612b0d9291613c90565b9201612b18916139ec565b909284830301610284850152612b2d92613d47565b03601f1981018352612b3f9083613777565b60e05416906103d191613862565b3461026657610380518060031936011261037c5760d454604051632474521560e21b81527f5a7d4408f4759dddd7fdfd0d21abd99341dc2f52cda14804988a9b2df20766d8600482015233602482015290602090829060449082906001600160a01b03165afa9081156106ac576103805191612c4a575b50156107e05760655460ff811615612c0e5760ff19166065557f5db9ee0a495bf2e6ff9c91a7834c1ba4fdd244a5e8aa4e537bd38aeae4b073aa6020604051338152a16103805180f35b60405162461bcd60e51b815260206004820152601460248201527314185d5cd8589b194e881b9bdd081c185d5cd95960621b6044820152606490fd5b612c62915060203d81116108195761080b8183613777565b81612bc4565b3461026657610380518060031936011261037c5760d6546040516001600160a01b039091168152602090f35b60c0366003190112610266576001600160401b0360443581811161026657612cc0903690600401613589565b919060643582811161026657612cda903690600401613589565b9260843581811161026657612cf39036906004016134ed565b92909360a435928311610266576103d196612d7f6118b296606496612d6f60c09a612d5b612d286118a49a36906004016134ed565b9890976040519e8f9d8e633bf7771f60e01b602082015260043560248201526024356044820152015260e48d01916139cb565b9060231998898c84030160848d01526139cb565b91868984030160a48a0152613c90565b928584030160c4860152613d47565b3461026657610380518060031936011261037c57602060cf54604051908152f35b346102665760e036600319011261026657612dc8613533565b612dd0613549565b906044356001600160a01b038116810361026657612dec61351d565b608435906001600160a01b03821682036102665760a435926001600160a01b03841684036102665760c4356001600160a01b03811690036102665761038051549560ff8760081c161596878098613264575b801561324d575b156131f1576103805160ff198216600117815590886131df575b50506040516301ffc9a760e01b8152637965db0b60e01b60048201526020816024816001600160a01b038b165afa9081156106ac5761038051916131c0575b508061315d575b806130fa575b80613097575b80613034575b80612fd1575b15611710576bffffffffffffffffffffffff60a01b9560018060a01b03168660d454161760d45560018060a01b03168560d654161760d65560018060a01b03168460d554161760d55560018060a01b03168360d754161760d75560018060a01b03168260d854161760d85560018060a01b03169060df54161760df55612f4460c435614c18565b610380515490612f8b60ff8360081c16612f5d816137b0565b612f66816137b0565b60ff1960655416606555612f79816137b0565b612f82816137b0565b600180556137b0565b612f96576103805180f35b61ff00191661038051557f7f26b83ff96e1f2b6a682f133852f6798a09c465da95921460cefb3847402498602060405160018152a18061075c565b506040516301ffc9a760e01b8152633df6cef760e01b60048201526020816024816001600160a01b038a165afa9081156106ac576103805191613015575b50612ebd565b61302e915060203d6020116108195761080b8183613777565b8861300f565b506040516301ffc9a760e01b8152631e42d3e560e01b60048201526020816024816001600160a01b0389165afa9081156106ac576103805191613078575b50612eb7565b613091915060203d6020116108195761080b8183613777565b88613072565b506040516301ffc9a760e01b81526333ca6d2360e21b60048201526020816024816001600160a01b0388165afa9081156106ac5761038051916130db575b50612eb1565b6130f4915060203d6020116108195761080b8183613777565b886130d5565b506040516301ffc9a760e01b81526312b3ed2b60e01b60048201526020816024816001600160a01b0387165afa9081156106ac57610380519161313e575b50612eab565b613157915060203d6020116108195761080b8183613777565b88613138565b506040516301ffc9a760e01b815263081e57a760e31b60048201526020816024816001600160a01b0386165afa9081156106ac5761038051916131a1575b50612ea5565b6131ba915060203d6020116108195761080b8183613777565b8861319b565b6131d9915060203d6020116108195761080b8183613777565b88612e9e565b61ffff19166101011790558780612e5f565b60405162461bcd60e51b815260206004820152602e60248201527f496e697469616c697a61626c653a20636f6e747261637420697320616c72656160448201526d191e481a5b9a5d1a585b1a5e995960921b6064820152608490fd5b50303b158015612e455750600160ff821614612e45565b50600160ff821610612e3e565b3461026657610380518060031936011261037c5760d7546040516001600160a01b039091168152602090f35b3461026657610380518060031936011261037c57602060cc54604051908152f35b3461026657610380518060031936011261037c5760db546040516001600160a01b039091168152602090f35b34610266576080366003190112610266576001600160401b036004358181116102665761331b9036906004016134ed565b906024928335908111610266576133369036906004016134ed565b926044359361334361351d565b9161334c614cd4565b610380515b86811061335f576103805180f35b61337361336d8284896144c7565b35614dcd565b61339c6133818284896144c7565b358561339661339185888b6144c7565b613ea6565b91614878565b60001981146133ad57600101613351565b87634e487b7160e01b6103805152601160045261038051fd5b34610266576040366003190112610266576133df613d6b565b50600435610380515260d36020526102626134056124af60243560406103805120613d85565b6040519182916020835260208301906134cd565b3461026657610380518060031936011261037c57602060d054604051908152f35b3461069f57602036600319011261069f576004359063ffffffff60e01b821680920361069f57602091633d79d7fb60e11b811490811561347c575b5015158152f35b6301ffc9a760e01b14905083613475565b919082519283825260005b8481106134b9575050826000602080949584010152601f8019910116010190565b602081830181015184830182015201613498565b90604060206134ea9380518452015191816020820152019061348d565b90565b9181601f8401121561069f578235916001600160401b03831161069f576020808501948460051b01011161069f57565b606435906001600160a01b038216820361069f57565b600435906001600160a01b038216820361069f57565b602435906001600160a01b038216820361069f57565b604435906001600160a01b038216820361069f57565b35906001600160a01b038216820361069f57565b9181601f8401121561069f578235916001600160401b03831161069f576020838186019501011161069f57565b6101a06134ea9260208352805160208401526020810151604084015260018060a01b03806040830151166060850152806060830151166080850152608082015160a08501528060a08301511660c085015260c082015160e085015260e08201511661010090818501528101516101209081850152810151610140908185015281015190610160918285015201519161018080820152019061348d565b6003199060208183011261069f57600435916001600160401b03831161069f57826101a09203011261069f5760040190565b805482101561369c5760005260206000200190600090565b634e487b7160e01b600052603260045260246000fd5b3590811515820361069f57565b6001600160401b0381116106ba57604052565b604081019081106001600160401b038211176106ba57604052565b61018081019081106001600160401b038211176106ba57604052565b61014081019081106001600160401b038211176106ba57604052565b608081019081106001600160401b038211176106ba57604052565b6102a081019081106001600160401b038211176106ba57604052565b602081019081106001600160401b038211176106ba57604052565b90601f801991011681019081106001600160401b038211176106ba57604052565b9081602091031261069f5751801515810361069f5790565b156137b757565b60405162461bcd60e51b815260206004820152602b60248201527f496e697469616c697a61626c653a20636f6e7472616374206973206e6f74206960448201526a6e697469616c697a696e6760a81b6064820152608490fd5b6001600160401b0381116106ba57601f01601f191660200190565b92919261383782613810565b916138456040519384613777565b82948184528183011161069f578281602093846000960137010152565b6040519060608201928284106001600160401b038511176106ba57600080916134ea95604052602785527f416464726573733a206c6f772d6c6576656c2064656c65676174652063616c6c6020860152660819985a5b195960ca1b6040860152602081519101845af43d156138f9573d916138dc83613810565b926138ea6040519485613777565b83523d6000602085013e6138fd565b6060915b9192901561395f5750815115613911575090565b3b1561391a5790565b60405162461bcd60e51b815260206004820152601d60248201527f416464726573733a2063616c6c20746f206e6f6e2d636f6e74726163740000006044820152606490fd5b8251909150156139725750805190602001fd5b60405162461bcd60e51b81526020600482015290819061399690602483019061348d565b0390fd5b9035601e198236030181121561069f5701602081359101916001600160401b03821161069f57813603831361069f57565b908060209392818452848401376000828201840152601f01601f1916010190565b9035601e198236030181121561069f5701602081359101916001600160401b03821161069f578160051b3603831361069f57565b9035603e198236030181121561069f570190565b9082818152602080910193818360051b82010194846000925b858410613a5e575050505050505090565b909192939495968580613aa1600193601f19868203018852613a90613a838d89613a20565b803583528481019061399a565b9091604090818682015201916139cb565b990194019401929594939190613a4d565b9035605e198236030181121561069f570190565b916020906104a0928084528152018093825190600591821b8301946104c0938185526000926104e0978489525b875189511015613c84578281038a52613b0d875185613a20565b613b2360408301918035845260208101906139ec565b8092604060208601525260608301906060838a1b85010161052052809388945b848610613b6d57505050505050602061052051998188510188520196600189510189529698613af3565b605f19826105205103018452613b838184613a20565b6105205160408101918d91613bb191906001600160a01b03613ba483613575565b16905260208101906139ec565b8093604060206105205101525260606105205184828201941b01016105005280610480528c915b838310613bfd5750505050602080600192610500516105205201940195019492613b43565b6020600191605f19610520516105005103018152613c6d613c216104805186613ab2565b613c5b613c45613c31838061399a565b6060610500515260606105005101916139cb565b918581013586610500510152604081019061399a565b906105005160408185039101526139cb565b610500528161048051016104805201920191613bd8565b98509650505050505050565b91908082526020809201918260059383851b820195809560009182945b878610613cc05750505050505050505090565b909192939495969798818103865287613cd98b856139ec565b808452828401908381891b86010194838a905b838210613d1057505050505050806001929b01960196019497969593929190613cad565b91939580613d36600193959799601f19888203018a52613d308b8761399a565b906139cb565b9801960192018d9594929391613cec565b81835290916001600160fb1b03831161069f5760209260051b809284830137010190565b60405190613d78826136d2565b6060602083600081520152565b805482101561369c5760005260206000209060011b0190600090565b90600182811c92168015613dd1575b6020831014613dbb57565b634e487b7160e01b600052602260045260246000fd5b91607f1691613db0565b9060405191826000825492613def84613da1565b908184526001948581169081600014613e5e5750600114613e1b575b5050613e1992500383613777565b565b9093915060005260209081600020936000915b818310613e46575050613e1993508201013880613e0b565b85548884018501529485019487945091830191613e2e565b915050613e1994506020925060ff191682840152151560051b8201013880613e0b565b90604051613e8e816136d2565b6020613ea1600183958054855201613ddb565b910152565b356001600160a01b038116810361069f5790565b903590601e198136030182121561069f57018035906001600160401b03821161069f57602001918160051b3603831361069f57565b903590601e198136030182121561069f57018035906001600160401b03821161069f5760200191813603831361069f57565b600260015414613f32576002600155565b60405162461bcd60e51b815260206004820152601f60248201527f5265656e7472616e637947756172643a207265656e7472616e742063616c6c006044820152606490fd5b60cf5481101561369c57600c9060cf600052027facb8d954e2cfef495862221e91bd7523613cf8808827cb33edfe4904cc51bf290190600090565b6001600160401b0381116106ba5760051b60200190565b9291909261050052826104c0526104e0526020613fec6105209360008552613fb2565b613ff96040519182613777565b8084526104c051815201916104e051916104c05192610500519360051b84011161069f57926104a09283525b6104c05160051b610500519084519082018110156143775735906001600160401b03821161069f57016040816104e051031261069f5760405190614068826136d2565b8035825260208101356001600160401b03811161069f576104e051601f82840101121561069f578082013561409c81613fb2565b926140aa6040519485613777565b81845260208401906104e05160208460051b86840101011161069f57602084820101915b60208460051b868401010183106140fc57505050506020808401929092525090825283518101845201614025565b82356001600160401b03811161069f576040601f1982888601016104e05103011261069f576040519061412e826136d2565b61413e6020828987010101613575565b82526001600160401b036040828987010101351161069f576104e0518488018201604081013501603f01121561069f5783870181016040810135016020013561418681613fb2565b916141946040519384613777565b8183526104e0516020840191908a88018201604081810135909101600586901b01011161069f5760408a88018201818101350101915b8a88018201604081810135909101600586901b010183106141fe5750505050918160209384809401528152019201916140ce565b6001600160401b0383351161069f576104e051906060898d0184016040810135018535018303603f19011261069f57604051918260608101106001600160401b036060850111176106ba576060830160409081528a8e01850180820135018635010135906001600160401b03821161069f578a8e0185016040810135018635018201605f0181131561069f576142af918e8c018601604081810135909101883501909101908101359060600161382b565b82528b89018301604081013501843501606081013560208401526001600160401b036080909101351161069f576104e05190898d018401604081013501853501608081013501605f0182131561069f5760209261436784938f60608e604060808c35828d8786010101358d87860101010101358c35828d8786010101358d8786010101010101359260808c3560408d8486010101358d8486010101010135918b8d35926040828285010101359201010101010161382b565b60408201528152019201916141ca565b50505090505190565b90602082519182815201908160208260051b82019401926000915b8383106143aa57505050505090565b9091929394818103835285519060206040820192805183520151916040602083015282518091526060820190602060608260051b85010194019260005b8281106144085750505050506020806001929701930193019193929061439b565b9091929394605f198382030185526020865160018060a01b03815116835201519060406020820152604081019082518092526060810190602060608460051b8301019401926000915b818310614472575050505050602080600192970195019101929190926143e7565b90919293946020806144ba600193605f1986820301895289519060406144a1835160608452606084019061348d565b928581015186840152015190604081840391015261348d565b9701950193019190614451565b919081101561369c5760051b0190565b604051906144e4826136ed565b606061016083600080825280602083015280604083015280848301528060808301528060a08301528060c08301528060e083015280610100830152806101208301526101408201520152565b9060405161453d816136ed565b610160613ea1600b8395805485526001810154602086015260018060a01b03806002830154166040870152806003830154166060870152600482015460808701528060058301541660a0870152600682015460c087015260078201541660e086015260088101546101008601526009810154610120860152600a81015461014086015201613ddb565b906134ea91805182526020810151602083015260018060a01b03806040830151166040840152806060830151166060840152608082015160808401528060a08301511660a084015260c082015160c084015260e08201511660e083015261010080820151908301526101208082015190830152610140808201519083015261016080910151916101808092820152019061348d565b60018060a01b0380911660005260cd6020526040600020911660005260205260406000205480151560001461468d5790565b5060ca5490565b818102929181159184041417156146a757565b634e487b7160e01b600052601160045260246000fd5b8181106146c8575050565b600081556001016146bd565b6146de8154613da1565b90816146e8575050565b81601f600093116001146146fa575055565b908083918252614719601f60208420940160051c8401600185016146bd565b5555565b805490811561474757600019918201916147378383613684565b909182549160031b1b1916905555565b634e487b7160e01b600052603160045260246000fd5b908082146148745761476f8154613da1565b906001600160401b0382116106ba57819061478a8454613da1565b601f8111614837575b50600090601f83116001146147cb576000926147c0575b50508160011b916000199060031b1c1916179055565b0154905038806147aa565b81526020808220858352818320935090601f1985169083905b82821061481e575050908460019594939210614805575b505050811b019055565b015460001960f88460031b161c191690553880806147fb565b84958192958501548155600180910196019401906147e4565b61486490856000526020600020601f850160051c8101916020861061486a575b601f0160051c01906146bd565b38614793565b9091508190614857565b5050565b9160009280845260209160d3835260409384862080549087815581614bc1575b50506001600160a01b0390811680875260d285528587208054600019949291858201918211614bad57614913886148fa898c8e6148da8b9a999860de98613684565b90549060031b1c96879589835260d2815283832094835252205490613684565b90919082549060031b91821b91600019901b1916179055565b868a5260de8852888a2054908a52888a2055885260d2865261493687892061471d565b84885260de865287878120551680875260d18552858720805490848201918211614b99579061496491613684565b90549060031b1c81885260d1865261498d816148fa898b20888c5260dd8a528a8c205490613684565b84885260dd86528688205490885286882055865260d184526149b085872061471d565b82865260dd8452858581205560cf54828101908111614abf576149d290613f77565b5083875260dc85526149e686882054613f77565b919091614b8557808203614ad3575b50505081855260dc83528385205460cf54828101908111614abf57614a1990613f77565b5054865260dc84528486205560cf548015614aab5701614a3881613f77565b614a975790614a8c600b838860dc9796955588600182015588600282015588600382015588600482015588600582015588600682015588600782015588600882015588600982015588600a820155016146d4565b60cf55845252812055565b634e487b7160e01b86526004869052602486fd5b634e487b7160e01b86526031600452602486fd5b634e487b7160e01b87526011600452602487fd5b600b81614b7d948293548555600182015460018601556002850181600284015416906bffffffffffffffffffffffff60a01b918282541617905560038601826003850154168282541617905560048301546004870155600586018260058501541682825416179055600683015460068701556007860191600784015416908254161790556008810154600885015560098101546009850155600a810154600a85015501910161475d565b3880806149f5565b634e487b7160e01b88526004889052602488fd5b634e487b7160e01b89526011600452602489fd5b634e487b7160e01b8a52601160045260248afd5b6001600160ff1b0382168203614c0457875284872090600190811b8201915b828110614bed5750614898565b808960029255614bfe8382016146d4565b01614be0565b634e487b7160e01b88526011600452602488fd5b6040516301ffc9a760e01b815263caaf0f5760e01b60048201526001600160a01b039190911690602081602481855afa908115614cb457600091614c96575b50156117105760e080546001600160a01b031916821790557fdddcc4cb45c2da1250e71ec604cb86c02f387bdcf776e6447f9bdf7d0ac50b00600080a2565b614cae915060203d81116108195761080b8183613777565b38614c57565b6040513d6000823e3d90fd5b51906001600160a01b038216820361069f57565b60d454604051632474521560e21b81527f28eb28c26cbbd48a6bfad016505ccf4a189452995f59d16217af8920961ed25c600482015233602482015290602090829060449082906001600160a01b03165afa908115614cb457600091614d3d575b50156107e057565b614d55915060203d81116108195761080b8183613777565b38614d35565b60df54604051630723eb0360e51b815233600482015290602090829060249082906001600160a01b03165afa908115614cb457600091614daf575b50614d9d57565b6040516333df015b60e01b8152600490fd5b614dc7915060203d81116108195761080b8183613777565b38614d96565b60cf5415159081614df3575b5015614de157565b604051631eab2a3b60e31b8152600490fd5b80915060005260dc602052614e0c604060002054613f77565b50541438614dd9565b8115614e1f570490565b634e487b7160e01b600052601260045260246000fdfea2646970667358221220a720e613af2731bd943976220286805b75f9eb0608d67eb705f4e01572db034b64736f6c63430008120033",
  "libraries": {
    "PositionLibrary": "0xe381eF4cbc2e732251Ae357629dF8b1Ec82Fb8F5",
    "TokenTransfersLibrary": "0xD1869a3C77C17D185c9a5e8904e0e4867e5EB1D9"
  },
  "devdoc": {
    "events": {
      "Initialized(uint8)": {
        "details": "Triggered when the contract has been initialized or reinitialized."
      },
      "Paused(address)": {
        "details": "Emitted when the pause is triggered by `account`."
      },
      "Unpaused(address)": {
        "details": "Emitted when the pause is lifted by `account`."
      }
    },
    "kind": "dev",
    "methods": {
      "closePosition(uint256,address,(uint256,(address,(string,uint256,bytes)[])[])[],uint256,bytes,bytes,bytes,bytes[][],uint256[])": {
        "details": "Protocol will fall down (revert) if two conditions occur both: 1. (token1Price + position.depositedAmount).wdiv(positionDebt) will become lower than 1, so position will make loss for Protocol. 2. Not enough liquidity in bucket to pay that loss.",
        "params": {
          "_amountOutMin": "minimum allowed amount out for position",
          "_dealReceiver": "The receiver of the rest of trader's deposit.",
          "_id": "Position id for `msg.sender`.",
          "_megaRoutes": "swap routes on dexes"
        }
      },
      "decreaseDeposit(uint256,uint256,bytes,bytes,bytes[][],uint256[])": {
        "params": {
          "_amount": "The amount to decrease the deposit by.",
          "_positionId": "The ID of the position."
        }
      },
      "deletePositions(uint256[],address[],uint256,address)": {
        "params": {
          "_bucket": "The address of the bucket from which the position is to be deleted.",
          "_ids": "The IDs of the positions to be deleted.",
          "_length": "The length of the traders array.",
          "_traders": "The addresses of the traders who owns the position."
        }
      },
      "doTransferOut(address,address,uint256)": {
        "details": "Only callable by the BATCH_MANAGER_ROLE role.",
        "params": {
          "_amount": "The amount of tokens to be transferred.",
          "_to": "The address to which the tokens will be transferred.",
          "_token": "The address of the token to be transferred."
        }
      },
      "getAllPositionsLength()": {
        "returns": {
          "_0": "The length of the positions array."
        }
      },
      "getBucketPositionsLength(address)": {
        "params": {
          "_bucket": "The address of the bucket."
        },
        "returns": {
          "_0": "The number of positions the bucket has."
        }
      },
      "getCloseCondition(uint256,uint256)": {
        "params": {
          "_index": "The index of the close condition.",
          "_positionId": "The identifier of the position."
        },
        "returns": {
          "_0": "The close condition at the specified position and index."
        }
      },
      "getCloseConditions(uint256)": {
        "params": {
          "_positionId": "The ID of the position."
        },
        "returns": {
          "_0": "An array of close conditions associated with the position."
        }
      },
      "getOracleTolerableLimit(address,address)": {
        "params": {
          "assetA": "The address of the first asset in the pair.",
          "assetB": "The address of the second asset in the pair."
        },
        "returns": {
          "_0": "The oracle tolerable limit in WAD format (1 WAD = 100%) for the asset pair."
        }
      },
      "getPosition(uint256)": {
        "params": {
          "_id": "The ID of the position to retrieve."
        },
        "returns": {
          "_0": "position The position information associated with the given ID."
        }
      },
      "getPositionByIndex(uint256)": {
        "params": {
          "_index": "The index of the position to retrieve."
        },
        "returns": {
          "_0": "The Position struct at the specified index."
        }
      },
      "getPositionDebt(uint256)": {
        "params": {
          "_id": "The ID of the position."
        },
        "returns": {
          "_0": "The debt of the position, measured in the same decimal format as debtTokens."
        }
      },
      "getTraderPositionsLength(address)": {
        "params": {
          "_trader": "The address of the trader."
        },
        "returns": {
          "_0": "The number of positions the trader has."
        }
      },
      "increaseDeposit(uint256,uint256,address,bool,(uint256,(address,(string,uint256,bytes)[])[])[],uint256)": {
        "params": {
          "_amount": "The amount to increase the deposit by.",
          "_amountOutMin": "The minimum amount of the output asset to receive from trading.",
          "_asset": "The address of the asset to deposit.",
          "_megaRoutes": "An array of routes to use for trading.",
          "_positionId": "The ID of the position to increase the deposit for.",
          "_takeDepositFromWallet": "A flag indicating whether to make the deposit immediately."
        }
      },
      "initialize(address,address,address,address,address,address,address)": {
        "params": {
          "_keeperRewardDistributor": "The address of the KeeperRewardDistributor contract.",
          "_positionManagerExtension": "The address of the PositionManagerExtension contract.",
          "_priceOracle": "The address of the PriceOracle contract.",
          "_primexDNS": "The address of the PrimexDNS contract.",
          "_registry": "The address of the Registry contract.",
          "_traderBalanceVault": "The address of the TraderBalanceVault contract.",
          "_whiteBlackList": "The address of the WhiteBlacklist contract."
        }
      },
      "isDelistedPosition(uint256)": {
        "params": {
          "_id": "The ID of the position."
        },
        "returns": {
          "_0": "A boolean indicating whether the position is delisted or not."
        }
      },
      "openPosition(((string,uint256,(uint256,(address,(string,uint256,bytes)[])[])[]),(uint256,(address,(string,uint256,bytes)[])[])[],address,uint256,address,uint256,uint256,bool,bool,(uint256,bytes)[],bytes,bytes,bytes,bytes,bytes,bytes,bytes,bytes[][],uint256[]))": {
        "details": "Locks trader's collateral in TraderBalanceVault. Takes loan from bucket for deal. Makes swap bucket borrowedAsset amount on '_dex'. Updates rates and indexes in the '_bucket'. Mints debtToken for trader (msg.sender)",
        "params": {
          "_params": "The parameters required to open a position."
        }
      },
      "openPositionByOrder((address,(address,address,address,uint256,address,uint256,address,uint256,uint256,uint256,bool,uint256,uint256,bytes),(uint256,bytes)[],(uint256,(address,(string,uint256,bytes)[])[])[],(uint256,(address,(string,uint256,bytes)[])[])[],bytes,bytes,bytes,bytes,bytes,bytes,bytes,uint256))": {
        "details": "Only callable by the LOM_ROLE role.",
        "params": {
          "_params": "The parameters for opening a position."
        },
        "returns": {
          "_0": "The total borrowed amount, position amount, position ID, and entry price of the new position."
        }
      },
      "partiallyClosePosition(uint256,uint256,address,(uint256,(address,(string,uint256,bytes)[])[])[],uint256,bytes,bytes,bytes,bytes,bytes[][],uint256[])": {
        "params": {
          "_amount": "The amount of the position asset to be closed from the position.",
          "_amountOutMin": "The minimum amount to be received after swapping, measured in the same decimal format as the position's asset.",
          "_depositReceiver": "The address where the remaining deposit will be sent.",
          "_megaRoutes": "The routing information for swapping assets.",
          "_positionId": "The ID of the position to be partially closed."
        }
      },
      "pause()": {
        "details": "Triggers stopped state. This function can only be called by an address with the EMERGENCY_ADMIN role. Requirements: - The contract must not be paused."
      },
      "paused()": {
        "details": "Returns true if the contract is paused, and false otherwise."
      },
      "setPositionManagerExtension(address)": {
        "details": "Only callable by the BIG_TIMELOCK_ADMIN role.",
        "params": {
          "_newPositionManagerExtension": "The address of PositionManagerExtension contract."
        }
      },
      "setProtocolParamsByAdmin(bytes)": {
        "details": "This function allows an admin to update protocol parameters using a delegatecall to the PositionManagerExtension contract.",
        "params": {
          "_data": "The data containing the encoded function call to be executed by the delegatecall."
        }
      },
      "supportsInterface(bytes4)": {
        "params": {
          "_interfaceId": "The interface id to check"
        }
      },
      "unpause()": {
        "details": "Returns to normal state. This function can only be called by an address with the SMALL_TIMELOCK_ADMIN or MEDIUM_TIMELOCK_ADMIN role depending on the contract. Requirements: - The contract must be paused."
      },
      "updatePositionConditions(uint256,(uint256,bytes)[])": {
        "details": "The caller of this function must be the trader who owns the position.Emits an `UpdatePositionConditions` event upon successful update.",
        "params": {
          "_closeConditions": "An array of close conditions for the position.",
          "_positionId": "The ID of the position to update."
        }
      }
    },
    "version": 1
  },
  "userdoc": {
    "kind": "user",
    "methods": {
      "closePosition(uint256,address,(uint256,(address,(string,uint256,bytes)[])[])[],uint256,bytes,bytes,bytes,bytes[][],uint256[])": {
        "notice": "Close trader's active position or liquidate risky position."
      },
      "decreaseDeposit(uint256,uint256,bytes,bytes,bytes[][],uint256[])": {
        "notice": "Decreases the deposit amount for a given position."
      },
      "deletePositions(uint256[],address[],uint256,address)": {
        "notice": "Deletes a positions by their IDs from a specific bucket for a given traders."
      },
      "doTransferOut(address,address,uint256)": {
        "notice": "Transfers a specified amount of tokens from the contract to a specified address."
      },
      "getAllPositionsLength()": {
        "notice": "Returns the length of the positions array."
      },
      "getBucketPositionsLength(address)": {
        "notice": "Returns the length of the array containing the positions of a specific bucket."
      },
      "getCloseCondition(uint256,uint256)": {
        "notice": "Retrieves the close condition for a given position and index."
      },
      "getCloseConditions(uint256)": {
        "notice": "Retrieves the close conditions for a specific position."
      },
      "getOracleTolerableLimit(address,address)": {
        "notice": "Returns the oracle tolerable limit for the given asset pair."
      },
      "getPosition(uint256)": {
        "notice": "Retrieves the position information for a given ID."
      },
      "getPositionByIndex(uint256)": {
        "notice": "Retrieves the position at the specified index."
      },
      "getPositionDebt(uint256)": {
        "notice": "Returns the debt of a position with the given ID."
      },
      "getTraderPositionsLength(address)": {
        "notice": "Returns the length of the array containing the positions of a specific trader."
      },
      "increaseDeposit(uint256,uint256,address,bool,(uint256,(address,(string,uint256,bytes)[])[])[],uint256)": {
        "notice": "Increases the deposit amount for a given position."
      },
      "initialize(address,address,address,address,address,address,address)": {
        "notice": "Initializes the contract with the specified addresses and initializes inherited contracts."
      },
      "isDelistedPosition(uint256)": {
        "notice": "Checks if a position with the given ID is delisted."
      },
      "openPosition(((string,uint256,(uint256,(address,(string,uint256,bytes)[])[])[]),(uint256,(address,(string,uint256,bytes)[])[])[],address,uint256,address,uint256,uint256,bool,bool,(uint256,bytes)[],bytes,bytes,bytes,bytes,bytes,bytes,bytes,bytes[][],uint256[]))": {
        "notice": "Opens margin position."
      },
      "openPositionByOrder((address,(address,address,address,uint256,address,uint256,address,uint256,uint256,uint256,bool,uint256,uint256,bytes),(uint256,bytes)[],(uint256,(address,(string,uint256,bytes)[])[])[],(uint256,(address,(string,uint256,bytes)[])[])[],bytes,bytes,bytes,bytes,bytes,bytes,bytes,uint256))": {
        "notice": "Opens a position based on the provided order parameters."
      },
      "partiallyClosePosition(uint256,uint256,address,(uint256,(address,(string,uint256,bytes)[])[])[],uint256,bytes,bytes,bytes,bytes,bytes[][],uint256[])": {
        "notice": "Allows the trader to partially close a position."
      },
      "setPositionManagerExtension(address)": {
        "notice": "Sets the positionManagerExtension."
      },
      "setProtocolParamsByAdmin(bytes)": {
        "notice": "Sets protocol parameters through an administrative delegatecall."
      },
      "supportsInterface(bytes4)": {
        "notice": "Interface checker"
      },
      "updatePositionConditions(uint256,(uint256,bytes)[])": {
        "notice": "Updates the position with the given position ID by setting new close conditions."
      }
    },
    "version": 1
  },
  "storageLayout": {
    "storage": [
      {
        "astId": 2890,
        "contract": "contracts/PositionManager/PositionManager.sol:PositionManager",
        "label": "_initialized",
        "offset": 0,
        "slot": "0",
        "type": "t_uint8"
      },
      {
        "astId": 2893,
        "contract": "contracts/PositionManager/PositionManager.sol:PositionManager",
        "label": "_initializing",
        "offset": 1,
        "slot": "0",
        "type": "t_bool"
      },
      {
        "astId": 3193,
        "contract": "contracts/PositionManager/PositionManager.sol:PositionManager",
        "label": "_status",
        "offset": 0,
        "slot": "1",
        "type": "t_uint256"
      },
      {
        "astId": 3262,
        "contract": "contracts/PositionManager/PositionManager.sol:PositionManager",
        "label": "__gap",
        "offset": 0,
        "slot": "2",
        "type": "t_array(t_uint256)49_storage"
      },
      {
        "astId": 5867,
        "contract": "contracts/PositionManager/PositionManager.sol:PositionManager",
        "label": "__gap",
        "offset": 0,
        "slot": "51",
        "type": "t_array(t_uint256)50_storage"
      },
      {
        "astId": 3073,
        "contract": "contracts/PositionManager/PositionManager.sol:PositionManager",
        "label": "_paused",
        "offset": 0,
        "slot": "101",
        "type": "t_bool"
      },
      {
        "astId": 3178,
        "contract": "contracts/PositionManager/PositionManager.sol:PositionManager",
        "label": "__gap",
        "offset": 0,
        "slot": "102",
        "type": "t_array(t_uint256)49_storage"
      },
      {
        "astId": 6506,
        "contract": "contracts/PositionManager/PositionManager.sol:PositionManager",
        "label": "__gap",
        "offset": 0,
        "slot": "151",
        "type": "t_array(t_uint256)50_storage"
      },
      {
        "astId": 50806,
        "contract": "contracts/PositionManager/PositionManager.sol:PositionManager",
        "label": "maxPositionSize",
        "offset": 0,
        "slot": "201",
        "type": "t_mapping(t_address,t_mapping(t_address,t_uint256))"
      },
      {
        "astId": 50809,
        "contract": "contracts/PositionManager/PositionManager.sol:PositionManager",
        "label": "defaultOracleTolerableLimit",
        "offset": 0,
        "slot": "202",
        "type": "t_uint256"
      },
      {
        "astId": 50812,
        "contract": "contracts/PositionManager/PositionManager.sol:PositionManager",
        "label": "securityBuffer",
        "offset": 0,
        "slot": "203",
        "type": "t_uint256"
      },
      {
        "astId": 50815,
        "contract": "contracts/PositionManager/PositionManager.sol:PositionManager",
        "label": "maintenanceBuffer",
        "offset": 0,
        "slot": "204",
        "type": "t_uint256"
      },
      {
        "astId": 50821,
        "contract": "contracts/PositionManager/PositionManager.sol:PositionManager",
        "label": "oracleTolerableLimits",
        "offset": 0,
        "slot": "205",
        "type": "t_mapping(t_address,t_mapping(t_address,t_uint256))"
      },
      {
        "astId": 50823,
        "contract": "contracts/PositionManager/PositionManager.sol:PositionManager",
        "label": "oracleTolerableLimitMultiplier",
        "offset": 0,
        "slot": "206",
        "type": "t_uint256"
      },
      {
        "astId": 50827,
        "contract": "contracts/PositionManager/PositionManager.sol:PositionManager",
        "label": "positions",
        "offset": 0,
        "slot": "207",
        "type": "t_array(t_struct(Position)76111_storage)dyn_storage"
      },
      {
        "astId": 50830,
        "contract": "contracts/PositionManager/PositionManager.sol:PositionManager",
        "label": "positionsId",
        "offset": 0,
        "slot": "208",
        "type": "t_uint256"
      },
      {
        "astId": 50836,
        "contract": "contracts/PositionManager/PositionManager.sol:PositionManager",
        "label": "traderPositionIds",
        "offset": 0,
        "slot": "209",
        "type": "t_mapping(t_address,t_array(t_uint256)dyn_storage)"
      },
      {
        "astId": 50842,
        "contract": "contracts/PositionManager/PositionManager.sol:PositionManager",
        "label": "bucketPositionIds",
        "offset": 0,
        "slot": "210",
        "type": "t_mapping(t_address,t_array(t_uint256)dyn_storage)"
      },
      {
        "astId": 50848,
        "contract": "contracts/PositionManager/PositionManager.sol:PositionManager",
        "label": "closeConditions",
        "offset": 0,
        "slot": "211",
        "type": "t_mapping(t_uint256,t_array(t_struct(Condition)74668_storage)dyn_storage)"
      },
      {
        "astId": 50852,
        "contract": "contracts/PositionManager/PositionManager.sol:PositionManager",
        "label": "registry",
        "offset": 0,
        "slot": "212",
        "type": "t_contract(IAccessControl)7879"
      },
      {
        "astId": 50856,
        "contract": "contracts/PositionManager/PositionManager.sol:PositionManager",
        "label": "traderBalanceVault",
        "offset": 0,
        "slot": "213",
        "type": "t_contract(ITraderBalanceVault)63246"
      },
      {
        "astId": 50860,
        "contract": "contracts/PositionManager/PositionManager.sol:PositionManager",
        "label": "primexDNS",
        "offset": 0,
        "slot": "214",
        "type": "t_contract(IPrimexDNSV3)53782"
      },
      {
        "astId": 50864,
        "contract": "contracts/PositionManager/PositionManager.sol:PositionManager",
        "label": "priceOracle",
        "offset": 0,
        "slot": "215",
        "type": "t_contract(IPriceOracleV2)51202"
      },
      {
        "astId": 50868,
        "contract": "contracts/PositionManager/PositionManager.sol:PositionManager",
        "label": "keeperRewardDistributor",
        "offset": 0,
        "slot": "216",
        "type": "t_contract(IKeeperRewardDistributorV3)38352"
      },
      {
        "astId": 50872,
        "contract": "contracts/PositionManager/PositionManager.sol:PositionManager",
        "label": "spotTradingRewardDistributor",
        "offset": 0,
        "slot": "217",
        "type": "t_contract(ISpotTradingRewardDistributorV2)58332"
      },
      {
        "astId": 50875,
        "contract": "contracts/PositionManager/PositionManager.sol:PositionManager",
        "label": "minPositionSize",
        "offset": 0,
        "slot": "218",
        "type": "t_uint256"
      },
      {
        "astId": 50878,
        "contract": "contracts/PositionManager/PositionManager.sol:PositionManager",
        "label": "minPositionAsset",
        "offset": 0,
        "slot": "219",
        "type": "t_address"
      },
      {
        "astId": 50882,
        "contract": "contracts/PositionManager/PositionManager.sol:PositionManager",
        "label": "positionIndexes",
        "offset": 0,
        "slot": "220",
        "type": "t_mapping(t_uint256,t_uint256)"
      },
      {
        "astId": 50886,
        "contract": "contracts/PositionManager/PositionManager.sol:PositionManager",
        "label": "traderPositionIndexes",
        "offset": 0,
        "slot": "221",
        "type": "t_mapping(t_uint256,t_uint256)"
      },
      {
        "astId": 50890,
        "contract": "contracts/PositionManager/PositionManager.sol:PositionManager",
        "label": "bucketPositionIndexes",
        "offset": 0,
        "slot": "222",
        "type": "t_mapping(t_uint256,t_uint256)"
      },
      {
        "astId": 50893,
        "contract": "contracts/PositionManager/PositionManager.sol:PositionManager",
        "label": "whiteBlackList",
        "offset": 0,
        "slot": "223",
        "type": "t_contract(IWhiteBlackList)66205"
      },
      {
        "astId": 50901,
        "contract": "contracts/PositionManager/PositionManager.sol:PositionManager",
        "label": "positionManagerExtension",
        "offset": 0,
        "slot": "224",
        "type": "t_address"
      }
    ],
    "types": {
      "t_address": {
        "encoding": "inplace",
        "label": "address",
        "numberOfBytes": "20"
      },
      "t_array(t_struct(Condition)74668_storage)dyn_storage": {
        "base": "t_struct(Condition)74668_storage",
        "encoding": "dynamic_array",
        "label": "struct LimitOrderLibrary.Condition[]",
        "numberOfBytes": "32"
      },
      "t_array(t_struct(Position)76111_storage)dyn_storage": {
        "base": "t_struct(Position)76111_storage",
        "encoding": "dynamic_array",
        "label": "struct PositionLibrary.Position[]",
        "numberOfBytes": "32"
      },
      "t_array(t_uint256)49_storage": {
        "base": "t_uint256",
        "encoding": "inplace",
        "label": "uint256[49]",
        "numberOfBytes": "1568"
      },
      "t_array(t_uint256)50_storage": {
        "base": "t_uint256",
        "encoding": "inplace",
        "label": "uint256[50]",
        "numberOfBytes": "1600"
      },
      "t_array(t_uint256)dyn_storage": {
        "base": "t_uint256",
        "encoding": "dynamic_array",
        "label": "uint256[]",
        "numberOfBytes": "32"
      },
      "t_bool": {
        "encoding": "inplace",
        "label": "bool",
        "numberOfBytes": "1"
      },
      "t_bytes_storage": {
        "encoding": "bytes",
        "label": "bytes",
        "numberOfBytes": "32"
      },
      "t_contract(IAccessControl)7879": {
        "encoding": "inplace",
        "label": "contract IAccessControl",
        "numberOfBytes": "20"
      },
      "t_contract(IBucketV3)30575": {
        "encoding": "inplace",
        "label": "contract IBucketV3",
        "numberOfBytes": "20"
      },
      "t_contract(IKeeperRewardDistributorV3)38352": {
        "encoding": "inplace",
        "label": "contract IKeeperRewardDistributorV3",
        "numberOfBytes": "20"
      },
      "t_contract(IPriceOracleV2)51202": {
        "encoding": "inplace",
        "label": "contract IPriceOracleV2",
        "numberOfBytes": "20"
      },
      "t_contract(IPrimexDNSV3)53782": {
        "encoding": "inplace",
        "label": "contract IPrimexDNSV3",
        "numberOfBytes": "20"
      },
      "t_contract(ISpotTradingRewardDistributorV2)58332": {
        "encoding": "inplace",
        "label": "contract ISpotTradingRewardDistributorV2",
        "numberOfBytes": "20"
      },
      "t_contract(ITraderBalanceVault)63246": {
        "encoding": "inplace",
        "label": "contract ITraderBalanceVault",
        "numberOfBytes": "20"
      },
      "t_contract(IWhiteBlackList)66205": {
        "encoding": "inplace",
        "label": "contract IWhiteBlackList",
        "numberOfBytes": "20"
      },
      "t_mapping(t_address,t_array(t_uint256)dyn_storage)": {
        "encoding": "mapping",
        "key": "t_address",
        "label": "mapping(address => uint256[])",
        "numberOfBytes": "32",
        "value": "t_array(t_uint256)dyn_storage"
      },
      "t_mapping(t_address,t_mapping(t_address,t_uint256))": {
        "encoding": "mapping",
        "key": "t_address",
        "label": "mapping(address => mapping(address => uint256))",
        "numberOfBytes": "32",
        "value": "t_mapping(t_address,t_uint256)"
      },
      "t_mapping(t_address,t_uint256)": {
        "encoding": "mapping",
        "key": "t_address",
        "label": "mapping(address => uint256)",
        "numberOfBytes": "32",
        "value": "t_uint256"
      },
      "t_mapping(t_uint256,t_array(t_struct(Condition)74668_storage)dyn_storage)": {
        "encoding": "mapping",
        "key": "t_uint256",
        "label": "mapping(uint256 => struct LimitOrderLibrary.Condition[])",
        "numberOfBytes": "32",
        "value": "t_array(t_struct(Condition)74668_storage)dyn_storage"
      },
      "t_mapping(t_uint256,t_uint256)": {
        "encoding": "mapping",
        "key": "t_uint256",
        "label": "mapping(uint256 => uint256)",
        "numberOfBytes": "32",
        "value": "t_uint256"
      },
      "t_struct(Condition)74668_storage": {
        "encoding": "inplace",
        "label": "struct LimitOrderLibrary.Condition",
        "members": [
          {
            "astId": 74665,
            "contract": "contracts/PositionManager/PositionManager.sol:PositionManager",
            "label": "managerType",
            "offset": 0,
            "slot": "0",
            "type": "t_uint256"
          },
          {
            "astId": 74667,
            "contract": "contracts/PositionManager/PositionManager.sol:PositionManager",
            "label": "params",
            "offset": 0,
            "slot": "1",
            "type": "t_bytes_storage"
          }
        ],
        "numberOfBytes": "64"
      },
      "t_struct(Position)76111_storage": {
        "encoding": "inplace",
        "label": "struct PositionLibrary.Position",
        "members": [
          {
            "astId": 76087,
            "contract": "contracts/PositionManager/PositionManager.sol:PositionManager",
            "label": "id",
            "offset": 0,
            "slot": "0",
            "type": "t_uint256"
          },
          {
            "astId": 76089,
            "contract": "contracts/PositionManager/PositionManager.sol:PositionManager",
            "label": "scaledDebtAmount",
            "offset": 0,
            "slot": "1",
            "type": "t_uint256"
          },
          {
            "astId": 76092,
            "contract": "contracts/PositionManager/PositionManager.sol:PositionManager",
            "label": "bucket",
            "offset": 0,
            "slot": "2",
            "type": "t_contract(IBucketV3)30575"
          },
          {
            "astId": 76094,
            "contract": "contracts/PositionManager/PositionManager.sol:PositionManager",
            "label": "soldAsset",
            "offset": 0,
            "slot": "3",
            "type": "t_address"
          },
          {
            "astId": 76096,
            "contract": "contracts/PositionManager/PositionManager.sol:PositionManager",
            "label": "depositAmountInSoldAsset",
            "offset": 0,
            "slot": "4",
            "type": "t_uint256"
          },
          {
            "astId": 76098,
            "contract": "contracts/PositionManager/PositionManager.sol:PositionManager",
            "label": "positionAsset",
            "offset": 0,
            "slot": "5",
            "type": "t_address"
          },
          {
            "astId": 76100,
            "contract": "contracts/PositionManager/PositionManager.sol:PositionManager",
            "label": "positionAmount",
            "offset": 0,
            "slot": "6",
            "type": "t_uint256"
          },
          {
            "astId": 76102,
            "contract": "contracts/PositionManager/PositionManager.sol:PositionManager",
            "label": "trader",
            "offset": 0,
            "slot": "7",
            "type": "t_address"
          },
          {
            "astId": 76104,
            "contract": "contracts/PositionManager/PositionManager.sol:PositionManager",
            "label": "openBorrowIndex",
            "offset": 0,
            "slot": "8",
            "type": "t_uint256"
          },
          {
            "astId": 76106,
            "contract": "contracts/PositionManager/PositionManager.sol:PositionManager",
            "label": "createdAt",
            "offset": 0,
            "slot": "9",
            "type": "t_uint256"
          },
          {
            "astId": 76108,
            "contract": "contracts/PositionManager/PositionManager.sol:PositionManager",
            "label": "updatedConditionsAt",
            "offset": 0,
            "slot": "10",
            "type": "t_uint256"
          },
          {
            "astId": 76110,
            "contract": "contracts/PositionManager/PositionManager.sol:PositionManager",
            "label": "extraParams",
            "offset": 0,
            "slot": "11",
            "type": "t_bytes_storage"
          }
        ],
        "numberOfBytes": "384"
      },
      "t_uint256": {
        "encoding": "inplace",
        "label": "uint256",
        "numberOfBytes": "32"
      },
      "t_uint8": {
        "encoding": "inplace",
        "label": "uint8",
        "numberOfBytes": "1"
      }
    }
  }
}