{
  "address": "0x7B67D94671ac10d622086be001772728DC33b0e8",
  "abi": [
    {
      "inputs": [],
      "stateMutability": "nonpayable",
      "type": "constructor"
    },
    {
      "inputs": [],
      "name": "DS_MATH_ADD_OVERFLOW",
      "type": "error"
    },
    {
      "inputs": [],
      "name": "DS_MATH_MUL_OVERFLOW",
      "type": "error"
    },
    {
      "anonymous": false,
      "inputs": [
        {
          "indexed": true,
          "internalType": "address",
          "name": "token",
          "type": "address"
        },
        {
          "indexed": true,
          "internalType": "address",
          "name": "priceFeed",
          "type": "address"
        }
      ],
      "name": "ChainlinkPriceFeedUpdated",
      "type": "event"
    },
    {
      "anonymous": false,
      "inputs": [
        {
          "indexed": false,
          "internalType": "address",
          "name": "priceFeed",
          "type": "address"
        }
      ],
      "name": "GasPriceFeedChanged",
      "type": "event"
    },
    {
      "anonymous": false,
      "inputs": [
        {
          "indexed": false,
          "internalType": "uint8",
          "name": "version",
          "type": "uint8"
        }
      ],
      "name": "Initialized",
      "type": "event"
    },
    {
      "anonymous": false,
      "inputs": [
        {
          "indexed": true,
          "internalType": "address",
          "name": "assetA",
          "type": "address"
        },
        {
          "indexed": true,
          "internalType": "address",
          "name": "assetB",
          "type": "address"
        },
        {
          "indexed": false,
          "internalType": "uint256",
          "name": "pairPriceDrop",
          "type": "uint256"
        }
      ],
      "name": "PairPriceDropChanged",
      "type": "event"
    },
    {
      "anonymous": false,
      "inputs": [
        {
          "indexed": true,
          "internalType": "address",
          "name": "assetA",
          "type": "address"
        },
        {
          "indexed": true,
          "internalType": "address",
          "name": "assetB",
          "type": "address"
        },
        {
          "indexed": true,
          "internalType": "address",
          "name": "priceDropFeed",
          "type": "address"
        }
      ],
      "name": "PriceDropFeedUpdated",
      "type": "event"
    },
    {
      "anonymous": false,
      "inputs": [
        {
          "indexed": true,
          "internalType": "address",
          "name": "assetA",
          "type": "address"
        },
        {
          "indexed": true,
          "internalType": "address",
          "name": "assetB",
          "type": "address"
        },
        {
          "indexed": true,
          "internalType": "address",
          "name": "priceFeed",
          "type": "address"
        }
      ],
      "name": "PriceFeedUpdated",
      "type": "event"
    },
    {
      "anonymous": false,
      "inputs": [
        {
          "indexed": true,
          "internalType": "address",
          "name": "token",
          "type": "address"
        },
        {
          "indexed": true,
          "internalType": "bytes32",
          "name": "priceFeedId",
          "type": "bytes32"
        }
      ],
      "name": "PythPairIdUpdated",
      "type": "event"
    },
    {
      "anonymous": false,
      "inputs": [
        {
          "indexed": true,
          "internalType": "address",
          "name": "tokenA",
          "type": "address"
        },
        {
          "indexed": true,
          "internalType": "address",
          "name": "tokenB",
          "type": "address"
        },
        {
          "indexed": false,
          "internalType": "uint256",
          "name": "id",
          "type": "uint256"
        }
      ],
      "name": "SupraDataFeedUpdated",
      "type": "event"
    },
    {
      "anonymous": false,
      "inputs": [
        {
          "indexed": false,
          "internalType": "uint256",
          "name": "timeTolerance",
          "type": "uint256"
        }
      ],
      "name": "TimeToleranceUpdated",
      "type": "event"
    },
    {
      "anonymous": false,
      "inputs": [
        {
          "indexed": true,
          "internalType": "uint256",
          "name": "oracleType",
          "type": "uint256"
        },
        {
          "indexed": true,
          "internalType": "address",
          "name": "oracle",
          "type": "address"
        }
      ],
      "name": "Univ3OracleUpdated",
      "type": "event"
    },
    {
      "anonymous": false,
      "inputs": [
        {
          "indexed": true,
          "internalType": "uint256",
          "name": "oracleType",
          "type": "uint256"
        },
        {
          "indexed": true,
          "internalType": "address",
          "name": "tokenA",
          "type": "address"
        },
        {
          "indexed": true,
          "internalType": "address",
          "name": "tokenB",
          "type": "address"
        },
        {
          "indexed": false,
          "internalType": "bool",
          "name": "isTrusted",
          "type": "bool"
        }
      ],
      "name": "Univ3TrustedPairUpdated",
      "type": "event"
    },
    {
      "inputs": [
        {
          "internalType": "address",
          "name": "",
          "type": "address"
        }
      ],
      "name": "chainlinkPriceFeedsUsd",
      "outputs": [
        {
          "internalType": "address",
          "name": "",
          "type": "address"
        }
      ],
      "stateMutability": "view",
      "type": "function"
    },
    {
      "inputs": [],
      "name": "eth",
      "outputs": [
        {
          "internalType": "address",
          "name": "",
          "type": "address"
        }
      ],
      "stateMutability": "view",
      "type": "function"
    },
    {
      "inputs": [],
      "name": "gasPriceFeed",
      "outputs": [
        {
          "internalType": "address",
          "name": "",
          "type": "address"
        }
      ],
      "stateMutability": "view",
      "type": "function"
    },
    {
      "inputs": [
        {
          "internalType": "address",
          "name": "assetA",
          "type": "address"
        },
        {
          "internalType": "address",
          "name": "assetB",
          "type": "address"
        },
        {
          "internalType": "bytes",
          "name": "oracleData",
          "type": "bytes"
        }
      ],
      "name": "getExchangeRate",
      "outputs": [
        {
          "internalType": "uint256",
          "name": "",
          "type": "uint256"
        }
      ],
      "stateMutability": "payable",
      "type": "function"
    },
    {
      "inputs": [],
      "name": "getGasPrice",
      "outputs": [
        {
          "internalType": "int256",
          "name": "price",
          "type": "int256"
        }
      ],
      "stateMutability": "view",
      "type": "function"
    },
    {
      "inputs": [
        {
          "internalType": "address",
          "name": "assetA",
          "type": "address"
        },
        {
          "internalType": "address",
          "name": "assetB",
          "type": "address"
        }
      ],
      "name": "getOraclePriceDrop",
      "outputs": [
        {
          "internalType": "uint256",
          "name": "",
          "type": "uint256"
        }
      ],
      "stateMutability": "view",
      "type": "function"
    },
    {
      "inputs": [
        {
          "internalType": "address",
          "name": "assetA",
          "type": "address"
        },
        {
          "internalType": "address",
          "name": "assetB",
          "type": "address"
        }
      ],
      "name": "getOraclePriceDropFeed",
      "outputs": [
        {
          "internalType": "address",
          "name": "",
          "type": "address"
        }
      ],
      "stateMutability": "view",
      "type": "function"
    },
    {
      "inputs": [
        {
          "internalType": "address",
          "name": "_assetA",
          "type": "address"
        },
        {
          "internalType": "address",
          "name": "_assetB",
          "type": "address"
        }
      ],
      "name": "getPairPriceDrop",
      "outputs": [
        {
          "internalType": "uint256",
          "name": "priceDrop",
          "type": "uint256"
        }
      ],
      "stateMutability": "view",
      "type": "function"
    },
    {
      "inputs": [
        {
          "internalType": "address",
          "name": "_assetA",
          "type": "address"
        },
        {
          "internalType": "address",
          "name": "_assetB",
          "type": "address"
        },
        {
          "internalType": "uint256",
          "name": "_pairPriceDrop",
          "type": "uint256"
        }
      ],
      "name": "increasePairPriceDrop",
      "outputs": [],
      "stateMutability": "nonpayable",
      "type": "function"
    },
    {
      "inputs": [
        {
          "internalType": "address",
          "name": "_registry",
          "type": "address"
        },
        {
          "internalType": "address",
          "name": "_eth",
          "type": "address"
        },
        {
          "internalType": "address",
          "name": "_usdt",
          "type": "address"
        },
        {
          "internalType": "address",
          "name": "_treasury",
          "type": "address"
        }
      ],
      "name": "initialize",
      "outputs": [],
      "stateMutability": "nonpayable",
      "type": "function"
    },
    {
      "inputs": [
        {
          "internalType": "address",
          "name": "",
          "type": "address"
        },
        {
          "internalType": "address",
          "name": "",
          "type": "address"
        }
      ],
      "name": "pairPriceDrops",
      "outputs": [
        {
          "internalType": "uint256",
          "name": "",
          "type": "uint256"
        }
      ],
      "stateMutability": "view",
      "type": "function"
    },
    {
      "inputs": [],
      "name": "pyth",
      "outputs": [
        {
          "internalType": "contract IPyth",
          "name": "",
          "type": "address"
        }
      ],
      "stateMutability": "view",
      "type": "function"
    },
    {
      "inputs": [
        {
          "internalType": "address",
          "name": "",
          "type": "address"
        }
      ],
      "name": "pythPairIds",
      "outputs": [
        {
          "internalType": "bytes32",
          "name": "",
          "type": "bytes32"
        }
      ],
      "stateMutability": "view",
      "type": "function"
    },
    {
      "inputs": [],
      "name": "registry",
      "outputs": [
        {
          "internalType": "address",
          "name": "",
          "type": "address"
        }
      ],
      "stateMutability": "view",
      "type": "function"
    },
    {
      "inputs": [
        {
          "internalType": "address",
          "name": "priceFeed",
          "type": "address"
        }
      ],
      "name": "setGasPriceFeed",
      "outputs": [],
      "stateMutability": "nonpayable",
      "type": "function"
    },
    {
      "inputs": [
        {
          "internalType": "address",
          "name": "_assetA",
          "type": "address"
        },
        {
          "internalType": "address",
          "name": "_assetB",
          "type": "address"
        },
        {
          "internalType": "uint256",
          "name": "_pairPriceDrop",
          "type": "uint256"
        }
      ],
      "name": "setPairPriceDrop",
      "outputs": [],
      "stateMutability": "nonpayable",
      "type": "function"
    },
    {
      "inputs": [
        {
          "internalType": "address",
          "name": "_pyth",
          "type": "address"
        }
      ],
      "name": "setPyth",
      "outputs": [],
      "stateMutability": "nonpayable",
      "type": "function"
    },
    {
      "inputs": [
        {
          "internalType": "address",
          "name": "_supraPullOracle",
          "type": "address"
        }
      ],
      "name": "setSupraPullOracle",
      "outputs": [],
      "stateMutability": "nonpayable",
      "type": "function"
    },
    {
      "inputs": [
        {
          "internalType": "address",
          "name": "_supraStorageOracle",
          "type": "address"
        }
      ],
      "name": "setSupraStorageOracle",
      "outputs": [],
      "stateMutability": "nonpayable",
      "type": "function"
    },
    {
      "inputs": [
        {
          "internalType": "uint256",
          "name": "_timeTolerance",
          "type": "uint256"
        }
      ],
      "name": "setTimeTolerance",
      "outputs": [],
      "stateMutability": "nonpayable",
      "type": "function"
    },
    {
      "inputs": [
        {
          "internalType": "address",
          "name": "_treasury",
          "type": "address"
        }
      ],
      "name": "setTreasury",
      "outputs": [],
      "stateMutability": "nonpayable",
      "type": "function"
    },
    {
      "inputs": [
        {
          "internalType": "address",
          "name": "_usdt",
          "type": "address"
        }
      ],
      "name": "setUSDT",
      "outputs": [],
      "stateMutability": "nonpayable",
      "type": "function"
    },
    {
      "inputs": [
        {
          "internalType": "bytes4",
          "name": "_interfaceId",
          "type": "bytes4"
        }
      ],
      "name": "supportsInterface",
      "outputs": [
        {
          "internalType": "bool",
          "name": "",
          "type": "bool"
        }
      ],
      "stateMutability": "view",
      "type": "function"
    },
    {
      "inputs": [
        {
          "internalType": "address",
          "name": "",
          "type": "address"
        },
        {
          "internalType": "address",
          "name": "",
          "type": "address"
        }
      ],
      "name": "supraDataFeedID",
      "outputs": [
        {
          "internalType": "uint256",
          "name": "id",
          "type": "uint256"
        },
        {
          "internalType": "bool",
          "name": "initialize",
          "type": "bool"
        }
      ],
      "stateMutability": "view",
      "type": "function"
    },
    {
      "inputs": [],
      "name": "supraPullOracle",
      "outputs": [
        {
          "internalType": "contract ISupraOraclePull",
          "name": "",
          "type": "address"
        }
      ],
      "stateMutability": "view",
      "type": "function"
    },
    {
      "inputs": [],
      "name": "supraStorageOracle",
      "outputs": [
        {
          "internalType": "contract ISupraSValueFeed",
          "name": "",
          "type": "address"
        }
      ],
      "stateMutability": "view",
      "type": "function"
    },
    {
      "inputs": [],
      "name": "timeTolerance",
      "outputs": [
        {
          "internalType": "uint256",
          "name": "",
          "type": "uint256"
        }
      ],
      "stateMutability": "view",
      "type": "function"
    },
    {
      "inputs": [],
      "name": "treasury",
      "outputs": [
        {
          "internalType": "address",
          "name": "",
          "type": "address"
        }
      ],
      "stateMutability": "view",
      "type": "function"
    },
    {
      "inputs": [
        {
          "internalType": "uint256",
          "name": "",
          "type": "uint256"
        },
        {
          "internalType": "address",
          "name": "",
          "type": "address"
        },
        {
          "internalType": "address",
          "name": "",
          "type": "address"
        }
      ],
      "name": "univ3TrustedPairs",
      "outputs": [
        {
          "internalType": "bool",
          "name": "",
          "type": "bool"
        }
      ],
      "stateMutability": "view",
      "type": "function"
    },
    {
      "inputs": [
        {
          "internalType": "uint256",
          "name": "",
          "type": "uint256"
        }
      ],
      "name": "univ3TypeOracles",
      "outputs": [
        {
          "internalType": "address",
          "name": "",
          "type": "address"
        }
      ],
      "stateMutability": "view",
      "type": "function"
    },
    {
      "inputs": [
        {
          "internalType": "address[]",
          "name": "_tokens",
          "type": "address[]"
        },
        {
          "internalType": "address[]",
          "name": "_feeds",
          "type": "address[]"
        }
      ],
      "name": "updateChainlinkPriceFeedsUsd",
      "outputs": [],
      "stateMutability": "nonpayable",
      "type": "function"
    },
    {
      "inputs": [
        {
          "internalType": "address",
          "name": "assetA",
          "type": "address"
        },
        {
          "internalType": "address",
          "name": "assetB",
          "type": "address"
        },
        {
          "internalType": "address",
          "name": "priceDropFeed",
          "type": "address"
        }
      ],
      "name": "updatePriceDropFeed",
      "outputs": [],
      "stateMutability": "nonpayable",
      "type": "function"
    },
    {
      "inputs": [
        {
          "components": [
            {
              "internalType": "address",
              "name": "assetA",
              "type": "address"
            },
            {
              "internalType": "address",
              "name": "assetB",
              "type": "address"
            },
            {
              "internalType": "address",
              "name": "priceDropFeed",
              "type": "address"
            }
          ],
          "internalType": "struct IPriceOracleV2.UpdatePriceDropFeedsParams[]",
          "name": "_updateParams",
          "type": "tuple[]"
        }
      ],
      "name": "updatePriceDropFeeds",
      "outputs": [],
      "stateMutability": "nonpayable",
      "type": "function"
    },
    {
      "inputs": [
        {
          "internalType": "bytes[][]",
          "name": "_data",
          "type": "bytes[][]"
        },
        {
          "internalType": "uint256[]",
          "name": "_oracleTypes",
          "type": "uint256[]"
        }
      ],
      "name": "updatePullOracle",
      "outputs": [],
      "stateMutability": "payable",
      "type": "function"
    },
    {
      "inputs": [
        {
          "internalType": "address[]",
          "name": "_tokens",
          "type": "address[]"
        },
        {
          "internalType": "bytes32[]",
          "name": "_priceFeedIds",
          "type": "bytes32[]"
        }
      ],
      "name": "updatePythPairId",
      "outputs": [],
      "stateMutability": "nonpayable",
      "type": "function"
    },
    {
      "inputs": [
        {
          "components": [
            {
              "internalType": "address",
              "name": "tokenA",
              "type": "address"
            },
            {
              "internalType": "address",
              "name": "tokenB",
              "type": "address"
            },
            {
              "components": [
                {
                  "internalType": "uint256",
                  "name": "id",
                  "type": "uint256"
                },
                {
                  "internalType": "bool",
                  "name": "initialize",
                  "type": "bool"
                }
              ],
              "internalType": "struct IPriceOracleStorageV3.SupraDataFeedId",
              "name": "feedData",
              "type": "tuple"
            }
          ],
          "internalType": "struct IPriceOracleV2.UpdateSupraDataFeedParams[]",
          "name": "_params",
          "type": "tuple[]"
        }
      ],
      "name": "updateSupraDataFeed",
      "outputs": [],
      "stateMutability": "nonpayable",
      "type": "function"
    },
    {
      "inputs": [
        {
          "components": [
            {
              "internalType": "uint256",
              "name": "oracleType",
              "type": "uint256"
            },
            {
              "internalType": "address",
              "name": "tokenA",
              "type": "address"
            },
            {
              "internalType": "address",
              "name": "tokenB",
              "type": "address"
            },
            {
              "internalType": "bool",
              "name": "isTrusted",
              "type": "bool"
            }
          ],
          "internalType": "struct IPriceOracleV2.UpdateUniv3TrustedPairParams[]",
          "name": "_updateParams",
          "type": "tuple[]"
        }
      ],
      "name": "updateUniv3TrustedPair",
      "outputs": [],
      "stateMutability": "nonpayable",
      "type": "function"
    },
    {
      "inputs": [
        {
          "internalType": "uint256[]",
          "name": "_oracleTypes",
          "type": "uint256[]"
        },
        {
          "internalType": "address[]",
          "name": "_oracles",
          "type": "address[]"
        }
      ],
      "name": "updateUniv3TypeOracle",
      "outputs": [],
      "stateMutability": "nonpayable",
      "type": "function"
    },
    {
      "inputs": [],
      "name": "usdt",
      "outputs": [
        {
          "internalType": "address",
          "name": "",
          "type": "address"
        }
      ],
      "stateMutability": "view",
      "type": "function"
    }
  ],
  "transactionHash": "0x2c2ab6ed4b24086269c6c3262be50cc8b4a6d8639548ca1aff616182feaefadb",
  "args": [],
  "numDeployments": 3,
  "solcInputHash": "89aabf2fa537de3869c847bae20cae69",
  "bytecode": "0x6080806040523460bd576000549060ff8260081c16606b575060ff808216036031575b60405161318390816100c38239f35b60ff90811916176000557f7f26b83ff96e1f2b6a682f133852f6798a09c465da95921460cefb3847402498602060405160ff8152a1386022565b62461bcd60e51b815260206004820152602760248201527f496e697469616c697a61626c653a20636f6e747261637420697320696e697469604482015266616c697a696e6760c81b6064820152608490fd5b600080fdfe608080604052600436101561001357600080fd5b60003560e01c90816301ffc9a714612056575080630a3c434c14611f2b5780630bc6b20314611ec75780630fa95a4214611ea95780631e6a948f14611e805780632f48ab7d14611e5757806339d9043414611cbc578063416be2f31461182d578063455259cb146117995780634858138f1461174857806350c1b923146116a65780635510bfce1461148e5780635d4934c0146113ec57806361d027b3146113c357806376b926e4146113975780637b1039991461136e57806384574738146113045780638c7c9e0c146112db578063970b6e781461122657806398bbc8dd146111f25780639fb9b68f14611150578063a5bbe8b514611095578063a6d1b92014611053578063ac8c5db914610fc3578063b29ce00d14610f89578063b45994f814610e9e578063bc5adf3714610d71578063be49304e14610c8d578063cbaf3d0914610bce578063cc2e4c4b14610a94578063dec0af6a14610a60578063e9a8f48414610944578063ee22fd6f146108a2578063ef44920d14610879578063f0c9738e14610853578063f0f44260146107b6578063f197ce3514610472578063f8c8765e146101fa5763f98d06f0146101cc57600080fd5b346101f55760003660031901126101f5576039546040516001600160a01b039091168152602090f35b600080fd5b346101f55760803660031901126101f557610213612129565b61021b61213f565b610223612155565b606435906001600160a01b03821682036101f5576000549360ff8560081c161594858096610465575b801561044e575b156103f25760ff198116600117600055856103e0575b506040516301ffc9a760e01b8152637965db0b60e01b60048201526001600160a01b03919091169390602081602481885afa9081156103d4576000916103a5575b501561039357603380546001600160a01b031990811690951790556034805485166001600160a01b03928316179055604280549094169116179091556102ef90612f8f565b6000549060ff8260081c161561033a5761030557005b61ff0019166000557f7f26b83ff96e1f2b6a682f133852f6798a09c465da95921460cefb3847402498602060405160018152a1005b60405162461bcd60e51b815260206004820152602b60248201527f496e697469616c697a61626c653a20636f6e7472616374206973206e6f74206960448201526a6e697469616c697a696e6760a81b6064820152608490fd5b60405163044aa57560e41b8152600490fd5b6103c7915060203d6020116103cd575b6103bf818361223c565b81019061225d565b866102aa565b503d6103b5565b6040513d6000823e3d90fd5b61ffff19166101011760005585610269565b60405162461bcd60e51b815260206004820152602e60248201527f496e697469616c697a61626c653a20636f6e747261637420697320616c72656160448201526d191e481a5b9a5d1a585b1a5e995960921b6064820152608490fd5b50303b1580156102535750600160ff821614610253565b50600160ff82161061024c565b61047b366120d9565b928383036107a457349360005b81811061051157858061049757005b60008060018060a01b0360435416602093604051906104b6868361223c565b83825285820191601f19870136843751925af1903d1561050b5760003d916104dd836122cd565b926104eb604051948561223c565b83523d92013e5b156104f957005b60405163c71509d160e01b8152600490fd5b506104f2565b61051c818386612275565b356106305760395461055e966001600160a01b0390911691906020610542838988612553565b60405163d47eed4560e01b81529a8b9283929060048401612615565b0381865afa9788156103d4576000986105fa575b508088116105e95787610584916122e8565b96610590828887612553565b9093803b156101f557604051631df3cbc560e31b8152946000938693849283916105bd9160048401612615565b03925af19182156103d4576001926105d8575b505b01610488565b60006105e39161223c565b876105d0565b604051624726cd60e11b8152600490fd5b90976020823d8211610628575b816106146020938361223c565b810103126106255750519688610572565b80fd5b3d9150610607565b600161063d828487612275565b351461064c575b6001906105d2565b603f546001600160a01b031690610664818786612553565b1561078e57803590601e19813603018212156101f557018035906001600160401b0382116101f55760200181360381136101f5576106c49360009283604051809781958294632ce81dbd60e21b84526020600485015260248401916125f4565b03925af180156103d4576106da575b9050610644565b3d806000843e6106ea818461223c565b8201916020818403126101f5578051906001600160401b0382116101f557016060818403126101f55760405190610720826121d5565b80516001600160401b0381116101f5578461073c918301612597565b825260208101516001600160401b0381116101f5578461075d918301612597565b60208301526040810151906001600160401b0382116101f5576001946040926107869201612597565b9101526106d3565b634e487b7160e01b600052603260045260246000fd5b60405163554a08d160e11b8152600490fd5b346101f55760203660031901126101f5576107cf612129565b603354604051632474521560e21b81526000600482015233602482015290602090829060449082906001600160a01b03165afa9081156103d457600091610834575b50156108225761082090612f8f565b005b60405163036be76f60e61b8152600490fd5b61084d915060203d6020116103cd576103bf818361223c565b82610811565b346101f55760003660031901126101f557602060018060a01b0360405416604051908152f35b346101f55760003660031901126101f557603f546040516001600160a01b039091168152602090f35b346101f55760203660031901126101f5576108bb612129565b603354604051632474521560e21b81526000600482015233602482015290602090829060449082906001600160a01b03165afa9081156103d457600091610925575b501561082257603980546001600160a01b0319166001600160a01b0392909216919091179055005b61093e915060203d6020116103cd576103bf818361223c565b826108fd565b346101f557610952366120d9565b603354604051632474521560e21b815260008051602061312e833981519152600482015233602482015291949190602090829060449082906001600160a01b03165afa9081156103d457600091610a41575b5015610822578383036107a45760005b8381106109bd57005b806109cb6001928786612275565b35828060a01b036109e56109e0848988612275565b612285565b16600052603c602052604060002055610a026109e0828786612275565b610a0d828887612275565b3590838060a01b03167f5f0ac2c1d339aa71cfd244b1806061c2dd58c142319c355a4b503464f39f0ce5600080a3016109b4565b610a5a915060203d6020116103cd576103bf818361223c565b856109a4565b346101f55760203660031901126101f557600435600052603d602052602060018060a01b0360406000205416604051908152f35b346101f557610aa2366120d9565b603354604051632474521560e21b815260008051602061312e833981519152600482015233602482015291929190602090829060449082906001600160a01b03165afa9081156103d457600091610baf575b5015610822578183036107a45760005b838110610b0d57005b80610b1e6109e06001938686612275565b828060a01b03610b326109e084898b612275565b16600052603b602052604060002090838060a01b03166001600160601b0360a01b825416179055610b676109e0828789612275565b828060a01b03610b7b6109e0848888612275565b1690838060a01b03167fe57bb0967c057cc1250686db6226a32119cd5417ae09e1905b8f844499880fe2600080a301610b04565b610bc8915060203d6020116103cd576103bf818361223c565b85610af4565b346101f557610bdc3661219b565b603354604051632474521560e21b815260008051602061312e833981519152600482015233602482015291929190602090829060449082906001600160a01b03165afa9081156103d457600091610c6e575b50156108225781151580610c5d575b15610c4b5761082092612ee9565b604051633c15d6ff60e21b8152600490fd5b50670de0b6b3a76400008210610c3d565b610c87915060203d6020116103cd576103bf818361223c565b84610c2e565b346101f557610c9b3661219b565b603354604051632474521560e21b81527f5c91514091af31f62f596a314af7d5be40146b2f2355969392f055e12e0982fb600482015233602482015291929190602090829060449082906001600160a01b03165afa9081156103d457600091610d52575b5015610822576001600160a01b03838116600090815260366020908152604080832093851683529290522054821180610d405715610c4b5761082092612ee9565b506706f05b59d3b20000821115610c3d565b610d6b915060203d6020116103cd576103bf818361223c565b84610cff565b346101f55760203660031901126101f5576004356001600160401b0381116101f557366023820112156101f5578060040135906001600160401b0382116101f557602481019060243691606085020101116101f557603354604051632474521560e21b81527fc0fc8e4dc5cff6febdf550b80d566f654e2baf1a02ea1060208c2f8ab2dd1b63600482015233602482015290602090829060449082906001600160a01b03165afa9081156103d457600091610e7f575b50156108225760005b828110610e3957005b80610e79610e4d6109e06001948787612523565b610e636020610e5d858989612523565b01612285565b610e736040610e5d868a8a612523565b91612e74565b01610e30565b610e98915060203d6020116103cd576103bf818361223c565b83610e27565b346101f55760203660031901126101f557610eb7612129565b603354604051632474521560e21b81527fc0fc8e4dc5cff6febdf550b80d566f654e2baf1a02ea1060208c2f8ab2dd1b63600482015233602482015290602090829060449082906001600160a01b03165afa9081156103d457600091610f6a575b501561082257603580546001600160a01b0319166001600160a01b0390921691821790556040519081527f5689afd64620ca3aba1015be2907df3b5ae25149d96691ba3de19f92e96ec14d90602090a1005b610f83915060203d6020116103cd576103bf818361223c565b82610f18565b346101f55760203660031901126101f5576001600160a01b03610faa612129565b16600052603c6020526020604060002054604051908152f35b346101f55760403660031901126101f557610fdc612129565b610fe461213f565b906001600160a01b0390811690821681146110415760009081526037602090815260408083206001600160a01b03948516845290915290205416801561102f57602090604051908152f35b604051636ae912f160e11b8152600490fd5b60405163b213646160e01b8152600490fd5b346101f55760203660031901126101f5576001600160a01b03611074612129565b16600052603b602052602060018060a01b0360406000205416604051908152f35b346101f55760603660031901126101f5576110ae612129565b6110b661213f565b6110be612155565b603354604051632474521560e21b81527fc0fc8e4dc5cff6febdf550b80d566f654e2baf1a02ea1060208c2f8ab2dd1b63600482015233602482015291929190602090829060449082906001600160a01b03165afa9081156103d457600091611131575b50156108225761082092612e74565b61114a915060203d6020116103cd576103bf818361223c565b84611122565b346101f55760203660031901126101f557611169612129565b603354604051632474521560e21b81526000600482015233602482015290602090829060449082906001600160a01b03165afa9081156103d4576000916111d3575b501561082257603f80546001600160a01b0319166001600160a01b0392909216919091179055005b6111ec915060203d6020116103cd576103bf818361223c565b826111ab565b346101f55760403660031901126101f557602061121e611210612129565b61121861213f565b90612422565b604051908152f35b346101f55760203660031901126101f5576004356044602060018060a01b036033541660405192838092632474521560e21b825260008051602061312e83398151915260048301523360248301525afa9081156103d4576000916112bc575b5015610822576020817f13c9323fdd8bdc59bca744cb04a1255896c91de5ebfd82b75e0040ffd672a2ec92603a55604051908152a1005b6112d5915060203d6020116103cd576103bf818361223c565b82611285565b346101f55760003660031901126101f5576034546040516001600160a01b039091168152602090f35b346101f55760603660031901126101f55761131d61213f565b611325612155565b90600435600052603e60205260406000209060018060a01b031660005260205260406000209060018060a01b0316600052602052602060ff604060002054166040519015158152f35b346101f55760003660031901126101f5576033546040516001600160a01b039091168152602090f35b346101f55760403660031901126101f557602061121e6113b5612129565b6113bd61213f565b9061237f565b346101f55760003660031901126101f5576043546040516001600160a01b039091168152602090f35b346101f55760203660031901126101f557611405612129565b603354604051632474521560e21b81526000600482015233602482015290602090829060449082906001600160a01b03165afa9081156103d45760009161146f575b501561082257604080546001600160a01b0319166001600160a01b0392909216919091179055005b611488915060203d6020116103cd576103bf818361223c565b82611447565b346101f55760203660031901126101f5576004356001600160401b0381116101f5576114be90369060040161216b565b603354604051632474521560e21b815260008051602061312e833981519152600482015233602482015290602090829060449082906001600160a01b03165afa9081156103d457600091611687575b50156108225760005b81811061151f57005b806115a861153b60606115356001958789612299565b016122a9565b611546838688612299565b35600052603e602052604080806000206115666020610e5d888b8d612299565b90600091888060a01b031682526020522061158682610e5d878a8c612299565b90600091878060a01b03168252602052209060ff801983541691151516179055565b6116066115bb6060611535848789612299565b6115c6838688612299565b35600052603e602052604080806000206115e582610e5d888b8d612299565b90600091888060a01b03168252602052206115866020610e5d878a8c612299565b611611818486612299565b356116226020610e5d848789612299565b906116336040610e5d85888a612299565b907fb9a3049feba6628f1f03d582f4092ed3d7b923b1e9b3e115ac55f7fd2d78198f60206116676060611535888b8d612299565b936040519415158552878060a01b031694878060a01b031693a401611516565b6116a0915060203d6020116103cd576103bf818361223c565b8361150d565b346101f55760203660031901126101f5576116bf612129565b603354604051632474521560e21b81526000600482015233602482015290602090829060449082906001600160a01b03165afa9081156103d457600091611729575b501561082257604280546001600160a01b0319166001600160a01b0392909216919091179055005b611742915060203d6020116103cd576103bf818361223c565b82611701565b346101f55760403660031901126101f557611761612129565b61176961213f565b6001600160a01b039182166000908152603660209081526040808320949093168252928352819020549051908152f35b346101f55760003660031901126101f5576035546001600160a01b03166000816117c9575b602090604051908152f35b5060a060049160405192838092633fabe5a360e21b82525afa80156103d4576020916000916117f9575b506117be565b61181b915060a03d60a011611826575b611813818361223c565b81019061234a565b5050509050826117f3565b503d611809565b60603660031901126101f557611841612129565b61184961213f565b906044356001600160401b0381116101f557366023820112156101f55780600401356001600160401b0381116101f55781019060248201903682116101f5576020818403126101f5576024810135906001600160401b0382116101f55701816043820112156101f5576024810135926118c1846122b6565b936118cf604051958661223c565b808552602060248187019260051b85010101928484116101f55760448101915b848310611bf05788888880518015159081611be5575b5015611bd35780516000198101908111611bbd576001600160a01b039061192c9083612312565b5151166001600160a01b03841603611bab576003815114611b7b575b6004815114611acd575b819291670de0b6b3a7640000926000936000925b8451841015611ac257611985602061197e8688612312565b5101612326565b6004811015611aac5760021480611aa4575b611a66575b6119b1906119aa8587612312565b51906127a3565b906000918015918215611a46575b505015611a35576706f05b59d3b200008101906000828211611a2157508110611a1057670de0b6b3a764000090049460016001600160a01b03611a028587612312565b515116930192959095611966565b630a77254f60e01b60005260046000fd5b634e487b7160e01b81526011600452602490fd5b631550e8b760e01b60005260046000fd5b91509150611a5e611a57838361240f565b9283612533565b1487806119bf565b9450611a71866126a7565b80611a95575b611a835760019461199c565b604051630efbb43d60e21b8152600490fd5b50611a9f826126a7565b611a77565b508515611997565b634e487b7160e01b600052602160045260246000fd5b602082604051908152f35b6020611ad8826122f5565b5101516004811015611aac5760021415600081611b46575b81611b0d575b506119525760405163980171a360e01b8152600490fd5b9050611b1d602061197e84612305565b906004821015611b3257506001141584611af6565b634e487b7160e01b81526021600452602490fd5b9050611b56602061197e84612305565b6004811015611b6757151590611af0565b634e487b7160e01b82526021600452602482fd5b6020611b86826122f5565b5101516004811015611aac576002036119485760405163980171a360e01b8152600490fd5b6040516309bf411560e11b8152600490fd5b634e487b7160e01b600052601160045260246000fd5b60405163308c6ea760e21b8152600490fd5b600591501084611905565b82356001600160401b0381116101f55782016024810191906060908603601f1901126101f55760405191611c23836121d5565b60208101356001600160a01b03811681036101f5578352604081013560048110156101f557602084015260608101356001600160401b0381116101f55760209101019087601f830112156101f557813592611c7d846122cd565b611c8a604051918261223c565b84815289602086860101116101f5576000602086819782809801838601378301015260408201528152019201916118ef565b346101f55760203660031901126101f5576004356001600160401b0381116101f557611cec90369060040161216b565b603354604051632474521560e21b815260008051602061312e833981519152600482015233602482015290602090829060449082906001600160a01b03165afa9081156103d457600091611e38575b50156108225760005b818110611d4d57005b80611dca611d5e6001938587612299565b838060a01b03611d726109e085888a612299565b16600052604160205283611db76060604089611d986020610e5d8a8d8660002095612299565b90600091868060a01b03168252602052209360408101358555016122a9565b91019060ff801983541691151516179055565b611dd86109e0828587612299565b611de86020610e5d848789612299565b7fa38bfa44bbba9266438e9ec2c9f2001eb6517aa484626b25ec296ee888517f7960206040611e1886898b612299565b013592604051938452868060a01b031693868060a01b031692a301611d44565b611e51915060203d6020116103cd576103bf818361223c565b83611d3b565b346101f55760003660031901126101f5576042546040516001600160a01b039091168152602090f35b346101f55760003660031901126101f5576035546040516001600160a01b039091168152602090f35b346101f55760003660031901126101f5576020603a54604051908152f35b346101f55760403660031901126101f557611ee0612129565b611ee861213f565b9060018060a01b0316600052604160205260406000209060018060a01b031660005260205260408060002060ff6001825492015416825191825215156020820152f35b346101f557611f39366120d9565b603354604051632474521560e21b815260008051602061312e833981519152600482015233602482015293949391929190602090829060449082906001600160a01b03165afa9081156103d457600091612037575b5015610822578184036107a45760005b848110611fa757005b80611fb86109e06001938686612275565b611fc3828888612275565b35600052603d602052604060002090838060a01b03166001600160601b0360a01b825416179055611ff5818787612275565b35828060a01b0361200a6109e0848888612275565b16907f23e0d9edcf44c0ab085e4918b7030577f9da7dd0c7869257b4598f9e7ff59eff600080a301611f9e565b612050915060203d6020116103cd576103bf818361223c565b85611f8e565b346101f55760203660031901126101f5576004359063ffffffff60e01b82168092036101f5576020916333ca6d2360e21b8114908115612098575b5015158152f35b6301ffc9a760e01b14905083612091565b9181601f840112156101f5578235916001600160401b0383116101f5576020808501948460051b0101116101f557565b60406003198201126101f5576004356001600160401b0381116101f55781612103916004016120a9565b92909291602435906001600160401b0382116101f557612125916004016120a9565b9091565b600435906001600160a01b03821682036101f557565b602435906001600160a01b03821682036101f557565b604435906001600160a01b03821682036101f557565b9181601f840112156101f5578235916001600160401b0383116101f5576020808501948460071b0101116101f557565b60609060031901126101f5576004356001600160a01b03811681036101f557906024356001600160a01b03811681036101f5579060443590565b606081019081106001600160401b038211176121f057604052565b634e487b7160e01b600052604160045260246000fd5b608081019081106001600160401b038211176121f057604052565b604081019081106001600160401b038211176121f057604052565b90601f801991011681019081106001600160401b038211176121f057604052565b908160209103126101f5575180151581036101f55790565b919081101561078e5760051b0190565b356001600160a01b03811681036101f55790565b919081101561078e5760071b0190565b3580151581036101f55790565b6001600160401b0381116121f05760051b60200190565b6001600160401b0381116121f057601f01601f191660200190565b91908203918211611bbd57565b80516001101561078e5760400190565b80511561078e5760200190565b805182101561078e5760209160051b010190565b516004811015611aac5790565b519069ffffffffffffffffffff821682036101f557565b908160a09103126101f55761235e81612333565b9160208201519160408101519161237c608060608401519301612333565b90565b9061238a8183612422565b9160018060a01b0316600052603660205260406000209060018060a01b0316600052602052604060002054908082116000146123e157505b670de0b6b3a764000081116123d45790565b50670de0b6b3a764000090565b90506123c2565b908160209103126101f5575160ff811681036101f55790565b604d8111611bbd57600a0a90565b81810292918115918404141715611bbd57565b6001600160a01b0390811660009081526037602090815260408083209484168352939052919091205416801561251d57604051633fabe5a360e21b81529060a082600481845afa9182156103d4576000926124f1575b5060206004916040519283809263313ce56760e01b82525afa80156103d45760ff916000916124c2575b50166012039060128211611bbd576124bc61237c92612401565b9061240f565b6124e4915060203d6020116124ea575b6124dc818361223c565b8101906123e8565b386124a2565b503d6124d2565b600491925061251060209160a03d60a01161182657611813818361223c565b5050509050929150612478565b50600090565b919081101561078e576060020190565b811561253d570490565b634e487b7160e01b600052601260045260246000fd5b919081101561078e5760051b81013590601e19813603018212156101f55701908135916001600160401b0383116101f5576020018260051b360381136101f5579190565b9080601f830112156101f55781516125ae816122b6565b926125bc604051948561223c565b81845260208085019260051b8201019283116101f557602001905b8282106125e45750505090565b81518152602091820191016125d7565b908060209392818452848401376000828201840152601f01601f1916010190565b9180602084016020855252604083019060408160051b8501019383600091601e1982360301905b84841061264d575050505050505090565b90919293949596603f198282030187528735838112156101f557840190602082359201916001600160401b0381116101f55780360383136101f55761269860209283926001956125f4565b9901970195940192919061263c565b6001600160a01b03166000818152603c602052604090205461273f576000818152603b60205260409020546001600160a01b031661273f57806000526041602052604060002061034860005260205260ff6001604060002001541661273f5760009081526041602090815260408083206042546001600160a01b0316845290915290206001015460ff1661273a57600090565b600190565b50600190565b908160809103126101f55760606040519161275f83612206565b8051835260208101516020840152604081015160408401520151606082015290565b60ff166012039060ff8211611bbd57565b60ff16604d8111611bbd57600a0a90565b602082018051926001600160a01b038316929091610348841491906004861015611aac5760009515612d105780516004811015612cfc57600314612ad357516004811015612abf57600114612917575050604081015191602083519301519260208110612901575b50828452603d60205260408420546001600160a01b03169283156128ef578452603e60209081526040808620838752825280862084516001600160a01b0316875290915284205460ff16156128dd579051604051635d5530df60e11b815260048101929092526001600160a01b03166024820152906020908290604490829086905af19182156128d15780926128a057505090565b9091506020823d6020116128c9575b816128bc6020938361223c565b8101031261062557505190565b3d91506128af565b604051903d90823e3d90fd5b604051632ccb516160e21b8152600490fd5b6040516345f68a8f60e11b8152600490fd5b6000939193199060200360031b1b16913861280b565b9080935015612a98575b8215612a915750516001600160a01b03165b6001600160a01b039081168352603b60205260408320541680156128ef57604051633fabe5a360e21b81529160a083600481855afa928315612a4e578493612a6b575b5083831315612a595715612a145760206004916040519283809263313ce56760e01b82525afa908115612a0957916124bc6129c06129c593869561237c97916129ea575b50612781565b612792565b90506129e56129db670de0b6b3a76400006130dd565b8260011c90613119565b612533565b612a03915060203d6020116124ea576124dc818361223c565b386129ba565b6040513d85823e3d90fd5b60206004916040959495519283809263313ce56760e01b82525afa908115612a4e576124bc916129c09161237c9596916129ea5750612781565b6040513d86823e3d90fd5b6040516302eb41cf60e51b8152600490fd5b612a8591935060a03d60a01161182657611813818361223c565b50505090509138612976565b9050612933565b81516001600160a01b0316610347190115612921576040516381c30d7b60e01b8152600490fd5b634e487b7160e01b86526021600452602486fd5b50505081835260416020908152604080852083516001600160a01b03168652909152808420905192919060ff90600190612b0c86612221565b80548652015416151560208401908152604051612b2881612206565b85815260208101869052604081018690526060018590525115612c0b575050608060018060a01b036040541691516024604051809481936344dca75160e11b835260048301525afa908115612c00578291612bd1575b508091602060608301519201516012039060128211611a2157506040916124bc612ba792612401565b915b0151612bb7603a54426122e8565b11612bbf5790565b60405163141f934360e31b8152600490fd5b612bf3915060803d608011612bf9575b612beb818361223c565b810190612745565b38612b7e565b503d612be1565b6040513d84823e3d90fd5b516001600160a01b03168352604160209081526040808520928552919052808320905192915060ff90600190612c4085612221565b8054855201541615801560208401526128ef57608060018060a01b036040541692516024604051809581936344dca75160e11b835260048301525afa918215612cef578192612cce575b50816020606082015191015160120360128111612cba57916129c5612cb4926124bc604095612401565b91612ba9565b634e487b7160e01b83526011600452602483fd5b612ce891925060803d608011612bf957612beb818361223c565b9038612c8a565b50604051903d90823e3d90fd5b634e487b7160e01b87526021600452602487fd5b50908094935015612e4d575b8315612e465750516001600160a01b03165b6001600160a01b03168152603c60205260408120549182156128ef576039546040516331d98b3f60e01b81526004810194909452608090849060249082906001600160a01b03165afa928315612c00578293612db7575b506060830151612d97603a54426122e8565b11612bbf5715612dad576129c561237c9261301c565b5061237c9061301c565b9092506080813d608011612e3e575b81612dd36080938361223c565b81010312612e3a5760405190612de882612206565b80518060070b8103612e3657825260208101516001600160401b0381168103612e3657602083015260408101518060030b8103612e3657906060916040840152015160608201529138612d85565b8380fd5b5080fd5b3d9150612dc6565b9050612d2e565b81516001600160a01b0316610347190115612d1c57604051633c2f4f2360e21b8152600490fd5b6001600160a01b0390811692911690828214611041576000838152603760209081526040808320858452909152812080546001600160a01b0319166001600160a01b039390931692831790559092907f410d79a2eddf639a562ae356290f947311e7c951e05ee1e957f18898bd664bb39080a4565b6001600160a01b03169081151580612f7d575b15612f6b576001600160a01b031691818314612f595760207ffc6e73fcfea315539ce6038e373ebf76c8fd5169e820723ef2d2f4485528ced8918360005260368252604060002085600052825280604060002055604051908152a3565b604051631d8fdb5560e11b8152600490fd5b604051630803ae7360e11b8152600490fd5b506001600160a01b0381161515612efc565b6040516301ffc9a760e01b81526329abf30760e11b60048201526001600160a01b039190911690602081602481855afa9081156103d457600091612fe9575b5015610393576001600160601b0360a01b6043541617604355565b613002915060203d6020116103cd576103bf818361223c565b38612fce565b63ffffffff16604d8111611bbd57600a0a90565b6000815160070b1280156130cc575b80156130ba575b6130a857604081015160030b600003808060030b03611bbd5760ff16906012821161307a57906124bc60ff6130746001600160401b0361237c95511693612781565b16613008565b51601119909101906001600160401b031660ff8211611bbd576130a260ff61237c9316613008565b90612533565b6040516365a5785160e11b8152600490fd5b5060fe19604082015160030b12613032565b506000604082015160030b1361302b565b90600091670de0b6b3a7640000808202828104821483151715613105578094500403611a3557565b634e487b7160e01b85526011600452602485fd5b9190820191828111611bbd578210611a105756fe5a7d4408f4759dddd7fdfd0d21abd99341dc2f52cda14804988a9b2df20766d8a26469706673582212207e02af2d9edd733530843f31f56df973eeceaef7268fe09263ddbbcdf0e8c3c864736f6c634300081a0033",
  "libraries": {},
  "devdoc": {
    "events": {
      "Initialized(uint8)": {
        "details": "Triggered when the contract has been initialized or reinitialized."
      }
    },
    "kind": "dev",
    "methods": {
      "getExchangeRate(address,address,bytes)": {
        "params": {
          "assetA": "The address of the first asset in the pair.",
          "assetB": "The address of the second asset in the pair.",
          "oracleData": "The list of oracles to use for price calculations"
        },
        "returns": {
          "_0": "exchangeRate for assetA/assetB in 10**18 decimality"
        }
      },
      "getGasPrice()": {
        "returns": {
          "price": "The current gas price."
        }
      },
      "getOraclePriceDrop(address,address)": {
        "params": {
          "assetA": "The address of the first asset.",
          "assetB": "The address of the second asset."
        },
        "returns": {
          "_0": "The priceDrop rate as a uint256 value."
        }
      },
      "getOraclePriceDropFeed(address,address)": {
        "params": {
          "assetA": "The address of the first asset in the pair.",
          "assetB": "The address of the second asset in the pair."
        },
        "returns": {
          "_0": "priceDropFeed The address of the priceDrop feed associated with the asset pair."
        }
      },
      "getPairPriceDrop(address,address)": {
        "params": {
          "_assetA": "The address of asset A.",
          "_assetB": "The address of asset B."
        },
        "returns": {
          "priceDrop": "The priceDrop rate."
        }
      },
      "increasePairPriceDrop(address,address,uint256)": {
        "details": "Only callable by the EMERGENCY_ADMIN role. The _pairPriceDrop value must be greater than the current priceDrop value for the pair and less than the maximum allowed priceDrop (WadRayMath.WAD / 2).",
        "params": {
          "_assetA": "The address of position asset",
          "_assetB": "The address of borrowed asset",
          "_pairPriceDrop": "The new priceDrop value for the pair (in wad)"
        }
      },
      "initialize(address,address,address,address)": {
        "params": {
          "_eth": "Weth address if eth isn't native token of network. Otherwise set to zero address.",
          "_registry": "The address of PrimexRegistry contract",
          "_treasury": "Address of the Treasury",
          "_usdt": "Address of the USDT token"
        }
      },
      "setGasPriceFeed(address)": {
        "details": "Only callable by the MEDIUM_TIMELOCK_ADMIN role.",
        "params": {
          "priceFeed": "The address of the gas price feed contract."
        }
      },
      "setPairPriceDrop(address,address,uint256)": {
        "details": "Only callable by the SMALL_TIMELOCK_ADMIN.",
        "params": {
          "_assetA": "The address of position asset",
          "_assetB": "The address of borrowed asset",
          "_pairPriceDrop": "The pair priceDrop (in wad)"
        }
      },
      "setPyth(address)": {
        "details": "Only callable by the BIG_TIMELOCK_ADMIN role.",
        "params": {
          "_pyth": "the address of the Pyth oracle"
        }
      },
      "setSupraPullOracle(address)": {
        "details": "Only callable by the BIG_TIMELOCK_ADMIN role.",
        "params": {
          "_supraPullOracle": "the address of the Supra pull oracle"
        }
      },
      "setSupraStorageOracle(address)": {
        "details": "Only callable by the BIG_TIMELOCK_ADMIN role.",
        "params": {
          "_supraStorageOracle": "the address of the Supra storage"
        }
      },
      "setTimeTolerance(uint256)": {
        "details": "Only callable by the SMALL_TIMELOCK_ADMIN role.",
        "params": {
          "_timeTolerance": "Time tolerance in seconds"
        }
      },
      "setTreasury(address)": {
        "details": "Only callable by the BIG_TIMELOCK_ADMIN role.",
        "params": {
          "_treasury": "the address of the treasury"
        }
      },
      "setUSDT(address)": {
        "details": "Only callable by the BIG_TIMELOCK_ADMIN role.",
        "params": {
          "_usdt": "the address of the USDT"
        }
      },
      "supportsInterface(bytes4)": {
        "params": {
          "_interfaceId": "The interface id to check"
        }
      },
      "updateChainlinkPriceFeedsUsd(address[],address[])": {
        "details": "Only callable by the SMALL_TIMELOCK_ADMIN role.",
        "params": {
          "_feeds": "Array of price feeds.",
          "_tokens": "Array of token addresses."
        }
      },
      "updatePriceDropFeed(address,address,address)": {
        "details": "Add or update priceDrop feed for assets pair. Only callable by the MEDIUM_TIMELOCK_ADMIN role.",
        "params": {
          "assetA": "The address of the first asset in the pair.",
          "assetB": "The address of the second asset in the pair.",
          "priceDropFeed": "The chain link priceDrop feed address for the pair assetA/assetB"
        }
      },
      "updatePriceDropFeeds((address,address,address)[])": {
        "details": "Add or update priceDrop feed for assets pair. Only callable by the MEDIUM_TIMELOCK_ADMIN role.",
        "params": {
          "_updateParams": "The array of the UpdatePriceDropFeedsParams structs"
        }
      },
      "updatePullOracle(bytes[][],uint256[])": {
        "params": {
          "_data": "An array of update data for passed oracles",
          "_pullOracleTypes": "An array of oracle types  (Must conform to the UpdatePullOracle struct)"
        }
      },
      "updatePythPairId(address[],bytes32[])": {
        "details": "Only callable by the SMALL_TIMELOCK_ADMIN role.",
        "params": {
          "_priceFeedIds": "Array of pair ids.",
          "_tokens": "Array of token addresses."
        }
      },
      "updateSupraDataFeed((address,address,(uint256,bool))[])": {
        "details": "Only callable by the SMALL_TIMELOCK_ADMIN role.",
        "params": {
          "_params": "Array of token pairs and Supra ids."
        }
      },
      "updateUniv3TrustedPair((uint256,address,address,bool)[])": {
        "details": "Only callable by the SMALL_TIMELOCK_ADMIN role.",
        "params": {
          "_updateParams": "Array of token pairs, their DEXs and new trusted status."
        }
      },
      "updateUniv3TypeOracle(uint256[],address[])": {
        "details": "Only callable by the SMALL_TIMELOCK_ADMIN role.",
        "params": {
          "_oracleTypes": "Array of ids of TWAP contracts.",
          "_oracles": "Array of TWAP contract addresses."
        }
      }
    },
    "version": 1
  },
  "userdoc": {
    "kind": "user",
    "methods": {
      "getExchangeRate(address,address,bytes)": {
        "notice": "Calculates exchange rate of one token to another according to the specific oracle route"
      },
      "getGasPrice()": {
        "notice": "Retrieves the current gas price from the specified gas price feed."
      },
      "getOraclePriceDrop(address,address)": {
        "notice": "Retrieves the priceDrop rate between two assets based on the oracle pair priceDrop."
      },
      "getOraclePriceDropFeed(address,address)": {
        "notice": "Retreives a priceDrop feed address from the oraclePriceDropFeeds mapping"
      },
      "getPairPriceDrop(address,address)": {
        "notice": "For a given asset pair retrieves the priceDrop rate which is the higher of the oracle pair priceDrop and the historical pair priceDrop."
      },
      "increasePairPriceDrop(address,address,uint256)": {
        "notice": "Increases the priceDrop of a pair of assets in the system."
      },
      "setGasPriceFeed(address)": {
        "notice": "Sets the gas price feed contract address."
      },
      "setPairPriceDrop(address,address,uint256)": {
        "notice": "Function to set (change) the pair priceDrop of the trading assets"
      },
      "setPyth(address)": {
        "notice": "Sets the Pyth address"
      },
      "setSupraPullOracle(address)": {
        "notice": "Sets the Supra pull oracle address"
      },
      "setSupraStorageOracle(address)": {
        "notice": "Sets the Supra storage address"
      },
      "setTimeTolerance(uint256)": {
        "notice": "Sets the time tolerance"
      },
      "setTreasury(address)": {
        "notice": "Sets the treasury address"
      },
      "setUSDT(address)": {
        "notice": "Sets the usdt address"
      },
      "supportsInterface(bytes4)": {
        "notice": "Interface checker"
      },
      "updateChainlinkPriceFeedsUsd(address[],address[])": {
        "notice": "Sets or updates the Chainlink price feed for the list of tokens to usd."
      },
      "updatePriceDropFeed(address,address,address)": {
        "notice": "Updates the priceDrop feed for a specific pair of assets."
      },
      "updatePriceDropFeeds((address,address,address)[])": {
        "notice": "Updates the priceDrop feed for a specific pair of assets."
      },
      "updatePullOracle(bytes[][],uint256[])": {
        "notice": "Updates pull oracle data for passed oracle types"
      },
      "updatePythPairId(address[],bytes32[])": {
        "notice": "Sets or updates the Pyth pair ids for the list of tokens."
      },
      "updateSupraDataFeed((address,address,(uint256,bool))[])": {
        "notice": "Sets or updates the Supra price feeds for the list of tokens."
      },
      "updateUniv3TrustedPair((uint256,address,address,bool)[])": {
        "notice": "Sets or updates the Supra price feeds for the list of tokens."
      },
      "updateUniv3TypeOracle(uint256[],address[])": {
        "notice": "Sets Uni v3-based TWAP price oracle contracts."
      }
    },
    "version": 1
  },
  "storageLayout": {
    "storage": [
      {
        "astId": 2890,
        "contract": "contracts/PriceOracle/PriceOracle.sol:PriceOracle",
        "label": "_initialized",
        "offset": 0,
        "slot": "0",
        "type": "t_uint8"
      },
      {
        "astId": 2893,
        "contract": "contracts/PriceOracle/PriceOracle.sol:PriceOracle",
        "label": "_initializing",
        "offset": 1,
        "slot": "0",
        "type": "t_bool"
      },
      {
        "astId": 6506,
        "contract": "contracts/PriceOracle/PriceOracle.sol:PriceOracle",
        "label": "__gap",
        "offset": 0,
        "slot": "1",
        "type": "t_array(t_uint256)50_storage"
      },
      {
        "astId": 55331,
        "contract": "contracts/PriceOracle/PriceOracle.sol:PriceOracle",
        "label": "registry",
        "offset": 0,
        "slot": "51",
        "type": "t_address"
      },
      {
        "astId": 55334,
        "contract": "contracts/PriceOracle/PriceOracle.sol:PriceOracle",
        "label": "eth",
        "offset": 0,
        "slot": "52",
        "type": "t_address"
      },
      {
        "astId": 55337,
        "contract": "contracts/PriceOracle/PriceOracle.sol:PriceOracle",
        "label": "gasPriceFeed",
        "offset": 0,
        "slot": "53",
        "type": "t_address"
      },
      {
        "astId": 55344,
        "contract": "contracts/PriceOracle/PriceOracle.sol:PriceOracle",
        "label": "pairPriceDrops",
        "offset": 0,
        "slot": "54",
        "type": "t_mapping(t_address,t_mapping(t_address,t_uint256))"
      },
      {
        "astId": 55351,
        "contract": "contracts/PriceOracle/PriceOracle.sol:PriceOracle",
        "label": "oraclePriceDropFeeds",
        "offset": 0,
        "slot": "55",
        "type": "t_mapping(t_address,t_mapping(t_address,t_address))"
      },
      {
        "astId": 55358,
        "contract": "contracts/PriceOracle/PriceOracle.sol:PriceOracle",
        "label": "chainLinkPriceFeeds",
        "offset": 0,
        "slot": "56",
        "type": "t_mapping(t_address,t_mapping(t_address,t_address))"
      },
      {
        "astId": 55367,
        "contract": "contracts/PriceOracle/PriceOracle.sol:PriceOracle",
        "label": "pyth",
        "offset": 0,
        "slot": "57",
        "type": "t_contract(IPyth)15115"
      },
      {
        "astId": 55370,
        "contract": "contracts/PriceOracle/PriceOracle.sol:PriceOracle",
        "label": "timeTolerance",
        "offset": 0,
        "slot": "58",
        "type": "t_uint256"
      },
      {
        "astId": 55375,
        "contract": "contracts/PriceOracle/PriceOracle.sol:PriceOracle",
        "label": "chainlinkPriceFeedsUsd",
        "offset": 0,
        "slot": "59",
        "type": "t_mapping(t_address,t_address)"
      },
      {
        "astId": 55380,
        "contract": "contracts/PriceOracle/PriceOracle.sol:PriceOracle",
        "label": "pythPairIds",
        "offset": 0,
        "slot": "60",
        "type": "t_mapping(t_address,t_bytes32)"
      },
      {
        "astId": 55385,
        "contract": "contracts/PriceOracle/PriceOracle.sol:PriceOracle",
        "label": "univ3TypeOracles",
        "offset": 0,
        "slot": "61",
        "type": "t_mapping(t_uint256,t_address)"
      },
      {
        "astId": 55394,
        "contract": "contracts/PriceOracle/PriceOracle.sol:PriceOracle",
        "label": "univ3TrustedPairs",
        "offset": 0,
        "slot": "62",
        "type": "t_mapping(t_uint256,t_mapping(t_address,t_mapping(t_address,t_bool)))"
      },
      {
        "astId": 55403,
        "contract": "contracts/PriceOracle/PriceOracle.sol:PriceOracle",
        "label": "supraPullOracle",
        "offset": 0,
        "slot": "63",
        "type": "t_contract(ISupraOraclePull)71610"
      },
      {
        "astId": 55407,
        "contract": "contracts/PriceOracle/PriceOracle.sol:PriceOracle",
        "label": "supraStorageOracle",
        "offset": 0,
        "slot": "64",
        "type": "t_contract(ISupraSValueFeed)71649"
      },
      {
        "astId": 55415,
        "contract": "contracts/PriceOracle/PriceOracle.sol:PriceOracle",
        "label": "supraDataFeedID",
        "offset": 0,
        "slot": "65",
        "type": "t_mapping(t_address,t_mapping(t_address,t_struct(SupraDataFeedId)53475_storage))"
      },
      {
        "astId": 55418,
        "contract": "contracts/PriceOracle/PriceOracle.sol:PriceOracle",
        "label": "usdt",
        "offset": 0,
        "slot": "66",
        "type": "t_address"
      },
      {
        "astId": 55421,
        "contract": "contracts/PriceOracle/PriceOracle.sol:PriceOracle",
        "label": "treasury",
        "offset": 0,
        "slot": "67",
        "type": "t_address"
      }
    ],
    "types": {
      "t_address": {
        "encoding": "inplace",
        "label": "address",
        "numberOfBytes": "20"
      },
      "t_array(t_uint256)50_storage": {
        "base": "t_uint256",
        "encoding": "inplace",
        "label": "uint256[50]",
        "numberOfBytes": "1600"
      },
      "t_bool": {
        "encoding": "inplace",
        "label": "bool",
        "numberOfBytes": "1"
      },
      "t_bytes32": {
        "encoding": "inplace",
        "label": "bytes32",
        "numberOfBytes": "32"
      },
      "t_contract(IPyth)15115": {
        "encoding": "inplace",
        "label": "contract IPyth",
        "numberOfBytes": "20"
      },
      "t_contract(ISupraOraclePull)71610": {
        "encoding": "inplace",
        "label": "contract ISupraOraclePull",
        "numberOfBytes": "20"
      },
      "t_contract(ISupraSValueFeed)71649": {
        "encoding": "inplace",
        "label": "contract ISupraSValueFeed",
        "numberOfBytes": "20"
      },
      "t_mapping(t_address,t_address)": {
        "encoding": "mapping",
        "key": "t_address",
        "label": "mapping(address => address)",
        "numberOfBytes": "32",
        "value": "t_address"
      },
      "t_mapping(t_address,t_bool)": {
        "encoding": "mapping",
        "key": "t_address",
        "label": "mapping(address => bool)",
        "numberOfBytes": "32",
        "value": "t_bool"
      },
      "t_mapping(t_address,t_bytes32)": {
        "encoding": "mapping",
        "key": "t_address",
        "label": "mapping(address => bytes32)",
        "numberOfBytes": "32",
        "value": "t_bytes32"
      },
      "t_mapping(t_address,t_mapping(t_address,t_address))": {
        "encoding": "mapping",
        "key": "t_address",
        "label": "mapping(address => mapping(address => address))",
        "numberOfBytes": "32",
        "value": "t_mapping(t_address,t_address)"
      },
      "t_mapping(t_address,t_mapping(t_address,t_bool))": {
        "encoding": "mapping",
        "key": "t_address",
        "label": "mapping(address => mapping(address => bool))",
        "numberOfBytes": "32",
        "value": "t_mapping(t_address,t_bool)"
      },
      "t_mapping(t_address,t_mapping(t_address,t_struct(SupraDataFeedId)53475_storage))": {
        "encoding": "mapping",
        "key": "t_address",
        "label": "mapping(address => mapping(address => struct IPriceOracleStorageV3.SupraDataFeedId))",
        "numberOfBytes": "32",
        "value": "t_mapping(t_address,t_struct(SupraDataFeedId)53475_storage)"
      },
      "t_mapping(t_address,t_mapping(t_address,t_uint256))": {
        "encoding": "mapping",
        "key": "t_address",
        "label": "mapping(address => mapping(address => uint256))",
        "numberOfBytes": "32",
        "value": "t_mapping(t_address,t_uint256)"
      },
      "t_mapping(t_address,t_struct(SupraDataFeedId)53475_storage)": {
        "encoding": "mapping",
        "key": "t_address",
        "label": "mapping(address => struct IPriceOracleStorageV3.SupraDataFeedId)",
        "numberOfBytes": "32",
        "value": "t_struct(SupraDataFeedId)53475_storage"
      },
      "t_mapping(t_address,t_uint256)": {
        "encoding": "mapping",
        "key": "t_address",
        "label": "mapping(address => uint256)",
        "numberOfBytes": "32",
        "value": "t_uint256"
      },
      "t_mapping(t_uint256,t_address)": {
        "encoding": "mapping",
        "key": "t_uint256",
        "label": "mapping(uint256 => address)",
        "numberOfBytes": "32",
        "value": "t_address"
      },
      "t_mapping(t_uint256,t_mapping(t_address,t_mapping(t_address,t_bool)))": {
        "encoding": "mapping",
        "key": "t_uint256",
        "label": "mapping(uint256 => mapping(address => mapping(address => bool)))",
        "numberOfBytes": "32",
        "value": "t_mapping(t_address,t_mapping(t_address,t_bool))"
      },
      "t_struct(SupraDataFeedId)53475_storage": {
        "encoding": "inplace",
        "label": "struct IPriceOracleStorageV3.SupraDataFeedId",
        "members": [
          {
            "astId": 53472,
            "contract": "contracts/PriceOracle/PriceOracle.sol:PriceOracle",
            "label": "id",
            "offset": 0,
            "slot": "0",
            "type": "t_uint256"
          },
          {
            "astId": 53474,
            "contract": "contracts/PriceOracle/PriceOracle.sol:PriceOracle",
            "label": "initialize",
            "offset": 0,
            "slot": "1",
            "type": "t_bool"
          }
        ],
        "numberOfBytes": "64"
      },
      "t_uint256": {
        "encoding": "inplace",
        "label": "uint256",
        "numberOfBytes": "32"
      },
      "t_uint8": {
        "encoding": "inplace",
        "label": "uint8",
        "numberOfBytes": "1"
      }
    }
  }
}