{
  "address": "0xbE6fC8F7EdE207f14FF29B8B2CD2560C5eCBE721",
  "abi": [
    {
      "inputs": [],
      "stateMutability": "nonpayable",
      "type": "constructor"
    },
    {
      "anonymous": false,
      "inputs": [
        {
          "indexed": true,
          "internalType": "address",
          "name": "buyer",
          "type": "address"
        },
        {
          "indexed": false,
          "internalType": "uint256",
          "name": "amount",
          "type": "uint256"
        }
      ],
      "name": "Buying",
      "type": "event"
    },
    {
      "anonymous": false,
      "inputs": [
        {
          "indexed": false,
          "internalType": "uint8",
          "name": "version",
          "type": "uint8"
        }
      ],
      "name": "Initialized",
      "type": "event"
    },
    {
      "anonymous": false,
      "inputs": [
        {
          "indexed": true,
          "internalType": "address",
          "name": "previousOwner",
          "type": "address"
        },
        {
          "indexed": true,
          "internalType": "address",
          "name": "newOwner",
          "type": "address"
        }
      ],
      "name": "OwnershipTransferred",
      "type": "event"
    },
    {
      "anonymous": false,
      "inputs": [
        {
          "indexed": false,
          "internalType": "uint256",
          "name": "rate",
          "type": "uint256"
        }
      ],
      "name": "RateChanged",
      "type": "event"
    },
    {
      "inputs": [
        {
          "internalType": "address[]",
          "name": "_allowedTokens",
          "type": "address[]"
        }
      ],
      "name": "addAllowedTokens",
      "outputs": [],
      "stateMutability": "nonpayable",
      "type": "function"
    },
    {
      "inputs": [
        {
          "internalType": "address",
          "name": "token",
          "type": "address"
        }
      ],
      "name": "allowedTokens",
      "outputs": [
        {
          "internalType": "bool",
          "name": "acceptable",
          "type": "bool"
        }
      ],
      "stateMutability": "view",
      "type": "function"
    },
    {
      "inputs": [
        {
          "internalType": "uint256",
          "name": "_investmentAmount",
          "type": "uint256"
        },
        {
          "internalType": "address",
          "name": "_buyForToken",
          "type": "address"
        }
      ],
      "name": "buy",
      "outputs": [],
      "stateMutability": "nonpayable",
      "type": "function"
    },
    {
      "inputs": [
        {
          "internalType": "uint256",
          "name": "",
          "type": "uint256"
        }
      ],
      "name": "buyers",
      "outputs": [
        {
          "internalType": "address",
          "name": "",
          "type": "address"
        }
      ],
      "stateMutability": "view",
      "type": "function"
    },
    {
      "inputs": [
        {
          "internalType": "uint256",
          "name": "_maxSaleAmount",
          "type": "uint256"
        }
      ],
      "name": "changeMaxSaleAmount",
      "outputs": [],
      "stateMutability": "nonpayable",
      "type": "function"
    },
    {
      "inputs": [
        {
          "internalType": "uint256",
          "name": "_salePrice",
          "type": "uint256"
        }
      ],
      "name": "changeSalePrice",
      "outputs": [],
      "stateMutability": "nonpayable",
      "type": "function"
    },
    {
      "inputs": [
        {
          "internalType": "uint256",
          "name": "_saleStart",
          "type": "uint256"
        },
        {
          "internalType": "uint256",
          "name": "_saleEnd",
          "type": "uint256"
        }
      ],
      "name": "changeTimestamps",
      "outputs": [],
      "stateMutability": "nonpayable",
      "type": "function"
    },
    {
      "inputs": [],
      "name": "completeTokenSale",
      "outputs": [],
      "stateMutability": "nonpayable",
      "type": "function"
    },
    {
      "inputs": [
        {
          "internalType": "uint256",
          "name": "_cursor",
          "type": "uint256"
        },
        {
          "internalType": "uint256",
          "name": "_count",
          "type": "uint256"
        }
      ],
      "name": "getAllBuyersWithBalances",
      "outputs": [
        {
          "internalType": "address[]",
          "name": "_buyers",
          "type": "address[]"
        },
        {
          "internalType": "uint256[]",
          "name": "_balances",
          "type": "uint256[]"
        },
        {
          "internalType": "uint256",
          "name": "_newCursor",
          "type": "uint256"
        }
      ],
      "stateMutability": "view",
      "type": "function"
    },
    {
      "inputs": [],
      "name": "getBuyersLength",
      "outputs": [
        {
          "internalType": "uint256",
          "name": "",
          "type": "uint256"
        }
      ],
      "stateMutability": "view",
      "type": "function"
    },
    {
      "inputs": [
        {
          "internalType": "uint256",
          "name": "_saleStart",
          "type": "uint256"
        },
        {
          "internalType": "uint256",
          "name": "_saleEnd",
          "type": "uint256"
        },
        {
          "internalType": "uint256",
          "name": "_salePrice",
          "type": "uint256"
        },
        {
          "internalType": "uint256",
          "name": "_maxSaleAmount",
          "type": "uint256"
        },
        {
          "internalType": "address[]",
          "name": "_allowedTokens",
          "type": "address[]"
        }
      ],
      "name": "initialize",
      "outputs": [],
      "stateMutability": "nonpayable",
      "type": "function"
    },
    {
      "inputs": [],
      "name": "maxSaleAmount",
      "outputs": [
        {
          "internalType": "uint256",
          "name": "",
          "type": "uint256"
        }
      ],
      "stateMutability": "view",
      "type": "function"
    },
    {
      "inputs": [],
      "name": "owner",
      "outputs": [
        {
          "internalType": "address",
          "name": "",
          "type": "address"
        }
      ],
      "stateMutability": "view",
      "type": "function"
    },
    {
      "inputs": [
        {
          "internalType": "address[]",
          "name": "_removedTokens",
          "type": "address[]"
        }
      ],
      "name": "removeAllowedTokens",
      "outputs": [],
      "stateMutability": "nonpayable",
      "type": "function"
    },
    {
      "inputs": [],
      "name": "renounceOwnership",
      "outputs": [],
      "stateMutability": "nonpayable",
      "type": "function"
    },
    {
      "inputs": [
        {
          "internalType": "address",
          "name": "_tokenAddr",
          "type": "address"
        },
        {
          "internalType": "address",
          "name": "_receiver",
          "type": "address"
        }
      ],
      "name": "retrieveToken",
      "outputs": [],
      "stateMutability": "nonpayable",
      "type": "function"
    },
    {
      "inputs": [],
      "name": "saleEnd",
      "outputs": [
        {
          "internalType": "uint256",
          "name": "",
          "type": "uint256"
        }
      ],
      "stateMutability": "view",
      "type": "function"
    },
    {
      "inputs": [],
      "name": "salePrice",
      "outputs": [
        {
          "internalType": "uint256",
          "name": "",
          "type": "uint256"
        }
      ],
      "stateMutability": "view",
      "type": "function"
    },
    {
      "inputs": [],
      "name": "saleStart",
      "outputs": [
        {
          "internalType": "uint256",
          "name": "",
          "type": "uint256"
        }
      ],
      "stateMutability": "view",
      "type": "function"
    },
    {
      "inputs": [
        {
          "internalType": "address",
          "name": "token",
          "type": "address"
        }
      ],
      "name": "tokenMultiplier",
      "outputs": [
        {
          "internalType": "uint256",
          "name": "multiplier",
          "type": "uint256"
        }
      ],
      "stateMutability": "view",
      "type": "function"
    },
    {
      "inputs": [],
      "name": "totalSold",
      "outputs": [
        {
          "internalType": "uint256",
          "name": "",
          "type": "uint256"
        }
      ],
      "stateMutability": "view",
      "type": "function"
    },
    {
      "inputs": [
        {
          "internalType": "address",
          "name": "newOwner",
          "type": "address"
        }
      ],
      "name": "transferOwnership",
      "outputs": [],
      "stateMutability": "nonpayable",
      "type": "function"
    },
    {
      "inputs": [
        {
          "internalType": "address",
          "name": "user",
          "type": "address"
        }
      ],
      "name": "userBalances",
      "outputs": [
        {
          "internalType": "uint256",
          "name": "balance",
          "type": "uint256"
        }
      ],
      "stateMutability": "view",
      "type": "function"
    }
  ],
  "transactionHash": "0x14ed553cf761c4a056d106bbe4648a60ebccf0a457cd06af46b91c3eda54c985",
  "args": [],
  "numDeployments": 1,
  "solcInputHash": "9d77c1b9c8a4cca5b0ac54c224496186",
  "bytecode": "0x6080604052348015600f57600080fd5b506016601a565b60d7565b600054610100900460ff161560855760405162461bcd60e51b815260206004820152602760248201527f496e697469616c697a61626c653a20636f6e747261637420697320696e697469604482015266616c697a696e6760c81b606482015260840160405180910390fd5b60005460ff9081161460d5576000805460ff191660ff9081179091556040519081527f7f26b83ff96e1f2b6a682f133852f6798a09c465da95921460cefb38474024989060200160405180910390a15b565b611619806100e66000396000f3fe608060405234801561001057600080fd5b506004361061014d5760003560e01c8063931415d6116100c3578063c5c2dc8b1161007c578063c5c2dc8b1461029c578063d95913b0146102af578063e744092e146102c2578063f2aa8218146102f5578063f2fde38b14610308578063f51f96dd1461031b57600080fd5b8063931415d61461022d5780639db963751461024f578063ab0bcc4114610257578063b2dc23c314610260578063b562089614610280578063c10b93581461029357600080fd5b8063392617671161011557806339261767146101be578063715018a6146101d15780637deb6025146101d95780638cf39d5f146101ec5780638da5cb5b146101ff5780639106d7ba1461022457600080fd5b806311226c341461015257806319a2ca441461016757806326224c64146101835780632961320c146101a357806330be0545146101b6575b600080fd5b6101656101603660046110b8565b610324565b005b61017060685481565b6040519081526020015b60405180910390f35b6101706101913660046110f6565b606a6020526000908152604090205481565b6101656101b1366004611118565b61033a565b606d54610170565b6101656101cc366004611197565b610433565b6101656106ef565b6101656101e7366004611201565b610703565b6101656101fa366004611224565b610ac1565b6033546001600160a01b03165b6040516001600160a01b03909116815260200161017a565b61017060695481565b61024061023b3660046110b8565b610b36565b60405161017a93929190611266565b610165610d0e565b61017060655481565b61017061026e3660046110f6565b606c6020526000908152604090205481565b61016561028e3660046112f9565b610d1d565b61017060665481565b6101656102aa366004611224565b610d80565b6101656102bd3660046112f9565b610ed3565b6102e56102d03660046110f6565b606b6020526000908152604090205460ff1681565b604051901515815260200161017a565b61020c6103033660046112f9565b610ee0565b6101656103163660046110f6565b610f0a565b61017060675481565b61032c610f83565b6103368282610fdd565b5050565b610342610f83565b6040516370a0823160e01b815230600482015273DE74ae223994a744e025DA8033370321B2d227C79063c66c253690849084906001600160a01b038316906370a0823190602401602060405180830381865afa1580156103a6573d6000803e3d6000fd5b505050506040513d601f19601f820116820180604052508101906103ca9190611312565b6040516001600160e01b031960e086901b1681526001600160a01b039384166004820152929091166024830152604482015260640160006040518083038186803b15801561041757600080fd5b505af415801561042b573d6000803e3d6000fd5b505050505050565b600054610100900460ff16158080156104535750600054600160ff909116105b8061046d5750303b15801561046d575060005460ff166001145b6104d55760405162461bcd60e51b815260206004820152602e60248201527f496e697469616c697a61626c653a20636f6e747261637420697320616c72656160448201526d191e481a5b9a5d1a585b1a5e995960921b60648201526084015b60405180910390fd5b6000805460ff1916600117905580156104f8576000805461ff0019166101001790555b600085116105185760405162461bcd60e51b81526004016104cc9061132b565b428710156105385760405162461bcd60e51b81526004016104cc9061136d565b6067859055606884905561054c8787610fdd565b60005b82811015610697576001606b600086868581811061056f5761056f6113bf565b905060200201602081019061058491906110f6565b6001600160a01b031681526020810191909152604001600020805460ff19169115159190911790558383828181106105be576105be6113bf565b90506020020160208101906105d391906110f6565b6001600160a01b031663313ce5676040518163ffffffff1660e01b8152600401602060405180830381865afa158015610610573d6000803e3d6000fd5b505050506040513d601f19601f8201168201806040525081019061063491906113d5565b61063f90601261140e565b61064a90600a611514565b606c6000868685818110610660576106606113bf565b905060200201602081019061067591906110f6565b6001600160a01b0316815260208101919091526040016000205560010161054f565b506106a0611007565b80156106e6576000805461ff0019169055604051600181527f7f26b83ff96e1f2b6a682f133852f6798a09c465da95921460cefb38474024989060200160405180910390a15b50505050505050565b6106f7610f83565b6107016000611036565b565b60655442101561076f5760405162461bcd60e51b815260206004820152603160248201527f546f6b656e53616c6552656769737465723a20746f6b656e2073616c652068616044820152701cc81b9bdd081cdd185c9d1959081e595d607a1b60648201526084016104cc565b6066544211156107d95760405162461bcd60e51b815260206004820152602f60248201527f546f6b656e53616c6552656769737465723a20746f6b656e2073616c6520686160448201526e1cc8185b1c9958591e48195b991959608a1b60648201526084016104cc565b6001600160a01b0381166000908152606b602052604090205460ff166108515760405162461bcd60e51b815260206004820152602760248201527f546f6b656e53616c6552656769737465723a20746f6b656e206973206e6f7420604482015266185b1b1bddd95960ca1b60648201526084016104cc565b6001600160a01b0381166000908152606c60205260408120546108749084611523565b90506000606754670de0b6b3a76400008361088f9190611523565b610899919061153a565b9050606854816069546108ac919061155c565b111561090d5760405162461bcd60e51b815260206004820152602a60248201527f546f6b656e53616c6552656769737465723a206d61782073616c6520616d6f756044820152691b9d081c995858da195960b21b60648201526084016104cc565b600081116109685760405162461bcd60e51b815260206004820152602260248201527f546f6b656e53616c6552656769737465723a207a65726f20706d7820616d6f756044820152611b9d60f21b60648201526084016104cc565b806069600082825461097a919061155c565b9091555050336000908152606a602052604081205490036109d857606d80546001810182556000919091527f5006b838207c6a9ae9b84d68f467dd4bb5c305fbfb6b04eab8faaabeec1e18d80180546001600160a01b031916331790555b336000908152606a6020526040812080548392906109f790849061155c565b909155505060405163c37f7f7f60e01b81526001600160a01b03841660048201523360248201526044810185905273DE74ae223994a744e025DA8033370321B2d227C79063c37f7f7f90606401602060405180830381865af4158015610a61573d6000803e3d6000fd5b505050506040513d601f19601f82011682018060405250810190610a859190611312565b5060405181815233907f840df612bc9052dfa7ac2e14fc52368ca7749154d9132b7601f59d329f787fd69060200160405180910390a250505050565b610ac9610f83565b60005b81811015610b31576000606b6000858585818110610aec57610aec6113bf565b9050602002016020810190610b0191906110f6565b6001600160a01b031681526020810191909152604001600020805460ff1916911515919091179055600101610acc565b505050565b606080600080610b45606d5490565b9050808610610b7157505060408051600080825260208201818152828401909352909350909150610d07565b80610b7c868861155c565b10610b9257610b8b8682611585565b9450610b9f565b610b9c858761155c565b91505b8467ffffffffffffffff811115610bb857610bb861156f565b604051908082528060200260200182016040528015610be1578160200160208202803683370190505b5093508467ffffffffffffffff811115610bfd57610bfd61156f565b604051908082528060200260200182016040528015610c26578160200160208202803683370190505b50925060005b85811015610d0457606d610c40828961155c565b81548110610c5057610c506113bf565b9060005260206000200160009054906101000a90046001600160a01b0316858281518110610c8057610c806113bf565b60200260200101906001600160a01b031690816001600160a01b031681525050606a6000868381518110610cb657610cb66113bf565b60200260200101516001600160a01b03166001600160a01b0316815260200190815260200160002054848281518110610cf157610cf16113bf565b6020908102919091010152600101610c2c565b50505b9250925092565b610d16610f83565b6000606655565b610d25610f83565b60008111610d455760405162461bcd60e51b81526004016104cc9061132b565b60678190556040518181527f595a30f13a69b616c4d568e2a2b7875fdfe86e4300a049953c76ee278f8f3f109060200160405180910390a150565b610d88610f83565b60005b81811015610b31576001606b6000858585818110610dab57610dab6113bf565b9050602002016020810190610dc091906110f6565b6001600160a01b031681526020810191909152604001600020805460ff1916911515919091179055828282818110610dfa57610dfa6113bf565b9050602002016020810190610e0f91906110f6565b6001600160a01b031663313ce5676040518163ffffffff1660e01b8152600401602060405180830381865afa158015610e4c573d6000803e3d6000fd5b505050506040513d601f19601f82011682018060405250810190610e7091906113d5565b610e7b90601261140e565b610e8690600a611514565b606c6000858585818110610e9c57610e9c6113bf565b9050602002016020810190610eb191906110f6565b6001600160a01b03168152602081019190915260400160002055600101610d8b565b610edb610f83565b606855565b606d8181548110610ef057600080fd5b6000918252602090912001546001600160a01b0316905081565b610f12610f83565b6001600160a01b038116610f775760405162461bcd60e51b815260206004820152602660248201527f4f776e61626c653a206e6577206f776e657220697320746865207a65726f206160448201526564647265737360d01b60648201526084016104cc565b610f8081611036565b50565b6033546001600160a01b031633146107015760405162461bcd60e51b815260206004820181905260248201527f4f776e61626c653a2063616c6c6572206973206e6f7420746865206f776e657260448201526064016104cc565b818111610ffc5760405162461bcd60e51b81526004016104cc9061136d565b606591909155606655565b600054610100900460ff1661102e5760405162461bcd60e51b81526004016104cc90611598565b610701611088565b603380546001600160a01b038381166001600160a01b0319831681179093556040519116919082907f8be0079c531659141344cd1fd0a4f28419497f9722a3daafe3b4186f6b6457e090600090a35050565b600054610100900460ff166110af5760405162461bcd60e51b81526004016104cc90611598565b61070133611036565b600080604083850312156110cb57600080fd5b50508035926020909101359150565b80356001600160a01b03811681146110f157600080fd5b919050565b60006020828403121561110857600080fd5b611111826110da565b9392505050565b6000806040838503121561112b57600080fd5b611134836110da565b9150611142602084016110da565b90509250929050565b60008083601f84011261115d57600080fd5b50813567ffffffffffffffff81111561117557600080fd5b6020830191508360208260051b850101111561119057600080fd5b9250929050565b60008060008060008060a087890312156111b057600080fd5b86359550602087013594506040870135935060608701359250608087013567ffffffffffffffff8111156111e357600080fd5b6111ef89828a0161114b565b979a9699509497509295939492505050565b6000806040838503121561121457600080fd5b82359150611142602084016110da565b6000806020838503121561123757600080fd5b823567ffffffffffffffff81111561124e57600080fd5b61125a8582860161114b565b90969095509350505050565b6060808252845190820181905260009060208601906080840190835b818110156112a95783516001600160a01b0316835260209384019390920191600101611282565b50508381036020808601919091528651808352918101925086019060005b818110156112e55782518452602093840193909201916001016112c7565b505050604092909201929092529392505050565b60006020828403121561130b57600080fd5b5035919050565b60006020828403121561132457600080fd5b5051919050565b60208082526022908201527f546f6b656e53616c6552656769737465723a207a65726f2073616c6520707269604082015261636560f01b606082015260800190565b60208082526032908201527f546f6b656e53616c6552656769737465723a20696e636f727265637420746f6b604082015271656e2073616c652074696d657374616d707360701b606082015260800190565b634e487b7160e01b600052603260045260246000fd5b6000602082840312156113e757600080fd5b815160ff8116811461111157600080fd5b634e487b7160e01b600052601160045260246000fd5b60ff8281168282160390811115611427576114276113f8565b92915050565b6001815b60018411156114685780850481111561144c5761144c6113f8565b600184161561145a57908102905b60019390931c928002611431565b935093915050565b60008261147f57506001611427565b8161148c57506000611427565b81600181146114a257600281146114ac576114c8565b6001915050611427565b60ff8411156114bd576114bd6113f8565b50506001821b611427565b5060208310610133831016604e8410600b84101617156114eb575081810a611427565b6114f8600019848461142d565b806000190482111561150c5761150c6113f8565b029392505050565b600061111160ff841683611470565b8082028115828204841417611427576114276113f8565b60008261155757634e487b7160e01b600052601260045260246000fd5b500490565b80820180821115611427576114276113f8565b634e487b7160e01b600052604160045260246000fd5b81810381811115611427576114276113f8565b6020808252602b908201527f496e697469616c697a61626c653a20636f6e7472616374206973206e6f74206960408201526a6e697469616c697a696e6760a81b60608201526080019056fea264697066735822122053d9a9929895b4d3119f6bb1d4a0aa21e1a6fb2bdd0ad4ac3d61543773468ae964736f6c634300081a0033",
  "deployedBytecode": "0x608060405234801561001057600080fd5b506004361061014d5760003560e01c8063931415d6116100c3578063c5c2dc8b1161007c578063c5c2dc8b1461029c578063d95913b0146102af578063e744092e146102c2578063f2aa8218146102f5578063f2fde38b14610308578063f51f96dd1461031b57600080fd5b8063931415d61461022d5780639db963751461024f578063ab0bcc4114610257578063b2dc23c314610260578063b562089614610280578063c10b93581461029357600080fd5b8063392617671161011557806339261767146101be578063715018a6146101d15780637deb6025146101d95780638cf39d5f146101ec5780638da5cb5b146101ff5780639106d7ba1461022457600080fd5b806311226c341461015257806319a2ca441461016757806326224c64146101835780632961320c146101a357806330be0545146101b6575b600080fd5b6101656101603660046110b8565b610324565b005b61017060685481565b6040519081526020015b60405180910390f35b6101706101913660046110f6565b606a6020526000908152604090205481565b6101656101b1366004611118565b61033a565b606d54610170565b6101656101cc366004611197565b610433565b6101656106ef565b6101656101e7366004611201565b610703565b6101656101fa366004611224565b610ac1565b6033546001600160a01b03165b6040516001600160a01b03909116815260200161017a565b61017060695481565b61024061023b3660046110b8565b610b36565b60405161017a93929190611266565b610165610d0e565b61017060655481565b61017061026e3660046110f6565b606c6020526000908152604090205481565b61016561028e3660046112f9565b610d1d565b61017060665481565b6101656102aa366004611224565b610d80565b6101656102bd3660046112f9565b610ed3565b6102e56102d03660046110f6565b606b6020526000908152604090205460ff1681565b604051901515815260200161017a565b61020c6103033660046112f9565b610ee0565b6101656103163660046110f6565b610f0a565b61017060675481565b61032c610f83565b6103368282610fdd565b5050565b610342610f83565b6040516370a0823160e01b815230600482015273__$0374a552468b4533ee1eff015be16d3a4f$__9063c66c253690849084906001600160a01b038316906370a0823190602401602060405180830381865afa1580156103a6573d6000803e3d6000fd5b505050506040513d601f19601f820116820180604052508101906103ca9190611312565b6040516001600160e01b031960e086901b1681526001600160a01b039384166004820152929091166024830152604482015260640160006040518083038186803b15801561041757600080fd5b505af415801561042b573d6000803e3d6000fd5b505050505050565b600054610100900460ff16158080156104535750600054600160ff909116105b8061046d5750303b15801561046d575060005460ff166001145b6104d55760405162461bcd60e51b815260206004820152602e60248201527f496e697469616c697a61626c653a20636f6e747261637420697320616c72656160448201526d191e481a5b9a5d1a585b1a5e995960921b60648201526084015b60405180910390fd5b6000805460ff1916600117905580156104f8576000805461ff0019166101001790555b600085116105185760405162461bcd60e51b81526004016104cc9061132b565b428710156105385760405162461bcd60e51b81526004016104cc9061136d565b6067859055606884905561054c8787610fdd565b60005b82811015610697576001606b600086868581811061056f5761056f6113bf565b905060200201602081019061058491906110f6565b6001600160a01b031681526020810191909152604001600020805460ff19169115159190911790558383828181106105be576105be6113bf565b90506020020160208101906105d391906110f6565b6001600160a01b031663313ce5676040518163ffffffff1660e01b8152600401602060405180830381865afa158015610610573d6000803e3d6000fd5b505050506040513d601f19601f8201168201806040525081019061063491906113d5565b61063f90601261140e565b61064a90600a611514565b606c6000868685818110610660576106606113bf565b905060200201602081019061067591906110f6565b6001600160a01b0316815260208101919091526040016000205560010161054f565b506106a0611007565b80156106e6576000805461ff0019169055604051600181527f7f26b83ff96e1f2b6a682f133852f6798a09c465da95921460cefb38474024989060200160405180910390a15b50505050505050565b6106f7610f83565b6107016000611036565b565b60655442101561076f5760405162461bcd60e51b815260206004820152603160248201527f546f6b656e53616c6552656769737465723a20746f6b656e2073616c652068616044820152701cc81b9bdd081cdd185c9d1959081e595d607a1b60648201526084016104cc565b6066544211156107d95760405162461bcd60e51b815260206004820152602f60248201527f546f6b656e53616c6552656769737465723a20746f6b656e2073616c6520686160448201526e1cc8185b1c9958591e48195b991959608a1b60648201526084016104cc565b6001600160a01b0381166000908152606b602052604090205460ff166108515760405162461bcd60e51b815260206004820152602760248201527f546f6b656e53616c6552656769737465723a20746f6b656e206973206e6f7420604482015266185b1b1bddd95960ca1b60648201526084016104cc565b6001600160a01b0381166000908152606c60205260408120546108749084611523565b90506000606754670de0b6b3a76400008361088f9190611523565b610899919061153a565b9050606854816069546108ac919061155c565b111561090d5760405162461bcd60e51b815260206004820152602a60248201527f546f6b656e53616c6552656769737465723a206d61782073616c6520616d6f756044820152691b9d081c995858da195960b21b60648201526084016104cc565b600081116109685760405162461bcd60e51b815260206004820152602260248201527f546f6b656e53616c6552656769737465723a207a65726f20706d7820616d6f756044820152611b9d60f21b60648201526084016104cc565b806069600082825461097a919061155c565b9091555050336000908152606a602052604081205490036109d857606d80546001810182556000919091527f5006b838207c6a9ae9b84d68f467dd4bb5c305fbfb6b04eab8faaabeec1e18d80180546001600160a01b031916331790555b336000908152606a6020526040812080548392906109f790849061155c565b909155505060405163c37f7f7f60e01b81526001600160a01b03841660048201523360248201526044810185905273__$0374a552468b4533ee1eff015be16d3a4f$__9063c37f7f7f90606401602060405180830381865af4158015610a61573d6000803e3d6000fd5b505050506040513d601f19601f82011682018060405250810190610a859190611312565b5060405181815233907f840df612bc9052dfa7ac2e14fc52368ca7749154d9132b7601f59d329f787fd69060200160405180910390a250505050565b610ac9610f83565b60005b81811015610b31576000606b6000858585818110610aec57610aec6113bf565b9050602002016020810190610b0191906110f6565b6001600160a01b031681526020810191909152604001600020805460ff1916911515919091179055600101610acc565b505050565b606080600080610b45606d5490565b9050808610610b7157505060408051600080825260208201818152828401909352909350909150610d07565b80610b7c868861155c565b10610b9257610b8b8682611585565b9450610b9f565b610b9c858761155c565b91505b8467ffffffffffffffff811115610bb857610bb861156f565b604051908082528060200260200182016040528015610be1578160200160208202803683370190505b5093508467ffffffffffffffff811115610bfd57610bfd61156f565b604051908082528060200260200182016040528015610c26578160200160208202803683370190505b50925060005b85811015610d0457606d610c40828961155c565b81548110610c5057610c506113bf565b9060005260206000200160009054906101000a90046001600160a01b0316858281518110610c8057610c806113bf565b60200260200101906001600160a01b031690816001600160a01b031681525050606a6000868381518110610cb657610cb66113bf565b60200260200101516001600160a01b03166001600160a01b0316815260200190815260200160002054848281518110610cf157610cf16113bf565b6020908102919091010152600101610c2c565b50505b9250925092565b610d16610f83565b6000606655565b610d25610f83565b60008111610d455760405162461bcd60e51b81526004016104cc9061132b565b60678190556040518181527f595a30f13a69b616c4d568e2a2b7875fdfe86e4300a049953c76ee278f8f3f109060200160405180910390a150565b610d88610f83565b60005b81811015610b31576001606b6000858585818110610dab57610dab6113bf565b9050602002016020810190610dc091906110f6565b6001600160a01b031681526020810191909152604001600020805460ff1916911515919091179055828282818110610dfa57610dfa6113bf565b9050602002016020810190610e0f91906110f6565b6001600160a01b031663313ce5676040518163ffffffff1660e01b8152600401602060405180830381865afa158015610e4c573d6000803e3d6000fd5b505050506040513d601f19601f82011682018060405250810190610e7091906113d5565b610e7b90601261140e565b610e8690600a611514565b606c6000858585818110610e9c57610e9c6113bf565b9050602002016020810190610eb191906110f6565b6001600160a01b03168152602081019190915260400160002055600101610d8b565b610edb610f83565b606855565b606d8181548110610ef057600080fd5b6000918252602090912001546001600160a01b0316905081565b610f12610f83565b6001600160a01b038116610f775760405162461bcd60e51b815260206004820152602660248201527f4f776e61626c653a206e6577206f776e657220697320746865207a65726f206160448201526564647265737360d01b60648201526084016104cc565b610f8081611036565b50565b6033546001600160a01b031633146107015760405162461bcd60e51b815260206004820181905260248201527f4f776e61626c653a2063616c6c6572206973206e6f7420746865206f776e657260448201526064016104cc565b818111610ffc5760405162461bcd60e51b81526004016104cc9061136d565b606591909155606655565b600054610100900460ff1661102e5760405162461bcd60e51b81526004016104cc90611598565b610701611088565b603380546001600160a01b038381166001600160a01b0319831681179093556040519116919082907f8be0079c531659141344cd1fd0a4f28419497f9722a3daafe3b4186f6b6457e090600090a35050565b600054610100900460ff166110af5760405162461bcd60e51b81526004016104cc90611598565b61070133611036565b600080604083850312156110cb57600080fd5b50508035926020909101359150565b80356001600160a01b03811681146110f157600080fd5b919050565b60006020828403121561110857600080fd5b611111826110da565b9392505050565b6000806040838503121561112b57600080fd5b611134836110da565b9150611142602084016110da565b90509250929050565b60008083601f84011261115d57600080fd5b50813567ffffffffffffffff81111561117557600080fd5b6020830191508360208260051b850101111561119057600080fd5b9250929050565b60008060008060008060a087890312156111b057600080fd5b86359550602087013594506040870135935060608701359250608087013567ffffffffffffffff8111156111e357600080fd5b6111ef89828a0161114b565b979a9699509497509295939492505050565b6000806040838503121561121457600080fd5b82359150611142602084016110da565b6000806020838503121561123757600080fd5b823567ffffffffffffffff81111561124e57600080fd5b61125a8582860161114b565b90969095509350505050565b6060808252845190820181905260009060208601906080840190835b818110156112a95783516001600160a01b0316835260209384019390920191600101611282565b50508381036020808601919091528651808352918101925086019060005b818110156112e55782518452602093840193909201916001016112c7565b505050604092909201929092529392505050565b60006020828403121561130b57600080fd5b5035919050565b60006020828403121561132457600080fd5b5051919050565b60208082526022908201527f546f6b656e53616c6552656769737465723a207a65726f2073616c6520707269604082015261636560f01b606082015260800190565b60208082526032908201527f546f6b656e53616c6552656769737465723a20696e636f727265637420746f6b604082015271656e2073616c652074696d657374616d707360701b606082015260800190565b634e487b7160e01b600052603260045260246000fd5b6000602082840312156113e757600080fd5b815160ff8116811461111157600080fd5b634e487b7160e01b600052601160045260246000fd5b60ff8281168282160390811115611427576114276113f8565b92915050565b6001815b60018411156114685780850481111561144c5761144c6113f8565b600184161561145a57908102905b60019390931c928002611431565b935093915050565b60008261147f57506001611427565b8161148c57506000611427565b81600181146114a257600281146114ac576114c8565b6001915050611427565b60ff8411156114bd576114bd6113f8565b50506001821b611427565b5060208310610133831016604e8410600b84101617156114eb575081810a611427565b6114f8600019848461142d565b806000190482111561150c5761150c6113f8565b029392505050565b600061111160ff841683611470565b8082028115828204841417611427576114276113f8565b60008261155757634e487b7160e01b600052601260045260246000fd5b500490565b80820180821115611427576114276113f8565b634e487b7160e01b600052604160045260246000fd5b81810381811115611427576114276113f8565b6020808252602b908201527f496e697469616c697a61626c653a20636f6e7472616374206973206e6f74206960408201526a6e697469616c697a696e6760a81b60608201526080019056fea264697066735822122053d9a9929895b4d3119f6bb1d4a0aa21e1a6fb2bdd0ad4ac3d61543773468ae964736f6c634300081a0033",
  "libraries": {
    "TokenTransfersLibrary": "0xDE74ae223994a744e025DA8033370321B2d227C7"
  },
  "devdoc": {
    "events": {
      "Initialized(uint8)": {
        "details": "Triggered when the contract has been initialized or reinitialized."
      }
    },
    "kind": "dev",
    "methods": {
      "addAllowedTokens(address[])": {
        "params": {
          "_allowedTokens": "the array of allowed tokens"
        }
      },
      "buy(uint256,address)": {
        "params": {
          "_buyForToken": "For what token the pmx will be purchased",
          "_investmentAmount": "the amount in usdt/usdc for which the pmx will be bought"
        }
      },
      "changeMaxSaleAmount(uint256)": {
        "params": {
          "_maxSaleAmount": "the maximum amount of the PMX that can be sold"
        }
      },
      "changeSalePrice(uint256)": {
        "params": {
          "_salePrice": "The new sale rate in WAD format to be set."
        }
      },
      "changeTimestamps(uint256,uint256)": {
        "params": {
          "_saleEnd": "the timestamp at which the token sale will end",
          "_saleStart": "the timestamp at which the token sale will begin"
        }
      },
      "initialize(uint256,uint256,uint256,uint256,address[])": {
        "details": "This function should only be called once during the initial setup of the contract.",
        "params": {
          "_allowedTokens": "Array of tokens that can be used to buy pmx",
          "_maxSaleAmount": "the maximum amount of the PMX that can be sold",
          "_saleEnd": "the timestamp at which the token sale will end",
          "_salePrice": "the sale price in WAD",
          "_saleStart": "the timestamp at which the token sale will begin"
        }
      },
      "owner()": {
        "details": "Returns the address of the current owner."
      },
      "removeAllowedTokens(address[])": {
        "params": {
          "_removedTokens": "the array of removed tokens"
        }
      },
      "renounceOwnership()": {
        "details": "Leaves the contract without owner. It will not be possible to call `onlyOwner` functions. Can only be called by the current owner. NOTE: Renouncing ownership will leave the contract without an owner, thereby disabling any functionality that is only available to the owner."
      },
      "retrieveToken(address,address)": {
        "params": {
          "_receiver": "The address that will receive the retrieved tokens",
          "_tokenAddr": "Address of the ERC20 token to retrieve"
        }
      },
      "transferOwnership(address)": {
        "details": "Transfers ownership of the contract to a new account (`newOwner`). Can only be called by the current owner."
      }
    },
    "version": 1
  },
  "userdoc": {
    "kind": "user",
    "methods": {
      "addAllowedTokens(address[])": {
        "notice": "Adds the new allowed tokens Only callable by the owner"
      },
      "buy(uint256,address)": {
        "notice": "buys some pmx amount and writes it to the sender's balance"
      },
      "changeMaxSaleAmount(uint256)": {
        "notice": "Sets the new max sale amount; Only callable by the owner"
      },
      "changeSalePrice(uint256)": {
        "notice": "Sets the new sale rate Only callable by the owner"
      },
      "changeTimestamps(uint256,uint256)": {
        "notice": "Sets the new sale timestamps Only callable by the owner"
      },
      "completeTokenSale()": {
        "notice": "Sets the saleEnd to zero, thereby stopping the token sale"
      },
      "initialize(uint256,uint256,uint256,uint256,address[])": {
        "notice": "Initializes the TokenSaleRegister contract."
      },
      "removeAllowedTokens(address[])": {
        "notice": "Removes the tokens from the allowedTokens map Only callable by the owner"
      },
      "retrieveToken(address,address)": {
        "notice": "Used to recover non-PMX ERC20 tokens"
      }
    },
    "version": 1
  },
  "storageLayout": {
    "storage": [
      {
        "astId": 139,
        "contract": "contracts/TokenSaleRegister.sol:TokenSaleRegister",
        "label": "_initialized",
        "offset": 0,
        "slot": "0",
        "type": "t_uint8"
      },
      {
        "astId": 142,
        "contract": "contracts/TokenSaleRegister.sol:TokenSaleRegister",
        "label": "_initializing",
        "offset": 1,
        "slot": "0",
        "type": "t_bool"
      },
      {
        "astId": 681,
        "contract": "contracts/TokenSaleRegister.sol:TokenSaleRegister",
        "label": "__gap",
        "offset": 0,
        "slot": "1",
        "type": "t_array(t_uint256)50_storage"
      },
      {
        "astId": 11,
        "contract": "contracts/TokenSaleRegister.sol:TokenSaleRegister",
        "label": "_owner",
        "offset": 0,
        "slot": "51",
        "type": "t_address"
      },
      {
        "astId": 131,
        "contract": "contracts/TokenSaleRegister.sol:TokenSaleRegister",
        "label": "__gap",
        "offset": 0,
        "slot": "52",
        "type": "t_array(t_uint256)49_storage"
      },
      {
        "astId": 2140,
        "contract": "contracts/TokenSaleRegister.sol:TokenSaleRegister",
        "label": "saleStart",
        "offset": 0,
        "slot": "101",
        "type": "t_uint256"
      },
      {
        "astId": 2143,
        "contract": "contracts/TokenSaleRegister.sol:TokenSaleRegister",
        "label": "saleEnd",
        "offset": 0,
        "slot": "102",
        "type": "t_uint256"
      },
      {
        "astId": 2146,
        "contract": "contracts/TokenSaleRegister.sol:TokenSaleRegister",
        "label": "salePrice",
        "offset": 0,
        "slot": "103",
        "type": "t_uint256"
      },
      {
        "astId": 2149,
        "contract": "contracts/TokenSaleRegister.sol:TokenSaleRegister",
        "label": "maxSaleAmount",
        "offset": 0,
        "slot": "104",
        "type": "t_uint256"
      },
      {
        "astId": 2152,
        "contract": "contracts/TokenSaleRegister.sol:TokenSaleRegister",
        "label": "totalSold",
        "offset": 0,
        "slot": "105",
        "type": "t_uint256"
      },
      {
        "astId": 2156,
        "contract": "contracts/TokenSaleRegister.sol:TokenSaleRegister",
        "label": "userBalances",
        "offset": 0,
        "slot": "106",
        "type": "t_mapping(t_address,t_uint256)"
      },
      {
        "astId": 2160,
        "contract": "contracts/TokenSaleRegister.sol:TokenSaleRegister",
        "label": "allowedTokens",
        "offset": 0,
        "slot": "107",
        "type": "t_mapping(t_address,t_bool)"
      },
      {
        "astId": 2164,
        "contract": "contracts/TokenSaleRegister.sol:TokenSaleRegister",
        "label": "tokenMultiplier",
        "offset": 0,
        "slot": "108",
        "type": "t_mapping(t_address,t_uint256)"
      },
      {
        "astId": 2167,
        "contract": "contracts/TokenSaleRegister.sol:TokenSaleRegister",
        "label": "buyers",
        "offset": 0,
        "slot": "109",
        "type": "t_array(t_address)dyn_storage"
      }
    ],
    "types": {
      "t_address": {
        "encoding": "inplace",
        "label": "address",
        "numberOfBytes": "20"
      },
      "t_array(t_address)dyn_storage": {
        "base": "t_address",
        "encoding": "dynamic_array",
        "label": "address[]",
        "numberOfBytes": "32"
      },
      "t_array(t_uint256)49_storage": {
        "base": "t_uint256",
        "encoding": "inplace",
        "label": "uint256[49]",
        "numberOfBytes": "1568"
      },
      "t_array(t_uint256)50_storage": {
        "base": "t_uint256",
        "encoding": "inplace",
        "label": "uint256[50]",
        "numberOfBytes": "1600"
      },
      "t_bool": {
        "encoding": "inplace",
        "label": "bool",
        "numberOfBytes": "1"
      },
      "t_mapping(t_address,t_bool)": {
        "encoding": "mapping",
        "key": "t_address",
        "label": "mapping(address => bool)",
        "numberOfBytes": "32",
        "value": "t_bool"
      },
      "t_mapping(t_address,t_uint256)": {
        "encoding": "mapping",
        "key": "t_address",
        "label": "mapping(address => uint256)",
        "numberOfBytes": "32",
        "value": "t_uint256"
      },
      "t_uint256": {
        "encoding": "inplace",
        "label": "uint256",
        "numberOfBytes": "32"
      },
      "t_uint8": {
        "encoding": "inplace",
        "label": "uint8",
        "numberOfBytes": "1"
      }
    }
  }
}